{
  "_format": "hh-sol-artifact-1",
  "contractName": "SimpleEvent",
  "sourceName": "contracts/SimpleEvent.sol",
  "abi": [
    {
      "inputs": [
        {
          "internalType": "string[]",
          "name": "_categories",
          "type": "string[]"
        },
        {
          "internalType": "uint256[]",
          "name": "_categoryPrices",
          "type": "uint256[]"
        },
        {
          "internalType": "uint256[]",
          "name": "_categoryLimits",
          "type": "uint256[]"
        },
        {
          "internalType": "string",
          "name": "_eventName",
          "type": "string"
        },
        {
          "internalType": "string",
          "name": "_dateTime",
          "type": "string"
        },
        {
          "internalType": "string",
          "name": "_venue",
          "type": "string"
        },
        {
          "internalType": "uint256",
          "name": "_commission",
          "type": "uint256"
        },
        {
          "internalType": "uint256",
          "name": "_maxTicketPerAddress",
          "type": "uint256"
        },
        {
          "internalType": "string",
          "name": "_eventSymbol",
          "type": "string"
        }
      ],
      "stateMutability": "payable",
      "type": "constructor"
    },
    {
      "anonymous": false,
      "inputs": [
        {
          "indexed": true,
          "internalType": "address",
          "name": "owner",
          "type": "address"
        },
        {
          "indexed": true,
          "internalType": "address",
          "name": "approved",
          "type": "address"
        },
        {
          "indexed": true,
          "internalType": "uint256",
          "name": "tokenId",
          "type": "uint256"
        }
      ],
      "name": "Approval",
      "type": "event"
    },
    {
      "anonymous": false,
      "inputs": [
        {
          "indexed": true,
          "internalType": "address",
          "name": "owner",
          "type": "address"
        },
        {
          "indexed": true,
          "internalType": "address",
          "name": "operator",
          "type": "address"
        },
        {
          "indexed": false,
          "internalType": "bool",
          "name": "approved",
          "type": "bool"
        }
      ],
      "name": "ApprovalForAll",
      "type": "event"
    },
    {
      "anonymous": false,
      "inputs": [
        {
          "indexed": true,
          "internalType": "address",
          "name": "previousOwner",
          "type": "address"
        },
        {
          "indexed": true,
          "internalType": "address",
          "name": "newOwner",
          "type": "address"
        }
      ],
      "name": "OwnershipTransferred",
      "type": "event"
    },
    {
      "anonymous": false,
      "inputs": [
        {
          "indexed": true,
          "internalType": "address",
          "name": "from",
          "type": "address"
        },
        {
          "indexed": true,
          "internalType": "address",
          "name": "to",
          "type": "address"
        },
        {
          "indexed": true,
          "internalType": "uint256",
          "name": "tokenId",
          "type": "uint256"
        }
      ],
      "name": "Transfer",
      "type": "event"
    },
    {
      "anonymous": false,
      "inputs": [
        {
          "indexed": false,
          "internalType": "uint256",
          "name": "tokenId",
          "type": "uint256"
        },
        {
          "indexed": false,
          "internalType": "address",
          "name": "user",
          "type": "address"
        }
      ],
      "name": "checkedIn",
      "type": "event"
    },
    {
      "anonymous": false,
      "inputs": [
        {
          "indexed": false,
          "internalType": "uint256",
          "name": "tokenId",
          "type": "uint256"
        },
        {
          "indexed": false,
          "internalType": "address",
          "name": "user",
          "type": "address"
        },
        {
          "indexed": false,
          "internalType": "uint256",
          "name": "price",
          "type": "uint256"
        }
      ],
      "name": "ticketListed",
      "type": "event"
    },
    {
      "anonymous": false,
      "inputs": [
        {
          "indexed": false,
          "internalType": "uint256",
          "name": "tokenId",
          "type": "uint256"
        },
        {
          "indexed": false,
          "internalType": "address",
          "name": "recipient",
          "type": "address"
        }
      ],
      "name": "ticketMinted",
      "type": "event"
    },
    {
      "anonymous": false,
      "inputs": [
        {
          "indexed": false,
          "internalType": "uint256",
          "name": "tokenId",
          "type": "uint256"
        },
        {
          "indexed": false,
          "internalType": "address",
          "name": "user",
          "type": "address"
        }
      ],
      "name": "ticketUnlisted",
      "type": "event"
    },
    {
      "anonymous": false,
      "inputs": [
        {
          "indexed": false,
          "internalType": "address",
          "name": "user",
          "type": "address"
        }
      ],
      "name": "userMints",
      "type": "event"
    },
    {
      "inputs": [
        {
          "internalType": "address",
          "name": "to",
          "type": "address"
        },
        {
          "internalType": "uint256",
          "name": "tokenId",
          "type": "uint256"
        }
      ],
      "name": "approve",
      "outputs": [],
      "stateMutability": "nonpayable",
      "type": "function"
    },
    {
      "inputs": [
        {
          "internalType": "address",
          "name": "owner",
          "type": "address"
        }
      ],
      "name": "balanceOf",
      "outputs": [
        {
          "internalType": "uint256",
          "name": "",
          "type": "uint256"
        }
      ],
      "stateMutability": "view",
      "type": "function"
    },
    {
      "inputs": [
        {
          "internalType": "uint256",
          "name": "tokenId",
          "type": "uint256"
        }
      ],
      "name": "checkIn",
      "outputs": [],
      "stateMutability": "nonpayable",
      "type": "function"
    },
    {
      "inputs": [],
      "name": "eventCancelled",
      "outputs": [],
      "stateMutability": "nonpayable",
      "type": "function"
    },
    {
      "inputs": [
        {
          "internalType": "uint256",
          "name": "tokenId",
          "type": "uint256"
        }
      ],
      "name": "expiredTicket",
      "outputs": [],
      "stateMutability": "nonpayable",
      "type": "function"
    },
    {
      "inputs": [
        {
          "internalType": "uint256",
          "name": "tokenId",
          "type": "uint256"
        }
      ],
      "name": "getApproved",
      "outputs": [
        {
          "internalType": "address",
          "name": "",
          "type": "address"
        }
      ],
      "stateMutability": "view",
      "type": "function"
    },
    {
      "inputs": [
        {
          "internalType": "string",
          "name": "category",
          "type": "string"
        }
      ],
      "name": "getCategoryInformation",
      "outputs": [
        {
          "internalType": "uint256",
          "name": "_price",
          "type": "uint256"
        },
        {
          "internalType": "uint256",
          "name": "_maxNumber",
          "type": "uint256"
        },
        {
          "internalType": "uint256",
          "name": "_currentSupply",
          "type": "uint256"
        }
      ],
      "stateMutability": "view",
      "type": "function"
    },
    {
      "inputs": [],
      "name": "getCommission",
      "outputs": [
        {
          "internalType": "uint256",
          "name": "",
          "type": "uint256"
        }
      ],
      "stateMutability": "view",
      "type": "function"
    },
    {
      "inputs": [
        {
          "internalType": "uint256",
          "name": "tokenId",
          "type": "uint256"
        }
      ],
      "name": "getTicketDetails",
      "outputs": [
        {
          "components": [
            {
              "internalType": "address",
              "name": "organizer",
              "type": "address"
            },
            {
              "internalType": "address",
              "name": "ticketOwner",
              "type": "address"
            },
            {
              "components": [
                {
                  "internalType": "string",
                  "name": "category",
                  "type": "string"
                },
                {
                  "internalType": "uint256",
                  "name": "price",
                  "type": "uint256"
                },
                {
                  "internalType": "uint256",
                  "name": "maxNumber",
                  "type": "uint256"
                },
                {
                  "internalType": "uint256",
                  "name": "currentSupply",
                  "type": "uint256"
                }
              ],
              "internalType": "struct SimpleEvent.Category",
              "name": "category",
              "type": "tuple"
            },
            {
              "internalType": "uint256",
              "name": "currentPrice",
              "type": "uint256"
            },
            {
              "internalType": "enum SimpleEvent.ticketStatus",
              "name": "_ticketStatus",
              "type": "uint8"
            },
            {
              "internalType": "bool",
              "name": "ticketListing",
              "type": "bool"
            },
            {
              "internalType": "bool",
              "name": "checkIn",
              "type": "bool"
            }
          ],
          "internalType": "struct SimpleEvent.Ticket",
          "name": "ticket",
          "type": "tuple"
        }
      ],
      "stateMutability": "view",
      "type": "function"
    },
    {
      "inputs": [],
      "name": "getTokenSupply",
      "outputs": [
        {
          "internalType": "uint256",
          "name": "",
          "type": "uint256"
        }
      ],
      "stateMutability": "view",
      "type": "function"
    },
    {
      "inputs": [
        {
          "internalType": "address",
          "name": "owner",
          "type": "address"
        },
        {
          "internalType": "address",
          "name": "operator",
          "type": "address"
        }
      ],
      "name": "isApprovedForAll",
      "outputs": [
        {
          "internalType": "bool",
          "name": "",
          "type": "bool"
        }
      ],
      "stateMutability": "view",
      "type": "function"
    },
    {
      "inputs": [
        {
          "internalType": "string",
          "name": "category",
          "type": "string"
        },
        {
          "internalType": "string",
          "name": "tokenURI",
          "type": "string"
        }
      ],
      "name": "mint",
      "outputs": [
        {
          "internalType": "uint256",
          "name": "",
          "type": "uint256"
        }
      ],
      "stateMutability": "payable",
      "type": "function"
    },
    {
      "inputs": [],
      "name": "name",
      "outputs": [
        {
          "internalType": "string",
          "name": "",
          "type": "string"
        }
      ],
      "stateMutability": "view",
      "type": "function"
    },
    {
      "inputs": [],
      "name": "owner",
      "outputs": [
        {
          "internalType": "address",
          "name": "",
          "type": "address"
        }
      ],
      "stateMutability": "view",
      "type": "function"
    },
    {
      "inputs": [
        {
          "internalType": "uint256",
          "name": "tokenId",
          "type": "uint256"
        }
      ],
      "name": "ownerOf",
      "outputs": [
        {
          "internalType": "address",
          "name": "",
          "type": "address"
        }
      ],
      "stateMutability": "view",
      "type": "function"
    },
    {
      "inputs": [],
      "name": "renounceOwnership",
      "outputs": [],
      "stateMutability": "nonpayable",
      "type": "function"
    },
    {
      "inputs": [
        {
          "internalType": "address",
          "name": "from",
          "type": "address"
        },
        {
          "internalType": "address",
          "name": "to",
          "type": "address"
        },
        {
          "internalType": "uint256",
          "name": "tokenId",
          "type": "uint256"
        }
      ],
      "name": "safeTransferFrom",
      "outputs": [],
      "stateMutability": "nonpayable",
      "type": "function"
    },
    {
      "inputs": [
        {
          "internalType": "address",
          "name": "from",
          "type": "address"
        },
        {
          "internalType": "address",
          "name": "to",
          "type": "address"
        },
        {
          "internalType": "uint256",
          "name": "tokenId",
          "type": "uint256"
        },
        {
          "internalType": "bytes",
          "name": "data",
          "type": "bytes"
        }
      ],
      "name": "safeTransferFrom",
      "outputs": [],
      "stateMutability": "nonpayable",
      "type": "function"
    },
    {
      "inputs": [
        {
          "internalType": "address",
          "name": "operator",
          "type": "address"
        },
        {
          "internalType": "bool",
          "name": "approved",
          "type": "bool"
        }
      ],
      "name": "setApprovalForAll",
      "outputs": [],
      "stateMutability": "nonpayable",
      "type": "function"
    },
    {
      "inputs": [
        {
          "internalType": "uint256",
          "name": "tokenId",
          "type": "uint256"
        },
        {
          "internalType": "string",
          "name": "tokenURI",
          "type": "string"
        }
      ],
      "name": "setNewTokenURI",
      "outputs": [],
      "stateMutability": "nonpayable",
      "type": "function"
    },
    {
      "inputs": [
        {
          "internalType": "bytes4",
          "name": "interfaceId",
          "type": "bytes4"
        }
      ],
      "name": "supportsInterface",
      "outputs": [
        {
          "internalType": "bool",
          "name": "",
          "type": "bool"
        }
      ],
      "stateMutability": "view",
      "type": "function"
    },
    {
      "inputs": [],
      "name": "symbol",
      "outputs": [
        {
          "internalType": "string",
          "name": "",
          "type": "string"
        }
      ],
      "stateMutability": "view",
      "type": "function"
    },
    {
      "inputs": [
        {
          "internalType": "uint256",
          "name": "",
          "type": "uint256"
        }
      ],
      "name": "ticketIDs",
      "outputs": [
        {
          "internalType": "address",
          "name": "organizer",
          "type": "address"
        },
        {
          "internalType": "address",
          "name": "ticketOwner",
          "type": "address"
        },
        {
          "components": [
            {
              "internalType": "string",
              "name": "category",
              "type": "string"
            },
            {
              "internalType": "uint256",
              "name": "price",
              "type": "uint256"
            },
            {
              "internalType": "uint256",
              "name": "maxNumber",
              "type": "uint256"
            },
            {
              "internalType": "uint256",
              "name": "currentSupply",
              "type": "uint256"
            }
          ],
          "internalType": "struct SimpleEvent.Category",
          "name": "category",
          "type": "tuple"
        },
        {
          "internalType": "uint256",
          "name": "currentPrice",
          "type": "uint256"
        },
        {
          "internalType": "enum SimpleEvent.ticketStatus",
          "name": "_ticketStatus",
          "type": "uint8"
        },
        {
          "internalType": "bool",
          "name": "ticketListing",
          "type": "bool"
        },
        {
          "internalType": "bool",
          "name": "checkIn",
          "type": "bool"
        }
      ],
      "stateMutability": "view",
      "type": "function"
    },
    {
      "inputs": [
        {
          "internalType": "address",
          "name": "",
          "type": "address"
        }
      ],
      "name": "ticketsPerOwner",
      "outputs": [
        {
          "internalType": "uint256",
          "name": "",
          "type": "uint256"
        }
      ],
      "stateMutability": "view",
      "type": "function"
    },
    {
      "inputs": [
        {
          "internalType": "uint256",
          "name": "tokenId",
          "type": "uint256"
        }
      ],
      "name": "tokenURI",
      "outputs": [
        {
          "internalType": "string",
          "name": "",
          "type": "string"
        }
      ],
      "stateMutability": "view",
      "type": "function"
    },
    {
      "inputs": [
        {
          "internalType": "address",
          "name": "from",
          "type": "address"
        },
        {
          "internalType": "address",
          "name": "to",
          "type": "address"
        },
        {
          "internalType": "uint256",
          "name": "tokenId",
          "type": "uint256"
        }
      ],
      "name": "transferFrom",
      "outputs": [],
      "stateMutability": "nonpayable",
      "type": "function"
    },
    {
      "inputs": [
        {
          "internalType": "address",
          "name": "newOwner",
          "type": "address"
        }
      ],
      "name": "transferOwnership",
      "outputs": [],
      "stateMutability": "nonpayable",
      "type": "function"
    }
  ],
  "bytecode": "0x608060405233600a60006101000a81548173ffffffffffffffffffffffffffffffffffffffff021916908373ffffffffffffffffffffffffffffffffffffffff16021790555066470de4df82000060145573dd870fa1b7c4700f2bd7f44238821c26f7392148601560006101000a81548173ffffffffffffffffffffffffffffffffffffffff021916908373ffffffffffffffffffffffffffffffffffffffff160217905550604051620055f5380380620055f58339818101604052810190620000ca919062000aed565b8581620000ec620000e0620004a060201b60201c565b620004a860201b60201c565b6001808190555081600290805190602001906200010b9291906200056c565b508060039080519060200190620001249291906200056c565b50505088601a90805190602001906200013f929190620005fd565b5087601b90805190602001906200015892919062000664565b5086601c90805190602001906200017192919062000664565b5085600e90805190602001906200018a9291906200056c565b508460109080519060200190620001a39291906200056c565b508360119080519060200190620001bc9291906200056c565b508060169080519060200190620001d59291906200056c565b5082601281905550816013819055506000600d81905550601b80549050601a80549050146200023b576040517f08c379a0000000000000000000000000000000000000000000000000000000008152600401620002329062000d06565b60405180910390fd5b601c80549050601a80549050146200028a576040517f08c379a0000000000000000000000000000000000000000000000000000000008152600401620002819062000d06565b60405180910390fd5b6000600c8190555060005b601a80549050811015620004905760006040518060800160405280601a8481548110620002c757620002c662000d28565b5b906000526020600020018054620002de9062000d86565b80601f01602080910402602001604051908101604052809291908181526020018280546200030c9062000d86565b80156200035d5780601f1062000331576101008083540402835291602001916200035d565b820191906000526020600020905b8154815290600101906020018083116200033f57829003601f168201915b50505050508152602001601b84815481106200037e576200037d62000d28565b5b90600052602060002001548152602001601c8481548110620003a557620003a462000d28565b5b9060005260206000200154815260200160008152509050806017601a8481548110620003d657620003d562000d28565b5b90600052602060002001604051620003ef919062000e67565b908152602001604051809103902060008201518160000190805190602001906200041b9291906200056c565b50602082015181600101556040820151816002015560608201518160030155905050601c828154811062000454576200045362000d28565b5b9060005260206000200154600c600082825462000472919062000eaf565b92505081905550508080620004879062000f0c565b91505062000295565b5050505050505050505062000f5a565b600033905090565b60008060009054906101000a900473ffffffffffffffffffffffffffffffffffffffff169050816000806101000a81548173ffffffffffffffffffffffffffffffffffffffff021916908373ffffffffffffffffffffffffffffffffffffffff1602179055508173ffffffffffffffffffffffffffffffffffffffff168173ffffffffffffffffffffffffffffffffffffffff167f8be0079c531659141344cd1fd0a4f28419497f9722a3daafe3b4186f6b6457e060405160405180910390a35050565b8280546200057a9062000d86565b90600052602060002090601f0160209004810192826200059e5760008555620005ea565b82601f10620005b957805160ff1916838001178555620005ea565b82800160010185558215620005ea579182015b82811115620005e9578251825591602001919060010190620005cc565b5b509050620005f99190620006b6565b5090565b82805482825590600052602060002090810192821562000651579160200282015b82811115620006505782518290805190602001906200063f9291906200056c565b50916020019190600101906200061e565b5b509050620006609190620006d5565b5090565b828054828255906000526020600020908101928215620006a3579160200282015b82811115620006a257825182559160200191906001019062000685565b5b509050620006b29190620006b6565b5090565b5b80821115620006d1576000816000905550600101620006b7565b5090565b5b80821115620006f95760008181620006ef9190620006fd565b50600101620006d6565b5090565b5080546200070b9062000d86565b6000825580601f106200071f575062000740565b601f0160209004906000526020600020908101906200073f9190620006b6565b5b50565b6000604051905090565b600080fd5b600080fd5b600080fd5b6000601f19601f8301169050919050565b7f4e487b7100000000000000000000000000000000000000000000000000000000600052604160045260246000fd5b620007a7826200075c565b810181811067ffffffffffffffff82111715620007c957620007c86200076d565b5b80604052505050565b6000620007de62000743565b9050620007ec82826200079c565b919050565b600067ffffffffffffffff8211156200080f576200080e6200076d565b5b602082029050602081019050919050565b600080fd5b600080fd5b600067ffffffffffffffff8211156200084857620008476200076d565b5b62000853826200075c565b9050602081019050919050565b60005b838110156200088057808201518184015260208101905062000863565b8381111562000890576000848401525b50505050565b6000620008ad620008a7846200082a565b620007d2565b905082815260208101848484011115620008cc57620008cb62000825565b5b620008d984828562000860565b509392505050565b600082601f830112620008f957620008f862000757565b5b81516200090b84826020860162000896565b91505092915050565b60006200092b6200092584620007f1565b620007d2565b9050808382526020820190506020840283018581111562000951576200095062000820565b5b835b818110156200099f57805167ffffffffffffffff8111156200097a576200097962000757565b5b808601620009898982620008e1565b8552602085019450505060208101905062000953565b5050509392505050565b600082601f830112620009c157620009c062000757565b5b8151620009d384826020860162000914565b91505092915050565b600067ffffffffffffffff821115620009fa57620009f96200076d565b5b602082029050602081019050919050565b6000819050919050565b62000a208162000a0b565b811462000a2c57600080fd5b50565b60008151905062000a408162000a15565b92915050565b600062000a5d62000a5784620009dc565b620007d2565b9050808382526020820190506020840283018581111562000a835762000a8262000820565b5b835b8181101562000ab0578062000a9b888262000a2f565b84526020840193505060208101905062000a85565b5050509392505050565b600082601f83011262000ad25762000ad162000757565b5b815162000ae484826020860162000a46565b91505092915050565b60008060008060008060008060006101208a8c03121562000b135762000b126200074d565b5b60008a015167ffffffffffffffff81111562000b345762000b3362000752565b5b62000b428c828d01620009a9565b99505060208a015167ffffffffffffffff81111562000b665762000b6562000752565b5b62000b748c828d0162000aba565b98505060408a015167ffffffffffffffff81111562000b985762000b9762000752565b5b62000ba68c828d0162000aba565b97505060608a015167ffffffffffffffff81111562000bca5762000bc962000752565b5b62000bd88c828d01620008e1565b96505060808a015167ffffffffffffffff81111562000bfc5762000bfb62000752565b5b62000c0a8c828d01620008e1565b95505060a08a015167ffffffffffffffff81111562000c2e5762000c2d62000752565b5b62000c3c8c828d01620008e1565b94505060c062000c4f8c828d0162000a2f565b93505060e062000c628c828d0162000a2f565b9250506101008a015167ffffffffffffffff81111562000c875762000c8662000752565b5b62000c958c828d01620008e1565b9150509295985092959850929598565b600082825260208201905092915050565b7f506c65617365206b657920696e20616761696e00000000000000000000000000600082015250565b600062000cee60138362000ca5565b915062000cfb8262000cb6565b602082019050919050565b6000602082019050818103600083015262000d218162000cdf565b9050919050565b7f4e487b7100000000000000000000000000000000000000000000000000000000600052603260045260246000fd5b7f4e487b7100000000000000000000000000000000000000000000000000000000600052602260045260246000fd5b6000600282049050600182168062000d9f57607f821691505b6020821081141562000db65762000db562000d57565b5b50919050565b600081905092915050565b60008190508160005260206000209050919050565b6000815462000deb8162000d86565b62000df7818662000dbc565b9450600182166000811462000e15576001811462000e275762000e5e565b60ff1983168652818601935062000e5e565b62000e328562000dc7565b60005b8381101562000e565781548189015260018201915060208101905062000e35565b838801955050505b50505092915050565b600062000e75828462000ddc565b915081905092915050565b7f4e487b7100000000000000000000000000000000000000000000000000000000600052601160045260246000fd5b600062000ebc8262000a0b565b915062000ec98362000a0b565b9250827fffffffffffffffffffffffffffffffffffffffffffffffffffffffffffffffff0382111562000f015762000f0062000e80565b5b828201905092915050565b600062000f198262000a0b565b91507fffffffffffffffffffffffffffffffffffffffffffffffffffffffffffffffff82141562000f4f5762000f4e62000e80565b5b600182019050919050565b61468b8062000f6a6000396000f3fe60806040526004361061019c5760003560e01c80638aa0fdad116100ec578063e1a494d11161008a578063e95a644f11610064578063e95a644f146105e3578063e985e9c51461060c578063f2fde38b14610649578063fa205f03146106725761019c565b8063e1a494d114610578578063e2c813771461058f578063e65d6b49146105b85761019c565b8063a22cb465116100c6578063a22cb465146104be578063ad974f4c146104e7578063b88d4fde14610512578063c87b56dd1461053b5761019c565b80638aa0fdad146104385780638da5cb5b1461046857806395d89b41146104935761019c565b80632c921196116101595780634d07d5ab116101335780634d07d5ab146103645780636352211e146103a757806370a08231146103e4578063715018a6146104215761019c565b80632c921196146102d55780632ce8d6fe1461031257806342842e0e1461033b5761019c565b806301ffc9a7146101a157806306fdde03146101de578063081812fc14610209578063095ea7b31461024657806323b872dd1461026f57806324c1416014610298575b600080fd5b3480156101ad57600080fd5b506101c860048036038101906101c39190612eac565b6106b1565b6040516101d59190612ef4565b60405180910390f35b3480156101ea57600080fd5b506101f3610793565b6040516102009190612fa8565b60405180910390f35b34801561021557600080fd5b50610230600480360381019061022b9190613000565b610825565b60405161023d919061306e565b60405180910390f35b34801561025257600080fd5b5061026d600480360381019061026891906130b5565b61086b565b005b34801561027b57600080fd5b50610296600480360381019061029191906130f5565b610983565b005b3480156102a457600080fd5b506102bf60048036038101906102ba9190613000565b6109e3565b6040516102cc9190613335565b60405180910390f35b3480156102e157600080fd5b506102fc60048036038101906102f79190613357565b610bfb565b6040516103099190613393565b60405180910390f35b34801561031e57600080fd5b50610339600480360381019061033491906134e3565b610c13565b005b34801561034757600080fd5b50610362600480360381019061035d91906130f5565b610c21565b005b34801561037057600080fd5b5061038b60048036038101906103869190613000565b610c41565b60405161039e97969594939291906135b1565b60405180910390f35b3480156103b357600080fd5b506103ce60048036038101906103c99190613000565b610da4565b6040516103db919061306e565b60405180910390f35b3480156103f057600080fd5b5061040b60048036038101906104069190613357565b610e2b565b6040516104189190613393565b60405180910390f35b34801561042d57600080fd5b50610436610ee3565b005b610452600480360381019061044d9190613627565b610ef7565b60405161045f9190613393565b60405180910390f35b34801561047457600080fd5b5061047d61150a565b60405161048a919061306e565b60405180910390f35b34801561049f57600080fd5b506104a8611533565b6040516104b59190612fa8565b60405180910390f35b3480156104ca57600080fd5b506104e560048036038101906104e091906136cb565b6115c5565b005b3480156104f357600080fd5b506104fc6115db565b6040516105099190613393565b60405180910390f35b34801561051e57600080fd5b50610539600480360381019061053491906137ac565b6115e5565b005b34801561054757600080fd5b50610562600480360381019061055d9190613000565b611647565b60405161056f9190612fa8565b60405180910390f35b34801561058457600080fd5b5061058d61175a565b005b34801561059b57600080fd5b506105b660048036038101906105b19190613000565b61184c565b005b3480156105c457600080fd5b506105cd61188e565b6040516105da9190613393565b60405180910390f35b3480156105ef57600080fd5b5061060a60048036038101906106059190613000565b611898565b005b34801561061857600080fd5b50610633600480360381019061062e919061382f565b611a13565b6040516106409190612ef4565b60405180910390f35b34801561065557600080fd5b50610670600480360381019061066b9190613357565b611aa7565b005b34801561067e57600080fd5b506106996004803603810190610694919061386f565b611b2b565b6040516106a8939291906138b8565b60405180910390f35b60007f80ac58cd000000000000000000000000000000000000000000000000000000007bffffffffffffffffffffffffffffffffffffffffffffffffffffffff1916827bffffffffffffffffffffffffffffffffffffffffffffffffffffffff1916148061077c57507f5b5e139f000000000000000000000000000000000000000000000000000000007bffffffffffffffffffffffffffffffffffffffffffffffffffffffff1916827bffffffffffffffffffffffffffffffffffffffffffffffffffffffff1916145b8061078c575061078b82611ba3565b5b9050919050565b6060600280546107a29061391e565b80601f01602080910402602001604051908101604052809291908181526020018280546107ce9061391e565b801561081b5780601f106107f05761010080835404028352916020019161081b565b820191906000526020600020905b8154815290600101906020018083116107fe57829003601f168201915b5050505050905090565b600061083082611c0d565b6006600083815260200190815260200160002060009054906101000a900473ffffffffffffffffffffffffffffffffffffffff169050919050565b600061087682610da4565b90508073ffffffffffffffffffffffffffffffffffffffff168373ffffffffffffffffffffffffffffffffffffffff1614156108e7576040517f08c379a00000000000000000000000000000000000000000000000000000000081526004016108de906139c2565b60405180910390fd5b8073ffffffffffffffffffffffffffffffffffffffff16610906611c58565b73ffffffffffffffffffffffffffffffffffffffff16148061093557506109348161092f611c58565b611a13565b5b610974576040517f08c379a000000000000000000000000000000000000000000000000000000000815260040161096b90613a54565b60405180910390fd5b61097e8383611c60565b505050565b61099461098e611c58565b82611d19565b6109d3576040517f08c379a00000000000000000000000000000000000000000000000000000000081526004016109ca90613ae6565b60405180910390fd5b6109de838383611dae565b505050565b6109eb612cf0565b601860008381526020019081526020016000206040518060e00160405290816000820160009054906101000a900473ffffffffffffffffffffffffffffffffffffffff1673ffffffffffffffffffffffffffffffffffffffff1673ffffffffffffffffffffffffffffffffffffffff1681526020016001820160009054906101000a900473ffffffffffffffffffffffffffffffffffffffff1673ffffffffffffffffffffffffffffffffffffffff1673ffffffffffffffffffffffffffffffffffffffff16815260200160028201604051806080016040529081600082018054610ad59061391e565b80601f0160208091040260200160405190810160405280929190818152602001828054610b019061391e565b8015610b4e5780601f10610b2357610100808354040283529160200191610b4e565b820191906000526020600020905b815481529060010190602001808311610b3157829003601f168201915b5050505050815260200160018201548152602001600282015481526020016003820154815250508152602001600682015481526020016007820160009054906101000a900460ff166003811115610ba857610ba7613213565b5b6003811115610bba57610bb9613213565b5b81526020016007820160019054906101000a900460ff161515151581526020016007820160029054906101000a900460ff1615151515815250509050919050565b60196020528060005260406000206000915090505481565b610c1d82826120a8565b5050565b610c3c838383604051806020016040528060008152506115e5565b505050565b60186020528060005260406000206000915090508060000160009054906101000a900473ffffffffffffffffffffffffffffffffffffffff16908060010160009054906101000a900473ffffffffffffffffffffffffffffffffffffffff169080600201604051806080016040529081600082018054610cc09061391e565b80601f0160208091040260200160405190810160405280929190818152602001828054610cec9061391e565b8015610d395780601f10610d0e57610100808354040283529160200191610d39565b820191906000526020600020905b815481529060010190602001808311610d1c57829003601f168201915b505050505081526020016001820154815260200160028201548152602001600382015481525050908060060154908060070160009054906101000a900460ff16908060070160019054906101000a900460ff16908060070160029054906101000a900460ff16905087565b600080610db08361211c565b9050600073ffffffffffffffffffffffffffffffffffffffff168173ffffffffffffffffffffffffffffffffffffffff161415610e22576040517f08c379a0000000000000000000000000000000000000000000000000000000008152600401610e1990613b52565b60405180910390fd5b80915050919050565b60008073ffffffffffffffffffffffffffffffffffffffff168273ffffffffffffffffffffffffffffffffffffffff161415610e9c576040517f08c379a0000000000000000000000000000000000000000000000000000000008152600401610e9390613be4565b60405180910390fd5b600560008373ffffffffffffffffffffffffffffffffffffffff1673ffffffffffffffffffffffffffffffffffffffff168152602001908152602001600020549050919050565b610eeb612159565b610ef560006121d7565b565b60007fdf28233119131a4745ee55a92f58d58acfd14491139b562f3182d7c1928a6e8233604051610f28919061306e565b60405180910390a1601354601960003373ffffffffffffffffffffffffffffffffffffffff1673ffffffffffffffffffffffffffffffffffffffff1681526020019081526020016000205410610fb3576040517f08c379a0000000000000000000000000000000000000000000000000000000008152600401610faa90613c50565b60405180910390fd5b601783604051610fc39190613cac565b908152602001604051809103902060020154601784604051610fe59190613cac565b90815260200160405180910390206003015410611037576040517f08c379a000000000000000000000000000000000000000000000000000000000815260040161102e90613d0f565b60405180910390fd5b60646012546110469190613d8d565b60016110529190613dbe565b6017846040516110629190613cac565b90815260200160405180910390206001015461107e9190613e14565b3410156110c0576040517f08c379a00000000000000000000000000000000000000000000000000000000081526004016110b790613eba565b60405180910390fd5b60016017846040516110d29190613cac565b9081526020016040518091039020600301546110ee9190613dbe565b6017846040516110fe9190613cac565b9081526020016040518091039020600301819055506001600c60008282546111269190613dbe565b9250508190555060006040518060e00160405280600a60009054906101000a900473ffffffffffffffffffffffffffffffffffffffff1673ffffffffffffffffffffffffffffffffffffffff1681526020013373ffffffffffffffffffffffffffffffffffffffff1681526020016017866040516111a49190613cac565b90815260200160405180910390206040518060800160405290816000820180546111cd9061391e565b80601f01602080910402602001604051908101604052809291908181526020018280546111f99061391e565b80156112465780601f1061121b57610100808354040283529160200191611246565b820191906000526020600020905b81548152906001019060200180831161122957829003601f168201915b50505050508152602001600182015481526020016002820154815260200160038201548152505081526020016017866040516112829190613cac565b9081526020016040518091039020600101548152602001600060038111156112ad576112ac613213565b5b81526020016000151581526020016000151581525090506112ce600961229b565b60006112da60096122b1565b90506112e633826122bf565b6112f081856120a8565b6001601960003373ffffffffffffffffffffffffffffffffffffffff1673ffffffffffffffffffffffffffffffffffffffff16815260200190815260200160002060008282546113409190613dbe565b92505081905550816018600083815260200190815260200160002060008201518160000160006101000a81548173ffffffffffffffffffffffffffffffffffffffff021916908373ffffffffffffffffffffffffffffffffffffffff16021790555060208201518160010160006101000a81548173ffffffffffffffffffffffffffffffffffffffff021916908373ffffffffffffffffffffffffffffffffffffffff160217905550604082015181600201600082015181600001908051906020019061140e929190612d75565b5060208201518160010155604082015181600201556060820151816003015550506060820151816006015560808201518160070160006101000a81548160ff0219169083600381111561146457611463613213565b5b021790555060a08201518160070160016101000a81548160ff02191690831515021790555060c08201518160070160026101000a81548160ff0219169083151502179055509050506001600d60008282546114bf9190613dbe565b925050819055507f9ec02c5e083e56cec410042ba395689ccfa59f6658226bc10b2e26aac18f723681336040516114f7929190613eda565b60405180910390a1809250505092915050565b60008060009054906101000a900473ffffffffffffffffffffffffffffffffffffffff16905090565b6060600380546115429061391e565b80601f016020809104026020016040519081016040528092919081815260200182805461156e9061391e565b80156115bb5780601f10611590576101008083540402835291602001916115bb565b820191906000526020600020905b81548152906001019060200180831161159e57829003601f168201915b5050505050905090565b6115d76115d0611c58565b83836122dd565b5050565b6000600d54905090565b6115f66115f0611c58565b83611d19565b611635576040517f08c379a000000000000000000000000000000000000000000000000000000000815260040161162c90613ae6565b60405180910390fd5b6116418484848461244a565b50505050565b606061165282611c0d565b60006008600084815260200190815260200160002080546116729061391e565b80601f016020809104026020016040519081016040528092919081815260200182805461169e9061391e565b80156116eb5780601f106116c0576101008083540402835291602001916116eb565b820191906000526020600020905b8154815290600101906020018083116116ce57829003601f168201915b5050505050905060006116fc6124a6565b9050600081511415611712578192505050611755565b60008251111561174757808260405160200161172f929190613f03565b60405160208183030381529060405292505050611755565b611750846124bd565b925050505b919050565b3373ffffffffffffffffffffffffffffffffffffffff16600a60009054906101000a900473ffffffffffffffffffffffffffffffffffffffff1673ffffffffffffffffffffffffffffffffffffffff16146117ea576040517f08c379a00000000000000000000000000000000000000000000000000000000081526004016117e190613f73565b60405180910390fd5b60005b600d548110156118495760036018600083815260200190815260200160002060070160006101000a81548160ff0219169083600381111561183157611830613213565b5b0217905550808061184190613f93565b9150506117ed565b50565b60026018600083815260200190815260200160002060070160006101000a81548160ff0219169083600381111561188657611885613213565b5b021790555050565b6000601254905090565b803373ffffffffffffffffffffffffffffffffffffffff166018600083815260200190815260200160002060010160009054906101000a900473ffffffffffffffffffffffffffffffffffffffff1673ffffffffffffffffffffffffffffffffffffffff161461193d576040517f08c379a000000000000000000000000000000000000000000000000000000000815260040161193490614028565b60405180910390fd5b600015156018600084815260200190815260200160002060070160029054906101000a900460ff161515146119a7576040517f08c379a000000000000000000000000000000000000000000000000000000000815260040161199e90614094565b60405180910390fd5b60016018600084815260200190815260200160002060070160026101000a81548160ff0219169083151502179055507f088bcc30e88b58300f96dd11a5cfb0eb4fd1dd02e1417103f9dbc93c235b1f8c8233604051611a07929190613eda565b60405180910390a15050565b6000600760008473ffffffffffffffffffffffffffffffffffffffff1673ffffffffffffffffffffffffffffffffffffffff16815260200190815260200160002060008373ffffffffffffffffffffffffffffffffffffffff1673ffffffffffffffffffffffffffffffffffffffff16815260200190815260200160002060009054906101000a900460ff16905092915050565b611aaf612159565b600073ffffffffffffffffffffffffffffffffffffffff168173ffffffffffffffffffffffffffffffffffffffff161415611b1f576040517f08c379a0000000000000000000000000000000000000000000000000000000008152600401611b1690614126565b60405180910390fd5b611b28816121d7565b50565b6000806000601784604051611b409190613cac565b908152602001604051809103902060010154601785604051611b629190613cac565b908152602001604051809103902060020154601786604051611b849190613cac565b9081526020016040518091039020600301549250925092509193909250565b60007f01ffc9a7000000000000000000000000000000000000000000000000000000007bffffffffffffffffffffffffffffffffffffffffffffffffffffffff1916827bffffffffffffffffffffffffffffffffffffffffffffffffffffffff1916149050919050565b611c1681612525565b611c55576040517f08c379a0000000000000000000000000000000000000000000000000000000008152600401611c4c90613b52565b60405180910390fd5b50565b600033905090565b816006600083815260200190815260200160002060006101000a81548173ffffffffffffffffffffffffffffffffffffffff021916908373ffffffffffffffffffffffffffffffffffffffff160217905550808273ffffffffffffffffffffffffffffffffffffffff16611cd383610da4565b73ffffffffffffffffffffffffffffffffffffffff167f8c5be1e5ebec7d5bd14f71427d1e84f3dd0314c0f7b2291e5b200ac8c7c3b92560405160405180910390a45050565b600080611d2583610da4565b90508073ffffffffffffffffffffffffffffffffffffffff168473ffffffffffffffffffffffffffffffffffffffff161480611d675750611d668185611a13565b5b80611da557508373ffffffffffffffffffffffffffffffffffffffff16611d8d84610825565b73ffffffffffffffffffffffffffffffffffffffff16145b91505092915050565b8273ffffffffffffffffffffffffffffffffffffffff16611dce82610da4565b73ffffffffffffffffffffffffffffffffffffffff1614611e24576040517f08c379a0000000000000000000000000000000000000000000000000000000008152600401611e1b906141b8565b60405180910390fd5b600073ffffffffffffffffffffffffffffffffffffffff168273ffffffffffffffffffffffffffffffffffffffff161415611e94576040517f08c379a0000000000000000000000000000000000000000000000000000000008152600401611e8b9061424a565b60405180910390fd5b611ea18383836001612566565b8273ffffffffffffffffffffffffffffffffffffffff16611ec182610da4565b73ffffffffffffffffffffffffffffffffffffffff1614611f17576040517f08c379a0000000000000000000000000000000000000000000000000000000008152600401611f0e906141b8565b60405180910390fd5b6006600082815260200190815260200160002060006101000a81549073ffffffffffffffffffffffffffffffffffffffff02191690556001600560008573ffffffffffffffffffffffffffffffffffffffff1673ffffffffffffffffffffffffffffffffffffffff168152602001908152602001600020600082825403925050819055506001600560008473ffffffffffffffffffffffffffffffffffffffff1673ffffffffffffffffffffffffffffffffffffffff16815260200190815260200160002060008282540192505081905550816004600083815260200190815260200160002060006101000a81548173ffffffffffffffffffffffffffffffffffffffff021916908373ffffffffffffffffffffffffffffffffffffffff160217905550808273ffffffffffffffffffffffffffffffffffffffff168473ffffffffffffffffffffffffffffffffffffffff167fddf252ad1be2c89b69c2b068fc378daa952ba7f163c4a11628f55a4df523b3ef60405160405180910390a46120a3838383600161268c565b505050565b6120b182612525565b6120f0576040517f08c379a00000000000000000000000000000000000000000000000000000000081526004016120e7906142dc565b60405180910390fd5b80600860008481526020019081526020016000209080519060200190612117929190612d75565b505050565b60006004600083815260200190815260200160002060009054906101000a900473ffffffffffffffffffffffffffffffffffffffff169050919050565b612161611c58565b73ffffffffffffffffffffffffffffffffffffffff1661217f61150a565b73ffffffffffffffffffffffffffffffffffffffff16146121d5576040517f08c379a00000000000000000000000000000000000000000000000000000000081526004016121cc90614348565b60405180910390fd5b565b60008060009054906101000a900473ffffffffffffffffffffffffffffffffffffffff169050816000806101000a81548173ffffffffffffffffffffffffffffffffffffffff021916908373ffffffffffffffffffffffffffffffffffffffff1602179055508173ffffffffffffffffffffffffffffffffffffffff168173ffffffffffffffffffffffffffffffffffffffff167f8be0079c531659141344cd1fd0a4f28419497f9722a3daafe3b4186f6b6457e060405160405180910390a35050565b6001816000016000828254019250508190555050565b600081600001549050919050565b6122d9828260405180602001604052806000815250612692565b5050565b8173ffffffffffffffffffffffffffffffffffffffff168373ffffffffffffffffffffffffffffffffffffffff16141561234c576040517f08c379a0000000000000000000000000000000000000000000000000000000008152600401612343906143b4565b60405180910390fd5b80600760008573ffffffffffffffffffffffffffffffffffffffff1673ffffffffffffffffffffffffffffffffffffffff16815260200190815260200160002060008473ffffffffffffffffffffffffffffffffffffffff1673ffffffffffffffffffffffffffffffffffffffff16815260200190815260200160002060006101000a81548160ff0219169083151502179055508173ffffffffffffffffffffffffffffffffffffffff168373ffffffffffffffffffffffffffffffffffffffff167f17307eab39ab6107e8899845ad3d59bd9653f200f220920489ca2b5937696c318360405161243d9190612ef4565b60405180910390a3505050565b612455848484611dae565b612461848484846126ed565b6124a0576040517f08c379a000000000000000000000000000000000000000000000000000000000815260040161249790614446565b60405180910390fd5b50505050565b606060405180602001604052806000815250905090565b60606124c882611c0d565b60006124d26124a6565b905060008151116124f2576040518060200160405280600081525061251d565b806124fc84612884565b60405160200161250d929190613f03565b6040516020818303038152906040525b915050919050565b60008073ffffffffffffffffffffffffffffffffffffffff166125478361211c565b73ffffffffffffffffffffffffffffffffffffffff1614159050919050565b600181111561268657600073ffffffffffffffffffffffffffffffffffffffff168473ffffffffffffffffffffffffffffffffffffffff16146125fa5780600560008673ffffffffffffffffffffffffffffffffffffffff1673ffffffffffffffffffffffffffffffffffffffff16815260200190815260200160002060008282546125f29190614466565b925050819055505b600073ffffffffffffffffffffffffffffffffffffffff168373ffffffffffffffffffffffffffffffffffffffff16146126855780600560008573ffffffffffffffffffffffffffffffffffffffff1673ffffffffffffffffffffffffffffffffffffffff168152602001908152602001600020600082825461267d9190613dbe565b925050819055505b5b50505050565b50505050565b61269c838361295c565b6126a960008484846126ed565b6126e8576040517f08c379a00000000000000000000000000000000000000000000000000000000081526004016126df90614446565b60405180910390fd5b505050565b600061270e8473ffffffffffffffffffffffffffffffffffffffff16612b7a565b15612877578373ffffffffffffffffffffffffffffffffffffffff1663150b7a02612737611c58565b8786866040518563ffffffff1660e01b815260040161275994939291906144ef565b602060405180830381600087803b15801561277357600080fd5b505af19250505080156127a457506040513d601f19601f820116820180604052508101906127a19190614550565b60015b612827573d80600081146127d4576040519150601f19603f3d011682016040523d82523d6000602084013e6127d9565b606091505b5060008151141561281f576040517f08c379a000000000000000000000000000000000000000000000000000000000815260040161281690614446565b60405180910390fd5b805181602001fd5b63150b7a0260e01b7bffffffffffffffffffffffffffffffffffffffffffffffffffffffff1916817bffffffffffffffffffffffffffffffffffffffffffffffffffffffff19161491505061287c565b600190505b949350505050565b60606000600161289384612b9d565b01905060008167ffffffffffffffff8111156128b2576128b16133b8565b5b6040519080825280601f01601f1916602001820160405280156128e45781602001600182028036833780820191505090505b509050600082602001820190505b600115612951578080600190039150507f3031323334353637383961626364656600000000000000000000000000000000600a86061a8153600a858161293b5761293a613d2f565b5b049450600085141561294c57612951565b6128f2565b819350505050919050565b600073ffffffffffffffffffffffffffffffffffffffff168273ffffffffffffffffffffffffffffffffffffffff1614156129cc576040517f08c379a00000000000000000000000000000000000000000000000000000000081526004016129c3906145c9565b60405180910390fd5b6129d581612525565b15612a15576040517f08c379a0000000000000000000000000000000000000000000000000000000008152600401612a0c90614635565b60405180910390fd5b612a23600083836001612566565b612a2c81612525565b15612a6c576040517f08c379a0000000000000000000000000000000000000000000000000000000008152600401612a6390614635565b60405180910390fd5b6001600560008473ffffffffffffffffffffffffffffffffffffffff1673ffffffffffffffffffffffffffffffffffffffff16815260200190815260200160002060008282540192505081905550816004600083815260200190815260200160002060006101000a81548173ffffffffffffffffffffffffffffffffffffffff021916908373ffffffffffffffffffffffffffffffffffffffff160217905550808273ffffffffffffffffffffffffffffffffffffffff16600073ffffffffffffffffffffffffffffffffffffffff167fddf252ad1be2c89b69c2b068fc378daa952ba7f163c4a11628f55a4df523b3ef60405160405180910390a4612b7660008383600161268c565b5050565b6000808273ffffffffffffffffffffffffffffffffffffffff163b119050919050565b600080600090507a184f03e93ff9f4daa797ed6e38ed64bf6a1f0100000000000000008310612bfb577a184f03e93ff9f4daa797ed6e38ed64bf6a1f0100000000000000008381612bf157612bf0613d2f565b5b0492506040810190505b6d04ee2d6d415b85acef81000000008310612c38576d04ee2d6d415b85acef81000000008381612c2e57612c2d613d2f565b5b0492506020810190505b662386f26fc100008310612c6757662386f26fc100008381612c5d57612c5c613d2f565b5b0492506010810190505b6305f5e1008310612c90576305f5e1008381612c8657612c85613d2f565b5b0492506008810190505b6127108310612cb5576127108381612cab57612caa613d2f565b5b0492506004810190505b60648310612cd85760648381612cce57612ccd613d2f565b5b0492506002810190505b600a8310612ce7576001810190505b80915050919050565b6040518060e00160405280600073ffffffffffffffffffffffffffffffffffffffff168152602001600073ffffffffffffffffffffffffffffffffffffffff168152602001612d3d612dfb565b81526020016000815260200160006003811115612d5d57612d5c613213565b5b81526020016000151581526020016000151581525090565b828054612d819061391e565b90600052602060002090601f016020900481019282612da35760008555612dea565b82601f10612dbc57805160ff1916838001178555612dea565b82800160010185558215612dea579182015b82811115612de9578251825591602001919060010190612dce565b5b509050612df79190612e23565b5090565b6040518060800160405280606081526020016000815260200160008152602001600081525090565b5b80821115612e3c576000816000905550600101612e24565b5090565b6000604051905090565b600080fd5b600080fd5b60007fffffffff0000000000000000000000000000000000000000000000000000000082169050919050565b612e8981612e54565b8114612e9457600080fd5b50565b600081359050612ea681612e80565b92915050565b600060208284031215612ec257612ec1612e4a565b5b6000612ed084828501612e97565b91505092915050565b60008115159050919050565b612eee81612ed9565b82525050565b6000602082019050612f096000830184612ee5565b92915050565b600081519050919050565b600082825260208201905092915050565b60005b83811015612f49578082015181840152602081019050612f2e565b83811115612f58576000848401525b50505050565b6000601f19601f8301169050919050565b6000612f7a82612f0f565b612f848185612f1a565b9350612f94818560208601612f2b565b612f9d81612f5e565b840191505092915050565b60006020820190508181036000830152612fc28184612f6f565b905092915050565b6000819050919050565b612fdd81612fca565b8114612fe857600080fd5b50565b600081359050612ffa81612fd4565b92915050565b60006020828403121561301657613015612e4a565b5b600061302484828501612feb565b91505092915050565b600073ffffffffffffffffffffffffffffffffffffffff82169050919050565b60006130588261302d565b9050919050565b6130688161304d565b82525050565b6000602082019050613083600083018461305f565b92915050565b6130928161304d565b811461309d57600080fd5b50565b6000813590506130af81613089565b92915050565b600080604083850312156130cc576130cb612e4a565b5b60006130da858286016130a0565b92505060206130eb85828601612feb565b9150509250929050565b60008060006060848603121561310e5761310d612e4a565b5b600061311c868287016130a0565b935050602061312d868287016130a0565b925050604061313e86828701612feb565b9150509250925092565b6131518161304d565b82525050565b600082825260208201905092915050565b600061317382612f0f565b61317d8185613157565b935061318d818560208601612f2b565b61319681612f5e565b840191505092915050565b6131aa81612fca565b82525050565b600060808301600083015184820360008601526131cd8282613168565b91505060208301516131e260208601826131a1565b5060408301516131f560408601826131a1565b50606083015161320860608601826131a1565b508091505092915050565b7f4e487b7100000000000000000000000000000000000000000000000000000000600052602160045260246000fd5b6004811061325357613252613213565b5b50565b600081905061326482613242565b919050565b600061327482613256565b9050919050565b61328481613269565b82525050565b61329381612ed9565b82525050565b600060e0830160008301516132b16000860182613148565b5060208301516132c46020860182613148565b50604083015184820360408601526132dc82826131b0565b91505060608301516132f160608601826131a1565b506080830151613304608086018261327b565b5060a083015161331760a086018261328a565b5060c083015161332a60c086018261328a565b508091505092915050565b6000602082019050818103600083015261334f8184613299565b905092915050565b60006020828403121561336d5761336c612e4a565b5b600061337b848285016130a0565b91505092915050565b61338d81612fca565b82525050565b60006020820190506133a86000830184613384565b92915050565b600080fd5b600080fd5b7f4e487b7100000000000000000000000000000000000000000000000000000000600052604160045260246000fd5b6133f082612f5e565b810181811067ffffffffffffffff8211171561340f5761340e6133b8565b5b80604052505050565b6000613422612e40565b905061342e82826133e7565b919050565b600067ffffffffffffffff82111561344e5761344d6133b8565b5b61345782612f5e565b9050602081019050919050565b82818337600083830152505050565b600061348661348184613433565b613418565b9050828152602081018484840111156134a2576134a16133b3565b5b6134ad848285613464565b509392505050565b600082601f8301126134ca576134c96133ae565b5b81356134da848260208601613473565b91505092915050565b600080604083850312156134fa576134f9612e4a565b5b600061350885828601612feb565b925050602083013567ffffffffffffffff81111561352957613528612e4f565b5b613535858286016134b5565b9150509250929050565b6000608083016000830151848203600086015261355c8282613168565b915050602083015161357160208601826131a1565b50604083015161358460408601826131a1565b50606083015161359760608601826131a1565b508091505092915050565b6135ab81613269565b82525050565b600060e0820190506135c6600083018a61305f565b6135d3602083018961305f565b81810360408301526135e5818861353f565b90506135f46060830187613384565b61360160808301866135a2565b61360e60a0830185612ee5565b61361b60c0830184612ee5565b98975050505050505050565b6000806040838503121561363e5761363d612e4a565b5b600083013567ffffffffffffffff81111561365c5761365b612e4f565b5b613668858286016134b5565b925050602083013567ffffffffffffffff81111561368957613688612e4f565b5b613695858286016134b5565b9150509250929050565b6136a881612ed9565b81146136b357600080fd5b50565b6000813590506136c58161369f565b92915050565b600080604083850312156136e2576136e1612e4a565b5b60006136f0858286016130a0565b9250506020613701858286016136b6565b9150509250929050565b600067ffffffffffffffff821115613726576137256133b8565b5b61372f82612f5e565b9050602081019050919050565b600061374f61374a8461370b565b613418565b90508281526020810184848401111561376b5761376a6133b3565b5b613776848285613464565b509392505050565b600082601f830112613793576137926133ae565b5b81356137a384826020860161373c565b91505092915050565b600080600080608085870312156137c6576137c5612e4a565b5b60006137d4878288016130a0565b94505060206137e5878288016130a0565b93505060406137f687828801612feb565b925050606085013567ffffffffffffffff81111561381757613816612e4f565b5b6138238782880161377e565b91505092959194509250565b6000806040838503121561384657613845612e4a565b5b6000613854858286016130a0565b9250506020613865858286016130a0565b9150509250929050565b60006020828403121561388557613884612e4a565b5b600082013567ffffffffffffffff8111156138a3576138a2612e4f565b5b6138af848285016134b5565b91505092915050565b60006060820190506138cd6000830186613384565b6138da6020830185613384565b6138e76040830184613384565b949350505050565b7f4e487b7100000000000000000000000000000000000000000000000000000000600052602260045260246000fd5b6000600282049050600182168061393657607f821691505b6020821081141561394a576139496138ef565b5b50919050565b7f4552433732313a20617070726f76616c20746f2063757272656e74206f776e6560008201527f7200000000000000000000000000000000000000000000000000000000000000602082015250565b60006139ac602183612f1a565b91506139b782613950565b604082019050919050565b600060208201905081810360008301526139db8161399f565b9050919050565b7f4552433732313a20617070726f76652063616c6c6572206973206e6f7420746f60008201527f6b656e206f776e6572206f7220617070726f76656420666f7220616c6c000000602082015250565b6000613a3e603d83612f1a565b9150613a49826139e2565b604082019050919050565b60006020820190508181036000830152613a6d81613a31565b9050919050565b7f4552433732313a2063616c6c6572206973206e6f7420746f6b656e206f776e6560008201527f72206f7220617070726f76656400000000000000000000000000000000000000602082015250565b6000613ad0602d83612f1a565b9150613adb82613a74565b604082019050919050565b60006020820190508181036000830152613aff81613ac3565b9050919050565b7f4552433732313a20696e76616c696420746f6b656e2049440000000000000000600082015250565b6000613b3c601883612f1a565b9150613b4782613b06565b602082019050919050565b60006020820190508181036000830152613b6b81613b2f565b9050919050565b7f4552433732313a2061646472657373207a65726f206973206e6f74206120766160008201527f6c6964206f776e65720000000000000000000000000000000000000000000000602082015250565b6000613bce602983612f1a565b9150613bd982613b72565b604082019050919050565b60006020820190508181036000830152613bfd81613bc1565b9050919050565b7f4578636565646564204d6178204d696e74696e67000000000000000000000000600082015250565b6000613c3a601483612f1a565b9150613c4582613c04565b602082019050919050565b60006020820190508181036000830152613c6981613c2d565b9050919050565b600081905092915050565b6000613c8682612f0f565b613c908185613c70565b9350613ca0818560208601612f2b565b80840191505092915050565b6000613cb88284613c7b565b915081905092915050565b7f45786365656465642043617465676f7279206d696e74696e6700000000000000600082015250565b6000613cf9601983612f1a565b9150613d0482613cc3565b602082019050919050565b60006020820190508181036000830152613d2881613cec565b9050919050565b7f4e487b7100000000000000000000000000000000000000000000000000000000600052601260045260246000fd5b7f4e487b7100000000000000000000000000000000000000000000000000000000600052601160045260246000fd5b6000613d9882612fca565b9150613da383612fca565b925082613db357613db2613d2f565b5b828204905092915050565b6000613dc982612fca565b9150613dd483612fca565b9250827fffffffffffffffffffffffffffffffffffffffffffffffffffffffffffffffff03821115613e0957613e08613d5e565b5b828201905092915050565b6000613e1f82612fca565b9150613e2a83612fca565b9250817fffffffffffffffffffffffffffffffffffffffffffffffffffffffffffffffff0483118215151615613e6357613e62613d5e565b5b828202905092915050565b7f4e6f7420656e6f75676820455448000000000000000000000000000000000000600082015250565b6000613ea4600e83612f1a565b9150613eaf82613e6e565b602082019050919050565b60006020820190508181036000830152613ed381613e97565b9050919050565b6000604082019050613eef6000830185613384565b613efc602083018461305f565b9392505050565b6000613f0f8285613c7b565b9150613f1b8284613c7b565b91508190509392505050565b7f4e6f7420617574686f72697a656420746f2061646a7573742073616c65000000600082015250565b6000613f5d601d83612f1a565b9150613f6882613f27565b602082019050919050565b60006020820190508181036000830152613f8c81613f50565b9050919050565b6000613f9e82612fca565b91507fffffffffffffffffffffffffffffffffffffffffffffffffffffffffffffffff821415613fd157613fd0613d5e565b5b600182019050919050565b7f4e6f7420617574686f72697a6564000000000000000000000000000000000000600082015250565b6000614012600e83612f1a565b915061401d82613fdc565b602082019050919050565b6000602082019050818103600083015261404181614005565b9050919050565b7f5469636b657420616c726561647920636865636b656420696e20000000000000600082015250565b600061407e601a83612f1a565b915061408982614048565b602082019050919050565b600060208201905081810360008301526140ad81614071565b9050919050565b7f4f776e61626c653a206e6577206f776e657220697320746865207a65726f206160008201527f6464726573730000000000000000000000000000000000000000000000000000602082015250565b6000614110602683612f1a565b915061411b826140b4565b604082019050919050565b6000602082019050818103600083015261413f81614103565b9050919050565b7f4552433732313a207472616e736665722066726f6d20696e636f72726563742060008201527f6f776e6572000000000000000000000000000000000000000000000000000000602082015250565b60006141a2602583612f1a565b91506141ad82614146565b604082019050919050565b600060208201905081810360008301526141d181614195565b9050919050565b7f4552433732313a207472616e7366657220746f20746865207a65726f2061646460008201527f7265737300000000000000000000000000000000000000000000000000000000602082015250565b6000614234602483612f1a565b915061423f826141d8565b604082019050919050565b6000602082019050818103600083015261426381614227565b9050919050565b7f45524337323155524953746f726167653a2055524920736574206f66206e6f6e60008201527f6578697374656e7420746f6b656e000000000000000000000000000000000000602082015250565b60006142c6602e83612f1a565b91506142d18261426a565b604082019050919050565b600060208201905081810360008301526142f5816142b9565b9050919050565b7f4f776e61626c653a2063616c6c6572206973206e6f7420746865206f776e6572600082015250565b6000614332602083612f1a565b915061433d826142fc565b602082019050919050565b6000602082019050818103600083015261436181614325565b9050919050565b7f4552433732313a20617070726f766520746f2063616c6c657200000000000000600082015250565b600061439e601983612f1a565b91506143a982614368565b602082019050919050565b600060208201905081810360008301526143cd81614391565b9050919050565b7f4552433732313a207472616e7366657220746f206e6f6e20455243373231526560008201527f63656976657220696d706c656d656e7465720000000000000000000000000000602082015250565b6000614430603283612f1a565b915061443b826143d4565b604082019050919050565b6000602082019050818103600083015261445f81614423565b9050919050565b600061447182612fca565b915061447c83612fca565b92508282101561448f5761448e613d5e565b5b828203905092915050565b600081519050919050565b600082825260208201905092915050565b60006144c18261449a565b6144cb81856144a5565b93506144db818560208601612f2b565b6144e481612f5e565b840191505092915050565b6000608082019050614504600083018761305f565b614511602083018661305f565b61451e6040830185613384565b818103606083015261453081846144b6565b905095945050505050565b60008151905061454a81612e80565b92915050565b60006020828403121561456657614565612e4a565b5b60006145748482850161453b565b91505092915050565b7f4552433732313a206d696e7420746f20746865207a65726f2061646472657373600082015250565b60006145b3602083612f1a565b91506145be8261457d565b602082019050919050565b600060208201905081810360008301526145e2816145a6565b9050919050565b7f4552433732313a20746f6b656e20616c7265616479206d696e74656400000000600082015250565b600061461f601c83612f1a565b915061462a826145e9565b602082019050919050565b6000602082019050818103600083015261464e81614612565b905091905056fea264697066735822122058d2b80de4fd8e6a6e8198a632fc56d78d2b8d04544a3935f4752618421f9ab864736f6c63430008090033",
  "linkReferences": {},
  "deployedLinkReferences": {}
}