{
  "_format": "hh-sol-artifact-1",
  "contractName": "SimpleEvent",
  "sourceName": "contracts/SimpleEvent.sol",
  "abi": [
    {
      "inputs": [
        {
          "internalType": "string[]",
          "name": "_categories",
          "type": "string[]"
        },
        {
          "internalType": "uint256[]",
          "name": "_categoryPrices",
          "type": "uint256[]"
        },
        {
          "internalType": "uint256[]",
          "name": "_categoryLimits",
          "type": "uint256[]"
        },
        {
          "internalType": "string",
          "name": "_eventName",
          "type": "string"
        },
        {
          "internalType": "string",
          "name": "_dateTime",
          "type": "string"
        },
        {
          "internalType": "string",
          "name": "_venue",
          "type": "string"
        },
        {
          "internalType": "uint256",
          "name": "_commission",
          "type": "uint256"
        },
        {
          "internalType": "uint256",
          "name": "_maxTicketPerAddress",
          "type": "uint256"
        },
        {
          "internalType": "string",
          "name": "_eventSymbol",
          "type": "string"
        }
      ],
      "stateMutability": "payable",
      "type": "constructor"
    },
    {
      "anonymous": false,
      "inputs": [
        {
          "indexed": true,
          "internalType": "address",
          "name": "owner",
          "type": "address"
        },
        {
          "indexed": true,
          "internalType": "address",
          "name": "approved",
          "type": "address"
        },
        {
          "indexed": true,
          "internalType": "uint256",
          "name": "tokenId",
          "type": "uint256"
        }
      ],
      "name": "Approval",
      "type": "event"
    },
    {
      "anonymous": false,
      "inputs": [
        {
          "indexed": true,
          "internalType": "address",
          "name": "owner",
          "type": "address"
        },
        {
          "indexed": true,
          "internalType": "address",
          "name": "operator",
          "type": "address"
        },
        {
          "indexed": false,
          "internalType": "bool",
          "name": "approved",
          "type": "bool"
        }
      ],
      "name": "ApprovalForAll",
      "type": "event"
    },
    {
      "anonymous": false,
      "inputs": [
        {
          "indexed": true,
          "internalType": "address",
          "name": "previousOwner",
          "type": "address"
        },
        {
          "indexed": true,
          "internalType": "address",
          "name": "newOwner",
          "type": "address"
        }
      ],
      "name": "OwnershipTransferred",
      "type": "event"
    },
    {
      "anonymous": false,
      "inputs": [
        {
          "indexed": true,
          "internalType": "address",
          "name": "from",
          "type": "address"
        },
        {
          "indexed": true,
          "internalType": "address",
          "name": "to",
          "type": "address"
        },
        {
          "indexed": true,
          "internalType": "uint256",
          "name": "tokenId",
          "type": "uint256"
        }
      ],
      "name": "Transfer",
      "type": "event"
    },
    {
      "anonymous": false,
      "inputs": [
        {
          "indexed": false,
          "internalType": "uint256",
          "name": "tokenId",
          "type": "uint256"
        },
        {
          "indexed": false,
          "internalType": "address",
          "name": "user",
          "type": "address"
        }
      ],
      "name": "checkedIn",
      "type": "event"
    },
    {
      "anonymous": false,
      "inputs": [
        {
          "indexed": false,
          "internalType": "uint256",
          "name": "tokenId",
          "type": "uint256"
        },
        {
          "indexed": false,
          "internalType": "address",
          "name": "user",
          "type": "address"
        },
        {
          "indexed": false,
          "internalType": "uint256",
          "name": "price",
          "type": "uint256"
        }
      ],
      "name": "ticketListed",
      "type": "event"
    },
    {
      "anonymous": false,
      "inputs": [
        {
          "indexed": false,
          "internalType": "uint256",
          "name": "tokenId",
          "type": "uint256"
        },
        {
          "indexed": false,
          "internalType": "address",
          "name": "recipient",
          "type": "address"
        }
      ],
      "name": "ticketMinted",
      "type": "event"
    },
    {
      "anonymous": false,
      "inputs": [
        {
          "indexed": false,
          "internalType": "uint256",
          "name": "tokenId",
          "type": "uint256"
        },
        {
          "indexed": false,
          "internalType": "address",
          "name": "user",
          "type": "address"
        }
      ],
      "name": "ticketUnlisted",
      "type": "event"
    },
    {
      "anonymous": false,
      "inputs": [
        {
          "indexed": false,
          "internalType": "address",
          "name": "user",
          "type": "address"
        }
      ],
      "name": "userMints",
      "type": "event"
    },
    {
      "inputs": [
        {
          "internalType": "address",
          "name": "to",
          "type": "address"
        },
        {
          "internalType": "uint256",
          "name": "tokenId",
          "type": "uint256"
        }
      ],
      "name": "approve",
      "outputs": [],
      "stateMutability": "nonpayable",
      "type": "function"
    },
    {
      "inputs": [
        {
          "internalType": "address",
          "name": "owner",
          "type": "address"
        }
      ],
      "name": "balanceOf",
      "outputs": [
        {
          "internalType": "uint256",
          "name": "",
          "type": "uint256"
        }
      ],
      "stateMutability": "view",
      "type": "function"
    },
    {
      "inputs": [
        {
          "internalType": "string[]",
          "name": "new_categories",
          "type": "string[]"
        },
        {
          "internalType": "uint256[]",
          "name": "new_categoryPrices",
          "type": "uint256[]"
        },
        {
          "internalType": "uint256[]",
          "name": "new_categoryLimits",
          "type": "uint256[]"
        }
      ],
      "name": "changeCategories",
      "outputs": [],
      "stateMutability": "nonpayable",
      "type": "function"
    },
    {
      "inputs": [
        {
          "internalType": "uint256",
          "name": "tokenId",
          "type": "uint256"
        }
      ],
      "name": "checkIn",
      "outputs": [],
      "stateMutability": "nonpayable",
      "type": "function"
    },
    {
      "inputs": [],
      "name": "eventCancelled",
      "outputs": [],
      "stateMutability": "nonpayable",
      "type": "function"
    },
    {
      "inputs": [
        {
          "internalType": "uint256",
          "name": "tokenId",
          "type": "uint256"
        }
      ],
      "name": "expiredTicket",
      "outputs": [],
      "stateMutability": "nonpayable",
      "type": "function"
    },
    {
      "inputs": [
        {
          "internalType": "uint256",
          "name": "tokenId",
          "type": "uint256"
        }
      ],
      "name": "getApproved",
      "outputs": [
        {
          "internalType": "address",
          "name": "",
          "type": "address"
        }
      ],
      "stateMutability": "view",
      "type": "function"
    },
    {
      "inputs": [
        {
          "internalType": "string",
          "name": "category",
          "type": "string"
        }
      ],
      "name": "getCategoryInformation",
      "outputs": [
        {
          "internalType": "uint256",
          "name": "_price",
          "type": "uint256"
        },
        {
          "internalType": "uint256",
          "name": "_maxNumber",
          "type": "uint256"
        },
        {
          "internalType": "uint256",
          "name": "_currentSupply",
          "type": "uint256"
        }
      ],
      "stateMutability": "view",
      "type": "function"
    },
    {
      "inputs": [],
      "name": "getCommission",
      "outputs": [
        {
          "internalType": "uint256",
          "name": "",
          "type": "uint256"
        }
      ],
      "stateMutability": "view",
      "type": "function"
    },
    {
      "inputs": [
        {
          "internalType": "uint256",
          "name": "tokenId",
          "type": "uint256"
        }
      ],
      "name": "getTicketDetails",
      "outputs": [
        {
          "components": [
            {
              "internalType": "address",
              "name": "organizer",
              "type": "address"
            },
            {
              "internalType": "address",
              "name": "ticketOwner",
              "type": "address"
            },
            {
              "components": [
                {
                  "internalType": "string",
                  "name": "category",
                  "type": "string"
                },
                {
                  "internalType": "uint256",
                  "name": "price",
                  "type": "uint256"
                },
                {
                  "internalType": "uint256",
                  "name": "maxNumber",
                  "type": "uint256"
                },
                {
                  "internalType": "uint256",
                  "name": "currentSupply",
                  "type": "uint256"
                }
              ],
              "internalType": "struct SimpleEvent.Category",
              "name": "category",
              "type": "tuple"
            },
            {
              "internalType": "uint256",
              "name": "currentPrice",
              "type": "uint256"
            },
            {
              "internalType": "enum SimpleEvent.ticketStatus",
              "name": "_ticketStatus",
              "type": "uint8"
            },
            {
              "internalType": "bool",
              "name": "ticketListing",
              "type": "bool"
            },
            {
              "internalType": "bool",
              "name": "checkIn",
              "type": "bool"
            }
          ],
          "internalType": "struct SimpleEvent.Ticket",
          "name": "ticket",
          "type": "tuple"
        }
      ],
      "stateMutability": "view",
      "type": "function"
    },
    {
      "inputs": [],
      "name": "getTokenSupply",
      "outputs": [
        {
          "internalType": "uint256",
          "name": "",
          "type": "uint256"
        }
      ],
      "stateMutability": "view",
      "type": "function"
    },
    {
      "inputs": [
        {
          "internalType": "address",
          "name": "owner",
          "type": "address"
        },
        {
          "internalType": "address",
          "name": "operator",
          "type": "address"
        }
      ],
      "name": "isApprovedForAll",
      "outputs": [
        {
          "internalType": "bool",
          "name": "",
          "type": "bool"
        }
      ],
      "stateMutability": "view",
      "type": "function"
    },
    {
      "inputs": [
        {
          "internalType": "address",
          "name": "_to",
          "type": "address"
        },
        {
          "internalType": "string",
          "name": "category",
          "type": "string"
        },
        {
          "internalType": "string",
          "name": "tokenURI",
          "type": "string"
        }
      ],
      "name": "mint",
      "outputs": [
        {
          "internalType": "uint256",
          "name": "",
          "type": "uint256"
        }
      ],
      "stateMutability": "payable",
      "type": "function"
    },
    {
      "inputs": [],
      "name": "name",
      "outputs": [
        {
          "internalType": "string",
          "name": "",
          "type": "string"
        }
      ],
      "stateMutability": "view",
      "type": "function"
    },
    {
      "inputs": [],
      "name": "owner",
      "outputs": [
        {
          "internalType": "address",
          "name": "",
          "type": "address"
        }
      ],
      "stateMutability": "view",
      "type": "function"
    },
    {
      "inputs": [
        {
          "internalType": "uint256",
          "name": "tokenId",
          "type": "uint256"
        }
      ],
      "name": "ownerOf",
      "outputs": [
        {
          "internalType": "address",
          "name": "",
          "type": "address"
        }
      ],
      "stateMutability": "view",
      "type": "function"
    },
    {
      "inputs": [],
      "name": "renounceOwnership",
      "outputs": [],
      "stateMutability": "nonpayable",
      "type": "function"
    },
    {
      "inputs": [
        {
          "internalType": "address",
          "name": "from",
          "type": "address"
        },
        {
          "internalType": "address",
          "name": "to",
          "type": "address"
        },
        {
          "internalType": "uint256",
          "name": "tokenId",
          "type": "uint256"
        }
      ],
      "name": "safeTransferFrom",
      "outputs": [],
      "stateMutability": "nonpayable",
      "type": "function"
    },
    {
      "inputs": [
        {
          "internalType": "address",
          "name": "from",
          "type": "address"
        },
        {
          "internalType": "address",
          "name": "to",
          "type": "address"
        },
        {
          "internalType": "uint256",
          "name": "tokenId",
          "type": "uint256"
        },
        {
          "internalType": "bytes",
          "name": "data",
          "type": "bytes"
        }
      ],
      "name": "safeTransferFrom",
      "outputs": [],
      "stateMutability": "nonpayable",
      "type": "function"
    },
    {
      "inputs": [
        {
          "internalType": "address",
          "name": "operator",
          "type": "address"
        },
        {
          "internalType": "bool",
          "name": "approved",
          "type": "bool"
        }
      ],
      "name": "setApprovalForAll",
      "outputs": [],
      "stateMutability": "nonpayable",
      "type": "function"
    },
    {
      "inputs": [
        {
          "internalType": "uint256",
          "name": "tokenId",
          "type": "uint256"
        },
        {
          "internalType": "string",
          "name": "tokenURI",
          "type": "string"
        }
      ],
      "name": "setNewTokenURI",
      "outputs": [],
      "stateMutability": "nonpayable",
      "type": "function"
    },
    {
      "inputs": [
        {
          "internalType": "bytes4",
          "name": "interfaceId",
          "type": "bytes4"
        }
      ],
      "name": "supportsInterface",
      "outputs": [
        {
          "internalType": "bool",
          "name": "",
          "type": "bool"
        }
      ],
      "stateMutability": "view",
      "type": "function"
    },
    {
      "inputs": [],
      "name": "symbol",
      "outputs": [
        {
          "internalType": "string",
          "name": "",
          "type": "string"
        }
      ],
      "stateMutability": "view",
      "type": "function"
    },
    {
      "inputs": [
        {
          "internalType": "uint256",
          "name": "",
          "type": "uint256"
        }
      ],
      "name": "ticketIDs",
      "outputs": [
        {
          "internalType": "address",
          "name": "organizer",
          "type": "address"
        },
        {
          "internalType": "address",
          "name": "ticketOwner",
          "type": "address"
        },
        {
          "components": [
            {
              "internalType": "string",
              "name": "category",
              "type": "string"
            },
            {
              "internalType": "uint256",
              "name": "price",
              "type": "uint256"
            },
            {
              "internalType": "uint256",
              "name": "maxNumber",
              "type": "uint256"
            },
            {
              "internalType": "uint256",
              "name": "currentSupply",
              "type": "uint256"
            }
          ],
          "internalType": "struct SimpleEvent.Category",
          "name": "category",
          "type": "tuple"
        },
        {
          "internalType": "uint256",
          "name": "currentPrice",
          "type": "uint256"
        },
        {
          "internalType": "enum SimpleEvent.ticketStatus",
          "name": "_ticketStatus",
          "type": "uint8"
        },
        {
          "internalType": "bool",
          "name": "ticketListing",
          "type": "bool"
        },
        {
          "internalType": "bool",
          "name": "checkIn",
          "type": "bool"
        }
      ],
      "stateMutability": "view",
      "type": "function"
    },
    {
      "inputs": [
        {
          "internalType": "address",
          "name": "",
          "type": "address"
        }
      ],
      "name": "ticketsPerOwner",
      "outputs": [
        {
          "internalType": "uint256",
          "name": "",
          "type": "uint256"
        }
      ],
      "stateMutability": "view",
      "type": "function"
    },
    {
      "inputs": [
        {
          "internalType": "uint256",
          "name": "tokenId",
          "type": "uint256"
        }
      ],
      "name": "tokenURI",
      "outputs": [
        {
          "internalType": "string",
          "name": "",
          "type": "string"
        }
      ],
      "stateMutability": "view",
      "type": "function"
    },
    {
      "inputs": [
        {
          "internalType": "address",
          "name": "from",
          "type": "address"
        },
        {
          "internalType": "address",
          "name": "to",
          "type": "address"
        },
        {
          "internalType": "uint256",
          "name": "tokenId",
          "type": "uint256"
        }
      ],
      "name": "transferFrom",
      "outputs": [],
      "stateMutability": "nonpayable",
      "type": "function"
    },
    {
      "inputs": [
        {
          "internalType": "address",
          "name": "newOwner",
          "type": "address"
        }
      ],
      "name": "transferOwnership",
      "outputs": [],
      "stateMutability": "nonpayable",
      "type": "function"
    }
  ],
  "bytecode": "0x608060405233600a60006101000a81548173ffffffffffffffffffffffffffffffffffffffff021916908373ffffffffffffffffffffffffffffffffffffffff16021790555066470de4df82000060145573dd870fa1b7c4700f2bd7f44238821c26f7392148601560006101000a81548173ffffffffffffffffffffffffffffffffffffffff021916908373ffffffffffffffffffffffffffffffffffffffff16021790555060405162005ed538038062005ed58339818101604052810190620000ca919062000aed565b8581620000ec620000e0620004a060201b60201c565b620004a860201b60201c565b6001808190555081600290805190602001906200010b9291906200056c565b508060039080519060200190620001249291906200056c565b50505088601a90805190602001906200013f929190620005fd565b5087601b90805190602001906200015892919062000664565b5086601c90805190602001906200017192919062000664565b5085600e90805190602001906200018a9291906200056c565b508460109080519060200190620001a39291906200056c565b508360119080519060200190620001bc9291906200056c565b508060169080519060200190620001d59291906200056c565b5082601281905550816013819055506000600d81905550601b80549050601a80549050146200023b576040517f08c379a0000000000000000000000000000000000000000000000000000000008152600401620002329062000d06565b60405180910390fd5b601c80549050601a80549050146200028a576040517f08c379a0000000000000000000000000000000000000000000000000000000008152600401620002819062000d06565b60405180910390fd5b6000600c8190555060005b601a80549050811015620004905760006040518060800160405280601a8481548110620002c757620002c662000d28565b5b906000526020600020018054620002de9062000d86565b80601f01602080910402602001604051908101604052809291908181526020018280546200030c9062000d86565b80156200035d5780601f1062000331576101008083540402835291602001916200035d565b820191906000526020600020905b8154815290600101906020018083116200033f57829003601f168201915b50505050508152602001601b84815481106200037e576200037d62000d28565b5b90600052602060002001548152602001601c8481548110620003a557620003a462000d28565b5b9060005260206000200154815260200160008152509050806017601a8481548110620003d657620003d562000d28565b5b90600052602060002001604051620003ef919062000e67565b908152602001604051809103902060008201518160000190805190602001906200041b9291906200056c565b50602082015181600101556040820151816002015560608201518160030155905050601c828154811062000454576200045362000d28565b5b9060005260206000200154600c600082825462000472919062000eaf565b92505081905550508080620004879062000f0c565b91505062000295565b5050505050505050505062000f5a565b600033905090565b60008060009054906101000a900473ffffffffffffffffffffffffffffffffffffffff169050816000806101000a81548173ffffffffffffffffffffffffffffffffffffffff021916908373ffffffffffffffffffffffffffffffffffffffff1602179055508173ffffffffffffffffffffffffffffffffffffffff168173ffffffffffffffffffffffffffffffffffffffff167f8be0079c531659141344cd1fd0a4f28419497f9722a3daafe3b4186f6b6457e060405160405180910390a35050565b8280546200057a9062000d86565b90600052602060002090601f0160209004810192826200059e5760008555620005ea565b82601f10620005b957805160ff1916838001178555620005ea565b82800160010185558215620005ea579182015b82811115620005e9578251825591602001919060010190620005cc565b5b509050620005f99190620006b6565b5090565b82805482825590600052602060002090810192821562000651579160200282015b82811115620006505782518290805190602001906200063f9291906200056c565b50916020019190600101906200061e565b5b509050620006609190620006d5565b5090565b828054828255906000526020600020908101928215620006a3579160200282015b82811115620006a257825182559160200191906001019062000685565b5b509050620006b29190620006b6565b5090565b5b80821115620006d1576000816000905550600101620006b7565b5090565b5b80821115620006f95760008181620006ef9190620006fd565b50600101620006d6565b5090565b5080546200070b9062000d86565b6000825580601f106200071f575062000740565b601f0160209004906000526020600020908101906200073f9190620006b6565b5b50565b6000604051905090565b600080fd5b600080fd5b600080fd5b6000601f19601f8301169050919050565b7f4e487b7100000000000000000000000000000000000000000000000000000000600052604160045260246000fd5b620007a7826200075c565b810181811067ffffffffffffffff82111715620007c957620007c86200076d565b5b80604052505050565b6000620007de62000743565b9050620007ec82826200079c565b919050565b600067ffffffffffffffff8211156200080f576200080e6200076d565b5b602082029050602081019050919050565b600080fd5b600080fd5b600067ffffffffffffffff8211156200084857620008476200076d565b5b62000853826200075c565b9050602081019050919050565b60005b838110156200088057808201518184015260208101905062000863565b8381111562000890576000848401525b50505050565b6000620008ad620008a7846200082a565b620007d2565b905082815260208101848484011115620008cc57620008cb62000825565b5b620008d984828562000860565b509392505050565b600082601f830112620008f957620008f862000757565b5b81516200090b84826020860162000896565b91505092915050565b60006200092b6200092584620007f1565b620007d2565b9050808382526020820190506020840283018581111562000951576200095062000820565b5b835b818110156200099f57805167ffffffffffffffff8111156200097a576200097962000757565b5b808601620009898982620008e1565b8552602085019450505060208101905062000953565b5050509392505050565b600082601f830112620009c157620009c062000757565b5b8151620009d384826020860162000914565b91505092915050565b600067ffffffffffffffff821115620009fa57620009f96200076d565b5b602082029050602081019050919050565b6000819050919050565b62000a208162000a0b565b811462000a2c57600080fd5b50565b60008151905062000a408162000a15565b92915050565b600062000a5d62000a5784620009dc565b620007d2565b9050808382526020820190506020840283018581111562000a835762000a8262000820565b5b835b8181101562000ab0578062000a9b888262000a2f565b84526020840193505060208101905062000a85565b5050509392505050565b600082601f83011262000ad25762000ad162000757565b5b815162000ae484826020860162000a46565b91505092915050565b60008060008060008060008060006101208a8c03121562000b135762000b126200074d565b5b60008a015167ffffffffffffffff81111562000b345762000b3362000752565b5b62000b428c828d01620009a9565b99505060208a015167ffffffffffffffff81111562000b665762000b6562000752565b5b62000b748c828d0162000aba565b98505060408a015167ffffffffffffffff81111562000b985762000b9762000752565b5b62000ba68c828d0162000aba565b97505060608a015167ffffffffffffffff81111562000bca5762000bc962000752565b5b62000bd88c828d01620008e1565b96505060808a015167ffffffffffffffff81111562000bfc5762000bfb62000752565b5b62000c0a8c828d01620008e1565b95505060a08a015167ffffffffffffffff81111562000c2e5762000c2d62000752565b5b62000c3c8c828d01620008e1565b94505060c062000c4f8c828d0162000a2f565b93505060e062000c628c828d0162000a2f565b9250506101008a015167ffffffffffffffff81111562000c875762000c8662000752565b5b62000c958c828d01620008e1565b9150509295985092959850929598565b600082825260208201905092915050565b7f506c65617365206b657920696e20616761696e00000000000000000000000000600082015250565b600062000cee60138362000ca5565b915062000cfb8262000cb6565b602082019050919050565b6000602082019050818103600083015262000d218162000cdf565b9050919050565b7f4e487b7100000000000000000000000000000000000000000000000000000000600052603260045260246000fd5b7f4e487b7100000000000000000000000000000000000000000000000000000000600052602260045260246000fd5b6000600282049050600182168062000d9f57607f821691505b6020821081141562000db65762000db562000d57565b5b50919050565b600081905092915050565b60008190508160005260206000209050919050565b6000815462000deb8162000d86565b62000df7818662000dbc565b9450600182166000811462000e15576001811462000e275762000e5e565b60ff1983168652818601935062000e5e565b62000e328562000dc7565b60005b8381101562000e565781548189015260018201915060208101905062000e35565b838801955050505b50505092915050565b600062000e75828462000ddc565b915081905092915050565b7f4e487b7100000000000000000000000000000000000000000000000000000000600052601160045260246000fd5b600062000ebc8262000a0b565b915062000ec98362000a0b565b9250827fffffffffffffffffffffffffffffffffffffffffffffffffffffffffffffffff0382111562000f015762000f0062000e80565b5b828201905092915050565b600062000f198262000a0b565b91507fffffffffffffffffffffffffffffffffffffffffffffffffffffffffffffffff82141562000f4f5762000f4e62000e80565b5b600182019050919050565b614f6b8062000f6a6000396000f3fe6080604052600436106101b75760003560e01c80638da5cb5b116100ec578063e1a494d11161008a578063e95a644f11610064578063e95a644f14610627578063e985e9c514610650578063f2fde38b1461068d578063fa205f03146106b6576101b7565b8063e1a494d1146105bc578063e2c81377146105d3578063e65d6b49146105fc576101b7565b8063a22cb465116100c6578063a22cb46514610502578063ad974f4c1461052b578063b88d4fde14610556578063c87b56dd1461057f576101b7565b80638da5cb5b1461047c57806395d89b41146104a757806399071190146104d2576101b7565b80632ce8d6fe116101595780634d07d5ab116101335780634d07d5ab146103a85780636352211e146103eb57806370a0823114610428578063715018a614610465576101b7565b80632ce8d6fe1461032d5780633c73dae11461035657806342842e0e1461037f576101b7565b8063095ea7b311610195578063095ea7b31461026157806323b872dd1461028a57806324c14160146102b35780632c921196146102f0576101b7565b806301ffc9a7146101bc57806306fdde03146101f9578063081812fc14610224575b600080fd5b3480156101c857600080fd5b506101e360048036038101906101de9190613351565b6106f5565b6040516101f09190613399565b60405180910390f35b34801561020557600080fd5b5061020e6107d7565b60405161021b919061344d565b60405180910390f35b34801561023057600080fd5b5061024b600480360381019061024691906134a5565b610869565b6040516102589190613513565b60405180910390f35b34801561026d57600080fd5b506102886004803603810190610283919061355a565b6108af565b005b34801561029657600080fd5b506102b160048036038101906102ac919061359a565b6109c7565b005b3480156102bf57600080fd5b506102da60048036038101906102d591906134a5565b610a27565b6040516102e791906137da565b60405180910390f35b3480156102fc57600080fd5b50610317600480360381019061031291906137fc565b610c3f565b6040516103249190613838565b60405180910390f35b34801561033957600080fd5b50610354600480360381019061034f9190613988565b610c57565b005b34801561036257600080fd5b5061037d60048036038101906103789190613b8d565b610c65565b005b34801561038b57600080fd5b506103a660048036038101906103a1919061359a565b611085565b005b3480156103b457600080fd5b506103cf60048036038101906103ca91906134a5565b6110a5565b6040516103e29796959493929190613ca6565b60405180910390f35b3480156103f757600080fd5b50610412600480360381019061040d91906134a5565b611208565b60405161041f9190613513565b60405180910390f35b34801561043457600080fd5b5061044f600480360381019061044a91906137fc565b61128f565b60405161045c9190613838565b60405180910390f35b34801561047157600080fd5b5061047a611347565b005b34801561048857600080fd5b5061049161135b565b60405161049e9190613513565b60405180910390f35b3480156104b357600080fd5b506104bc611384565b6040516104c9919061344d565b60405180910390f35b6104ec60048036038101906104e79190613d1c565b611416565b6040516104f99190613838565b60405180910390f35b34801561050e57600080fd5b5061052960048036038101906105249190613dd3565b611a2a565b005b34801561053757600080fd5b50610540611a40565b60405161054d9190613838565b60405180910390f35b34801561056257600080fd5b5061057d60048036038101906105789190613eb4565b611a4a565b005b34801561058b57600080fd5b506105a660048036038101906105a191906134a5565b611aac565b6040516105b3919061344d565b60405180910390f35b3480156105c857600080fd5b506105d1611bbf565b005b3480156105df57600080fd5b506105fa60048036038101906105f591906134a5565b611cb1565b005b34801561060857600080fd5b50610611611cf3565b60405161061e9190613838565b60405180910390f35b34801561063357600080fd5b5061064e600480360381019061064991906134a5565b611cfd565b005b34801561065c57600080fd5b5061067760048036038101906106729190613f37565b611e78565b6040516106849190613399565b60405180910390f35b34801561069957600080fd5b506106b460048036038101906106af91906137fc565b611f0c565b005b3480156106c257600080fd5b506106dd60048036038101906106d89190613f77565b611f90565b6040516106ec93929190613fc0565b60405180910390f35b60007f80ac58cd000000000000000000000000000000000000000000000000000000007bffffffffffffffffffffffffffffffffffffffffffffffffffffffff1916827bffffffffffffffffffffffffffffffffffffffffffffffffffffffff191614806107c057507f5b5e139f000000000000000000000000000000000000000000000000000000007bffffffffffffffffffffffffffffffffffffffffffffffffffffffff1916827bffffffffffffffffffffffffffffffffffffffffffffffffffffffff1916145b806107d057506107cf82612008565b5b9050919050565b6060600280546107e690614026565b80601f016020809104026020016040519081016040528092919081815260200182805461081290614026565b801561085f5780601f106108345761010080835404028352916020019161085f565b820191906000526020600020905b81548152906001019060200180831161084257829003601f168201915b5050505050905090565b600061087482612072565b6006600083815260200190815260200160002060009054906101000a900473ffffffffffffffffffffffffffffffffffffffff169050919050565b60006108ba82611208565b90508073ffffffffffffffffffffffffffffffffffffffff168373ffffffffffffffffffffffffffffffffffffffff16141561092b576040517f08c379a0000000000000000000000000000000000000000000000000000000008152600401610922906140ca565b60405180910390fd5b8073ffffffffffffffffffffffffffffffffffffffff1661094a6120bd565b73ffffffffffffffffffffffffffffffffffffffff1614806109795750610978816109736120bd565b611e78565b5b6109b8576040517f08c379a00000000000000000000000000000000000000000000000000000000081526004016109af9061415c565b60405180910390fd5b6109c283836120c5565b505050565b6109d86109d26120bd565b8261217e565b610a17576040517f08c379a0000000000000000000000000000000000000000000000000000000008152600401610a0e906141ee565b60405180910390fd5b610a22838383612213565b505050565b610a2f613155565b601860008381526020019081526020016000206040518060e00160405290816000820160009054906101000a900473ffffffffffffffffffffffffffffffffffffffff1673ffffffffffffffffffffffffffffffffffffffff1673ffffffffffffffffffffffffffffffffffffffff1681526020016001820160009054906101000a900473ffffffffffffffffffffffffffffffffffffffff1673ffffffffffffffffffffffffffffffffffffffff1673ffffffffffffffffffffffffffffffffffffffff16815260200160028201604051806080016040529081600082018054610b1990614026565b80601f0160208091040260200160405190810160405280929190818152602001828054610b4590614026565b8015610b925780601f10610b6757610100808354040283529160200191610b92565b820191906000526020600020905b815481529060010190602001808311610b7557829003601f168201915b5050505050815260200160018201548152602001600282015481526020016003820154815250508152602001600682015481526020016007820160009054906101000a900460ff166003811115610bec57610beb6136b8565b5b6003811115610bfe57610bfd6136b8565b5b81526020016007820160019054906101000a900460ff161515151581526020016007820160029054906101000a900460ff1615151515815250509050919050565b60196020528060005260406000206000915090505481565b610c61828261250d565b5050565b3373ffffffffffffffffffffffffffffffffffffffff16600a60009054906101000a900473ffffffffffffffffffffffffffffffffffffffff1673ffffffffffffffffffffffffffffffffffffffff1614610cf5576040517f08c379a0000000000000000000000000000000000000000000000000000000008152600401610cec9061425a565b60405180910390fd5b8151835114610d39576040517f08c379a0000000000000000000000000000000000000000000000000000000008152600401610d30906142c6565b60405180910390fd5b8051835114610d7d576040517f08c379a0000000000000000000000000000000000000000000000000000000008152600401610d74906142c6565b60405180910390fd5b6000600c8190555060005b601a8054905081101561107f576000848281518110610daa57610da96142e6565b5b6020026020010151604051602001610dc29190614351565b604051602081830303815290604052805190602001206017601a8481548110610dee57610ded6142e6565b5b90600052602060002001604051610e0591906143fc565b9081526020016040518091039020600001604051602001610e2691906143fc565b604051602081830303815290604052805190602001201415610ee0576017601a8381548110610e5857610e576142e6565b5b90600052602060002001604051610e6f91906143fc565b9081526020016040518091039020600301549050828281518110610e9657610e956142e6565b5b60200260200101518110610edf576040517f08c379a0000000000000000000000000000000000000000000000000000000008152600401610ed690614485565b60405180910390fd5b5b60006040518060800160405280878581518110610f0057610eff6142e6565b5b60200260200101518152602001868581518110610f2057610f1f6142e6565b5b60200260200101518152602001858581518110610f4057610f3f6142e6565b5b60200260200101518152602001838152509050806017601a8581548110610f6a57610f696142e6565b5b90600052602060002001604051610f8191906143fc565b90815260200160405180910390206000820151816000019080519060200190610fab9291906131da565b506020820151816001015560408201518160020155606082015181600301559050506017601a8481548110610fe357610fe26142e6565b5b90600052602060002001604051610ffa91906143fc565b9081526020016040518091039020600080820160006110199190613260565b6001820160009055600282016000905560038201600090555050601c8381548110611047576110466142e6565b5b9060005260206000200154600c600082825461106391906144d4565b92505081905550505080806110779061452a565b915050610d88565b50505050565b6110a083838360405180602001604052806000815250611a4a565b505050565b60186020528060005260406000206000915090508060000160009054906101000a900473ffffffffffffffffffffffffffffffffffffffff16908060010160009054906101000a900473ffffffffffffffffffffffffffffffffffffffff16908060020160405180608001604052908160008201805461112490614026565b80601f016020809104026020016040519081016040528092919081815260200182805461115090614026565b801561119d5780601f106111725761010080835404028352916020019161119d565b820191906000526020600020905b81548152906001019060200180831161118057829003601f168201915b505050505081526020016001820154815260200160028201548152602001600382015481525050908060060154908060070160009054906101000a900460ff16908060070160019054906101000a900460ff16908060070160029054906101000a900460ff16905087565b60008061121483612581565b9050600073ffffffffffffffffffffffffffffffffffffffff168173ffffffffffffffffffffffffffffffffffffffff161415611286576040517f08c379a000000000000000000000000000000000000000000000000000000000815260040161127d906145bf565b60405180910390fd5b80915050919050565b60008073ffffffffffffffffffffffffffffffffffffffff168273ffffffffffffffffffffffffffffffffffffffff161415611300576040517f08c379a00000000000000000000000000000000000000000000000000000000081526004016112f790614651565b60405180910390fd5b600560008373ffffffffffffffffffffffffffffffffffffffff1673ffffffffffffffffffffffffffffffffffffffff168152602001908152602001600020549050919050565b61134f6125be565b611359600061263c565b565b60008060009054906101000a900473ffffffffffffffffffffffffffffffffffffffff16905090565b60606003805461139390614026565b80601f01602080910402602001604051908101604052809291908181526020018280546113bf90614026565b801561140c5780601f106113e15761010080835404028352916020019161140c565b820191906000526020600020905b8154815290600101906020018083116113ef57829003601f168201915b5050505050905090565b60007fdf28233119131a4745ee55a92f58d58acfd14491139b562f3182d7c1928a6e82846040516114479190613513565b60405180910390a1601354601960008673ffffffffffffffffffffffffffffffffffffffff1673ffffffffffffffffffffffffffffffffffffffff16815260200190815260200160002054106114d2576040517f08c379a00000000000000000000000000000000000000000000000000000000081526004016114c9906146bd565b60405180910390fd5b6017836040516114e29190614351565b9081526020016040518091039020600201546017846040516115049190614351565b90815260200160405180910390206003015410611556576040517f08c379a000000000000000000000000000000000000000000000000000000000815260040161154d90614729565b60405180910390fd5b60646012546115659190614778565b600161157191906144d4565b6017846040516115819190614351565b90815260200160405180910390206001015461159d91906147a9565b3410156115df576040517f08c379a00000000000000000000000000000000000000000000000000000000081526004016115d69061484f565b60405180910390fd5b60016017846040516115f19190614351565b90815260200160405180910390206003015461160d91906144d4565b60178460405161161d9190614351565b9081526020016040518091039020600301819055506001600c600082825461164591906144d4565b9250508190555060006040518060e00160405280600a60009054906101000a900473ffffffffffffffffffffffffffffffffffffffff1673ffffffffffffffffffffffffffffffffffffffff1681526020018673ffffffffffffffffffffffffffffffffffffffff1681526020016017866040516116c39190614351565b90815260200160405180910390206040518060800160405290816000820180546116ec90614026565b80601f016020809104026020016040519081016040528092919081815260200182805461171890614026565b80156117655780601f1061173a57610100808354040283529160200191611765565b820191906000526020600020905b81548152906001019060200180831161174857829003601f168201915b50505050508152602001600182015481526020016002820154815260200160038201548152505081526020016017866040516117a19190614351565b9081526020016040518091039020600101548152602001600060038111156117cc576117cb6136b8565b5b81526020016000151581526020016000151581525090506117ed6009612700565b60006117f96009612716565b90506118058682612724565b61180f818561250d565b6001601960008873ffffffffffffffffffffffffffffffffffffffff1673ffffffffffffffffffffffffffffffffffffffff168152602001908152602001600020600082825461185f91906144d4565b92505081905550816018600083815260200190815260200160002060008201518160000160006101000a81548173ffffffffffffffffffffffffffffffffffffffff021916908373ffffffffffffffffffffffffffffffffffffffff16021790555060208201518160010160006101000a81548173ffffffffffffffffffffffffffffffffffffffff021916908373ffffffffffffffffffffffffffffffffffffffff160217905550604082015181600201600082015181600001908051906020019061192d9291906131da565b5060208201518160010155604082015181600201556060820151816003015550506060820151816006015560808201518160070160006101000a81548160ff02191690836003811115611983576119826136b8565b5b021790555060a08201518160070160016101000a81548160ff02191690831515021790555060c08201518160070160026101000a81548160ff0219169083151502179055509050506001600d60008282546119de91906144d4565b925050819055507f9ec02c5e083e56cec410042ba395689ccfa59f6658226bc10b2e26aac18f72368187604051611a1692919061486f565b60405180910390a180925050509392505050565b611a3c611a356120bd565b8383612742565b5050565b6000600d54905090565b611a5b611a556120bd565b8361217e565b611a9a576040517f08c379a0000000000000000000000000000000000000000000000000000000008152600401611a91906141ee565b60405180910390fd5b611aa6848484846128af565b50505050565b6060611ab782612072565b6000600860008481526020019081526020016000208054611ad790614026565b80601f0160208091040260200160405190810160405280929190818152602001828054611b0390614026565b8015611b505780601f10611b2557610100808354040283529160200191611b50565b820191906000526020600020905b815481529060010190602001808311611b3357829003601f168201915b505050505090506000611b6161290b565b9050600081511415611b77578192505050611bba565b600082511115611bac578082604051602001611b94929190614898565b60405160208183030381529060405292505050611bba565b611bb584612922565b925050505b919050565b3373ffffffffffffffffffffffffffffffffffffffff16600a60009054906101000a900473ffffffffffffffffffffffffffffffffffffffff1673ffffffffffffffffffffffffffffffffffffffff1614611c4f576040517f08c379a0000000000000000000000000000000000000000000000000000000008152600401611c469061425a565b60405180910390fd5b60005b600d54811015611cae5760036018600083815260200190815260200160002060070160006101000a81548160ff02191690836003811115611c9657611c956136b8565b5b02179055508080611ca69061452a565b915050611c52565b50565b60026018600083815260200190815260200160002060070160006101000a81548160ff02191690836003811115611ceb57611cea6136b8565b5b021790555050565b6000601254905090565b803373ffffffffffffffffffffffffffffffffffffffff166018600083815260200190815260200160002060010160009054906101000a900473ffffffffffffffffffffffffffffffffffffffff1673ffffffffffffffffffffffffffffffffffffffff1614611da2576040517f08c379a0000000000000000000000000000000000000000000000000000000008152600401611d9990614908565b60405180910390fd5b600015156018600084815260200190815260200160002060070160029054906101000a900460ff16151514611e0c576040517f08c379a0000000000000000000000000000000000000000000000000000000008152600401611e0390614974565b60405180910390fd5b60016018600084815260200190815260200160002060070160026101000a81548160ff0219169083151502179055507f088bcc30e88b58300f96dd11a5cfb0eb4fd1dd02e1417103f9dbc93c235b1f8c8233604051611e6c92919061486f565b60405180910390a15050565b6000600760008473ffffffffffffffffffffffffffffffffffffffff1673ffffffffffffffffffffffffffffffffffffffff16815260200190815260200160002060008373ffffffffffffffffffffffffffffffffffffffff1673ffffffffffffffffffffffffffffffffffffffff16815260200190815260200160002060009054906101000a900460ff16905092915050565b611f146125be565b600073ffffffffffffffffffffffffffffffffffffffff168173ffffffffffffffffffffffffffffffffffffffff161415611f84576040517f08c379a0000000000000000000000000000000000000000000000000000000008152600401611f7b90614a06565b60405180910390fd5b611f8d8161263c565b50565b6000806000601784604051611fa59190614351565b908152602001604051809103902060010154601785604051611fc79190614351565b908152602001604051809103902060020154601786604051611fe99190614351565b9081526020016040518091039020600301549250925092509193909250565b60007f01ffc9a7000000000000000000000000000000000000000000000000000000007bffffffffffffffffffffffffffffffffffffffffffffffffffffffff1916827bffffffffffffffffffffffffffffffffffffffffffffffffffffffff1916149050919050565b61207b8161298a565b6120ba576040517f08c379a00000000000000000000000000000000000000000000000000000000081526004016120b1906145bf565b60405180910390fd5b50565b600033905090565b816006600083815260200190815260200160002060006101000a81548173ffffffffffffffffffffffffffffffffffffffff021916908373ffffffffffffffffffffffffffffffffffffffff160217905550808273ffffffffffffffffffffffffffffffffffffffff1661213883611208565b73ffffffffffffffffffffffffffffffffffffffff167f8c5be1e5ebec7d5bd14f71427d1e84f3dd0314c0f7b2291e5b200ac8c7c3b92560405160405180910390a45050565b60008061218a83611208565b90508073ffffffffffffffffffffffffffffffffffffffff168473ffffffffffffffffffffffffffffffffffffffff1614806121cc57506121cb8185611e78565b5b8061220a57508373ffffffffffffffffffffffffffffffffffffffff166121f284610869565b73ffffffffffffffffffffffffffffffffffffffff16145b91505092915050565b8273ffffffffffffffffffffffffffffffffffffffff1661223382611208565b73ffffffffffffffffffffffffffffffffffffffff1614612289576040517f08c379a000000000000000000000000000000000000000000000000000000000815260040161228090614a98565b60405180910390fd5b600073ffffffffffffffffffffffffffffffffffffffff168273ffffffffffffffffffffffffffffffffffffffff1614156122f9576040517f08c379a00000000000000000000000000000000000000000000000000000000081526004016122f090614b2a565b60405180910390fd5b61230683838360016129cb565b8273ffffffffffffffffffffffffffffffffffffffff1661232682611208565b73ffffffffffffffffffffffffffffffffffffffff161461237c576040517f08c379a000000000000000000000000000000000000000000000000000000000815260040161237390614a98565b60405180910390fd5b6006600082815260200190815260200160002060006101000a81549073ffffffffffffffffffffffffffffffffffffffff02191690556001600560008573ffffffffffffffffffffffffffffffffffffffff1673ffffffffffffffffffffffffffffffffffffffff168152602001908152602001600020600082825403925050819055506001600560008473ffffffffffffffffffffffffffffffffffffffff1673ffffffffffffffffffffffffffffffffffffffff16815260200190815260200160002060008282540192505081905550816004600083815260200190815260200160002060006101000a81548173ffffffffffffffffffffffffffffffffffffffff021916908373ffffffffffffffffffffffffffffffffffffffff160217905550808273ffffffffffffffffffffffffffffffffffffffff168473ffffffffffffffffffffffffffffffffffffffff167fddf252ad1be2c89b69c2b068fc378daa952ba7f163c4a11628f55a4df523b3ef60405160405180910390a46125088383836001612af1565b505050565b6125168261298a565b612555576040517f08c379a000000000000000000000000000000000000000000000000000000000815260040161254c90614bbc565b60405180910390fd5b8060086000848152602001908152602001600020908051906020019061257c9291906131da565b505050565b60006004600083815260200190815260200160002060009054906101000a900473ffffffffffffffffffffffffffffffffffffffff169050919050565b6125c66120bd565b73ffffffffffffffffffffffffffffffffffffffff166125e461135b565b73ffffffffffffffffffffffffffffffffffffffff161461263a576040517f08c379a000000000000000000000000000000000000000000000000000000000815260040161263190614c28565b60405180910390fd5b565b60008060009054906101000a900473ffffffffffffffffffffffffffffffffffffffff169050816000806101000a81548173ffffffffffffffffffffffffffffffffffffffff021916908373ffffffffffffffffffffffffffffffffffffffff1602179055508173ffffffffffffffffffffffffffffffffffffffff168173ffffffffffffffffffffffffffffffffffffffff167f8be0079c531659141344cd1fd0a4f28419497f9722a3daafe3b4186f6b6457e060405160405180910390a35050565b6001816000016000828254019250508190555050565b600081600001549050919050565b61273e828260405180602001604052806000815250612af7565b5050565b8173ffffffffffffffffffffffffffffffffffffffff168373ffffffffffffffffffffffffffffffffffffffff1614156127b1576040517f08c379a00000000000000000000000000000000000000000000000000000000081526004016127a890614c94565b60405180910390fd5b80600760008573ffffffffffffffffffffffffffffffffffffffff1673ffffffffffffffffffffffffffffffffffffffff16815260200190815260200160002060008473ffffffffffffffffffffffffffffffffffffffff1673ffffffffffffffffffffffffffffffffffffffff16815260200190815260200160002060006101000a81548160ff0219169083151502179055508173ffffffffffffffffffffffffffffffffffffffff168373ffffffffffffffffffffffffffffffffffffffff167f17307eab39ab6107e8899845ad3d59bd9653f200f220920489ca2b5937696c31836040516128a29190613399565b60405180910390a3505050565b6128ba848484612213565b6128c684848484612b52565b612905576040517f08c379a00000000000000000000000000000000000000000000000000000000081526004016128fc90614d26565b60405180910390fd5b50505050565b606060405180602001604052806000815250905090565b606061292d82612072565b600061293761290b565b905060008151116129575760405180602001604052806000815250612982565b8061296184612ce9565b604051602001612972929190614898565b6040516020818303038152906040525b915050919050565b60008073ffffffffffffffffffffffffffffffffffffffff166129ac83612581565b73ffffffffffffffffffffffffffffffffffffffff1614159050919050565b6001811115612aeb57600073ffffffffffffffffffffffffffffffffffffffff168473ffffffffffffffffffffffffffffffffffffffff1614612a5f5780600560008673ffffffffffffffffffffffffffffffffffffffff1673ffffffffffffffffffffffffffffffffffffffff1681526020019081526020016000206000828254612a579190614d46565b925050819055505b600073ffffffffffffffffffffffffffffffffffffffff168373ffffffffffffffffffffffffffffffffffffffff1614612aea5780600560008573ffffffffffffffffffffffffffffffffffffffff1673ffffffffffffffffffffffffffffffffffffffff1681526020019081526020016000206000828254612ae291906144d4565b925050819055505b5b50505050565b50505050565b612b018383612dc1565b612b0e6000848484612b52565b612b4d576040517f08c379a0000000000000000000000000000000000000000000000000000000008152600401612b4490614d26565b60405180910390fd5b505050565b6000612b738473ffffffffffffffffffffffffffffffffffffffff16612fdf565b15612cdc578373ffffffffffffffffffffffffffffffffffffffff1663150b7a02612b9c6120bd565b8786866040518563ffffffff1660e01b8152600401612bbe9493929190614dcf565b602060405180830381600087803b158015612bd857600080fd5b505af1925050508015612c0957506040513d601f19601f82011682018060405250810190612c069190614e30565b60015b612c8c573d8060008114612c39576040519150601f19603f3d011682016040523d82523d6000602084013e612c3e565b606091505b50600081511415612c84576040517f08c379a0000000000000000000000000000000000000000000000000000000008152600401612c7b90614d26565b60405180910390fd5b805181602001fd5b63150b7a0260e01b7bffffffffffffffffffffffffffffffffffffffffffffffffffffffff1916817bffffffffffffffffffffffffffffffffffffffffffffffffffffffff191614915050612ce1565b600190505b949350505050565b606060006001612cf884613002565b01905060008167ffffffffffffffff811115612d1757612d1661385d565b5b6040519080825280601f01601f191660200182016040528015612d495781602001600182028036833780820191505090505b509050600082602001820190505b600115612db6578080600190039150507f3031323334353637383961626364656600000000000000000000000000000000600a86061a8153600a8581612da057612d9f614749565b5b0494506000851415612db157612db6565b612d57565b819350505050919050565b600073ffffffffffffffffffffffffffffffffffffffff168273ffffffffffffffffffffffffffffffffffffffff161415612e31576040517f08c379a0000000000000000000000000000000000000000000000000000000008152600401612e2890614ea9565b60405180910390fd5b612e3a8161298a565b15612e7a576040517f08c379a0000000000000000000000000000000000000000000000000000000008152600401612e7190614f15565b60405180910390fd5b612e886000838360016129cb565b612e918161298a565b15612ed1576040517f08c379a0000000000000000000000000000000000000000000000000000000008152600401612ec890614f15565b60405180910390fd5b6001600560008473ffffffffffffffffffffffffffffffffffffffff1673ffffffffffffffffffffffffffffffffffffffff16815260200190815260200160002060008282540192505081905550816004600083815260200190815260200160002060006101000a81548173ffffffffffffffffffffffffffffffffffffffff021916908373ffffffffffffffffffffffffffffffffffffffff160217905550808273ffffffffffffffffffffffffffffffffffffffff16600073ffffffffffffffffffffffffffffffffffffffff167fddf252ad1be2c89b69c2b068fc378daa952ba7f163c4a11628f55a4df523b3ef60405160405180910390a4612fdb600083836001612af1565b5050565b6000808273ffffffffffffffffffffffffffffffffffffffff163b119050919050565b600080600090507a184f03e93ff9f4daa797ed6e38ed64bf6a1f0100000000000000008310613060577a184f03e93ff9f4daa797ed6e38ed64bf6a1f010000000000000000838161305657613055614749565b5b0492506040810190505b6d04ee2d6d415b85acef8100000000831061309d576d04ee2d6d415b85acef8100000000838161309357613092614749565b5b0492506020810190505b662386f26fc1000083106130cc57662386f26fc1000083816130c2576130c1614749565b5b0492506010810190505b6305f5e10083106130f5576305f5e10083816130eb576130ea614749565b5b0492506008810190505b612710831061311a5761271083816131105761310f614749565b5b0492506004810190505b6064831061313d576064838161313357613132614749565b5b0492506002810190505b600a831061314c576001810190505b80915050919050565b6040518060e00160405280600073ffffffffffffffffffffffffffffffffffffffff168152602001600073ffffffffffffffffffffffffffffffffffffffff1681526020016131a26132a0565b815260200160008152602001600060038111156131c2576131c16136b8565b5b81526020016000151581526020016000151581525090565b8280546131e690614026565b90600052602060002090601f016020900481019282613208576000855561324f565b82601f1061322157805160ff191683800117855561324f565b8280016001018555821561324f579182015b8281111561324e578251825591602001919060010190613233565b5b50905061325c91906132c8565b5090565b50805461326c90614026565b6000825580601f1061327e575061329d565b601f01602090049060005260206000209081019061329c91906132c8565b5b50565b6040518060800160405280606081526020016000815260200160008152602001600081525090565b5b808211156132e15760008160009055506001016132c9565b5090565b6000604051905090565b600080fd5b600080fd5b60007fffffffff0000000000000000000000000000000000000000000000000000000082169050919050565b61332e816132f9565b811461333957600080fd5b50565b60008135905061334b81613325565b92915050565b600060208284031215613367576133666132ef565b5b60006133758482850161333c565b91505092915050565b60008115159050919050565b6133938161337e565b82525050565b60006020820190506133ae600083018461338a565b92915050565b600081519050919050565b600082825260208201905092915050565b60005b838110156133ee5780820151818401526020810190506133d3565b838111156133fd576000848401525b50505050565b6000601f19601f8301169050919050565b600061341f826133b4565b61342981856133bf565b93506134398185602086016133d0565b61344281613403565b840191505092915050565b600060208201905081810360008301526134678184613414565b905092915050565b6000819050919050565b6134828161346f565b811461348d57600080fd5b50565b60008135905061349f81613479565b92915050565b6000602082840312156134bb576134ba6132ef565b5b60006134c984828501613490565b91505092915050565b600073ffffffffffffffffffffffffffffffffffffffff82169050919050565b60006134fd826134d2565b9050919050565b61350d816134f2565b82525050565b60006020820190506135286000830184613504565b92915050565b613537816134f2565b811461354257600080fd5b50565b6000813590506135548161352e565b92915050565b60008060408385031215613571576135706132ef565b5b600061357f85828601613545565b925050602061359085828601613490565b9150509250929050565b6000806000606084860312156135b3576135b26132ef565b5b60006135c186828701613545565b93505060206135d286828701613545565b92505060406135e386828701613490565b9150509250925092565b6135f6816134f2565b82525050565b600082825260208201905092915050565b6000613618826133b4565b61362281856135fc565b93506136328185602086016133d0565b61363b81613403565b840191505092915050565b61364f8161346f565b82525050565b60006080830160008301518482036000860152613672828261360d565b91505060208301516136876020860182613646565b50604083015161369a6040860182613646565b5060608301516136ad6060860182613646565b508091505092915050565b7f4e487b7100000000000000000000000000000000000000000000000000000000600052602160045260246000fd5b600481106136f8576136f76136b8565b5b50565b6000819050613709826136e7565b919050565b6000613719826136fb565b9050919050565b6137298161370e565b82525050565b6137388161337e565b82525050565b600060e08301600083015161375660008601826135ed565b50602083015161376960208601826135ed565b50604083015184820360408601526137818282613655565b91505060608301516137966060860182613646565b5060808301516137a96080860182613720565b5060a08301516137bc60a086018261372f565b5060c08301516137cf60c086018261372f565b508091505092915050565b600060208201905081810360008301526137f4818461373e565b905092915050565b600060208284031215613812576138116132ef565b5b600061382084828501613545565b91505092915050565b6138328161346f565b82525050565b600060208201905061384d6000830184613829565b92915050565b600080fd5b600080fd5b7f4e487b7100000000000000000000000000000000000000000000000000000000600052604160045260246000fd5b61389582613403565b810181811067ffffffffffffffff821117156138b4576138b361385d565b5b80604052505050565b60006138c76132e5565b90506138d3828261388c565b919050565b600067ffffffffffffffff8211156138f3576138f261385d565b5b6138fc82613403565b9050602081019050919050565b82818337600083830152505050565b600061392b613926846138d8565b6138bd565b90508281526020810184848401111561394757613946613858565b5b613952848285613909565b509392505050565b600082601f83011261396f5761396e613853565b5b813561397f848260208601613918565b91505092915050565b6000806040838503121561399f5761399e6132ef565b5b60006139ad85828601613490565b925050602083013567ffffffffffffffff8111156139ce576139cd6132f4565b5b6139da8582860161395a565b9150509250929050565b600067ffffffffffffffff8211156139ff576139fe61385d565b5b602082029050602081019050919050565b600080fd5b6000613a28613a23846139e4565b6138bd565b90508083825260208201905060208402830185811115613a4b57613a4a613a10565b5b835b81811015613a9257803567ffffffffffffffff811115613a7057613a6f613853565b5b808601613a7d898261395a565b85526020850194505050602081019050613a4d565b5050509392505050565b600082601f830112613ab157613ab0613853565b5b8135613ac1848260208601613a15565b91505092915050565b600067ffffffffffffffff821115613ae557613ae461385d565b5b602082029050602081019050919050565b6000613b09613b0484613aca565b6138bd565b90508083825260208201905060208402830185811115613b2c57613b2b613a10565b5b835b81811015613b555780613b418882613490565b845260208401935050602081019050613b2e565b5050509392505050565b600082601f830112613b7457613b73613853565b5b8135613b84848260208601613af6565b91505092915050565b600080600060608486031215613ba657613ba56132ef565b5b600084013567ffffffffffffffff811115613bc457613bc36132f4565b5b613bd086828701613a9c565b935050602084013567ffffffffffffffff811115613bf157613bf06132f4565b5b613bfd86828701613b5f565b925050604084013567ffffffffffffffff811115613c1e57613c1d6132f4565b5b613c2a86828701613b5f565b9150509250925092565b60006080830160008301518482036000860152613c51828261360d565b9150506020830151613c666020860182613646565b506040830151613c796040860182613646565b506060830151613c8c6060860182613646565b508091505092915050565b613ca08161370e565b82525050565b600060e082019050613cbb600083018a613504565b613cc86020830189613504565b8181036040830152613cda8188613c34565b9050613ce96060830187613829565b613cf66080830186613c97565b613d0360a083018561338a565b613d1060c083018461338a565b98975050505050505050565b600080600060608486031215613d3557613d346132ef565b5b6000613d4386828701613545565b935050602084013567ffffffffffffffff811115613d6457613d636132f4565b5b613d708682870161395a565b925050604084013567ffffffffffffffff811115613d9157613d906132f4565b5b613d9d8682870161395a565b9150509250925092565b613db08161337e565b8114613dbb57600080fd5b50565b600081359050613dcd81613da7565b92915050565b60008060408385031215613dea57613de96132ef565b5b6000613df885828601613545565b9250506020613e0985828601613dbe565b9150509250929050565b600067ffffffffffffffff821115613e2e57613e2d61385d565b5b613e3782613403565b9050602081019050919050565b6000613e57613e5284613e13565b6138bd565b905082815260208101848484011115613e7357613e72613858565b5b613e7e848285613909565b509392505050565b600082601f830112613e9b57613e9a613853565b5b8135613eab848260208601613e44565b91505092915050565b60008060008060808587031215613ece57613ecd6132ef565b5b6000613edc87828801613545565b9450506020613eed87828801613545565b9350506040613efe87828801613490565b925050606085013567ffffffffffffffff811115613f1f57613f1e6132f4565b5b613f2b87828801613e86565b91505092959194509250565b60008060408385031215613f4e57613f4d6132ef565b5b6000613f5c85828601613545565b9250506020613f6d85828601613545565b9150509250929050565b600060208284031215613f8d57613f8c6132ef565b5b600082013567ffffffffffffffff811115613fab57613faa6132f4565b5b613fb78482850161395a565b91505092915050565b6000606082019050613fd56000830186613829565b613fe26020830185613829565b613fef6040830184613829565b949350505050565b7f4e487b7100000000000000000000000000000000000000000000000000000000600052602260045260246000fd5b6000600282049050600182168061403e57607f821691505b6020821081141561405257614051613ff7565b5b50919050565b7f4552433732313a20617070726f76616c20746f2063757272656e74206f776e6560008201527f7200000000000000000000000000000000000000000000000000000000000000602082015250565b60006140b46021836133bf565b91506140bf82614058565b604082019050919050565b600060208201905081810360008301526140e3816140a7565b9050919050565b7f4552433732313a20617070726f76652063616c6c6572206973206e6f7420746f60008201527f6b656e206f776e6572206f7220617070726f76656420666f7220616c6c000000602082015250565b6000614146603d836133bf565b9150614151826140ea565b604082019050919050565b6000602082019050818103600083015261417581614139565b9050919050565b7f4552433732313a2063616c6c6572206973206e6f7420746f6b656e206f776e6560008201527f72206f7220617070726f76656400000000000000000000000000000000000000602082015250565b60006141d8602d836133bf565b91506141e38261417c565b604082019050919050565b60006020820190508181036000830152614207816141cb565b9050919050565b7f4e6f7420617574686f72697a656420746f2061646a7573742073616c65000000600082015250565b6000614244601d836133bf565b915061424f8261420e565b602082019050919050565b6000602082019050818103600083015261427381614237565b9050919050565b7f506c65617365206b657920696e20616761696e00000000000000000000000000600082015250565b60006142b06013836133bf565b91506142bb8261427a565b602082019050919050565b600060208201905081810360008301526142df816142a3565b9050919050565b7f4e487b7100000000000000000000000000000000000000000000000000000000600052603260045260246000fd5b600081905092915050565b600061432b826133b4565b6143358185614315565b93506143458185602086016133d0565b80840191505092915050565b600061435d8284614320565b915081905092915050565b60008190508160005260206000209050919050565b6000815461438a81614026565b6143948186614315565b945060018216600081146143af57600181146143c0576143f3565b60ff198316865281860193506143f3565b6143c985614368565b60005b838110156143eb578154818901526001820191506020810190506143cc565b838801955050505b50505092915050565b6000614408828461437d565b915081905092915050565b7f4d617820737570706c7920696e73756666696369656e742c206e65656420686960008201527f67686572206c696d697400000000000000000000000000000000000000000000602082015250565b600061446f602a836133bf565b915061447a82614413565b604082019050919050565b6000602082019050818103600083015261449e81614462565b9050919050565b7f4e487b7100000000000000000000000000000000000000000000000000000000600052601160045260246000fd5b60006144df8261346f565b91506144ea8361346f565b9250827fffffffffffffffffffffffffffffffffffffffffffffffffffffffffffffffff0382111561451f5761451e6144a5565b5b828201905092915050565b60006145358261346f565b91507fffffffffffffffffffffffffffffffffffffffffffffffffffffffffffffffff821415614568576145676144a5565b5b600182019050919050565b7f4552433732313a20696e76616c696420746f6b656e2049440000000000000000600082015250565b60006145a96018836133bf565b91506145b482614573565b602082019050919050565b600060208201905081810360008301526145d88161459c565b9050919050565b7f4552433732313a2061646472657373207a65726f206973206e6f74206120766160008201527f6c6964206f776e65720000000000000000000000000000000000000000000000602082015250565b600061463b6029836133bf565b9150614646826145df565b604082019050919050565b6000602082019050818103600083015261466a8161462e565b9050919050565b7f4578636565646564204d6178204d696e74696e67000000000000000000000000600082015250565b60006146a76014836133bf565b91506146b282614671565b602082019050919050565b600060208201905081810360008301526146d68161469a565b9050919050565b7f45786365656465642043617465676f7279206d696e74696e6700000000000000600082015250565b60006147136019836133bf565b915061471e826146dd565b602082019050919050565b6000602082019050818103600083015261474281614706565b9050919050565b7f4e487b7100000000000000000000000000000000000000000000000000000000600052601260045260246000fd5b60006147838261346f565b915061478e8361346f565b92508261479e5761479d614749565b5b828204905092915050565b60006147b48261346f565b91506147bf8361346f565b9250817fffffffffffffffffffffffffffffffffffffffffffffffffffffffffffffffff04831182151516156147f8576147f76144a5565b5b828202905092915050565b7f4e6f7420656e6f75676820455448000000000000000000000000000000000000600082015250565b6000614839600e836133bf565b915061484482614803565b602082019050919050565b600060208201905081810360008301526148688161482c565b9050919050565b60006040820190506148846000830185613829565b6148916020830184613504565b9392505050565b60006148a48285614320565b91506148b08284614320565b91508190509392505050565b7f4e6f7420617574686f72697a6564000000000000000000000000000000000000600082015250565b60006148f2600e836133bf565b91506148fd826148bc565b602082019050919050565b60006020820190508181036000830152614921816148e5565b9050919050565b7f5469636b657420616c726561647920636865636b656420696e20000000000000600082015250565b600061495e601a836133bf565b915061496982614928565b602082019050919050565b6000602082019050818103600083015261498d81614951565b9050919050565b7f4f776e61626c653a206e6577206f776e657220697320746865207a65726f206160008201527f6464726573730000000000000000000000000000000000000000000000000000602082015250565b60006149f06026836133bf565b91506149fb82614994565b604082019050919050565b60006020820190508181036000830152614a1f816149e3565b9050919050565b7f4552433732313a207472616e736665722066726f6d20696e636f72726563742060008201527f6f776e6572000000000000000000000000000000000000000000000000000000602082015250565b6000614a826025836133bf565b9150614a8d82614a26565b604082019050919050565b60006020820190508181036000830152614ab181614a75565b9050919050565b7f4552433732313a207472616e7366657220746f20746865207a65726f2061646460008201527f7265737300000000000000000000000000000000000000000000000000000000602082015250565b6000614b146024836133bf565b9150614b1f82614ab8565b604082019050919050565b60006020820190508181036000830152614b4381614b07565b9050919050565b7f45524337323155524953746f726167653a2055524920736574206f66206e6f6e60008201527f6578697374656e7420746f6b656e000000000000000000000000000000000000602082015250565b6000614ba6602e836133bf565b9150614bb182614b4a565b604082019050919050565b60006020820190508181036000830152614bd581614b99565b9050919050565b7f4f776e61626c653a2063616c6c6572206973206e6f7420746865206f776e6572600082015250565b6000614c126020836133bf565b9150614c1d82614bdc565b602082019050919050565b60006020820190508181036000830152614c4181614c05565b9050919050565b7f4552433732313a20617070726f766520746f2063616c6c657200000000000000600082015250565b6000614c7e6019836133bf565b9150614c8982614c48565b602082019050919050565b60006020820190508181036000830152614cad81614c71565b9050919050565b7f4552433732313a207472616e7366657220746f206e6f6e20455243373231526560008201527f63656976657220696d706c656d656e7465720000000000000000000000000000602082015250565b6000614d106032836133bf565b9150614d1b82614cb4565b604082019050919050565b60006020820190508181036000830152614d3f81614d03565b9050919050565b6000614d518261346f565b9150614d5c8361346f565b925082821015614d6f57614d6e6144a5565b5b828203905092915050565b600081519050919050565b600082825260208201905092915050565b6000614da182614d7a565b614dab8185614d85565b9350614dbb8185602086016133d0565b614dc481613403565b840191505092915050565b6000608082019050614de46000830187613504565b614df16020830186613504565b614dfe6040830185613829565b8181036060830152614e108184614d96565b905095945050505050565b600081519050614e2a81613325565b92915050565b600060208284031215614e4657614e456132ef565b5b6000614e5484828501614e1b565b91505092915050565b7f4552433732313a206d696e7420746f20746865207a65726f2061646472657373600082015250565b6000614e936020836133bf565b9150614e9e82614e5d565b602082019050919050565b60006020820190508181036000830152614ec281614e86565b9050919050565b7f4552433732313a20746f6b656e20616c7265616479206d696e74656400000000600082015250565b6000614eff601c836133bf565b9150614f0a82614ec9565b602082019050919050565b60006020820190508181036000830152614f2e81614ef2565b905091905056fea2646970667358221220c1760f1a31ddefdd1666ab3b8ff36dbbf17e590fb3f46e6922974d1e433d2e1964736f6c63430008090033",
  "linkReferences": {},
  "deployedLinkReferences": {}
}