{
  "_format": "hh-sol-artifact-1",
  "contractName": "SimpleEvent",
  "sourceName": "contracts/SimpleEvent.sol",
  "abi": [
    {
      "inputs": [
        {
          "internalType": "string[]",
          "name": "_categories",
          "type": "string[]"
        },
        {
          "internalType": "uint256[]",
          "name": "_categoryPrices",
          "type": "uint256[]"
        },
        {
          "internalType": "uint256[]",
          "name": "_categoryLimits",
          "type": "uint256[]"
        },
        {
          "internalType": "string",
          "name": "_eventName",
          "type": "string"
        },
        {
          "internalType": "string",
          "name": "_dateTime",
          "type": "string"
        },
        {
          "internalType": "string",
          "name": "_venue",
          "type": "string"
        },
        {
          "internalType": "uint256",
          "name": "_commission",
          "type": "uint256"
        },
        {
          "internalType": "uint256",
          "name": "_maxTicketPerAddress",
          "type": "uint256"
        },
        {
          "internalType": "string",
          "name": "_eventSymbol",
          "type": "string"
        }
      ],
      "stateMutability": "payable",
      "type": "constructor"
    },
    {
      "anonymous": false,
      "inputs": [
        {
          "indexed": true,
          "internalType": "address",
          "name": "owner",
          "type": "address"
        },
        {
          "indexed": true,
          "internalType": "address",
          "name": "approved",
          "type": "address"
        },
        {
          "indexed": true,
          "internalType": "uint256",
          "name": "tokenId",
          "type": "uint256"
        }
      ],
      "name": "Approval",
      "type": "event"
    },
    {
      "anonymous": false,
      "inputs": [
        {
          "indexed": true,
          "internalType": "address",
          "name": "owner",
          "type": "address"
        },
        {
          "indexed": true,
          "internalType": "address",
          "name": "operator",
          "type": "address"
        },
        {
          "indexed": false,
          "internalType": "bool",
          "name": "approved",
          "type": "bool"
        }
      ],
      "name": "ApprovalForAll",
      "type": "event"
    },
    {
      "anonymous": false,
      "inputs": [
        {
          "indexed": true,
          "internalType": "address",
          "name": "previousOwner",
          "type": "address"
        },
        {
          "indexed": true,
          "internalType": "address",
          "name": "newOwner",
          "type": "address"
        }
      ],
      "name": "OwnershipTransferred",
      "type": "event"
    },
    {
      "anonymous": false,
      "inputs": [
        {
          "indexed": true,
          "internalType": "address",
          "name": "from",
          "type": "address"
        },
        {
          "indexed": true,
          "internalType": "address",
          "name": "to",
          "type": "address"
        },
        {
          "indexed": true,
          "internalType": "uint256",
          "name": "tokenId",
          "type": "uint256"
        }
      ],
      "name": "Transfer",
      "type": "event"
    },
    {
      "anonymous": false,
      "inputs": [
        {
          "indexed": false,
          "internalType": "uint256",
          "name": "tokenId",
          "type": "uint256"
        },
        {
          "indexed": false,
          "internalType": "address",
          "name": "user",
          "type": "address"
        }
      ],
      "name": "checkedIn",
      "type": "event"
    },
    {
      "anonymous": false,
      "inputs": [
        {
          "indexed": false,
          "internalType": "uint256",
          "name": "tokenId",
          "type": "uint256"
        },
        {
          "indexed": false,
          "internalType": "address",
          "name": "user",
          "type": "address"
        },
        {
          "indexed": false,
          "internalType": "uint256",
          "name": "price",
          "type": "uint256"
        }
      ],
      "name": "ticketListed",
      "type": "event"
    },
    {
      "anonymous": false,
      "inputs": [
        {
          "indexed": false,
          "internalType": "uint256",
          "name": "tokenId",
          "type": "uint256"
        },
        {
          "indexed": false,
          "internalType": "address",
          "name": "recipient",
          "type": "address"
        }
      ],
      "name": "ticketMinted",
      "type": "event"
    },
    {
      "anonymous": false,
      "inputs": [
        {
          "indexed": false,
          "internalType": "uint256",
          "name": "tokenId",
          "type": "uint256"
        },
        {
          "indexed": false,
          "internalType": "address",
          "name": "user",
          "type": "address"
        }
      ],
      "name": "ticketUnlisted",
      "type": "event"
    },
    {
      "anonymous": false,
      "inputs": [
        {
          "indexed": false,
          "internalType": "address",
          "name": "user",
          "type": "address"
        }
      ],
      "name": "userMints",
      "type": "event"
    },
    {
      "inputs": [
        {
          "internalType": "address",
          "name": "to",
          "type": "address"
        },
        {
          "internalType": "uint256",
          "name": "tokenId",
          "type": "uint256"
        }
      ],
      "name": "approve",
      "outputs": [],
      "stateMutability": "nonpayable",
      "type": "function"
    },
    {
      "inputs": [
        {
          "internalType": "address",
          "name": "owner",
          "type": "address"
        }
      ],
      "name": "balanceOf",
      "outputs": [
        {
          "internalType": "uint256",
          "name": "",
          "type": "uint256"
        }
      ],
      "stateMutability": "view",
      "type": "function"
    },
    {
      "inputs": [
        {
          "internalType": "string[]",
          "name": "new_categories",
          "type": "string[]"
        },
        {
          "internalType": "uint256[]",
          "name": "new_categoryPrices",
          "type": "uint256[]"
        },
        {
          "internalType": "uint256[]",
          "name": "new_categoryLimits",
          "type": "uint256[]"
        }
      ],
      "name": "changeCategories",
      "outputs": [],
      "stateMutability": "nonpayable",
      "type": "function"
    },
    {
      "inputs": [
        {
          "internalType": "uint256",
          "name": "tokenId",
          "type": "uint256"
        }
      ],
      "name": "checkIn",
      "outputs": [],
      "stateMutability": "nonpayable",
      "type": "function"
    },
    {
      "inputs": [],
      "name": "eventCancelled",
      "outputs": [],
      "stateMutability": "nonpayable",
      "type": "function"
    },
    {
      "inputs": [
        {
          "internalType": "uint256",
          "name": "tokenId",
          "type": "uint256"
        }
      ],
      "name": "expiredTicket",
      "outputs": [],
      "stateMutability": "nonpayable",
      "type": "function"
    },
    {
      "inputs": [
        {
          "internalType": "uint256",
          "name": "tokenId",
          "type": "uint256"
        }
      ],
      "name": "getApproved",
      "outputs": [
        {
          "internalType": "address",
          "name": "",
          "type": "address"
        }
      ],
      "stateMutability": "view",
      "type": "function"
    },
    {
      "inputs": [
        {
          "internalType": "string",
          "name": "category",
          "type": "string"
        }
      ],
      "name": "getCategoryInformation",
      "outputs": [
        {
          "internalType": "uint256",
          "name": "_price",
          "type": "uint256"
        },
        {
          "internalType": "uint256",
          "name": "_maxNumber",
          "type": "uint256"
        },
        {
          "internalType": "uint256",
          "name": "_currentSupply",
          "type": "uint256"
        }
      ],
      "stateMutability": "view",
      "type": "function"
    },
    {
      "inputs": [],
      "name": "getCommission",
      "outputs": [
        {
          "internalType": "uint256",
          "name": "",
          "type": "uint256"
        }
      ],
      "stateMutability": "view",
      "type": "function"
    },
    {
      "inputs": [
        {
          "internalType": "uint256",
          "name": "tokenId",
          "type": "uint256"
        }
      ],
      "name": "getTicketDetails",
      "outputs": [
        {
          "components": [
            {
              "internalType": "address",
              "name": "organizer",
              "type": "address"
            },
            {
              "internalType": "address",
              "name": "ticketOwner",
              "type": "address"
            },
            {
              "components": [
                {
                  "internalType": "string",
                  "name": "category",
                  "type": "string"
                },
                {
                  "internalType": "uint256",
                  "name": "price",
                  "type": "uint256"
                },
                {
                  "internalType": "uint256",
                  "name": "maxNumber",
                  "type": "uint256"
                },
                {
                  "internalType": "uint256",
                  "name": "currentSupply",
                  "type": "uint256"
                }
              ],
              "internalType": "struct SimpleEvent.Category",
              "name": "category",
              "type": "tuple"
            },
            {
              "internalType": "uint256",
              "name": "currentPrice",
              "type": "uint256"
            },
            {
              "internalType": "enum SimpleEvent.ticketStatus",
              "name": "_ticketStatus",
              "type": "uint8"
            },
            {
              "internalType": "bool",
              "name": "ticketListing",
              "type": "bool"
            },
            {
              "internalType": "bool",
              "name": "checkIn",
              "type": "bool"
            }
          ],
          "internalType": "struct SimpleEvent.Ticket",
          "name": "ticket",
          "type": "tuple"
        }
      ],
      "stateMutability": "view",
      "type": "function"
    },
    {
      "inputs": [],
      "name": "getTokenSupply",
      "outputs": [
        {
          "internalType": "uint256",
          "name": "",
          "type": "uint256"
        }
      ],
      "stateMutability": "view",
      "type": "function"
    },
    {
      "inputs": [
        {
          "internalType": "address",
          "name": "owner",
          "type": "address"
        },
        {
          "internalType": "address",
          "name": "operator",
          "type": "address"
        }
      ],
      "name": "isApprovedForAll",
      "outputs": [
        {
          "internalType": "bool",
          "name": "",
          "type": "bool"
        }
      ],
      "stateMutability": "view",
      "type": "function"
    },
    {
      "inputs": [
        {
          "internalType": "string",
          "name": "category",
          "type": "string"
        },
        {
          "internalType": "string",
          "name": "tokenURI",
          "type": "string"
        }
      ],
      "name": "mint",
      "outputs": [
        {
          "internalType": "uint256",
          "name": "",
          "type": "uint256"
        }
      ],
      "stateMutability": "payable",
      "type": "function"
    },
    {
      "inputs": [],
      "name": "name",
      "outputs": [
        {
          "internalType": "string",
          "name": "",
          "type": "string"
        }
      ],
      "stateMutability": "view",
      "type": "function"
    },
    {
      "inputs": [],
      "name": "owner",
      "outputs": [
        {
          "internalType": "address",
          "name": "",
          "type": "address"
        }
      ],
      "stateMutability": "view",
      "type": "function"
    },
    {
      "inputs": [
        {
          "internalType": "uint256",
          "name": "tokenId",
          "type": "uint256"
        }
      ],
      "name": "ownerOf",
      "outputs": [
        {
          "internalType": "address",
          "name": "",
          "type": "address"
        }
      ],
      "stateMutability": "view",
      "type": "function"
    },
    {
      "inputs": [],
      "name": "renounceOwnership",
      "outputs": [],
      "stateMutability": "nonpayable",
      "type": "function"
    },
    {
      "inputs": [
        {
          "internalType": "address",
          "name": "from",
          "type": "address"
        },
        {
          "internalType": "address",
          "name": "to",
          "type": "address"
        },
        {
          "internalType": "uint256",
          "name": "tokenId",
          "type": "uint256"
        }
      ],
      "name": "safeTransferFrom",
      "outputs": [],
      "stateMutability": "nonpayable",
      "type": "function"
    },
    {
      "inputs": [
        {
          "internalType": "address",
          "name": "from",
          "type": "address"
        },
        {
          "internalType": "address",
          "name": "to",
          "type": "address"
        },
        {
          "internalType": "uint256",
          "name": "tokenId",
          "type": "uint256"
        },
        {
          "internalType": "bytes",
          "name": "data",
          "type": "bytes"
        }
      ],
      "name": "safeTransferFrom",
      "outputs": [],
      "stateMutability": "nonpayable",
      "type": "function"
    },
    {
      "inputs": [
        {
          "internalType": "address",
          "name": "operator",
          "type": "address"
        },
        {
          "internalType": "bool",
          "name": "approved",
          "type": "bool"
        }
      ],
      "name": "setApprovalForAll",
      "outputs": [],
      "stateMutability": "nonpayable",
      "type": "function"
    },
    {
      "inputs": [
        {
          "internalType": "uint256",
          "name": "tokenId",
          "type": "uint256"
        },
        {
          "internalType": "string",
          "name": "tokenURI",
          "type": "string"
        }
      ],
      "name": "setNewTokenURI",
      "outputs": [],
      "stateMutability": "nonpayable",
      "type": "function"
    },
    {
      "inputs": [
        {
          "internalType": "bytes4",
          "name": "interfaceId",
          "type": "bytes4"
        }
      ],
      "name": "supportsInterface",
      "outputs": [
        {
          "internalType": "bool",
          "name": "",
          "type": "bool"
        }
      ],
      "stateMutability": "view",
      "type": "function"
    },
    {
      "inputs": [],
      "name": "symbol",
      "outputs": [
        {
          "internalType": "string",
          "name": "",
          "type": "string"
        }
      ],
      "stateMutability": "view",
      "type": "function"
    },
    {
      "inputs": [
        {
          "internalType": "uint256",
          "name": "",
          "type": "uint256"
        }
      ],
      "name": "ticketIDs",
      "outputs": [
        {
          "internalType": "address",
          "name": "organizer",
          "type": "address"
        },
        {
          "internalType": "address",
          "name": "ticketOwner",
          "type": "address"
        },
        {
          "components": [
            {
              "internalType": "string",
              "name": "category",
              "type": "string"
            },
            {
              "internalType": "uint256",
              "name": "price",
              "type": "uint256"
            },
            {
              "internalType": "uint256",
              "name": "maxNumber",
              "type": "uint256"
            },
            {
              "internalType": "uint256",
              "name": "currentSupply",
              "type": "uint256"
            }
          ],
          "internalType": "struct SimpleEvent.Category",
          "name": "category",
          "type": "tuple"
        },
        {
          "internalType": "uint256",
          "name": "currentPrice",
          "type": "uint256"
        },
        {
          "internalType": "enum SimpleEvent.ticketStatus",
          "name": "_ticketStatus",
          "type": "uint8"
        },
        {
          "internalType": "bool",
          "name": "ticketListing",
          "type": "bool"
        },
        {
          "internalType": "bool",
          "name": "checkIn",
          "type": "bool"
        }
      ],
      "stateMutability": "view",
      "type": "function"
    },
    {
      "inputs": [
        {
          "internalType": "address",
          "name": "",
          "type": "address"
        }
      ],
      "name": "ticketsPerOwner",
      "outputs": [
        {
          "internalType": "uint256",
          "name": "",
          "type": "uint256"
        }
      ],
      "stateMutability": "view",
      "type": "function"
    },
    {
      "inputs": [
        {
          "internalType": "uint256",
          "name": "tokenId",
          "type": "uint256"
        }
      ],
      "name": "tokenURI",
      "outputs": [
        {
          "internalType": "string",
          "name": "",
          "type": "string"
        }
      ],
      "stateMutability": "view",
      "type": "function"
    },
    {
      "inputs": [
        {
          "internalType": "address",
          "name": "from",
          "type": "address"
        },
        {
          "internalType": "address",
          "name": "to",
          "type": "address"
        },
        {
          "internalType": "uint256",
          "name": "tokenId",
          "type": "uint256"
        }
      ],
      "name": "transferFrom",
      "outputs": [],
      "stateMutability": "nonpayable",
      "type": "function"
    },
    {
      "inputs": [
        {
          "internalType": "address",
          "name": "newOwner",
          "type": "address"
        }
      ],
      "name": "transferOwnership",
      "outputs": [],
      "stateMutability": "nonpayable",
      "type": "function"
    }
  ],
  "bytecode": "0x608060405233600a60006101000a81548173ffffffffffffffffffffffffffffffffffffffff021916908373ffffffffffffffffffffffffffffffffffffffff16021790555066470de4df82000060145573dd870fa1b7c4700f2bd7f44238821c26f7392148601560006101000a81548173ffffffffffffffffffffffffffffffffffffffff021916908373ffffffffffffffffffffffffffffffffffffffff16021790555060405162005e1b38038062005e1b8339818101604052810190620000ca919062000aed565b8581620000ec620000e0620004a060201b60201c565b620004a860201b60201c565b6001808190555081600290805190602001906200010b9291906200056c565b508060039080519060200190620001249291906200056c565b50505088601a90805190602001906200013f929190620005fd565b5087601b90805190602001906200015892919062000664565b5086601c90805190602001906200017192919062000664565b5085600e90805190602001906200018a9291906200056c565b508460109080519060200190620001a39291906200056c565b508360119080519060200190620001bc9291906200056c565b508060169080519060200190620001d59291906200056c565b5082601281905550816013819055506000600d81905550601b80549050601a80549050146200023b576040517f08c379a0000000000000000000000000000000000000000000000000000000008152600401620002329062000d06565b60405180910390fd5b601c80549050601a80549050146200028a576040517f08c379a0000000000000000000000000000000000000000000000000000000008152600401620002819062000d06565b60405180910390fd5b6000600c8190555060005b601a80549050811015620004905760006040518060800160405280601a8481548110620002c757620002c662000d28565b5b906000526020600020018054620002de9062000d86565b80601f01602080910402602001604051908101604052809291908181526020018280546200030c9062000d86565b80156200035d5780601f1062000331576101008083540402835291602001916200035d565b820191906000526020600020905b8154815290600101906020018083116200033f57829003601f168201915b50505050508152602001601b84815481106200037e576200037d62000d28565b5b90600052602060002001548152602001601c8481548110620003a557620003a462000d28565b5b9060005260206000200154815260200160008152509050806017601a8481548110620003d657620003d562000d28565b5b90600052602060002001604051620003ef919062000e67565b908152602001604051809103902060008201518160000190805190602001906200041b9291906200056c565b50602082015181600101556040820151816002015560608201518160030155905050601c828154811062000454576200045362000d28565b5b9060005260206000200154600c600082825462000472919062000eaf565b92505081905550508080620004879062000f0c565b91505062000295565b5050505050505050505062000f5a565b600033905090565b60008060009054906101000a900473ffffffffffffffffffffffffffffffffffffffff169050816000806101000a81548173ffffffffffffffffffffffffffffffffffffffff021916908373ffffffffffffffffffffffffffffffffffffffff1602179055508173ffffffffffffffffffffffffffffffffffffffff168173ffffffffffffffffffffffffffffffffffffffff167f8be0079c531659141344cd1fd0a4f28419497f9722a3daafe3b4186f6b6457e060405160405180910390a35050565b8280546200057a9062000d86565b90600052602060002090601f0160209004810192826200059e5760008555620005ea565b82601f10620005b957805160ff1916838001178555620005ea565b82800160010185558215620005ea579182015b82811115620005e9578251825591602001919060010190620005cc565b5b509050620005f99190620006b6565b5090565b82805482825590600052602060002090810192821562000651579160200282015b82811115620006505782518290805190602001906200063f9291906200056c565b50916020019190600101906200061e565b5b509050620006609190620006d5565b5090565b828054828255906000526020600020908101928215620006a3579160200282015b82811115620006a257825182559160200191906001019062000685565b5b509050620006b29190620006b6565b5090565b5b80821115620006d1576000816000905550600101620006b7565b5090565b5b80821115620006f95760008181620006ef9190620006fd565b50600101620006d6565b5090565b5080546200070b9062000d86565b6000825580601f106200071f575062000740565b601f0160209004906000526020600020908101906200073f9190620006b6565b5b50565b6000604051905090565b600080fd5b600080fd5b600080fd5b6000601f19601f8301169050919050565b7f4e487b7100000000000000000000000000000000000000000000000000000000600052604160045260246000fd5b620007a7826200075c565b810181811067ffffffffffffffff82111715620007c957620007c86200076d565b5b80604052505050565b6000620007de62000743565b9050620007ec82826200079c565b919050565b600067ffffffffffffffff8211156200080f576200080e6200076d565b5b602082029050602081019050919050565b600080fd5b600080fd5b600067ffffffffffffffff8211156200084857620008476200076d565b5b62000853826200075c565b9050602081019050919050565b60005b838110156200088057808201518184015260208101905062000863565b8381111562000890576000848401525b50505050565b6000620008ad620008a7846200082a565b620007d2565b905082815260208101848484011115620008cc57620008cb62000825565b5b620008d984828562000860565b509392505050565b600082601f830112620008f957620008f862000757565b5b81516200090b84826020860162000896565b91505092915050565b60006200092b6200092584620007f1565b620007d2565b9050808382526020820190506020840283018581111562000951576200095062000820565b5b835b818110156200099f57805167ffffffffffffffff8111156200097a576200097962000757565b5b808601620009898982620008e1565b8552602085019450505060208101905062000953565b5050509392505050565b600082601f830112620009c157620009c062000757565b5b8151620009d384826020860162000914565b91505092915050565b600067ffffffffffffffff821115620009fa57620009f96200076d565b5b602082029050602081019050919050565b6000819050919050565b62000a208162000a0b565b811462000a2c57600080fd5b50565b60008151905062000a408162000a15565b92915050565b600062000a5d62000a5784620009dc565b620007d2565b9050808382526020820190506020840283018581111562000a835762000a8262000820565b5b835b8181101562000ab0578062000a9b888262000a2f565b84526020840193505060208101905062000a85565b5050509392505050565b600082601f83011262000ad25762000ad162000757565b5b815162000ae484826020860162000a46565b91505092915050565b60008060008060008060008060006101208a8c03121562000b135762000b126200074d565b5b60008a015167ffffffffffffffff81111562000b345762000b3362000752565b5b62000b428c828d01620009a9565b99505060208a015167ffffffffffffffff81111562000b665762000b6562000752565b5b62000b748c828d0162000aba565b98505060408a015167ffffffffffffffff81111562000b985762000b9762000752565b5b62000ba68c828d0162000aba565b97505060608a015167ffffffffffffffff81111562000bca5762000bc962000752565b5b62000bd88c828d01620008e1565b96505060808a015167ffffffffffffffff81111562000bfc5762000bfb62000752565b5b62000c0a8c828d01620008e1565b95505060a08a015167ffffffffffffffff81111562000c2e5762000c2d62000752565b5b62000c3c8c828d01620008e1565b94505060c062000c4f8c828d0162000a2f565b93505060e062000c628c828d0162000a2f565b9250506101008a015167ffffffffffffffff81111562000c875762000c8662000752565b5b62000c958c828d01620008e1565b9150509295985092959850929598565b600082825260208201905092915050565b7f506c65617365206b657920696e20616761696e00000000000000000000000000600082015250565b600062000cee60138362000ca5565b915062000cfb8262000cb6565b602082019050919050565b6000602082019050818103600083015262000d218162000cdf565b9050919050565b7f4e487b7100000000000000000000000000000000000000000000000000000000600052603260045260246000fd5b7f4e487b7100000000000000000000000000000000000000000000000000000000600052602260045260246000fd5b6000600282049050600182168062000d9f57607f821691505b6020821081141562000db65762000db562000d57565b5b50919050565b600081905092915050565b60008190508160005260206000209050919050565b6000815462000deb8162000d86565b62000df7818662000dbc565b9450600182166000811462000e15576001811462000e275762000e5e565b60ff1983168652818601935062000e5e565b62000e328562000dc7565b60005b8381101562000e565781548189015260018201915060208101905062000e35565b838801955050505b50505092915050565b600062000e75828462000ddc565b915081905092915050565b7f4e487b7100000000000000000000000000000000000000000000000000000000600052601160045260246000fd5b600062000ebc8262000a0b565b915062000ec98362000a0b565b9250827fffffffffffffffffffffffffffffffffffffffffffffffffffffffffffffffff0382111562000f015762000f0062000e80565b5b828201905092915050565b600062000f198262000a0b565b91507fffffffffffffffffffffffffffffffffffffffffffffffffffffffffffffffff82141562000f4f5762000f4e62000e80565b5b600182019050919050565b614eb18062000f6a6000396000f3fe6080604052600436106101b75760003560e01c80638aa0fdad116100ec578063e1a494d11161008a578063e95a644f11610064578063e95a644f14610627578063e985e9c514610650578063f2fde38b1461068d578063fa205f03146106b6576101b7565b8063e1a494d1146105bc578063e2c81377146105d3578063e65d6b49146105fc576101b7565b8063a22cb465116100c6578063a22cb46514610502578063ad974f4c1461052b578063b88d4fde14610556578063c87b56dd1461057f576101b7565b80638aa0fdad1461047c5780638da5cb5b146104ac57806395d89b41146104d7576101b7565b80632ce8d6fe116101595780634d07d5ab116101335780634d07d5ab146103a85780636352211e146103eb57806370a0823114610428578063715018a614610465576101b7565b80632ce8d6fe1461032d5780633c73dae11461035657806342842e0e1461037f576101b7565b8063095ea7b311610195578063095ea7b31461026157806323b872dd1461028a57806324c14160146102b35780632c921196146102f0576101b7565b806301ffc9a7146101bc57806306fdde03146101f9578063081812fc14610224575b600080fd5b3480156101c857600080fd5b506101e360048036038101906101de91906132aa565b6106f5565b6040516101f091906132f2565b60405180910390f35b34801561020557600080fd5b5061020e6107d7565b60405161021b91906133a6565b60405180910390f35b34801561023057600080fd5b5061024b600480360381019061024691906133fe565b610869565b604051610258919061346c565b60405180910390f35b34801561026d57600080fd5b50610288600480360381019061028391906134b3565b6108af565b005b34801561029657600080fd5b506102b160048036038101906102ac91906134f3565b6109c7565b005b3480156102bf57600080fd5b506102da60048036038101906102d591906133fe565b610a27565b6040516102e79190613733565b60405180910390f35b3480156102fc57600080fd5b5061031760048036038101906103129190613755565b610c3f565b6040516103249190613791565b60405180910390f35b34801561033957600080fd5b50610354600480360381019061034f91906138e1565b610c57565b005b34801561036257600080fd5b5061037d60048036038101906103789190613ae6565b610c65565b005b34801561038b57600080fd5b506103a660048036038101906103a191906134f3565b61101f565b005b3480156103b457600080fd5b506103cf60048036038101906103ca91906133fe565b61103f565b6040516103e29796959493929190613bff565b60405180910390f35b3480156103f757600080fd5b50610412600480360381019061040d91906133fe565b6111a2565b60405161041f919061346c565b60405180910390f35b34801561043457600080fd5b5061044f600480360381019061044a9190613755565b611229565b60405161045c9190613791565b60405180910390f35b34801561047157600080fd5b5061047a6112e1565b005b61049660048036038101906104919190613c75565b6112f5565b6040516104a39190613791565b60405180910390f35b3480156104b857600080fd5b506104c1611908565b6040516104ce919061346c565b60405180910390f35b3480156104e357600080fd5b506104ec611931565b6040516104f991906133a6565b60405180910390f35b34801561050e57600080fd5b5061052960048036038101906105249190613d19565b6119c3565b005b34801561053757600080fd5b506105406119d9565b60405161054d9190613791565b60405180910390f35b34801561056257600080fd5b5061057d60048036038101906105789190613dfa565b6119e3565b005b34801561058b57600080fd5b506105a660048036038101906105a191906133fe565b611a45565b6040516105b391906133a6565b60405180910390f35b3480156105c857600080fd5b506105d1611b58565b005b3480156105df57600080fd5b506105fa60048036038101906105f591906133fe565b611c4a565b005b34801561060857600080fd5b50610611611c8c565b60405161061e9190613791565b60405180910390f35b34801561063357600080fd5b5061064e600480360381019061064991906133fe565b611c96565b005b34801561065c57600080fd5b5061067760048036038101906106729190613e7d565b611e11565b60405161068491906132f2565b60405180910390f35b34801561069957600080fd5b506106b460048036038101906106af9190613755565b611ea5565b005b3480156106c257600080fd5b506106dd60048036038101906106d89190613ebd565b611f29565b6040516106ec93929190613f06565b60405180910390f35b60007f80ac58cd000000000000000000000000000000000000000000000000000000007bffffffffffffffffffffffffffffffffffffffffffffffffffffffff1916827bffffffffffffffffffffffffffffffffffffffffffffffffffffffff191614806107c057507f5b5e139f000000000000000000000000000000000000000000000000000000007bffffffffffffffffffffffffffffffffffffffffffffffffffffffff1916827bffffffffffffffffffffffffffffffffffffffffffffffffffffffff1916145b806107d057506107cf82611fa1565b5b9050919050565b6060600280546107e690613f6c565b80601f016020809104026020016040519081016040528092919081815260200182805461081290613f6c565b801561085f5780601f106108345761010080835404028352916020019161085f565b820191906000526020600020905b81548152906001019060200180831161084257829003601f168201915b5050505050905090565b60006108748261200b565b6006600083815260200190815260200160002060009054906101000a900473ffffffffffffffffffffffffffffffffffffffff169050919050565b60006108ba826111a2565b90508073ffffffffffffffffffffffffffffffffffffffff168373ffffffffffffffffffffffffffffffffffffffff16141561092b576040517f08c379a000000000000000000000000000000000000000000000000000000000815260040161092290614010565b60405180910390fd5b8073ffffffffffffffffffffffffffffffffffffffff1661094a612056565b73ffffffffffffffffffffffffffffffffffffffff161480610979575061097881610973612056565b611e11565b5b6109b8576040517f08c379a00000000000000000000000000000000000000000000000000000000081526004016109af906140a2565b60405180910390fd5b6109c2838361205e565b505050565b6109d86109d2612056565b82612117565b610a17576040517f08c379a0000000000000000000000000000000000000000000000000000000008152600401610a0e90614134565b60405180910390fd5b610a228383836121ac565b505050565b610a2f6130ee565b601860008381526020019081526020016000206040518060e00160405290816000820160009054906101000a900473ffffffffffffffffffffffffffffffffffffffff1673ffffffffffffffffffffffffffffffffffffffff1673ffffffffffffffffffffffffffffffffffffffff1681526020016001820160009054906101000a900473ffffffffffffffffffffffffffffffffffffffff1673ffffffffffffffffffffffffffffffffffffffff1673ffffffffffffffffffffffffffffffffffffffff16815260200160028201604051806080016040529081600082018054610b1990613f6c565b80601f0160208091040260200160405190810160405280929190818152602001828054610b4590613f6c565b8015610b925780601f10610b6757610100808354040283529160200191610b92565b820191906000526020600020905b815481529060010190602001808311610b7557829003601f168201915b5050505050815260200160018201548152602001600282015481526020016003820154815250508152602001600682015481526020016007820160009054906101000a900460ff166003811115610bec57610beb613611565b5b6003811115610bfe57610bfd613611565b5b81526020016007820160019054906101000a900460ff161515151581526020016007820160029054906101000a900460ff1615151515815250509050919050565b60196020528060005260406000206000915090505481565b610c6182826124a6565b5050565b3373ffffffffffffffffffffffffffffffffffffffff16600a60009054906101000a900473ffffffffffffffffffffffffffffffffffffffff1673ffffffffffffffffffffffffffffffffffffffff1614610cf5576040517f08c379a0000000000000000000000000000000000000000000000000000000008152600401610cec906141a0565b60405180910390fd5b8151835114610d39576040517f08c379a0000000000000000000000000000000000000000000000000000000008152600401610d309061420c565b60405180910390fd5b8051835114610d7d576040517f08c379a0000000000000000000000000000000000000000000000000000000008152600401610d749061420c565b60405180910390fd5b6000600c8190555060005b601a80549050811015611019576000848281518110610daa57610da961422c565b5b6020026020010151604051602001610dc29190614297565b604051602081830303815290604052805190602001206017601a8481548110610dee57610ded61422c565b5b90600052602060002001604051610e059190614342565b9081526020016040518091039020600001604051602001610e269190614342565b604051602081830303815290604052805190602001201415610ee0576017601a8381548110610e5857610e5761422c565b5b90600052602060002001604051610e6f9190614342565b9081526020016040518091039020600301549050828281518110610e9657610e9561422c565b5b60200260200101518110610edf576040517f08c379a0000000000000000000000000000000000000000000000000000000008152600401610ed6906143cb565b60405180910390fd5b5b60006040518060800160405280878581518110610f0057610eff61422c565b5b60200260200101518152602001868581518110610f2057610f1f61422c565b5b60200260200101518152602001858581518110610f4057610f3f61422c565b5b60200260200101518152602001838152509050806017601a8581548110610f6a57610f6961422c565b5b90600052602060002001604051610f819190614342565b90815260200160405180910390206000820151816000019080519060200190610fab929190613173565b50602082015181600101556040820151816002015560608201518160030155905050601c8381548110610fe157610fe061422c565b5b9060005260206000200154600c6000828254610ffd919061441a565b925050819055505050808061101190614470565b915050610d88565b50505050565b61103a838383604051806020016040528060008152506119e3565b505050565b60186020528060005260406000206000915090508060000160009054906101000a900473ffffffffffffffffffffffffffffffffffffffff16908060010160009054906101000a900473ffffffffffffffffffffffffffffffffffffffff1690806002016040518060800160405290816000820180546110be90613f6c565b80601f01602080910402602001604051908101604052809291908181526020018280546110ea90613f6c565b80156111375780601f1061110c57610100808354040283529160200191611137565b820191906000526020600020905b81548152906001019060200180831161111a57829003601f168201915b505050505081526020016001820154815260200160028201548152602001600382015481525050908060060154908060070160009054906101000a900460ff16908060070160019054906101000a900460ff16908060070160029054906101000a900460ff16905087565b6000806111ae8361251a565b9050600073ffffffffffffffffffffffffffffffffffffffff168173ffffffffffffffffffffffffffffffffffffffff161415611220576040517f08c379a000000000000000000000000000000000000000000000000000000000815260040161121790614505565b60405180910390fd5b80915050919050565b60008073ffffffffffffffffffffffffffffffffffffffff168273ffffffffffffffffffffffffffffffffffffffff16141561129a576040517f08c379a000000000000000000000000000000000000000000000000000000000815260040161129190614597565b60405180910390fd5b600560008373ffffffffffffffffffffffffffffffffffffffff1673ffffffffffffffffffffffffffffffffffffffff168152602001908152602001600020549050919050565b6112e9612557565b6112f360006125d5565b565b60007fdf28233119131a4745ee55a92f58d58acfd14491139b562f3182d7c1928a6e8233604051611326919061346c565b60405180910390a1601354601960003373ffffffffffffffffffffffffffffffffffffffff1673ffffffffffffffffffffffffffffffffffffffff16815260200190815260200160002054106113b1576040517f08c379a00000000000000000000000000000000000000000000000000000000081526004016113a890614603565b60405180910390fd5b6017836040516113c19190614297565b9081526020016040518091039020600201546017846040516113e39190614297565b90815260200160405180910390206003015410611435576040517f08c379a000000000000000000000000000000000000000000000000000000000815260040161142c9061466f565b60405180910390fd5b606460125461144491906146be565b6001611450919061441a565b6017846040516114609190614297565b90815260200160405180910390206001015461147c91906146ef565b3410156114be576040517f08c379a00000000000000000000000000000000000000000000000000000000081526004016114b590614795565b60405180910390fd5b60016017846040516114d09190614297565b9081526020016040518091039020600301546114ec919061441a565b6017846040516114fc9190614297565b9081526020016040518091039020600301819055506001600c6000828254611524919061441a565b9250508190555060006040518060e00160405280600a60009054906101000a900473ffffffffffffffffffffffffffffffffffffffff1673ffffffffffffffffffffffffffffffffffffffff1681526020013373ffffffffffffffffffffffffffffffffffffffff1681526020016017866040516115a29190614297565b90815260200160405180910390206040518060800160405290816000820180546115cb90613f6c565b80601f01602080910402602001604051908101604052809291908181526020018280546115f790613f6c565b80156116445780601f1061161957610100808354040283529160200191611644565b820191906000526020600020905b81548152906001019060200180831161162757829003601f168201915b50505050508152602001600182015481526020016002820154815260200160038201548152505081526020016017866040516116809190614297565b9081526020016040518091039020600101548152602001600060038111156116ab576116aa613611565b5b81526020016000151581526020016000151581525090506116cc6009612699565b60006116d860096126af565b90506116e433826126bd565b6116ee81856124a6565b6001601960003373ffffffffffffffffffffffffffffffffffffffff1673ffffffffffffffffffffffffffffffffffffffff168152602001908152602001600020600082825461173e919061441a565b92505081905550816018600083815260200190815260200160002060008201518160000160006101000a81548173ffffffffffffffffffffffffffffffffffffffff021916908373ffffffffffffffffffffffffffffffffffffffff16021790555060208201518160010160006101000a81548173ffffffffffffffffffffffffffffffffffffffff021916908373ffffffffffffffffffffffffffffffffffffffff160217905550604082015181600201600082015181600001908051906020019061180c929190613173565b5060208201518160010155604082015181600201556060820151816003015550506060820151816006015560808201518160070160006101000a81548160ff0219169083600381111561186257611861613611565b5b021790555060a08201518160070160016101000a81548160ff02191690831515021790555060c08201518160070160026101000a81548160ff0219169083151502179055509050506001600d60008282546118bd919061441a565b925050819055507f9ec02c5e083e56cec410042ba395689ccfa59f6658226bc10b2e26aac18f723681336040516118f59291906147b5565b60405180910390a1809250505092915050565b60008060009054906101000a900473ffffffffffffffffffffffffffffffffffffffff16905090565b60606003805461194090613f6c565b80601f016020809104026020016040519081016040528092919081815260200182805461196c90613f6c565b80156119b95780601f1061198e576101008083540402835291602001916119b9565b820191906000526020600020905b81548152906001019060200180831161199c57829003601f168201915b5050505050905090565b6119d56119ce612056565b83836126db565b5050565b6000600d54905090565b6119f46119ee612056565b83612117565b611a33576040517f08c379a0000000000000000000000000000000000000000000000000000000008152600401611a2a90614134565b60405180910390fd5b611a3f84848484612848565b50505050565b6060611a508261200b565b6000600860008481526020019081526020016000208054611a7090613f6c565b80601f0160208091040260200160405190810160405280929190818152602001828054611a9c90613f6c565b8015611ae95780601f10611abe57610100808354040283529160200191611ae9565b820191906000526020600020905b815481529060010190602001808311611acc57829003601f168201915b505050505090506000611afa6128a4565b9050600081511415611b10578192505050611b53565b600082511115611b45578082604051602001611b2d9291906147de565b60405160208183030381529060405292505050611b53565b611b4e846128bb565b925050505b919050565b3373ffffffffffffffffffffffffffffffffffffffff16600a60009054906101000a900473ffffffffffffffffffffffffffffffffffffffff1673ffffffffffffffffffffffffffffffffffffffff1614611be8576040517f08c379a0000000000000000000000000000000000000000000000000000000008152600401611bdf906141a0565b60405180910390fd5b60005b600d54811015611c475760036018600083815260200190815260200160002060070160006101000a81548160ff02191690836003811115611c2f57611c2e613611565b5b02179055508080611c3f90614470565b915050611beb565b50565b60026018600083815260200190815260200160002060070160006101000a81548160ff02191690836003811115611c8457611c83613611565b5b021790555050565b6000601254905090565b803373ffffffffffffffffffffffffffffffffffffffff166018600083815260200190815260200160002060010160009054906101000a900473ffffffffffffffffffffffffffffffffffffffff1673ffffffffffffffffffffffffffffffffffffffff1614611d3b576040517f08c379a0000000000000000000000000000000000000000000000000000000008152600401611d329061484e565b60405180910390fd5b600015156018600084815260200190815260200160002060070160029054906101000a900460ff16151514611da5576040517f08c379a0000000000000000000000000000000000000000000000000000000008152600401611d9c906148ba565b60405180910390fd5b60016018600084815260200190815260200160002060070160026101000a81548160ff0219169083151502179055507f088bcc30e88b58300f96dd11a5cfb0eb4fd1dd02e1417103f9dbc93c235b1f8c8233604051611e059291906147b5565b60405180910390a15050565b6000600760008473ffffffffffffffffffffffffffffffffffffffff1673ffffffffffffffffffffffffffffffffffffffff16815260200190815260200160002060008373ffffffffffffffffffffffffffffffffffffffff1673ffffffffffffffffffffffffffffffffffffffff16815260200190815260200160002060009054906101000a900460ff16905092915050565b611ead612557565b600073ffffffffffffffffffffffffffffffffffffffff168173ffffffffffffffffffffffffffffffffffffffff161415611f1d576040517f08c379a0000000000000000000000000000000000000000000000000000000008152600401611f149061494c565b60405180910390fd5b611f26816125d5565b50565b6000806000601784604051611f3e9190614297565b908152602001604051809103902060010154601785604051611f609190614297565b908152602001604051809103902060020154601786604051611f829190614297565b9081526020016040518091039020600301549250925092509193909250565b60007f01ffc9a7000000000000000000000000000000000000000000000000000000007bffffffffffffffffffffffffffffffffffffffffffffffffffffffff1916827bffffffffffffffffffffffffffffffffffffffffffffffffffffffff1916149050919050565b61201481612923565b612053576040517f08c379a000000000000000000000000000000000000000000000000000000000815260040161204a90614505565b60405180910390fd5b50565b600033905090565b816006600083815260200190815260200160002060006101000a81548173ffffffffffffffffffffffffffffffffffffffff021916908373ffffffffffffffffffffffffffffffffffffffff160217905550808273ffffffffffffffffffffffffffffffffffffffff166120d1836111a2565b73ffffffffffffffffffffffffffffffffffffffff167f8c5be1e5ebec7d5bd14f71427d1e84f3dd0314c0f7b2291e5b200ac8c7c3b92560405160405180910390a45050565b600080612123836111a2565b90508073ffffffffffffffffffffffffffffffffffffffff168473ffffffffffffffffffffffffffffffffffffffff16148061216557506121648185611e11565b5b806121a357508373ffffffffffffffffffffffffffffffffffffffff1661218b84610869565b73ffffffffffffffffffffffffffffffffffffffff16145b91505092915050565b8273ffffffffffffffffffffffffffffffffffffffff166121cc826111a2565b73ffffffffffffffffffffffffffffffffffffffff1614612222576040517f08c379a0000000000000000000000000000000000000000000000000000000008152600401612219906149de565b60405180910390fd5b600073ffffffffffffffffffffffffffffffffffffffff168273ffffffffffffffffffffffffffffffffffffffff161415612292576040517f08c379a000000000000000000000000000000000000000000000000000000000815260040161228990614a70565b60405180910390fd5b61229f8383836001612964565b8273ffffffffffffffffffffffffffffffffffffffff166122bf826111a2565b73ffffffffffffffffffffffffffffffffffffffff1614612315576040517f08c379a000000000000000000000000000000000000000000000000000000000815260040161230c906149de565b60405180910390fd5b6006600082815260200190815260200160002060006101000a81549073ffffffffffffffffffffffffffffffffffffffff02191690556001600560008573ffffffffffffffffffffffffffffffffffffffff1673ffffffffffffffffffffffffffffffffffffffff168152602001908152602001600020600082825403925050819055506001600560008473ffffffffffffffffffffffffffffffffffffffff1673ffffffffffffffffffffffffffffffffffffffff16815260200190815260200160002060008282540192505081905550816004600083815260200190815260200160002060006101000a81548173ffffffffffffffffffffffffffffffffffffffff021916908373ffffffffffffffffffffffffffffffffffffffff160217905550808273ffffffffffffffffffffffffffffffffffffffff168473ffffffffffffffffffffffffffffffffffffffff167fddf252ad1be2c89b69c2b068fc378daa952ba7f163c4a11628f55a4df523b3ef60405160405180910390a46124a18383836001612a8a565b505050565b6124af82612923565b6124ee576040517f08c379a00000000000000000000000000000000000000000000000000000000081526004016124e590614b02565b60405180910390fd5b80600860008481526020019081526020016000209080519060200190612515929190613173565b505050565b60006004600083815260200190815260200160002060009054906101000a900473ffffffffffffffffffffffffffffffffffffffff169050919050565b61255f612056565b73ffffffffffffffffffffffffffffffffffffffff1661257d611908565b73ffffffffffffffffffffffffffffffffffffffff16146125d3576040517f08c379a00000000000000000000000000000000000000000000000000000000081526004016125ca90614b6e565b60405180910390fd5b565b60008060009054906101000a900473ffffffffffffffffffffffffffffffffffffffff169050816000806101000a81548173ffffffffffffffffffffffffffffffffffffffff021916908373ffffffffffffffffffffffffffffffffffffffff1602179055508173ffffffffffffffffffffffffffffffffffffffff168173ffffffffffffffffffffffffffffffffffffffff167f8be0079c531659141344cd1fd0a4f28419497f9722a3daafe3b4186f6b6457e060405160405180910390a35050565b6001816000016000828254019250508190555050565b600081600001549050919050565b6126d7828260405180602001604052806000815250612a90565b5050565b8173ffffffffffffffffffffffffffffffffffffffff168373ffffffffffffffffffffffffffffffffffffffff16141561274a576040517f08c379a000000000000000000000000000000000000000000000000000000000815260040161274190614bda565b60405180910390fd5b80600760008573ffffffffffffffffffffffffffffffffffffffff1673ffffffffffffffffffffffffffffffffffffffff16815260200190815260200160002060008473ffffffffffffffffffffffffffffffffffffffff1673ffffffffffffffffffffffffffffffffffffffff16815260200190815260200160002060006101000a81548160ff0219169083151502179055508173ffffffffffffffffffffffffffffffffffffffff168373ffffffffffffffffffffffffffffffffffffffff167f17307eab39ab6107e8899845ad3d59bd9653f200f220920489ca2b5937696c318360405161283b91906132f2565b60405180910390a3505050565b6128538484846121ac565b61285f84848484612aeb565b61289e576040517f08c379a000000000000000000000000000000000000000000000000000000000815260040161289590614c6c565b60405180910390fd5b50505050565b606060405180602001604052806000815250905090565b60606128c68261200b565b60006128d06128a4565b905060008151116128f0576040518060200160405280600081525061291b565b806128fa84612c82565b60405160200161290b9291906147de565b6040516020818303038152906040525b915050919050565b60008073ffffffffffffffffffffffffffffffffffffffff166129458361251a565b73ffffffffffffffffffffffffffffffffffffffff1614159050919050565b6001811115612a8457600073ffffffffffffffffffffffffffffffffffffffff168473ffffffffffffffffffffffffffffffffffffffff16146129f85780600560008673ffffffffffffffffffffffffffffffffffffffff1673ffffffffffffffffffffffffffffffffffffffff16815260200190815260200160002060008282546129f09190614c8c565b925050819055505b600073ffffffffffffffffffffffffffffffffffffffff168373ffffffffffffffffffffffffffffffffffffffff1614612a835780600560008573ffffffffffffffffffffffffffffffffffffffff1673ffffffffffffffffffffffffffffffffffffffff1681526020019081526020016000206000828254612a7b919061441a565b925050819055505b5b50505050565b50505050565b612a9a8383612d5a565b612aa76000848484612aeb565b612ae6576040517f08c379a0000000000000000000000000000000000000000000000000000000008152600401612add90614c6c565b60405180910390fd5b505050565b6000612b0c8473ffffffffffffffffffffffffffffffffffffffff16612f78565b15612c75578373ffffffffffffffffffffffffffffffffffffffff1663150b7a02612b35612056565b8786866040518563ffffffff1660e01b8152600401612b579493929190614d15565b602060405180830381600087803b158015612b7157600080fd5b505af1925050508015612ba257506040513d601f19601f82011682018060405250810190612b9f9190614d76565b60015b612c25573d8060008114612bd2576040519150601f19603f3d011682016040523d82523d6000602084013e612bd7565b606091505b50600081511415612c1d576040517f08c379a0000000000000000000000000000000000000000000000000000000008152600401612c1490614c6c565b60405180910390fd5b805181602001fd5b63150b7a0260e01b7bffffffffffffffffffffffffffffffffffffffffffffffffffffffff1916817bffffffffffffffffffffffffffffffffffffffffffffffffffffffff191614915050612c7a565b600190505b949350505050565b606060006001612c9184612f9b565b01905060008167ffffffffffffffff811115612cb057612caf6137b6565b5b6040519080825280601f01601f191660200182016040528015612ce25781602001600182028036833780820191505090505b509050600082602001820190505b600115612d4f578080600190039150507f3031323334353637383961626364656600000000000000000000000000000000600a86061a8153600a8581612d3957612d3861468f565b5b0494506000851415612d4a57612d4f565b612cf0565b819350505050919050565b600073ffffffffffffffffffffffffffffffffffffffff168273ffffffffffffffffffffffffffffffffffffffff161415612dca576040517f08c379a0000000000000000000000000000000000000000000000000000000008152600401612dc190614def565b60405180910390fd5b612dd381612923565b15612e13576040517f08c379a0000000000000000000000000000000000000000000000000000000008152600401612e0a90614e5b565b60405180910390fd5b612e21600083836001612964565b612e2a81612923565b15612e6a576040517f08c379a0000000000000000000000000000000000000000000000000000000008152600401612e6190614e5b565b60405180910390fd5b6001600560008473ffffffffffffffffffffffffffffffffffffffff1673ffffffffffffffffffffffffffffffffffffffff16815260200190815260200160002060008282540192505081905550816004600083815260200190815260200160002060006101000a81548173ffffffffffffffffffffffffffffffffffffffff021916908373ffffffffffffffffffffffffffffffffffffffff160217905550808273ffffffffffffffffffffffffffffffffffffffff16600073ffffffffffffffffffffffffffffffffffffffff167fddf252ad1be2c89b69c2b068fc378daa952ba7f163c4a11628f55a4df523b3ef60405160405180910390a4612f74600083836001612a8a565b5050565b6000808273ffffffffffffffffffffffffffffffffffffffff163b119050919050565b600080600090507a184f03e93ff9f4daa797ed6e38ed64bf6a1f0100000000000000008310612ff9577a184f03e93ff9f4daa797ed6e38ed64bf6a1f0100000000000000008381612fef57612fee61468f565b5b0492506040810190505b6d04ee2d6d415b85acef81000000008310613036576d04ee2d6d415b85acef8100000000838161302c5761302b61468f565b5b0492506020810190505b662386f26fc10000831061306557662386f26fc10000838161305b5761305a61468f565b5b0492506010810190505b6305f5e100831061308e576305f5e10083816130845761308361468f565b5b0492506008810190505b61271083106130b35761271083816130a9576130a861468f565b5b0492506004810190505b606483106130d657606483816130cc576130cb61468f565b5b0492506002810190505b600a83106130e5576001810190505b80915050919050565b6040518060e00160405280600073ffffffffffffffffffffffffffffffffffffffff168152602001600073ffffffffffffffffffffffffffffffffffffffff16815260200161313b6131f9565b8152602001600081526020016000600381111561315b5761315a613611565b5b81526020016000151581526020016000151581525090565b82805461317f90613f6c565b90600052602060002090601f0160209004810192826131a157600085556131e8565b82601f106131ba57805160ff19168380011785556131e8565b828001600101855582156131e8579182015b828111156131e75782518255916020019190600101906131cc565b5b5090506131f59190613221565b5090565b6040518060800160405280606081526020016000815260200160008152602001600081525090565b5b8082111561323a576000816000905550600101613222565b5090565b6000604051905090565b600080fd5b600080fd5b60007fffffffff0000000000000000000000000000000000000000000000000000000082169050919050565b61328781613252565b811461329257600080fd5b50565b6000813590506132a48161327e565b92915050565b6000602082840312156132c0576132bf613248565b5b60006132ce84828501613295565b91505092915050565b60008115159050919050565b6132ec816132d7565b82525050565b600060208201905061330760008301846132e3565b92915050565b600081519050919050565b600082825260208201905092915050565b60005b8381101561334757808201518184015260208101905061332c565b83811115613356576000848401525b50505050565b6000601f19601f8301169050919050565b60006133788261330d565b6133828185613318565b9350613392818560208601613329565b61339b8161335c565b840191505092915050565b600060208201905081810360008301526133c0818461336d565b905092915050565b6000819050919050565b6133db816133c8565b81146133e657600080fd5b50565b6000813590506133f8816133d2565b92915050565b60006020828403121561341457613413613248565b5b6000613422848285016133e9565b91505092915050565b600073ffffffffffffffffffffffffffffffffffffffff82169050919050565b60006134568261342b565b9050919050565b6134668161344b565b82525050565b6000602082019050613481600083018461345d565b92915050565b6134908161344b565b811461349b57600080fd5b50565b6000813590506134ad81613487565b92915050565b600080604083850312156134ca576134c9613248565b5b60006134d88582860161349e565b92505060206134e9858286016133e9565b9150509250929050565b60008060006060848603121561350c5761350b613248565b5b600061351a8682870161349e565b935050602061352b8682870161349e565b925050604061353c868287016133e9565b9150509250925092565b61354f8161344b565b82525050565b600082825260208201905092915050565b60006135718261330d565b61357b8185613555565b935061358b818560208601613329565b6135948161335c565b840191505092915050565b6135a8816133c8565b82525050565b600060808301600083015184820360008601526135cb8282613566565b91505060208301516135e0602086018261359f565b5060408301516135f3604086018261359f565b506060830151613606606086018261359f565b508091505092915050565b7f4e487b7100000000000000000000000000000000000000000000000000000000600052602160045260246000fd5b6004811061365157613650613611565b5b50565b600081905061366282613640565b919050565b600061367282613654565b9050919050565b61368281613667565b82525050565b613691816132d7565b82525050565b600060e0830160008301516136af6000860182613546565b5060208301516136c26020860182613546565b50604083015184820360408601526136da82826135ae565b91505060608301516136ef606086018261359f565b5060808301516137026080860182613679565b5060a083015161371560a0860182613688565b5060c083015161372860c0860182613688565b508091505092915050565b6000602082019050818103600083015261374d8184613697565b905092915050565b60006020828403121561376b5761376a613248565b5b60006137798482850161349e565b91505092915050565b61378b816133c8565b82525050565b60006020820190506137a66000830184613782565b92915050565b600080fd5b600080fd5b7f4e487b7100000000000000000000000000000000000000000000000000000000600052604160045260246000fd5b6137ee8261335c565b810181811067ffffffffffffffff8211171561380d5761380c6137b6565b5b80604052505050565b600061382061323e565b905061382c82826137e5565b919050565b600067ffffffffffffffff82111561384c5761384b6137b6565b5b6138558261335c565b9050602081019050919050565b82818337600083830152505050565b600061388461387f84613831565b613816565b9050828152602081018484840111156138a05761389f6137b1565b5b6138ab848285613862565b509392505050565b600082601f8301126138c8576138c76137ac565b5b81356138d8848260208601613871565b91505092915050565b600080604083850312156138f8576138f7613248565b5b6000613906858286016133e9565b925050602083013567ffffffffffffffff8111156139275761392661324d565b5b613933858286016138b3565b9150509250929050565b600067ffffffffffffffff821115613958576139576137b6565b5b602082029050602081019050919050565b600080fd5b600061398161397c8461393d565b613816565b905080838252602082019050602084028301858111156139a4576139a3613969565b5b835b818110156139eb57803567ffffffffffffffff8111156139c9576139c86137ac565b5b8086016139d689826138b3565b855260208501945050506020810190506139a6565b5050509392505050565b600082601f830112613a0a57613a096137ac565b5b8135613a1a84826020860161396e565b91505092915050565b600067ffffffffffffffff821115613a3e57613a3d6137b6565b5b602082029050602081019050919050565b6000613a62613a5d84613a23565b613816565b90508083825260208201905060208402830185811115613a8557613a84613969565b5b835b81811015613aae5780613a9a88826133e9565b845260208401935050602081019050613a87565b5050509392505050565b600082601f830112613acd57613acc6137ac565b5b8135613add848260208601613a4f565b91505092915050565b600080600060608486031215613aff57613afe613248565b5b600084013567ffffffffffffffff811115613b1d57613b1c61324d565b5b613b29868287016139f5565b935050602084013567ffffffffffffffff811115613b4a57613b4961324d565b5b613b5686828701613ab8565b925050604084013567ffffffffffffffff811115613b7757613b7661324d565b5b613b8386828701613ab8565b9150509250925092565b60006080830160008301518482036000860152613baa8282613566565b9150506020830151613bbf602086018261359f565b506040830151613bd2604086018261359f565b506060830151613be5606086018261359f565b508091505092915050565b613bf981613667565b82525050565b600060e082019050613c14600083018a61345d565b613c21602083018961345d565b8181036040830152613c338188613b8d565b9050613c426060830187613782565b613c4f6080830186613bf0565b613c5c60a08301856132e3565b613c6960c08301846132e3565b98975050505050505050565b60008060408385031215613c8c57613c8b613248565b5b600083013567ffffffffffffffff811115613caa57613ca961324d565b5b613cb6858286016138b3565b925050602083013567ffffffffffffffff811115613cd757613cd661324d565b5b613ce3858286016138b3565b9150509250929050565b613cf6816132d7565b8114613d0157600080fd5b50565b600081359050613d1381613ced565b92915050565b60008060408385031215613d3057613d2f613248565b5b6000613d3e8582860161349e565b9250506020613d4f85828601613d04565b9150509250929050565b600067ffffffffffffffff821115613d7457613d736137b6565b5b613d7d8261335c565b9050602081019050919050565b6000613d9d613d9884613d59565b613816565b905082815260208101848484011115613db957613db86137b1565b5b613dc4848285613862565b509392505050565b600082601f830112613de157613de06137ac565b5b8135613df1848260208601613d8a565b91505092915050565b60008060008060808587031215613e1457613e13613248565b5b6000613e228782880161349e565b9450506020613e338782880161349e565b9350506040613e44878288016133e9565b925050606085013567ffffffffffffffff811115613e6557613e6461324d565b5b613e7187828801613dcc565b91505092959194509250565b60008060408385031215613e9457613e93613248565b5b6000613ea28582860161349e565b9250506020613eb38582860161349e565b9150509250929050565b600060208284031215613ed357613ed2613248565b5b600082013567ffffffffffffffff811115613ef157613ef061324d565b5b613efd848285016138b3565b91505092915050565b6000606082019050613f1b6000830186613782565b613f286020830185613782565b613f356040830184613782565b949350505050565b7f4e487b7100000000000000000000000000000000000000000000000000000000600052602260045260246000fd5b60006002820490506001821680613f8457607f821691505b60208210811415613f9857613f97613f3d565b5b50919050565b7f4552433732313a20617070726f76616c20746f2063757272656e74206f776e6560008201527f7200000000000000000000000000000000000000000000000000000000000000602082015250565b6000613ffa602183613318565b915061400582613f9e565b604082019050919050565b6000602082019050818103600083015261402981613fed565b9050919050565b7f4552433732313a20617070726f76652063616c6c6572206973206e6f7420746f60008201527f6b656e206f776e6572206f7220617070726f76656420666f7220616c6c000000602082015250565b600061408c603d83613318565b915061409782614030565b604082019050919050565b600060208201905081810360008301526140bb8161407f565b9050919050565b7f4552433732313a2063616c6c6572206973206e6f7420746f6b656e206f776e6560008201527f72206f7220617070726f76656400000000000000000000000000000000000000602082015250565b600061411e602d83613318565b9150614129826140c2565b604082019050919050565b6000602082019050818103600083015261414d81614111565b9050919050565b7f4e6f7420617574686f72697a656420746f2061646a7573742073616c65000000600082015250565b600061418a601d83613318565b915061419582614154565b602082019050919050565b600060208201905081810360008301526141b98161417d565b9050919050565b7f506c65617365206b657920696e20616761696e00000000000000000000000000600082015250565b60006141f6601383613318565b9150614201826141c0565b602082019050919050565b60006020820190508181036000830152614225816141e9565b9050919050565b7f4e487b7100000000000000000000000000000000000000000000000000000000600052603260045260246000fd5b600081905092915050565b60006142718261330d565b61427b818561425b565b935061428b818560208601613329565b80840191505092915050565b60006142a38284614266565b915081905092915050565b60008190508160005260206000209050919050565b600081546142d081613f6c565b6142da818661425b565b945060018216600081146142f5576001811461430657614339565b60ff19831686528186019350614339565b61430f856142ae565b60005b8381101561433157815481890152600182019150602081019050614312565b838801955050505b50505092915050565b600061434e82846142c3565b915081905092915050565b7f4d617820737570706c7920696e73756666696369656e742c206e65656420686960008201527f67686572206c696d697400000000000000000000000000000000000000000000602082015250565b60006143b5602a83613318565b91506143c082614359565b604082019050919050565b600060208201905081810360008301526143e4816143a8565b9050919050565b7f4e487b7100000000000000000000000000000000000000000000000000000000600052601160045260246000fd5b6000614425826133c8565b9150614430836133c8565b9250827fffffffffffffffffffffffffffffffffffffffffffffffffffffffffffffffff03821115614465576144646143eb565b5b828201905092915050565b600061447b826133c8565b91507fffffffffffffffffffffffffffffffffffffffffffffffffffffffffffffffff8214156144ae576144ad6143eb565b5b600182019050919050565b7f4552433732313a20696e76616c696420746f6b656e2049440000000000000000600082015250565b60006144ef601883613318565b91506144fa826144b9565b602082019050919050565b6000602082019050818103600083015261451e816144e2565b9050919050565b7f4552433732313a2061646472657373207a65726f206973206e6f74206120766160008201527f6c6964206f776e65720000000000000000000000000000000000000000000000602082015250565b6000614581602983613318565b915061458c82614525565b604082019050919050565b600060208201905081810360008301526145b081614574565b9050919050565b7f4578636565646564204d6178204d696e74696e67000000000000000000000000600082015250565b60006145ed601483613318565b91506145f8826145b7565b602082019050919050565b6000602082019050818103600083015261461c816145e0565b9050919050565b7f45786365656465642043617465676f7279206d696e74696e6700000000000000600082015250565b6000614659601983613318565b915061466482614623565b602082019050919050565b600060208201905081810360008301526146888161464c565b9050919050565b7f4e487b7100000000000000000000000000000000000000000000000000000000600052601260045260246000fd5b60006146c9826133c8565b91506146d4836133c8565b9250826146e4576146e361468f565b5b828204905092915050565b60006146fa826133c8565b9150614705836133c8565b9250817fffffffffffffffffffffffffffffffffffffffffffffffffffffffffffffffff048311821515161561473e5761473d6143eb565b5b828202905092915050565b7f4e6f7420656e6f75676820455448000000000000000000000000000000000000600082015250565b600061477f600e83613318565b915061478a82614749565b602082019050919050565b600060208201905081810360008301526147ae81614772565b9050919050565b60006040820190506147ca6000830185613782565b6147d7602083018461345d565b9392505050565b60006147ea8285614266565b91506147f68284614266565b91508190509392505050565b7f4e6f7420617574686f72697a6564000000000000000000000000000000000000600082015250565b6000614838600e83613318565b915061484382614802565b602082019050919050565b600060208201905081810360008301526148678161482b565b9050919050565b7f5469636b657420616c726561647920636865636b656420696e20000000000000600082015250565b60006148a4601a83613318565b91506148af8261486e565b602082019050919050565b600060208201905081810360008301526148d381614897565b9050919050565b7f4f776e61626c653a206e6577206f776e657220697320746865207a65726f206160008201527f6464726573730000000000000000000000000000000000000000000000000000602082015250565b6000614936602683613318565b9150614941826148da565b604082019050919050565b6000602082019050818103600083015261496581614929565b9050919050565b7f4552433732313a207472616e736665722066726f6d20696e636f72726563742060008201527f6f776e6572000000000000000000000000000000000000000000000000000000602082015250565b60006149c8602583613318565b91506149d38261496c565b604082019050919050565b600060208201905081810360008301526149f7816149bb565b9050919050565b7f4552433732313a207472616e7366657220746f20746865207a65726f2061646460008201527f7265737300000000000000000000000000000000000000000000000000000000602082015250565b6000614a5a602483613318565b9150614a65826149fe565b604082019050919050565b60006020820190508181036000830152614a8981614a4d565b9050919050565b7f45524337323155524953746f726167653a2055524920736574206f66206e6f6e60008201527f6578697374656e7420746f6b656e000000000000000000000000000000000000602082015250565b6000614aec602e83613318565b9150614af782614a90565b604082019050919050565b60006020820190508181036000830152614b1b81614adf565b9050919050565b7f4f776e61626c653a2063616c6c6572206973206e6f7420746865206f776e6572600082015250565b6000614b58602083613318565b9150614b6382614b22565b602082019050919050565b60006020820190508181036000830152614b8781614b4b565b9050919050565b7f4552433732313a20617070726f766520746f2063616c6c657200000000000000600082015250565b6000614bc4601983613318565b9150614bcf82614b8e565b602082019050919050565b60006020820190508181036000830152614bf381614bb7565b9050919050565b7f4552433732313a207472616e7366657220746f206e6f6e20455243373231526560008201527f63656976657220696d706c656d656e7465720000000000000000000000000000602082015250565b6000614c56603283613318565b9150614c6182614bfa565b604082019050919050565b60006020820190508181036000830152614c8581614c49565b9050919050565b6000614c97826133c8565b9150614ca2836133c8565b925082821015614cb557614cb46143eb565b5b828203905092915050565b600081519050919050565b600082825260208201905092915050565b6000614ce782614cc0565b614cf18185614ccb565b9350614d01818560208601613329565b614d0a8161335c565b840191505092915050565b6000608082019050614d2a600083018761345d565b614d37602083018661345d565b614d446040830185613782565b8181036060830152614d568184614cdc565b905095945050505050565b600081519050614d708161327e565b92915050565b600060208284031215614d8c57614d8b613248565b5b6000614d9a84828501614d61565b91505092915050565b7f4552433732313a206d696e7420746f20746865207a65726f2061646472657373600082015250565b6000614dd9602083613318565b9150614de482614da3565b602082019050919050565b60006020820190508181036000830152614e0881614dcc565b9050919050565b7f4552433732313a20746f6b656e20616c7265616479206d696e74656400000000600082015250565b6000614e45601c83613318565b9150614e5082614e0f565b602082019050919050565b60006020820190508181036000830152614e7481614e38565b905091905056fea264697066735822122031f537efb4dc5a247bc6275b517b80f82b8aff1dc1ab7cf1f5bccf16c6675d7f64736f6c63430008090033",
  "linkReferences": {},
  "deployedLinkReferences": {}
}