{
  "_format": "hh-sol-artifact-1",
  "contractName": "SimpleEvent",
  "sourceName": "contracts/SimpleEvent.sol",
  "abi": [
    {
      "inputs": [
        {
          "internalType": "string[]",
          "name": "_categories",
          "type": "string[]"
        },
        {
          "internalType": "uint256[]",
          "name": "_categoryPrices",
          "type": "uint256[]"
        },
        {
          "internalType": "uint256[]",
          "name": "_categoryLimits",
          "type": "uint256[]"
        },
        {
          "internalType": "string",
          "name": "_eventName",
          "type": "string"
        },
        {
          "internalType": "string",
          "name": "_dateTime",
          "type": "string"
        },
        {
          "internalType": "string",
          "name": "_venue",
          "type": "string"
        },
        {
          "internalType": "uint256",
          "name": "_commission",
          "type": "uint256"
        },
        {
          "internalType": "uint256",
          "name": "_maxTicketPerAddress",
          "type": "uint256"
        },
        {
          "internalType": "string",
          "name": "_eventSymbol",
          "type": "string"
        }
      ],
      "stateMutability": "payable",
      "type": "constructor"
    },
    {
      "anonymous": false,
      "inputs": [
        {
          "indexed": true,
          "internalType": "address",
          "name": "owner",
          "type": "address"
        },
        {
          "indexed": true,
          "internalType": "address",
          "name": "approved",
          "type": "address"
        },
        {
          "indexed": true,
          "internalType": "uint256",
          "name": "tokenId",
          "type": "uint256"
        }
      ],
      "name": "Approval",
      "type": "event"
    },
    {
      "anonymous": false,
      "inputs": [
        {
          "indexed": true,
          "internalType": "address",
          "name": "owner",
          "type": "address"
        },
        {
          "indexed": true,
          "internalType": "address",
          "name": "operator",
          "type": "address"
        },
        {
          "indexed": false,
          "internalType": "bool",
          "name": "approved",
          "type": "bool"
        }
      ],
      "name": "ApprovalForAll",
      "type": "event"
    },
    {
      "anonymous": false,
      "inputs": [
        {
          "indexed": true,
          "internalType": "address",
          "name": "previousOwner",
          "type": "address"
        },
        {
          "indexed": true,
          "internalType": "address",
          "name": "newOwner",
          "type": "address"
        }
      ],
      "name": "OwnershipTransferred",
      "type": "event"
    },
    {
      "anonymous": false,
      "inputs": [
        {
          "indexed": true,
          "internalType": "address",
          "name": "from",
          "type": "address"
        },
        {
          "indexed": true,
          "internalType": "address",
          "name": "to",
          "type": "address"
        },
        {
          "indexed": true,
          "internalType": "uint256",
          "name": "tokenId",
          "type": "uint256"
        }
      ],
      "name": "Transfer",
      "type": "event"
    },
    {
      "anonymous": false,
      "inputs": [
        {
          "indexed": false,
          "internalType": "uint256",
          "name": "tokenId",
          "type": "uint256"
        },
        {
          "indexed": false,
          "internalType": "address",
          "name": "user",
          "type": "address"
        }
      ],
      "name": "checkedIn",
      "type": "event"
    },
    {
      "anonymous": false,
      "inputs": [
        {
          "indexed": false,
          "internalType": "uint256",
          "name": "tokenId",
          "type": "uint256"
        },
        {
          "indexed": false,
          "internalType": "address",
          "name": "user",
          "type": "address"
        },
        {
          "indexed": false,
          "internalType": "uint256",
          "name": "price",
          "type": "uint256"
        }
      ],
      "name": "ticketListed",
      "type": "event"
    },
    {
      "anonymous": false,
      "inputs": [
        {
          "indexed": false,
          "internalType": "uint256",
          "name": "tokenId",
          "type": "uint256"
        },
        {
          "indexed": false,
          "internalType": "address",
          "name": "recipient",
          "type": "address"
        }
      ],
      "name": "ticketMinted",
      "type": "event"
    },
    {
      "anonymous": false,
      "inputs": [
        {
          "indexed": false,
          "internalType": "uint256",
          "name": "tokenId",
          "type": "uint256"
        },
        {
          "indexed": false,
          "internalType": "address",
          "name": "user",
          "type": "address"
        }
      ],
      "name": "ticketUnlisted",
      "type": "event"
    },
    {
      "anonymous": false,
      "inputs": [
        {
          "indexed": false,
          "internalType": "address",
          "name": "user",
          "type": "address"
        }
      ],
      "name": "userMints",
      "type": "event"
    },
    {
      "inputs": [
        {
          "internalType": "address",
          "name": "to",
          "type": "address"
        },
        {
          "internalType": "uint256",
          "name": "tokenId",
          "type": "uint256"
        }
      ],
      "name": "approve",
      "outputs": [],
      "stateMutability": "nonpayable",
      "type": "function"
    },
    {
      "inputs": [
        {
          "internalType": "address",
          "name": "owner",
          "type": "address"
        }
      ],
      "name": "balanceOf",
      "outputs": [
        {
          "internalType": "uint256",
          "name": "",
          "type": "uint256"
        }
      ],
      "stateMutability": "view",
      "type": "function"
    },
    {
      "inputs": [
        {
          "internalType": "uint256",
          "name": "tokenId",
          "type": "uint256"
        }
      ],
      "name": "checkIn",
      "outputs": [],
      "stateMutability": "nonpayable",
      "type": "function"
    },
    {
      "inputs": [],
      "name": "eventCancelled",
      "outputs": [],
      "stateMutability": "nonpayable",
      "type": "function"
    },
    {
      "inputs": [
        {
          "internalType": "uint256",
          "name": "tokenId",
          "type": "uint256"
        }
      ],
      "name": "expiredTicket",
      "outputs": [],
      "stateMutability": "nonpayable",
      "type": "function"
    },
    {
      "inputs": [
        {
          "internalType": "uint256",
          "name": "tokenId",
          "type": "uint256"
        }
      ],
      "name": "getApproved",
      "outputs": [
        {
          "internalType": "address",
          "name": "",
          "type": "address"
        }
      ],
      "stateMutability": "view",
      "type": "function"
    },
    {
      "inputs": [
        {
          "internalType": "string",
          "name": "category",
          "type": "string"
        }
      ],
      "name": "getCategoryInformation",
      "outputs": [
        {
          "internalType": "uint256",
          "name": "_price",
          "type": "uint256"
        },
        {
          "internalType": "uint256",
          "name": "_maxNumber",
          "type": "uint256"
        },
        {
          "internalType": "uint256",
          "name": "_currentSupply",
          "type": "uint256"
        }
      ],
      "stateMutability": "view",
      "type": "function"
    },
    {
      "inputs": [],
      "name": "getCommission",
      "outputs": [
        {
          "internalType": "uint256",
          "name": "",
          "type": "uint256"
        }
      ],
      "stateMutability": "view",
      "type": "function"
    },
    {
      "inputs": [
        {
          "internalType": "uint256",
          "name": "tokenId",
          "type": "uint256"
        },
        {
          "internalType": "string",
          "name": "tokenURI",
          "type": "string"
        }
      ],
      "name": "getTicketDetails",
      "outputs": [
        {
          "components": [
            {
              "internalType": "address",
              "name": "organizer",
              "type": "address"
            },
            {
              "internalType": "address",
              "name": "ticketOwner",
              "type": "address"
            },
            {
              "components": [
                {
                  "internalType": "string",
                  "name": "category",
                  "type": "string"
                },
                {
                  "internalType": "uint256",
                  "name": "price",
                  "type": "uint256"
                },
                {
                  "internalType": "uint256",
                  "name": "maxNumber",
                  "type": "uint256"
                },
                {
                  "internalType": "uint256",
                  "name": "currentSupply",
                  "type": "uint256"
                }
              ],
              "internalType": "struct SimpleEvent.Category",
              "name": "category",
              "type": "tuple"
            },
            {
              "internalType": "uint256",
              "name": "currentPrice",
              "type": "uint256"
            },
            {
              "internalType": "enum SimpleEvent.ticketStatus",
              "name": "_ticketStatus",
              "type": "uint8"
            },
            {
              "internalType": "bool",
              "name": "ticketListing",
              "type": "bool"
            },
            {
              "internalType": "bool",
              "name": "checkIn",
              "type": "bool"
            }
          ],
          "internalType": "struct SimpleEvent.Ticket",
          "name": "ticket",
          "type": "tuple"
        }
      ],
      "stateMutability": "view",
      "type": "function"
    },
    {
      "inputs": [
        {
          "internalType": "address",
          "name": "owner",
          "type": "address"
        },
        {
          "internalType": "address",
          "name": "operator",
          "type": "address"
        }
      ],
      "name": "isApprovedForAll",
      "outputs": [
        {
          "internalType": "bool",
          "name": "",
          "type": "bool"
        }
      ],
      "stateMutability": "view",
      "type": "function"
    },
    {
      "inputs": [
        {
          "internalType": "string",
          "name": "category",
          "type": "string"
        },
        {
          "internalType": "string",
          "name": "tokenURI",
          "type": "string"
        }
      ],
      "name": "mint",
      "outputs": [
        {
          "internalType": "uint256",
          "name": "",
          "type": "uint256"
        }
      ],
      "stateMutability": "payable",
      "type": "function"
    },
    {
      "inputs": [],
      "name": "name",
      "outputs": [
        {
          "internalType": "string",
          "name": "",
          "type": "string"
        }
      ],
      "stateMutability": "view",
      "type": "function"
    },
    {
      "inputs": [],
      "name": "owner",
      "outputs": [
        {
          "internalType": "address",
          "name": "",
          "type": "address"
        }
      ],
      "stateMutability": "view",
      "type": "function"
    },
    {
      "inputs": [
        {
          "internalType": "uint256",
          "name": "tokenId",
          "type": "uint256"
        }
      ],
      "name": "ownerOf",
      "outputs": [
        {
          "internalType": "address",
          "name": "",
          "type": "address"
        }
      ],
      "stateMutability": "view",
      "type": "function"
    },
    {
      "inputs": [],
      "name": "renounceOwnership",
      "outputs": [],
      "stateMutability": "nonpayable",
      "type": "function"
    },
    {
      "inputs": [
        {
          "internalType": "address",
          "name": "from",
          "type": "address"
        },
        {
          "internalType": "address",
          "name": "to",
          "type": "address"
        },
        {
          "internalType": "uint256",
          "name": "tokenId",
          "type": "uint256"
        }
      ],
      "name": "safeTransferFrom",
      "outputs": [],
      "stateMutability": "nonpayable",
      "type": "function"
    },
    {
      "inputs": [
        {
          "internalType": "address",
          "name": "from",
          "type": "address"
        },
        {
          "internalType": "address",
          "name": "to",
          "type": "address"
        },
        {
          "internalType": "uint256",
          "name": "tokenId",
          "type": "uint256"
        },
        {
          "internalType": "bytes",
          "name": "data",
          "type": "bytes"
        }
      ],
      "name": "safeTransferFrom",
      "outputs": [],
      "stateMutability": "nonpayable",
      "type": "function"
    },
    {
      "inputs": [
        {
          "internalType": "address",
          "name": "operator",
          "type": "address"
        },
        {
          "internalType": "bool",
          "name": "approved",
          "type": "bool"
        }
      ],
      "name": "setApprovalForAll",
      "outputs": [],
      "stateMutability": "nonpayable",
      "type": "function"
    },
    {
      "inputs": [
        {
          "internalType": "bytes4",
          "name": "interfaceId",
          "type": "bytes4"
        }
      ],
      "name": "supportsInterface",
      "outputs": [
        {
          "internalType": "bool",
          "name": "",
          "type": "bool"
        }
      ],
      "stateMutability": "view",
      "type": "function"
    },
    {
      "inputs": [],
      "name": "symbol",
      "outputs": [
        {
          "internalType": "string",
          "name": "",
          "type": "string"
        }
      ],
      "stateMutability": "view",
      "type": "function"
    },
    {
      "inputs": [
        {
          "internalType": "uint256",
          "name": "",
          "type": "uint256"
        }
      ],
      "name": "ticketIDs",
      "outputs": [
        {
          "internalType": "address",
          "name": "organizer",
          "type": "address"
        },
        {
          "internalType": "address",
          "name": "ticketOwner",
          "type": "address"
        },
        {
          "components": [
            {
              "internalType": "string",
              "name": "category",
              "type": "string"
            },
            {
              "internalType": "uint256",
              "name": "price",
              "type": "uint256"
            },
            {
              "internalType": "uint256",
              "name": "maxNumber",
              "type": "uint256"
            },
            {
              "internalType": "uint256",
              "name": "currentSupply",
              "type": "uint256"
            }
          ],
          "internalType": "struct SimpleEvent.Category",
          "name": "category",
          "type": "tuple"
        },
        {
          "internalType": "uint256",
          "name": "currentPrice",
          "type": "uint256"
        },
        {
          "internalType": "enum SimpleEvent.ticketStatus",
          "name": "_ticketStatus",
          "type": "uint8"
        },
        {
          "internalType": "bool",
          "name": "ticketListing",
          "type": "bool"
        },
        {
          "internalType": "bool",
          "name": "checkIn",
          "type": "bool"
        }
      ],
      "stateMutability": "view",
      "type": "function"
    },
    {
      "inputs": [
        {
          "internalType": "address",
          "name": "",
          "type": "address"
        }
      ],
      "name": "ticketsPerOwner",
      "outputs": [
        {
          "internalType": "uint256",
          "name": "",
          "type": "uint256"
        }
      ],
      "stateMutability": "view",
      "type": "function"
    },
    {
      "inputs": [
        {
          "internalType": "uint256",
          "name": "tokenId",
          "type": "uint256"
        }
      ],
      "name": "tokenURI",
      "outputs": [
        {
          "internalType": "string",
          "name": "",
          "type": "string"
        }
      ],
      "stateMutability": "view",
      "type": "function"
    },
    {
      "inputs": [
        {
          "internalType": "address",
          "name": "from",
          "type": "address"
        },
        {
          "internalType": "address",
          "name": "to",
          "type": "address"
        },
        {
          "internalType": "uint256",
          "name": "tokenId",
          "type": "uint256"
        }
      ],
      "name": "transferFrom",
      "outputs": [],
      "stateMutability": "nonpayable",
      "type": "function"
    },
    {
      "inputs": [
        {
          "internalType": "address",
          "name": "newOwner",
          "type": "address"
        }
      ],
      "name": "transferOwnership",
      "outputs": [],
      "stateMutability": "nonpayable",
      "type": "function"
    }
  ],
  "bytecode": "0x608060405233600a60006101000a81548173ffffffffffffffffffffffffffffffffffffffff021916908373ffffffffffffffffffffffffffffffffffffffff16021790555066470de4df82000060145573dd870fa1b7c4700f2bd7f44238821c26f7392148601560006101000a81548173ffffffffffffffffffffffffffffffffffffffff021916908373ffffffffffffffffffffffffffffffffffffffff16021790555060405162005554380380620055548339818101604052810190620000ca919062000aed565b8581620000ec620000e0620004a060201b60201c565b620004a860201b60201c565b6001808190555081600290805190602001906200010b9291906200056c565b508060039080519060200190620001249291906200056c565b50505088601a90805190602001906200013f929190620005fd565b5087601b90805190602001906200015892919062000664565b5086601c90805190602001906200017192919062000664565b5085600e90805190602001906200018a9291906200056c565b508460109080519060200190620001a39291906200056c565b508360119080519060200190620001bc9291906200056c565b508060169080519060200190620001d59291906200056c565b5082601281905550816013819055506000600d81905550601b80549050601a80549050146200023b576040517f08c379a0000000000000000000000000000000000000000000000000000000008152600401620002329062000d06565b60405180910390fd5b601c80549050601a80549050146200028a576040517f08c379a0000000000000000000000000000000000000000000000000000000008152600401620002819062000d06565b60405180910390fd5b6000600c8190555060005b601a80549050811015620004905760006040518060800160405280601a8481548110620002c757620002c662000d28565b5b906000526020600020018054620002de9062000d86565b80601f01602080910402602001604051908101604052809291908181526020018280546200030c9062000d86565b80156200035d5780601f1062000331576101008083540402835291602001916200035d565b820191906000526020600020905b8154815290600101906020018083116200033f57829003601f168201915b50505050508152602001601b84815481106200037e576200037d62000d28565b5b90600052602060002001548152602001601c8481548110620003a557620003a462000d28565b5b9060005260206000200154815260200160008152509050806017601a8481548110620003d657620003d562000d28565b5b90600052602060002001604051620003ef919062000e67565b908152602001604051809103902060008201518160000190805190602001906200041b9291906200056c565b50602082015181600101556040820151816002015560608201518160030155905050601c828154811062000454576200045362000d28565b5b9060005260206000200154600c600082825462000472919062000eaf565b92505081905550508080620004879062000f0c565b91505062000295565b5050505050505050505062000f5a565b600033905090565b60008060009054906101000a900473ffffffffffffffffffffffffffffffffffffffff169050816000806101000a81548173ffffffffffffffffffffffffffffffffffffffff021916908373ffffffffffffffffffffffffffffffffffffffff1602179055508173ffffffffffffffffffffffffffffffffffffffff168173ffffffffffffffffffffffffffffffffffffffff167f8be0079c531659141344cd1fd0a4f28419497f9722a3daafe3b4186f6b6457e060405160405180910390a35050565b8280546200057a9062000d86565b90600052602060002090601f0160209004810192826200059e5760008555620005ea565b82601f10620005b957805160ff1916838001178555620005ea565b82800160010185558215620005ea579182015b82811115620005e9578251825591602001919060010190620005cc565b5b509050620005f99190620006b6565b5090565b82805482825590600052602060002090810192821562000651579160200282015b82811115620006505782518290805190602001906200063f9291906200056c565b50916020019190600101906200061e565b5b509050620006609190620006d5565b5090565b828054828255906000526020600020908101928215620006a3579160200282015b82811115620006a257825182559160200191906001019062000685565b5b509050620006b29190620006b6565b5090565b5b80821115620006d1576000816000905550600101620006b7565b5090565b5b80821115620006f95760008181620006ef9190620006fd565b50600101620006d6565b5090565b5080546200070b9062000d86565b6000825580601f106200071f575062000740565b601f0160209004906000526020600020908101906200073f9190620006b6565b5b50565b6000604051905090565b600080fd5b600080fd5b600080fd5b6000601f19601f8301169050919050565b7f4e487b7100000000000000000000000000000000000000000000000000000000600052604160045260246000fd5b620007a7826200075c565b810181811067ffffffffffffffff82111715620007c957620007c86200076d565b5b80604052505050565b6000620007de62000743565b9050620007ec82826200079c565b919050565b600067ffffffffffffffff8211156200080f576200080e6200076d565b5b602082029050602081019050919050565b600080fd5b600080fd5b600067ffffffffffffffff8211156200084857620008476200076d565b5b62000853826200075c565b9050602081019050919050565b60005b838110156200088057808201518184015260208101905062000863565b8381111562000890576000848401525b50505050565b6000620008ad620008a7846200082a565b620007d2565b905082815260208101848484011115620008cc57620008cb62000825565b5b620008d984828562000860565b509392505050565b600082601f830112620008f957620008f862000757565b5b81516200090b84826020860162000896565b91505092915050565b60006200092b6200092584620007f1565b620007d2565b9050808382526020820190506020840283018581111562000951576200095062000820565b5b835b818110156200099f57805167ffffffffffffffff8111156200097a576200097962000757565b5b808601620009898982620008e1565b8552602085019450505060208101905062000953565b5050509392505050565b600082601f830112620009c157620009c062000757565b5b8151620009d384826020860162000914565b91505092915050565b600067ffffffffffffffff821115620009fa57620009f96200076d565b5b602082029050602081019050919050565b6000819050919050565b62000a208162000a0b565b811462000a2c57600080fd5b50565b60008151905062000a408162000a15565b92915050565b600062000a5d62000a5784620009dc565b620007d2565b9050808382526020820190506020840283018581111562000a835762000a8262000820565b5b835b8181101562000ab0578062000a9b888262000a2f565b84526020840193505060208101905062000a85565b5050509392505050565b600082601f83011262000ad25762000ad162000757565b5b815162000ae484826020860162000a46565b91505092915050565b60008060008060008060008060006101208a8c03121562000b135762000b126200074d565b5b60008a015167ffffffffffffffff81111562000b345762000b3362000752565b5b62000b428c828d01620009a9565b99505060208a015167ffffffffffffffff81111562000b665762000b6562000752565b5b62000b748c828d0162000aba565b98505060408a015167ffffffffffffffff81111562000b985762000b9762000752565b5b62000ba68c828d0162000aba565b97505060608a015167ffffffffffffffff81111562000bca5762000bc962000752565b5b62000bd88c828d01620008e1565b96505060808a015167ffffffffffffffff81111562000bfc5762000bfb62000752565b5b62000c0a8c828d01620008e1565b95505060a08a015167ffffffffffffffff81111562000c2e5762000c2d62000752565b5b62000c3c8c828d01620008e1565b94505060c062000c4f8c828d0162000a2f565b93505060e062000c628c828d0162000a2f565b9250506101008a015167ffffffffffffffff81111562000c875762000c8662000752565b5b62000c958c828d01620008e1565b9150509295985092959850929598565b600082825260208201905092915050565b7f506c65617365206b657920696e20616761696e00000000000000000000000000600082015250565b600062000cee60138362000ca5565b915062000cfb8262000cb6565b602082019050919050565b6000602082019050818103600083015262000d218162000cdf565b9050919050565b7f4e487b7100000000000000000000000000000000000000000000000000000000600052603260045260246000fd5b7f4e487b7100000000000000000000000000000000000000000000000000000000600052602260045260246000fd5b6000600282049050600182168062000d9f57607f821691505b6020821081141562000db65762000db562000d57565b5b50919050565b600081905092915050565b60008190508160005260206000209050919050565b6000815462000deb8162000d86565b62000df7818662000dbc565b9450600182166000811462000e15576001811462000e275762000e5e565b60ff1983168652818601935062000e5e565b62000e328562000dc7565b60005b8381101562000e565781548189015260018201915060208101905062000e35565b838801955050505b50505092915050565b600062000e75828462000ddc565b915081905092915050565b7f4e487b7100000000000000000000000000000000000000000000000000000000600052601160045260246000fd5b600062000ebc8262000a0b565b915062000ec98362000a0b565b9250827fffffffffffffffffffffffffffffffffffffffffffffffffffffffffffffffff0382111562000f015762000f0062000e80565b5b828201905092915050565b600062000f198262000a0b565b91507fffffffffffffffffffffffffffffffffffffffffffffffffffffffffffffffff82141562000f4f5762000f4e62000e80565b5b600182019050919050565b6145ea8062000f6a6000396000f3fe6080604052600436106101665760003560e01c80638da5cb5b116100d1578063e1a494d11161008a578063e95a644f11610064578063e95a644f14610559578063e985e9c514610582578063f2fde38b146105bf578063fa205f03146105e857610166565b8063e1a494d1146104ee578063e2c8137714610505578063e65d6b491461052e57610166565b80638da5cb5b146103cc57806395d89b41146103f7578063a22cb46514610422578063b88d4fde1461044b578063c1ad6c1b14610474578063c87b56dd146104b157610166565b806342842e0e1161012357806342842e0e1461029f5780634d07d5ab146102c85780636352211e1461030b57806370a0823114610348578063715018a6146103855780638aa0fdad1461039c57610166565b806301ffc9a71461016b57806306fdde03146101a8578063081812fc146101d3578063095ea7b31461021057806323b872dd146102395780632c92119614610262575b600080fd5b34801561017757600080fd5b50610192600480360381019061018d9190612e0b565b610627565b60405161019f9190612e53565b60405180910390f35b3480156101b457600080fd5b506101bd610709565b6040516101ca9190612f07565b60405180910390f35b3480156101df57600080fd5b506101fa60048036038101906101f59190612f5f565b61079b565b6040516102079190612fcd565b60405180910390f35b34801561021c57600080fd5b5061023760048036038101906102329190613014565b6107e1565b005b34801561024557600080fd5b50610260600480360381019061025b9190613054565b6108f9565b005b34801561026e57600080fd5b50610289600480360381019061028491906130a7565b610959565b60405161029691906130e3565b60405180910390f35b3480156102ab57600080fd5b506102c660048036038101906102c19190613054565b610971565b005b3480156102d457600080fd5b506102ef60048036038101906102ea9190612f5f565b610991565b6040516103029796959493929190613231565b60405180910390f35b34801561031757600080fd5b50610332600480360381019061032d9190612f5f565b610af4565b60405161033f9190612fcd565b60405180910390f35b34801561035457600080fd5b5061036f600480360381019061036a91906130a7565b610b7b565b60405161037c91906130e3565b60405180910390f35b34801561039157600080fd5b5061039a610c33565b005b6103b660048036038101906103b191906133dc565b610c47565b6040516103c391906130e3565b60405180910390f35b3480156103d857600080fd5b506103e161125a565b6040516103ee9190612fcd565b60405180910390f35b34801561040357600080fd5b5061040c611283565b6040516104199190612f07565b60405180910390f35b34801561042e57600080fd5b5061044960048036038101906104449190613480565b611315565b005b34801561045757600080fd5b50610472600480360381019061046d9190613561565b61132b565b005b34801561048057600080fd5b5061049b600480360381019061049691906135e4565b61138d565b6040516104a8919061376c565b60405180910390f35b3480156104bd57600080fd5b506104d860048036038101906104d39190612f5f565b6115a6565b6040516104e59190612f07565b60405180910390f35b3480156104fa57600080fd5b506105036116b9565b005b34801561051157600080fd5b5061052c60048036038101906105279190612f5f565b6117ab565b005b34801561053a57600080fd5b506105436117ed565b60405161055091906130e3565b60405180910390f35b34801561056557600080fd5b50610580600480360381019061057b9190612f5f565b6117f7565b005b34801561058e57600080fd5b506105a960048036038101906105a4919061378e565b611972565b6040516105b69190612e53565b60405180910390f35b3480156105cb57600080fd5b506105e660048036038101906105e191906130a7565b611a06565b005b3480156105f457600080fd5b5061060f600480360381019061060a91906137ce565b611a8a565b60405161061e93929190613817565b60405180910390f35b60007f80ac58cd000000000000000000000000000000000000000000000000000000007bffffffffffffffffffffffffffffffffffffffffffffffffffffffff1916827bffffffffffffffffffffffffffffffffffffffffffffffffffffffff191614806106f257507f5b5e139f000000000000000000000000000000000000000000000000000000007bffffffffffffffffffffffffffffffffffffffffffffffffffffffff1916827bffffffffffffffffffffffffffffffffffffffffffffffffffffffff1916145b80610702575061070182611b02565b5b9050919050565b6060600280546107189061387d565b80601f01602080910402602001604051908101604052809291908181526020018280546107449061387d565b80156107915780601f1061076657610100808354040283529160200191610791565b820191906000526020600020905b81548152906001019060200180831161077457829003601f168201915b5050505050905090565b60006107a682611b6c565b6006600083815260200190815260200160002060009054906101000a900473ffffffffffffffffffffffffffffffffffffffff169050919050565b60006107ec82610af4565b90508073ffffffffffffffffffffffffffffffffffffffff168373ffffffffffffffffffffffffffffffffffffffff16141561085d576040517f08c379a000000000000000000000000000000000000000000000000000000000815260040161085490613921565b60405180910390fd5b8073ffffffffffffffffffffffffffffffffffffffff1661087c611bb7565b73ffffffffffffffffffffffffffffffffffffffff1614806108ab57506108aa816108a5611bb7565b611972565b5b6108ea576040517f08c379a00000000000000000000000000000000000000000000000000000000081526004016108e1906139b3565b60405180910390fd5b6108f48383611bbf565b505050565b61090a610904611bb7565b82611c78565b610949576040517f08c379a000000000000000000000000000000000000000000000000000000000815260040161094090613a45565b60405180910390fd5b610954838383611d0d565b505050565b60196020528060005260406000206000915090505481565b61098c8383836040518060200160405280600081525061132b565b505050565b60186020528060005260406000206000915090508060000160009054906101000a900473ffffffffffffffffffffffffffffffffffffffff16908060010160009054906101000a900473ffffffffffffffffffffffffffffffffffffffff169080600201604051806080016040529081600082018054610a109061387d565b80601f0160208091040260200160405190810160405280929190818152602001828054610a3c9061387d565b8015610a895780601f10610a5e57610100808354040283529160200191610a89565b820191906000526020600020905b815481529060010190602001808311610a6c57829003601f168201915b505050505081526020016001820154815260200160028201548152602001600382015481525050908060060154908060070160009054906101000a900460ff16908060070160019054906101000a900460ff16908060070160029054906101000a900460ff16905087565b600080610b0083612007565b9050600073ffffffffffffffffffffffffffffffffffffffff168173ffffffffffffffffffffffffffffffffffffffff161415610b72576040517f08c379a0000000000000000000000000000000000000000000000000000000008152600401610b6990613ab1565b60405180910390fd5b80915050919050565b60008073ffffffffffffffffffffffffffffffffffffffff168273ffffffffffffffffffffffffffffffffffffffff161415610bec576040517f08c379a0000000000000000000000000000000000000000000000000000000008152600401610be390613b43565b60405180910390fd5b600560008373ffffffffffffffffffffffffffffffffffffffff1673ffffffffffffffffffffffffffffffffffffffff168152602001908152602001600020549050919050565b610c3b612044565b610c4560006120c2565b565b60007fdf28233119131a4745ee55a92f58d58acfd14491139b562f3182d7c1928a6e8233604051610c789190612fcd565b60405180910390a1601354601960003373ffffffffffffffffffffffffffffffffffffffff1673ffffffffffffffffffffffffffffffffffffffff1681526020019081526020016000205410610d03576040517f08c379a0000000000000000000000000000000000000000000000000000000008152600401610cfa90613baf565b60405180910390fd5b601783604051610d139190613c0b565b908152602001604051809103902060020154601784604051610d359190613c0b565b90815260200160405180910390206003015410610d87576040517f08c379a0000000000000000000000000000000000000000000000000000000008152600401610d7e90613c6e565b60405180910390fd5b6064601254610d969190613cec565b6001610da29190613d1d565b601784604051610db29190613c0b565b908152602001604051809103902060010154610dce9190613d73565b341015610e10576040517f08c379a0000000000000000000000000000000000000000000000000000000008152600401610e0790613e19565b60405180910390fd5b6001601784604051610e229190613c0b565b908152602001604051809103902060030154610e3e9190613d1d565b601784604051610e4e9190613c0b565b9081526020016040518091039020600301819055506001600c6000828254610e769190613d1d565b9250508190555060006040518060e00160405280600a60009054906101000a900473ffffffffffffffffffffffffffffffffffffffff1673ffffffffffffffffffffffffffffffffffffffff1681526020013373ffffffffffffffffffffffffffffffffffffffff168152602001601786604051610ef49190613c0b565b9081526020016040518091039020604051806080016040529081600082018054610f1d9061387d565b80601f0160208091040260200160405190810160405280929190818152602001828054610f499061387d565b8015610f965780601f10610f6b57610100808354040283529160200191610f96565b820191906000526020600020905b815481529060010190602001808311610f7957829003601f168201915b5050505050815260200160018201548152602001600282015481526020016003820154815250508152602001601786604051610fd29190613c0b565b908152602001604051809103902060010154815260200160006003811115610ffd57610ffc6131ba565b5b815260200160001515815260200160001515815250905061101e6009612186565b600061102a600961219c565b905061103633826121aa565b61104081856121c8565b6001601960003373ffffffffffffffffffffffffffffffffffffffff1673ffffffffffffffffffffffffffffffffffffffff16815260200190815260200160002060008282546110909190613d1d565b92505081905550816018600083815260200190815260200160002060008201518160000160006101000a81548173ffffffffffffffffffffffffffffffffffffffff021916908373ffffffffffffffffffffffffffffffffffffffff16021790555060208201518160010160006101000a81548173ffffffffffffffffffffffffffffffffffffffff021916908373ffffffffffffffffffffffffffffffffffffffff160217905550604082015181600201600082015181600001908051906020019061115e929190612c4f565b5060208201518160010155604082015181600201556060820151816003015550506060820151816006015560808201518160070160006101000a81548160ff021916908360038111156111b4576111b36131ba565b5b021790555060a08201518160070160016101000a81548160ff02191690831515021790555060c08201518160070160026101000a81548160ff0219169083151502179055509050506001600d600082825461120f9190613d1d565b925050819055507f9ec02c5e083e56cec410042ba395689ccfa59f6658226bc10b2e26aac18f72368133604051611247929190613e39565b60405180910390a1809250505092915050565b60008060009054906101000a900473ffffffffffffffffffffffffffffffffffffffff16905090565b6060600380546112929061387d565b80601f01602080910402602001604051908101604052809291908181526020018280546112be9061387d565b801561130b5780601f106112e05761010080835404028352916020019161130b565b820191906000526020600020905b8154815290600101906020018083116112ee57829003601f168201915b5050505050905090565b611327611320611bb7565b838361223c565b5050565b61133c611336611bb7565b83611c78565b61137b576040517f08c379a000000000000000000000000000000000000000000000000000000000815260040161137290613a45565b60405180910390fd5b611387848484846123a9565b50505050565b611395612cd5565b601860008481526020019081526020016000206040518060e00160405290816000820160009054906101000a900473ffffffffffffffffffffffffffffffffffffffff1673ffffffffffffffffffffffffffffffffffffffff1673ffffffffffffffffffffffffffffffffffffffff1681526020016001820160009054906101000a900473ffffffffffffffffffffffffffffffffffffffff1673ffffffffffffffffffffffffffffffffffffffff1673ffffffffffffffffffffffffffffffffffffffff1681526020016002820160405180608001604052908160008201805461147f9061387d565b80601f01602080910402602001604051908101604052809291908181526020018280546114ab9061387d565b80156114f85780601f106114cd576101008083540402835291602001916114f8565b820191906000526020600020905b8154815290600101906020018083116114db57829003601f168201915b5050505050815260200160018201548152602001600282015481526020016003820154815250508152602001600682015481526020016007820160009054906101000a900460ff166003811115611552576115516131ba565b5b6003811115611564576115636131ba565b5b81526020016007820160019054906101000a900460ff161515151581526020016007820160029054906101000a900460ff161515151581525050905092915050565b60606115b182611b6c565b60006008600084815260200190815260200160002080546115d19061387d565b80601f01602080910402602001604051908101604052809291908181526020018280546115fd9061387d565b801561164a5780601f1061161f5761010080835404028352916020019161164a565b820191906000526020600020905b81548152906001019060200180831161162d57829003601f168201915b50505050509050600061165b612405565b90506000815114156116715781925050506116b4565b6000825111156116a657808260405160200161168e929190613e62565b604051602081830303815290604052925050506116b4565b6116af8461241c565b925050505b919050565b3373ffffffffffffffffffffffffffffffffffffffff16600a60009054906101000a900473ffffffffffffffffffffffffffffffffffffffff1673ffffffffffffffffffffffffffffffffffffffff1614611749576040517f08c379a000000000000000000000000000000000000000000000000000000000815260040161174090613ed2565b60405180910390fd5b60005b600d548110156117a85760036018600083815260200190815260200160002060070160006101000a81548160ff021916908360038111156117905761178f6131ba565b5b021790555080806117a090613ef2565b91505061174c565b50565b60026018600083815260200190815260200160002060070160006101000a81548160ff021916908360038111156117e5576117e46131ba565b5b021790555050565b6000601254905090565b803373ffffffffffffffffffffffffffffffffffffffff166018600083815260200190815260200160002060010160009054906101000a900473ffffffffffffffffffffffffffffffffffffffff1673ffffffffffffffffffffffffffffffffffffffff161461189c576040517f08c379a000000000000000000000000000000000000000000000000000000000815260040161189390613f87565b60405180910390fd5b600015156018600084815260200190815260200160002060070160029054906101000a900460ff16151514611906576040517f08c379a00000000000000000000000000000000000000000000000000000000081526004016118fd90613ff3565b60405180910390fd5b60016018600084815260200190815260200160002060070160026101000a81548160ff0219169083151502179055507f088bcc30e88b58300f96dd11a5cfb0eb4fd1dd02e1417103f9dbc93c235b1f8c8233604051611966929190613e39565b60405180910390a15050565b6000600760008473ffffffffffffffffffffffffffffffffffffffff1673ffffffffffffffffffffffffffffffffffffffff16815260200190815260200160002060008373ffffffffffffffffffffffffffffffffffffffff1673ffffffffffffffffffffffffffffffffffffffff16815260200190815260200160002060009054906101000a900460ff16905092915050565b611a0e612044565b600073ffffffffffffffffffffffffffffffffffffffff168173ffffffffffffffffffffffffffffffffffffffff161415611a7e576040517f08c379a0000000000000000000000000000000000000000000000000000000008152600401611a7590614085565b60405180910390fd5b611a87816120c2565b50565b6000806000601784604051611a9f9190613c0b565b908152602001604051809103902060010154601785604051611ac19190613c0b565b908152602001604051809103902060020154601786604051611ae39190613c0b565b9081526020016040518091039020600301549250925092509193909250565b60007f01ffc9a7000000000000000000000000000000000000000000000000000000007bffffffffffffffffffffffffffffffffffffffffffffffffffffffff1916827bffffffffffffffffffffffffffffffffffffffffffffffffffffffff1916149050919050565b611b7581612484565b611bb4576040517f08c379a0000000000000000000000000000000000000000000000000000000008152600401611bab90613ab1565b60405180910390fd5b50565b600033905090565b816006600083815260200190815260200160002060006101000a81548173ffffffffffffffffffffffffffffffffffffffff021916908373ffffffffffffffffffffffffffffffffffffffff160217905550808273ffffffffffffffffffffffffffffffffffffffff16611c3283610af4565b73ffffffffffffffffffffffffffffffffffffffff167f8c5be1e5ebec7d5bd14f71427d1e84f3dd0314c0f7b2291e5b200ac8c7c3b92560405160405180910390a45050565b600080611c8483610af4565b90508073ffffffffffffffffffffffffffffffffffffffff168473ffffffffffffffffffffffffffffffffffffffff161480611cc65750611cc58185611972565b5b80611d0457508373ffffffffffffffffffffffffffffffffffffffff16611cec8461079b565b73ffffffffffffffffffffffffffffffffffffffff16145b91505092915050565b8273ffffffffffffffffffffffffffffffffffffffff16611d2d82610af4565b73ffffffffffffffffffffffffffffffffffffffff1614611d83576040517f08c379a0000000000000000000000000000000000000000000000000000000008152600401611d7a90614117565b60405180910390fd5b600073ffffffffffffffffffffffffffffffffffffffff168273ffffffffffffffffffffffffffffffffffffffff161415611df3576040517f08c379a0000000000000000000000000000000000000000000000000000000008152600401611dea906141a9565b60405180910390fd5b611e0083838360016124c5565b8273ffffffffffffffffffffffffffffffffffffffff16611e2082610af4565b73ffffffffffffffffffffffffffffffffffffffff1614611e76576040517f08c379a0000000000000000000000000000000000000000000000000000000008152600401611e6d90614117565b60405180910390fd5b6006600082815260200190815260200160002060006101000a81549073ffffffffffffffffffffffffffffffffffffffff02191690556001600560008573ffffffffffffffffffffffffffffffffffffffff1673ffffffffffffffffffffffffffffffffffffffff168152602001908152602001600020600082825403925050819055506001600560008473ffffffffffffffffffffffffffffffffffffffff1673ffffffffffffffffffffffffffffffffffffffff16815260200190815260200160002060008282540192505081905550816004600083815260200190815260200160002060006101000a81548173ffffffffffffffffffffffffffffffffffffffff021916908373ffffffffffffffffffffffffffffffffffffffff160217905550808273ffffffffffffffffffffffffffffffffffffffff168473ffffffffffffffffffffffffffffffffffffffff167fddf252ad1be2c89b69c2b068fc378daa952ba7f163c4a11628f55a4df523b3ef60405160405180910390a461200283838360016125eb565b505050565b60006004600083815260200190815260200160002060009054906101000a900473ffffffffffffffffffffffffffffffffffffffff169050919050565b61204c611bb7565b73ffffffffffffffffffffffffffffffffffffffff1661206a61125a565b73ffffffffffffffffffffffffffffffffffffffff16146120c0576040517f08c379a00000000000000000000000000000000000000000000000000000000081526004016120b790614215565b60405180910390fd5b565b60008060009054906101000a900473ffffffffffffffffffffffffffffffffffffffff169050816000806101000a81548173ffffffffffffffffffffffffffffffffffffffff021916908373ffffffffffffffffffffffffffffffffffffffff1602179055508173ffffffffffffffffffffffffffffffffffffffff168173ffffffffffffffffffffffffffffffffffffffff167f8be0079c531659141344cd1fd0a4f28419497f9722a3daafe3b4186f6b6457e060405160405180910390a35050565b6001816000016000828254019250508190555050565b600081600001549050919050565b6121c48282604051806020016040528060008152506125f1565b5050565b6121d182612484565b612210576040517f08c379a0000000000000000000000000000000000000000000000000000000008152600401612207906142a7565b60405180910390fd5b80600860008481526020019081526020016000209080519060200190612237929190612c4f565b505050565b8173ffffffffffffffffffffffffffffffffffffffff168373ffffffffffffffffffffffffffffffffffffffff1614156122ab576040517f08c379a00000000000000000000000000000000000000000000000000000000081526004016122a290614313565b60405180910390fd5b80600760008573ffffffffffffffffffffffffffffffffffffffff1673ffffffffffffffffffffffffffffffffffffffff16815260200190815260200160002060008473ffffffffffffffffffffffffffffffffffffffff1673ffffffffffffffffffffffffffffffffffffffff16815260200190815260200160002060006101000a81548160ff0219169083151502179055508173ffffffffffffffffffffffffffffffffffffffff168373ffffffffffffffffffffffffffffffffffffffff167f17307eab39ab6107e8899845ad3d59bd9653f200f220920489ca2b5937696c318360405161239c9190612e53565b60405180910390a3505050565b6123b4848484611d0d565b6123c08484848461264c565b6123ff576040517f08c379a00000000000000000000000000000000000000000000000000000000081526004016123f6906143a5565b60405180910390fd5b50505050565b606060405180602001604052806000815250905090565b606061242782611b6c565b6000612431612405565b90506000815111612451576040518060200160405280600081525061247c565b8061245b846127e3565b60405160200161246c929190613e62565b6040516020818303038152906040525b915050919050565b60008073ffffffffffffffffffffffffffffffffffffffff166124a683612007565b73ffffffffffffffffffffffffffffffffffffffff1614159050919050565b60018111156125e557600073ffffffffffffffffffffffffffffffffffffffff168473ffffffffffffffffffffffffffffffffffffffff16146125595780600560008673ffffffffffffffffffffffffffffffffffffffff1673ffffffffffffffffffffffffffffffffffffffff168152602001908152602001600020600082825461255191906143c5565b925050819055505b600073ffffffffffffffffffffffffffffffffffffffff168373ffffffffffffffffffffffffffffffffffffffff16146125e45780600560008573ffffffffffffffffffffffffffffffffffffffff1673ffffffffffffffffffffffffffffffffffffffff16815260200190815260200160002060008282546125dc9190613d1d565b925050819055505b5b50505050565b50505050565b6125fb83836128bb565b612608600084848461264c565b612647576040517f08c379a000000000000000000000000000000000000000000000000000000000815260040161263e906143a5565b60405180910390fd5b505050565b600061266d8473ffffffffffffffffffffffffffffffffffffffff16612ad9565b156127d6578373ffffffffffffffffffffffffffffffffffffffff1663150b7a02612696611bb7565b8786866040518563ffffffff1660e01b81526004016126b8949392919061444e565b602060405180830381600087803b1580156126d257600080fd5b505af192505050801561270357506040513d601f19601f8201168201806040525081019061270091906144af565b60015b612786573d8060008114612733576040519150601f19603f3d011682016040523d82523d6000602084013e612738565b606091505b5060008151141561277e576040517f08c379a0000000000000000000000000000000000000000000000000000000008152600401612775906143a5565b60405180910390fd5b805181602001fd5b63150b7a0260e01b7bffffffffffffffffffffffffffffffffffffffffffffffffffffffff1916817bffffffffffffffffffffffffffffffffffffffffffffffffffffffff1916149150506127db565b600190505b949350505050565b6060600060016127f284612afc565b01905060008167ffffffffffffffff811115612811576128106132b1565b5b6040519080825280601f01601f1916602001820160405280156128435781602001600182028036833780820191505090505b509050600082602001820190505b6001156128b0578080600190039150507f3031323334353637383961626364656600000000000000000000000000000000600a86061a8153600a858161289a57612899613c8e565b5b04945060008514156128ab576128b0565b612851565b819350505050919050565b600073ffffffffffffffffffffffffffffffffffffffff168273ffffffffffffffffffffffffffffffffffffffff16141561292b576040517f08c379a000000000000000000000000000000000000000000000000000000000815260040161292290614528565b60405180910390fd5b61293481612484565b15612974576040517f08c379a000000000000000000000000000000000000000000000000000000000815260040161296b90614594565b60405180910390fd5b6129826000838360016124c5565b61298b81612484565b156129cb576040517f08c379a00000000000000000000000000000000000000000000000000000000081526004016129c290614594565b60405180910390fd5b6001600560008473ffffffffffffffffffffffffffffffffffffffff1673ffffffffffffffffffffffffffffffffffffffff16815260200190815260200160002060008282540192505081905550816004600083815260200190815260200160002060006101000a81548173ffffffffffffffffffffffffffffffffffffffff021916908373ffffffffffffffffffffffffffffffffffffffff160217905550808273ffffffffffffffffffffffffffffffffffffffff16600073ffffffffffffffffffffffffffffffffffffffff167fddf252ad1be2c89b69c2b068fc378daa952ba7f163c4a11628f55a4df523b3ef60405160405180910390a4612ad56000838360016125eb565b5050565b6000808273ffffffffffffffffffffffffffffffffffffffff163b119050919050565b600080600090507a184f03e93ff9f4daa797ed6e38ed64bf6a1f0100000000000000008310612b5a577a184f03e93ff9f4daa797ed6e38ed64bf6a1f0100000000000000008381612b5057612b4f613c8e565b5b0492506040810190505b6d04ee2d6d415b85acef81000000008310612b97576d04ee2d6d415b85acef81000000008381612b8d57612b8c613c8e565b5b0492506020810190505b662386f26fc100008310612bc657662386f26fc100008381612bbc57612bbb613c8e565b5b0492506010810190505b6305f5e1008310612bef576305f5e1008381612be557612be4613c8e565b5b0492506008810190505b6127108310612c14576127108381612c0a57612c09613c8e565b5b0492506004810190505b60648310612c375760648381612c2d57612c2c613c8e565b5b0492506002810190505b600a8310612c46576001810190505b80915050919050565b828054612c5b9061387d565b90600052602060002090601f016020900481019282612c7d5760008555612cc4565b82601f10612c9657805160ff1916838001178555612cc4565b82800160010185558215612cc4579182015b82811115612cc3578251825591602001919060010190612ca8565b5b509050612cd19190612d5a565b5090565b6040518060e00160405280600073ffffffffffffffffffffffffffffffffffffffff168152602001600073ffffffffffffffffffffffffffffffffffffffff168152602001612d22612d77565b81526020016000815260200160006003811115612d4257612d416131ba565b5b81526020016000151581526020016000151581525090565b5b80821115612d73576000816000905550600101612d5b565b5090565b6040518060800160405280606081526020016000815260200160008152602001600081525090565b6000604051905090565b600080fd5b600080fd5b60007fffffffff0000000000000000000000000000000000000000000000000000000082169050919050565b612de881612db3565b8114612df357600080fd5b50565b600081359050612e0581612ddf565b92915050565b600060208284031215612e2157612e20612da9565b5b6000612e2f84828501612df6565b91505092915050565b60008115159050919050565b612e4d81612e38565b82525050565b6000602082019050612e686000830184612e44565b92915050565b600081519050919050565b600082825260208201905092915050565b60005b83811015612ea8578082015181840152602081019050612e8d565b83811115612eb7576000848401525b50505050565b6000601f19601f8301169050919050565b6000612ed982612e6e565b612ee38185612e79565b9350612ef3818560208601612e8a565b612efc81612ebd565b840191505092915050565b60006020820190508181036000830152612f218184612ece565b905092915050565b6000819050919050565b612f3c81612f29565b8114612f4757600080fd5b50565b600081359050612f5981612f33565b92915050565b600060208284031215612f7557612f74612da9565b5b6000612f8384828501612f4a565b91505092915050565b600073ffffffffffffffffffffffffffffffffffffffff82169050919050565b6000612fb782612f8c565b9050919050565b612fc781612fac565b82525050565b6000602082019050612fe26000830184612fbe565b92915050565b612ff181612fac565b8114612ffc57600080fd5b50565b60008135905061300e81612fe8565b92915050565b6000806040838503121561302b5761302a612da9565b5b600061303985828601612fff565b925050602061304a85828601612f4a565b9150509250929050565b60008060006060848603121561306d5761306c612da9565b5b600061307b86828701612fff565b935050602061308c86828701612fff565b925050604061309d86828701612f4a565b9150509250925092565b6000602082840312156130bd576130bc612da9565b5b60006130cb84828501612fff565b91505092915050565b6130dd81612f29565b82525050565b60006020820190506130f860008301846130d4565b92915050565b600082825260208201905092915050565b600061311a82612e6e565b61312481856130fe565b9350613134818560208601612e8a565b61313d81612ebd565b840191505092915050565b61315181612f29565b82525050565b60006080830160008301518482036000860152613174828261310f565b91505060208301516131896020860182613148565b50604083015161319c6040860182613148565b5060608301516131af6060860182613148565b508091505092915050565b7f4e487b7100000000000000000000000000000000000000000000000000000000600052602160045260246000fd5b600481106131fa576131f96131ba565b5b50565b600081905061320b826131e9565b919050565b600061321b826131fd565b9050919050565b61322b81613210565b82525050565b600060e082019050613246600083018a612fbe565b6132536020830189612fbe565b81810360408301526132658188613157565b905061327460608301876130d4565b6132816080830186613222565b61328e60a0830185612e44565b61329b60c0830184612e44565b98975050505050505050565b600080fd5b600080fd5b7f4e487b7100000000000000000000000000000000000000000000000000000000600052604160045260246000fd5b6132e982612ebd565b810181811067ffffffffffffffff82111715613308576133076132b1565b5b80604052505050565b600061331b612d9f565b905061332782826132e0565b919050565b600067ffffffffffffffff821115613347576133466132b1565b5b61335082612ebd565b9050602081019050919050565b82818337600083830152505050565b600061337f61337a8461332c565b613311565b90508281526020810184848401111561339b5761339a6132ac565b5b6133a684828561335d565b509392505050565b600082601f8301126133c3576133c26132a7565b5b81356133d384826020860161336c565b91505092915050565b600080604083850312156133f3576133f2612da9565b5b600083013567ffffffffffffffff81111561341157613410612dae565b5b61341d858286016133ae565b925050602083013567ffffffffffffffff81111561343e5761343d612dae565b5b61344a858286016133ae565b9150509250929050565b61345d81612e38565b811461346857600080fd5b50565b60008135905061347a81613454565b92915050565b6000806040838503121561349757613496612da9565b5b60006134a585828601612fff565b92505060206134b68582860161346b565b9150509250929050565b600067ffffffffffffffff8211156134db576134da6132b1565b5b6134e482612ebd565b9050602081019050919050565b60006135046134ff846134c0565b613311565b9050828152602081018484840111156135205761351f6132ac565b5b61352b84828561335d565b509392505050565b600082601f830112613548576135476132a7565b5b81356135588482602086016134f1565b91505092915050565b6000806000806080858703121561357b5761357a612da9565b5b600061358987828801612fff565b945050602061359a87828801612fff565b93505060406135ab87828801612f4a565b925050606085013567ffffffffffffffff8111156135cc576135cb612dae565b5b6135d887828801613533565b91505092959194509250565b600080604083850312156135fb576135fa612da9565b5b600061360985828601612f4a565b925050602083013567ffffffffffffffff81111561362a57613629612dae565b5b613636858286016133ae565b9150509250929050565b61364981612fac565b82525050565b6000608083016000830151848203600086015261366c828261310f565b91505060208301516136816020860182613148565b5060408301516136946040860182613148565b5060608301516136a76060860182613148565b508091505092915050565b6136bb81613210565b82525050565b6136ca81612e38565b82525050565b600060e0830160008301516136e86000860182613640565b5060208301516136fb6020860182613640565b5060408301518482036040860152613713828261364f565b91505060608301516137286060860182613148565b50608083015161373b60808601826136b2565b5060a083015161374e60a08601826136c1565b5060c083015161376160c08601826136c1565b508091505092915050565b6000602082019050818103600083015261378681846136d0565b905092915050565b600080604083850312156137a5576137a4612da9565b5b60006137b385828601612fff565b92505060206137c485828601612fff565b9150509250929050565b6000602082840312156137e4576137e3612da9565b5b600082013567ffffffffffffffff81111561380257613801612dae565b5b61380e848285016133ae565b91505092915050565b600060608201905061382c60008301866130d4565b61383960208301856130d4565b61384660408301846130d4565b949350505050565b7f4e487b7100000000000000000000000000000000000000000000000000000000600052602260045260246000fd5b6000600282049050600182168061389557607f821691505b602082108114156138a9576138a861384e565b5b50919050565b7f4552433732313a20617070726f76616c20746f2063757272656e74206f776e6560008201527f7200000000000000000000000000000000000000000000000000000000000000602082015250565b600061390b602183612e79565b9150613916826138af565b604082019050919050565b6000602082019050818103600083015261393a816138fe565b9050919050565b7f4552433732313a20617070726f76652063616c6c6572206973206e6f7420746f60008201527f6b656e206f776e6572206f7220617070726f76656420666f7220616c6c000000602082015250565b600061399d603d83612e79565b91506139a882613941565b604082019050919050565b600060208201905081810360008301526139cc81613990565b9050919050565b7f4552433732313a2063616c6c6572206973206e6f7420746f6b656e206f776e6560008201527f72206f7220617070726f76656400000000000000000000000000000000000000602082015250565b6000613a2f602d83612e79565b9150613a3a826139d3565b604082019050919050565b60006020820190508181036000830152613a5e81613a22565b9050919050565b7f4552433732313a20696e76616c696420746f6b656e2049440000000000000000600082015250565b6000613a9b601883612e79565b9150613aa682613a65565b602082019050919050565b60006020820190508181036000830152613aca81613a8e565b9050919050565b7f4552433732313a2061646472657373207a65726f206973206e6f74206120766160008201527f6c6964206f776e65720000000000000000000000000000000000000000000000602082015250565b6000613b2d602983612e79565b9150613b3882613ad1565b604082019050919050565b60006020820190508181036000830152613b5c81613b20565b9050919050565b7f4578636565646564204d6178204d696e74696e67000000000000000000000000600082015250565b6000613b99601483612e79565b9150613ba482613b63565b602082019050919050565b60006020820190508181036000830152613bc881613b8c565b9050919050565b600081905092915050565b6000613be582612e6e565b613bef8185613bcf565b9350613bff818560208601612e8a565b80840191505092915050565b6000613c178284613bda565b915081905092915050565b7f45786365656465642043617465676f7279206d696e74696e6700000000000000600082015250565b6000613c58601983612e79565b9150613c6382613c22565b602082019050919050565b60006020820190508181036000830152613c8781613c4b565b9050919050565b7f4e487b7100000000000000000000000000000000000000000000000000000000600052601260045260246000fd5b7f4e487b7100000000000000000000000000000000000000000000000000000000600052601160045260246000fd5b6000613cf782612f29565b9150613d0283612f29565b925082613d1257613d11613c8e565b5b828204905092915050565b6000613d2882612f29565b9150613d3383612f29565b9250827fffffffffffffffffffffffffffffffffffffffffffffffffffffffffffffffff03821115613d6857613d67613cbd565b5b828201905092915050565b6000613d7e82612f29565b9150613d8983612f29565b9250817fffffffffffffffffffffffffffffffffffffffffffffffffffffffffffffffff0483118215151615613dc257613dc1613cbd565b5b828202905092915050565b7f4e6f7420656e6f75676820455448000000000000000000000000000000000000600082015250565b6000613e03600e83612e79565b9150613e0e82613dcd565b602082019050919050565b60006020820190508181036000830152613e3281613df6565b9050919050565b6000604082019050613e4e60008301856130d4565b613e5b6020830184612fbe565b9392505050565b6000613e6e8285613bda565b9150613e7a8284613bda565b91508190509392505050565b7f4e6f7420617574686f72697a656420746f2061646a7573742073616c65000000600082015250565b6000613ebc601d83612e79565b9150613ec782613e86565b602082019050919050565b60006020820190508181036000830152613eeb81613eaf565b9050919050565b6000613efd82612f29565b91507fffffffffffffffffffffffffffffffffffffffffffffffffffffffffffffffff821415613f3057613f2f613cbd565b5b600182019050919050565b7f4e6f7420617574686f72697a6564000000000000000000000000000000000000600082015250565b6000613f71600e83612e79565b9150613f7c82613f3b565b602082019050919050565b60006020820190508181036000830152613fa081613f64565b9050919050565b7f5469636b657420616c726561647920636865636b656420696e20000000000000600082015250565b6000613fdd601a83612e79565b9150613fe882613fa7565b602082019050919050565b6000602082019050818103600083015261400c81613fd0565b9050919050565b7f4f776e61626c653a206e6577206f776e657220697320746865207a65726f206160008201527f6464726573730000000000000000000000000000000000000000000000000000602082015250565b600061406f602683612e79565b915061407a82614013565b604082019050919050565b6000602082019050818103600083015261409e81614062565b9050919050565b7f4552433732313a207472616e736665722066726f6d20696e636f72726563742060008201527f6f776e6572000000000000000000000000000000000000000000000000000000602082015250565b6000614101602583612e79565b915061410c826140a5565b604082019050919050565b60006020820190508181036000830152614130816140f4565b9050919050565b7f4552433732313a207472616e7366657220746f20746865207a65726f2061646460008201527f7265737300000000000000000000000000000000000000000000000000000000602082015250565b6000614193602483612e79565b915061419e82614137565b604082019050919050565b600060208201905081810360008301526141c281614186565b9050919050565b7f4f776e61626c653a2063616c6c6572206973206e6f7420746865206f776e6572600082015250565b60006141ff602083612e79565b915061420a826141c9565b602082019050919050565b6000602082019050818103600083015261422e816141f2565b9050919050565b7f45524337323155524953746f726167653a2055524920736574206f66206e6f6e60008201527f6578697374656e7420746f6b656e000000000000000000000000000000000000602082015250565b6000614291602e83612e79565b915061429c82614235565b604082019050919050565b600060208201905081810360008301526142c081614284565b9050919050565b7f4552433732313a20617070726f766520746f2063616c6c657200000000000000600082015250565b60006142fd601983612e79565b9150614308826142c7565b602082019050919050565b6000602082019050818103600083015261432c816142f0565b9050919050565b7f4552433732313a207472616e7366657220746f206e6f6e20455243373231526560008201527f63656976657220696d706c656d656e7465720000000000000000000000000000602082015250565b600061438f603283612e79565b915061439a82614333565b604082019050919050565b600060208201905081810360008301526143be81614382565b9050919050565b60006143d082612f29565b91506143db83612f29565b9250828210156143ee576143ed613cbd565b5b828203905092915050565b600081519050919050565b600082825260208201905092915050565b6000614420826143f9565b61442a8185614404565b935061443a818560208601612e8a565b61444381612ebd565b840191505092915050565b60006080820190506144636000830187612fbe565b6144706020830186612fbe565b61447d60408301856130d4565b818103606083015261448f8184614415565b905095945050505050565b6000815190506144a981612ddf565b92915050565b6000602082840312156144c5576144c4612da9565b5b60006144d38482850161449a565b91505092915050565b7f4552433732313a206d696e7420746f20746865207a65726f2061646472657373600082015250565b6000614512602083612e79565b915061451d826144dc565b602082019050919050565b6000602082019050818103600083015261454181614505565b9050919050565b7f4552433732313a20746f6b656e20616c7265616479206d696e74656400000000600082015250565b600061457e601c83612e79565b915061458982614548565b602082019050919050565b600060208201905081810360008301526145ad81614571565b905091905056fea26469706673582212204f70e4668b8447d7f5797bb554d2113bc14bbedb2f1357dba3dfb864b53cc90764736f6c63430008090033",
  "linkReferences": {},
  "deployedLinkReferences": {}
}