{
  "_format": "hh-sol-artifact-1",
  "contractName": "DigitalBadge",
  "sourceName": "contracts/DigitalBadge.sol",
  "abi": [
    {
      "inputs": [
        {
          "internalType": "string[]",
          "name": "_categories",
          "type": "string[]"
        },
        {
          "internalType": "string",
          "name": "_eventName",
          "type": "string"
        },
        {
          "internalType": "uint256",
          "name": "_commission",
          "type": "uint256"
        },
        {
          "internalType": "string",
          "name": "_eventSymbol",
          "type": "string"
        }
      ],
      "stateMutability": "payable",
      "type": "constructor"
    },
    {
      "anonymous": false,
      "inputs": [
        {
          "indexed": true,
          "internalType": "address",
          "name": "owner",
          "type": "address"
        },
        {
          "indexed": true,
          "internalType": "address",
          "name": "approved",
          "type": "address"
        },
        {
          "indexed": true,
          "internalType": "uint256",
          "name": "tokenId",
          "type": "uint256"
        }
      ],
      "name": "Approval",
      "type": "event"
    },
    {
      "anonymous": false,
      "inputs": [
        {
          "indexed": true,
          "internalType": "address",
          "name": "owner",
          "type": "address"
        },
        {
          "indexed": true,
          "internalType": "address",
          "name": "operator",
          "type": "address"
        },
        {
          "indexed": false,
          "internalType": "bool",
          "name": "approved",
          "type": "bool"
        }
      ],
      "name": "ApprovalForAll",
      "type": "event"
    },
    {
      "anonymous": false,
      "inputs": [
        {
          "indexed": true,
          "internalType": "address",
          "name": "previousOwner",
          "type": "address"
        },
        {
          "indexed": true,
          "internalType": "address",
          "name": "newOwner",
          "type": "address"
        }
      ],
      "name": "OwnershipTransferred",
      "type": "event"
    },
    {
      "anonymous": false,
      "inputs": [
        {
          "indexed": true,
          "internalType": "address",
          "name": "from",
          "type": "address"
        },
        {
          "indexed": true,
          "internalType": "address",
          "name": "to",
          "type": "address"
        },
        {
          "indexed": true,
          "internalType": "uint256",
          "name": "tokenId",
          "type": "uint256"
        }
      ],
      "name": "Transfer",
      "type": "event"
    },
    {
      "anonymous": false,
      "inputs": [
        {
          "indexed": false,
          "internalType": "uint256",
          "name": "tokenId",
          "type": "uint256"
        },
        {
          "indexed": false,
          "internalType": "address",
          "name": "recipient",
          "type": "address"
        }
      ],
      "name": "badgeMinted",
      "type": "event"
    },
    {
      "inputs": [
        {
          "internalType": "address",
          "name": "to",
          "type": "address"
        },
        {
          "internalType": "uint256",
          "name": "tokenId",
          "type": "uint256"
        }
      ],
      "name": "approve",
      "outputs": [],
      "stateMutability": "nonpayable",
      "type": "function"
    },
    {
      "inputs": [
        {
          "internalType": "uint256",
          "name": "",
          "type": "uint256"
        }
      ],
      "name": "badgeIDs",
      "outputs": [
        {
          "internalType": "address",
          "name": "organizer",
          "type": "address"
        },
        {
          "internalType": "address",
          "name": "badgeOwner",
          "type": "address"
        },
        {
          "internalType": "string",
          "name": "category",
          "type": "string"
        }
      ],
      "stateMutability": "view",
      "type": "function"
    },
    {
      "inputs": [
        {
          "internalType": "address",
          "name": "owner",
          "type": "address"
        }
      ],
      "name": "balanceOf",
      "outputs": [
        {
          "internalType": "uint256",
          "name": "",
          "type": "uint256"
        }
      ],
      "stateMutability": "view",
      "type": "function"
    },
    {
      "inputs": [
        {
          "internalType": "uint256",
          "name": "tokenId",
          "type": "uint256"
        }
      ],
      "name": "getApproved",
      "outputs": [
        {
          "internalType": "address",
          "name": "",
          "type": "address"
        }
      ],
      "stateMutability": "view",
      "type": "function"
    },
    {
      "inputs": [
        {
          "internalType": "uint256",
          "name": "tokenId",
          "type": "uint256"
        }
      ],
      "name": "getBadgeDetails",
      "outputs": [
        {
          "components": [
            {
              "internalType": "address",
              "name": "organizer",
              "type": "address"
            },
            {
              "internalType": "address",
              "name": "badgeOwner",
              "type": "address"
            },
            {
              "internalType": "string",
              "name": "category",
              "type": "string"
            }
          ],
          "internalType": "struct DigitalBadge.Badge",
          "name": "badge",
          "type": "tuple"
        }
      ],
      "stateMutability": "view",
      "type": "function"
    },
    {
      "inputs": [
        {
          "internalType": "address",
          "name": "owner",
          "type": "address"
        },
        {
          "internalType": "address",
          "name": "operator",
          "type": "address"
        }
      ],
      "name": "isApprovedForAll",
      "outputs": [
        {
          "internalType": "bool",
          "name": "",
          "type": "bool"
        }
      ],
      "stateMutability": "view",
      "type": "function"
    },
    {
      "inputs": [
        {
          "internalType": "string",
          "name": "category",
          "type": "string"
        },
        {
          "internalType": "address",
          "name": "owner",
          "type": "address"
        },
        {
          "internalType": "string",
          "name": "tokenURI",
          "type": "string"
        }
      ],
      "name": "mint",
      "outputs": [
        {
          "internalType": "uint256",
          "name": "",
          "type": "uint256"
        }
      ],
      "stateMutability": "payable",
      "type": "function"
    },
    {
      "inputs": [],
      "name": "name",
      "outputs": [
        {
          "internalType": "string",
          "name": "",
          "type": "string"
        }
      ],
      "stateMutability": "view",
      "type": "function"
    },
    {
      "inputs": [],
      "name": "owner",
      "outputs": [
        {
          "internalType": "address",
          "name": "",
          "type": "address"
        }
      ],
      "stateMutability": "view",
      "type": "function"
    },
    {
      "inputs": [
        {
          "internalType": "uint256",
          "name": "tokenId",
          "type": "uint256"
        }
      ],
      "name": "ownerOf",
      "outputs": [
        {
          "internalType": "address",
          "name": "",
          "type": "address"
        }
      ],
      "stateMutability": "view",
      "type": "function"
    },
    {
      "inputs": [],
      "name": "renounceOwnership",
      "outputs": [],
      "stateMutability": "nonpayable",
      "type": "function"
    },
    {
      "inputs": [
        {
          "internalType": "address",
          "name": "from",
          "type": "address"
        },
        {
          "internalType": "address",
          "name": "to",
          "type": "address"
        },
        {
          "internalType": "uint256",
          "name": "tokenId",
          "type": "uint256"
        }
      ],
      "name": "safeTransferFrom",
      "outputs": [],
      "stateMutability": "nonpayable",
      "type": "function"
    },
    {
      "inputs": [
        {
          "internalType": "address",
          "name": "from",
          "type": "address"
        },
        {
          "internalType": "address",
          "name": "to",
          "type": "address"
        },
        {
          "internalType": "uint256",
          "name": "tokenId",
          "type": "uint256"
        },
        {
          "internalType": "bytes",
          "name": "data",
          "type": "bytes"
        }
      ],
      "name": "safeTransferFrom",
      "outputs": [],
      "stateMutability": "nonpayable",
      "type": "function"
    },
    {
      "inputs": [
        {
          "internalType": "address",
          "name": "operator",
          "type": "address"
        },
        {
          "internalType": "bool",
          "name": "approved",
          "type": "bool"
        }
      ],
      "name": "setApprovalForAll",
      "outputs": [],
      "stateMutability": "nonpayable",
      "type": "function"
    },
    {
      "inputs": [
        {
          "internalType": "bytes4",
          "name": "interfaceId",
          "type": "bytes4"
        }
      ],
      "name": "supportsInterface",
      "outputs": [
        {
          "internalType": "bool",
          "name": "",
          "type": "bool"
        }
      ],
      "stateMutability": "view",
      "type": "function"
    },
    {
      "inputs": [],
      "name": "symbol",
      "outputs": [
        {
          "internalType": "string",
          "name": "",
          "type": "string"
        }
      ],
      "stateMutability": "view",
      "type": "function"
    },
    {
      "inputs": [
        {
          "internalType": "uint256",
          "name": "tokenId",
          "type": "uint256"
        }
      ],
      "name": "tokenURI",
      "outputs": [
        {
          "internalType": "string",
          "name": "",
          "type": "string"
        }
      ],
      "stateMutability": "view",
      "type": "function"
    },
    {
      "inputs": [
        {
          "internalType": "address",
          "name": "from",
          "type": "address"
        },
        {
          "internalType": "address",
          "name": "to",
          "type": "address"
        },
        {
          "internalType": "uint256",
          "name": "tokenId",
          "type": "uint256"
        }
      ],
      "name": "transferFrom",
      "outputs": [],
      "stateMutability": "nonpayable",
      "type": "function"
    },
    {
      "inputs": [
        {
          "internalType": "address",
          "name": "newOwner",
          "type": "address"
        }
      ],
      "name": "transferOwnership",
      "outputs": [],
      "stateMutability": "nonpayable",
      "type": "function"
    }
  ],
  "bytecode": "0x608060405233600a60006101000a81548173ffffffffffffffffffffffffffffffffffffffff021916908373ffffffffffffffffffffffffffffffffffffffff16021790555060405180602001604052806000815250600f90805190602001906200006c92919062000210565b5060405162003ccd38038062003ccd833981810160405281019062000092919062000669565b8281620000b4620000a86200014460201b60201c565b6200014c60201b60201c565b600180819055508160029080519060200190620000d392919062000210565b508060039080519060200190620000ec92919062000210565b50505082600b90805190602001906200010792919062000210565b5080600c90805190602001906200012092919062000210565b5083600d908051906020019062000139929190620002a1565b50505050506200079d565b600033905090565b60008060009054906101000a900473ffffffffffffffffffffffffffffffffffffffff169050816000806101000a81548173ffffffffffffffffffffffffffffffffffffffff021916908373ffffffffffffffffffffffffffffffffffffffff1602179055508173ffffffffffffffffffffffffffffffffffffffff168173ffffffffffffffffffffffffffffffffffffffff167f8be0079c531659141344cd1fd0a4f28419497f9722a3daafe3b4186f6b6457e060405160405180910390a35050565b8280546200021e9062000767565b90600052602060002090601f0160209004810192826200024257600085556200028e565b82601f106200025d57805160ff19168380011785556200028e565b828001600101855582156200028e579182015b828111156200028d57825182559160200191906001019062000270565b5b5090506200029d919062000308565b5090565b828054828255906000526020600020908101928215620002f5579160200282015b82811115620002f4578251829080519060200190620002e392919062000210565b5091602001919060010190620002c2565b5b50905062000304919062000327565b5090565b5b808211156200032357600081600090555060010162000309565b5090565b5b808211156200034b57600081816200034191906200034f565b5060010162000328565b5090565b5080546200035d9062000767565b6000825580601f1062000371575062000392565b601f01602090049060005260206000209081019062000391919062000308565b5b50565b6000604051905090565b600080fd5b600080fd5b600080fd5b6000601f19601f8301169050919050565b7f4e487b7100000000000000000000000000000000000000000000000000000000600052604160045260246000fd5b620003f982620003ae565b810181811067ffffffffffffffff821117156200041b576200041a620003bf565b5b80604052505050565b60006200043062000395565b90506200043e8282620003ee565b919050565b600067ffffffffffffffff821115620004615762000460620003bf565b5b602082029050602081019050919050565b600080fd5b600080fd5b600067ffffffffffffffff8211156200049a5762000499620003bf565b5b620004a582620003ae565b9050602081019050919050565b60005b83811015620004d2578082015181840152602081019050620004b5565b83811115620004e2576000848401525b50505050565b6000620004ff620004f9846200047c565b62000424565b9050828152602081018484840111156200051e576200051d62000477565b5b6200052b848285620004b2565b509392505050565b600082601f8301126200054b576200054a620003a9565b5b81516200055d848260208601620004e8565b91505092915050565b60006200057d620005778462000443565b62000424565b90508083825260208201905060208402830185811115620005a357620005a262000472565b5b835b81811015620005f157805167ffffffffffffffff811115620005cc57620005cb620003a9565b5b808601620005db898262000533565b85526020850194505050602081019050620005a5565b5050509392505050565b600082601f830112620006135762000612620003a9565b5b81516200062584826020860162000566565b91505092915050565b6000819050919050565b62000643816200062e565b81146200064f57600080fd5b50565b600081519050620006638162000638565b92915050565b600080600080608085870312156200068657620006856200039f565b5b600085015167ffffffffffffffff811115620006a757620006a6620003a4565b5b620006b587828801620005fb565b945050602085015167ffffffffffffffff811115620006d957620006d8620003a4565b5b620006e78782880162000533565b9350506040620006fa8782880162000652565b925050606085015167ffffffffffffffff8111156200071e576200071d620003a4565b5b6200072c8782880162000533565b91505092959194509250565b7f4e487b7100000000000000000000000000000000000000000000000000000000600052602260045260246000fd5b600060028204905060018216806200078057607f821691505b6020821081141562000797576200079662000738565b5b50919050565b61352080620007ad6000396000f3fe6080604052600436106101145760003560e01c8063715018a6116100a0578063b88d4fde11610064578063b88d4fde146103b6578063c87b56dd146103df578063e6cd41a11461041c578063e985e9c51461045b578063f2fde38b1461049857610114565b8063715018a6146102f05780638da5cb5b1461030757806395d89b4114610332578063a22cb4651461035d578063ad6cf0a51461038657610114565b806323b872dd116100e757806323b872dd146101e75780632950c4bd1461021057806342842e0e1461024d5780636352211e1461027657806370a08231146102b357610114565b806301ffc9a71461011957806306fdde0314610156578063081812fc14610181578063095ea7b3146101be575b600080fd5b34801561012557600080fd5b50610140600480360381019061013b919061236b565b6104c1565b60405161014d91906123b3565b60405180910390f35b34801561016257600080fd5b5061016b6105a3565b6040516101789190612467565b60405180910390f35b34801561018d57600080fd5b506101a860048036038101906101a391906124bf565b610635565b6040516101b5919061252d565b60405180910390f35b3480156101ca57600080fd5b506101e560048036038101906101e09190612574565b61067b565b005b3480156101f357600080fd5b5061020e600480360381019061020991906125b4565b610793565b005b34801561021c57600080fd5b50610237600480360381019061023291906124bf565b6107f3565b60405161024491906126b0565b60405180910390f35b34801561025957600080fd5b50610274600480360381019061026f91906125b4565b61095e565b005b34801561028257600080fd5b5061029d600480360381019061029891906124bf565b61097e565b6040516102aa919061252d565b60405180910390f35b3480156102bf57600080fd5b506102da60048036038101906102d591906126d2565b610a05565b6040516102e7919061270e565b60405180910390f35b3480156102fc57600080fd5b50610305610abd565b005b34801561031357600080fd5b5061031c610ad1565b604051610329919061252d565b60405180910390f35b34801561033e57600080fd5b50610347610afa565b6040516103549190612467565b60405180910390f35b34801561036957600080fd5b50610384600480360381019061037f9190612755565b610b8c565b005b6103a0600480360381019061039b91906128ca565b610ba2565b6040516103ad919061270e565b60405180910390f35b3480156103c257600080fd5b506103dd60048036038101906103d891906129f6565b610d43565b005b3480156103eb57600080fd5b50610406600480360381019061040191906124bf565b610da5565b6040516104139190612467565b60405180910390f35b34801561042857600080fd5b50610443600480360381019061043e91906124bf565b610eb8565b60405161045293929190612a79565b60405180910390f35b34801561046757600080fd5b50610482600480360381019061047d9190612ab7565b610faa565b60405161048f91906123b3565b60405180910390f35b3480156104a457600080fd5b506104bf60048036038101906104ba91906126d2565b61103e565b005b60007f80ac58cd000000000000000000000000000000000000000000000000000000007bffffffffffffffffffffffffffffffffffffffffffffffffffffffff1916827bffffffffffffffffffffffffffffffffffffffffffffffffffffffff1916148061058c57507f5b5e139f000000000000000000000000000000000000000000000000000000007bffffffffffffffffffffffffffffffffffffffffffffffffffffffff1916827bffffffffffffffffffffffffffffffffffffffffffffffffffffffff1916145b8061059c575061059b826110c2565b5b9050919050565b6060600280546105b290612b26565b80601f01602080910402602001604051908101604052809291908181526020018280546105de90612b26565b801561062b5780601f106106005761010080835404028352916020019161062b565b820191906000526020600020905b81548152906001019060200180831161060e57829003601f168201915b5050505050905090565b60006106408261112c565b6006600083815260200190815260200160002060009054906101000a900473ffffffffffffffffffffffffffffffffffffffff169050919050565b60006106868261097e565b90508073ffffffffffffffffffffffffffffffffffffffff168373ffffffffffffffffffffffffffffffffffffffff1614156106f7576040517f08c379a00000000000000000000000000000000000000000000000000000000081526004016106ee90612bca565b60405180910390fd5b8073ffffffffffffffffffffffffffffffffffffffff16610716611177565b73ffffffffffffffffffffffffffffffffffffffff16148061074557506107448161073f611177565b610faa565b5b610784576040517f08c379a000000000000000000000000000000000000000000000000000000000815260040161077b90612c5c565b60405180910390fd5b61078e838361117f565b505050565b6107a461079e611177565b82611238565b6107e3576040517f08c379a00000000000000000000000000000000000000000000000000000000081526004016107da90612cee565b60405180910390fd5b6107ee8383836112cd565b505050565b6107fb61220f565b600e60008381526020019081526020016000206040518060600160405290816000820160009054906101000a900473ffffffffffffffffffffffffffffffffffffffff1673ffffffffffffffffffffffffffffffffffffffff1673ffffffffffffffffffffffffffffffffffffffff1681526020016001820160009054906101000a900473ffffffffffffffffffffffffffffffffffffffff1673ffffffffffffffffffffffffffffffffffffffff1673ffffffffffffffffffffffffffffffffffffffff1681526020016002820180546108d590612b26565b80601f016020809104026020016040519081016040528092919081815260200182805461090190612b26565b801561094e5780601f106109235761010080835404028352916020019161094e565b820191906000526020600020905b81548152906001019060200180831161093157829003601f168201915b5050505050815250509050919050565b61097983838360405180602001604052806000815250610d43565b505050565b60008061098a836115c7565b9050600073ffffffffffffffffffffffffffffffffffffffff168173ffffffffffffffffffffffffffffffffffffffff1614156109fc576040517f08c379a00000000000000000000000000000000000000000000000000000000081526004016109f390612d5a565b60405180910390fd5b80915050919050565b60008073ffffffffffffffffffffffffffffffffffffffff168273ffffffffffffffffffffffffffffffffffffffff161415610a76576040517f08c379a0000000000000000000000000000000000000000000000000000000008152600401610a6d90612dec565b60405180910390fd5b600560008373ffffffffffffffffffffffffffffffffffffffff1673ffffffffffffffffffffffffffffffffffffffff168152602001908152602001600020549050919050565b610ac5611604565b610acf6000611682565b565b60008060009054906101000a900473ffffffffffffffffffffffffffffffffffffffff16905090565b606060038054610b0990612b26565b80601f0160208091040260200160405190810160405280929190818152602001828054610b3590612b26565b8015610b825780601f10610b5757610100808354040283529160200191610b82565b820191906000526020600020905b815481529060010190602001808311610b6557829003601f168201915b5050505050905090565b610b9e610b97611177565b8383611746565b5050565b6000806040518060600160405280600a60009054906101000a900473ffffffffffffffffffffffffffffffffffffffff1673ffffffffffffffffffffffffffffffffffffffff1681526020018573ffffffffffffffffffffffffffffffffffffffff168152602001868152509050610c1a60096118b3565b6000610c2660096118c9565b9050610c3285826118d7565b610c3c81856118f5565b81600e600083815260200190815260200160002060008201518160000160006101000a81548173ffffffffffffffffffffffffffffffffffffffff021916908373ffffffffffffffffffffffffffffffffffffffff16021790555060208201518160010160006101000a81548173ffffffffffffffffffffffffffffffffffffffff021916908373ffffffffffffffffffffffffffffffffffffffff1602179055506040820151816002019080519060200190610cfa92919061225c565b509050507fbac7354885f0aa8f66901fbb1e6567224b159bce13022725d2a1af3a6475b3688186604051610d2f929190612e0c565b60405180910390a180925050509392505050565b610d54610d4e611177565b83611238565b610d93576040517f08c379a0000000000000000000000000000000000000000000000000000000008152600401610d8a90612cee565b60405180910390fd5b610d9f84848484611969565b50505050565b6060610db08261112c565b6000600860008481526020019081526020016000208054610dd090612b26565b80601f0160208091040260200160405190810160405280929190818152602001828054610dfc90612b26565b8015610e495780601f10610e1e57610100808354040283529160200191610e49565b820191906000526020600020905b815481529060010190602001808311610e2c57829003601f168201915b505050505090506000610e5a6119c5565b9050600081511415610e70578192505050610eb3565b600082511115610ea5578082604051602001610e8d929190612e71565b60405160208183030381529060405292505050610eb3565b610eae846119dc565b925050505b919050565b600e6020528060005260406000206000915090508060000160009054906101000a900473ffffffffffffffffffffffffffffffffffffffff16908060010160009054906101000a900473ffffffffffffffffffffffffffffffffffffffff1690806002018054610f2790612b26565b80601f0160208091040260200160405190810160405280929190818152602001828054610f5390612b26565b8015610fa05780601f10610f7557610100808354040283529160200191610fa0565b820191906000526020600020905b815481529060010190602001808311610f8357829003601f168201915b5050505050905083565b6000600760008473ffffffffffffffffffffffffffffffffffffffff1673ffffffffffffffffffffffffffffffffffffffff16815260200190815260200160002060008373ffffffffffffffffffffffffffffffffffffffff1673ffffffffffffffffffffffffffffffffffffffff16815260200190815260200160002060009054906101000a900460ff16905092915050565b611046611604565b600073ffffffffffffffffffffffffffffffffffffffff168173ffffffffffffffffffffffffffffffffffffffff1614156110b6576040517f08c379a00000000000000000000000000000000000000000000000000000000081526004016110ad90612f07565b60405180910390fd5b6110bf81611682565b50565b60007f01ffc9a7000000000000000000000000000000000000000000000000000000007bffffffffffffffffffffffffffffffffffffffffffffffffffffffff1916827bffffffffffffffffffffffffffffffffffffffffffffffffffffffff1916149050919050565b61113581611a44565b611174576040517f08c379a000000000000000000000000000000000000000000000000000000000815260040161116b90612d5a565b60405180910390fd5b50565b600033905090565b816006600083815260200190815260200160002060006101000a81548173ffffffffffffffffffffffffffffffffffffffff021916908373ffffffffffffffffffffffffffffffffffffffff160217905550808273ffffffffffffffffffffffffffffffffffffffff166111f28361097e565b73ffffffffffffffffffffffffffffffffffffffff167f8c5be1e5ebec7d5bd14f71427d1e84f3dd0314c0f7b2291e5b200ac8c7c3b92560405160405180910390a45050565b6000806112448361097e565b90508073ffffffffffffffffffffffffffffffffffffffff168473ffffffffffffffffffffffffffffffffffffffff16148061128657506112858185610faa565b5b806112c457508373ffffffffffffffffffffffffffffffffffffffff166112ac84610635565b73ffffffffffffffffffffffffffffffffffffffff16145b91505092915050565b8273ffffffffffffffffffffffffffffffffffffffff166112ed8261097e565b73ffffffffffffffffffffffffffffffffffffffff1614611343576040517f08c379a000000000000000000000000000000000000000000000000000000000815260040161133a90612f99565b60405180910390fd5b600073ffffffffffffffffffffffffffffffffffffffff168273ffffffffffffffffffffffffffffffffffffffff1614156113b3576040517f08c379a00000000000000000000000000000000000000000000000000000000081526004016113aa9061302b565b60405180910390fd5b6113c08383836001611a85565b8273ffffffffffffffffffffffffffffffffffffffff166113e08261097e565b73ffffffffffffffffffffffffffffffffffffffff1614611436576040517f08c379a000000000000000000000000000000000000000000000000000000000815260040161142d90612f99565b60405180910390fd5b6006600082815260200190815260200160002060006101000a81549073ffffffffffffffffffffffffffffffffffffffff02191690556001600560008573ffffffffffffffffffffffffffffffffffffffff1673ffffffffffffffffffffffffffffffffffffffff168152602001908152602001600020600082825403925050819055506001600560008473ffffffffffffffffffffffffffffffffffffffff1673ffffffffffffffffffffffffffffffffffffffff16815260200190815260200160002060008282540192505081905550816004600083815260200190815260200160002060006101000a81548173ffffffffffffffffffffffffffffffffffffffff021916908373ffffffffffffffffffffffffffffffffffffffff160217905550808273ffffffffffffffffffffffffffffffffffffffff168473ffffffffffffffffffffffffffffffffffffffff167fddf252ad1be2c89b69c2b068fc378daa952ba7f163c4a11628f55a4df523b3ef60405160405180910390a46115c28383836001611bab565b505050565b60006004600083815260200190815260200160002060009054906101000a900473ffffffffffffffffffffffffffffffffffffffff169050919050565b61160c611177565b73ffffffffffffffffffffffffffffffffffffffff1661162a610ad1565b73ffffffffffffffffffffffffffffffffffffffff1614611680576040517f08c379a000000000000000000000000000000000000000000000000000000000815260040161167790613097565b60405180910390fd5b565b60008060009054906101000a900473ffffffffffffffffffffffffffffffffffffffff169050816000806101000a81548173ffffffffffffffffffffffffffffffffffffffff021916908373ffffffffffffffffffffffffffffffffffffffff1602179055508173ffffffffffffffffffffffffffffffffffffffff168173ffffffffffffffffffffffffffffffffffffffff167f8be0079c531659141344cd1fd0a4f28419497f9722a3daafe3b4186f6b6457e060405160405180910390a35050565b8173ffffffffffffffffffffffffffffffffffffffff168373ffffffffffffffffffffffffffffffffffffffff1614156117b5576040517f08c379a00000000000000000000000000000000000000000000000000000000081526004016117ac90613103565b60405180910390fd5b80600760008573ffffffffffffffffffffffffffffffffffffffff1673ffffffffffffffffffffffffffffffffffffffff16815260200190815260200160002060008473ffffffffffffffffffffffffffffffffffffffff1673ffffffffffffffffffffffffffffffffffffffff16815260200190815260200160002060006101000a81548160ff0219169083151502179055508173ffffffffffffffffffffffffffffffffffffffff168373ffffffffffffffffffffffffffffffffffffffff167f17307eab39ab6107e8899845ad3d59bd9653f200f220920489ca2b5937696c31836040516118a691906123b3565b60405180910390a3505050565b6001816000016000828254019250508190555050565b600081600001549050919050565b6118f1828260405180602001604052806000815250611bb1565b5050565b6118fe82611a44565b61193d576040517f08c379a000000000000000000000000000000000000000000000000000000000815260040161193490613195565b60405180910390fd5b8060086000848152602001908152602001600020908051906020019061196492919061225c565b505050565b6119748484846112cd565b61198084848484611c0c565b6119bf576040517f08c379a00000000000000000000000000000000000000000000000000000000081526004016119b690613227565b60405180910390fd5b50505050565b606060405180602001604052806000815250905090565b60606119e78261112c565b60006119f16119c5565b90506000815111611a115760405180602001604052806000815250611a3c565b80611a1b84611da3565b604051602001611a2c929190612e71565b6040516020818303038152906040525b915050919050565b60008073ffffffffffffffffffffffffffffffffffffffff16611a66836115c7565b73ffffffffffffffffffffffffffffffffffffffff1614159050919050565b6001811115611ba557600073ffffffffffffffffffffffffffffffffffffffff168473ffffffffffffffffffffffffffffffffffffffff1614611b195780600560008673ffffffffffffffffffffffffffffffffffffffff1673ffffffffffffffffffffffffffffffffffffffff1681526020019081526020016000206000828254611b119190613276565b925050819055505b600073ffffffffffffffffffffffffffffffffffffffff168373ffffffffffffffffffffffffffffffffffffffff1614611ba45780600560008573ffffffffffffffffffffffffffffffffffffffff1673ffffffffffffffffffffffffffffffffffffffff1681526020019081526020016000206000828254611b9c91906132aa565b925050819055505b5b50505050565b50505050565b611bbb8383611e7b565b611bc86000848484611c0c565b611c07576040517f08c379a0000000000000000000000000000000000000000000000000000000008152600401611bfe90613227565b60405180910390fd5b505050565b6000611c2d8473ffffffffffffffffffffffffffffffffffffffff16612099565b15611d96578373ffffffffffffffffffffffffffffffffffffffff1663150b7a02611c56611177565b8786866040518563ffffffff1660e01b8152600401611c789493929190613355565b602060405180830381600087803b158015611c9257600080fd5b505af1925050508015611cc357506040513d601f19601f82011682018060405250810190611cc091906133b6565b60015b611d46573d8060008114611cf3576040519150601f19603f3d011682016040523d82523d6000602084013e611cf8565b606091505b50600081511415611d3e576040517f08c379a0000000000000000000000000000000000000000000000000000000008152600401611d3590613227565b60405180910390fd5b805181602001fd5b63150b7a0260e01b7bffffffffffffffffffffffffffffffffffffffffffffffffffffffff1916817bffffffffffffffffffffffffffffffffffffffffffffffffffffffff191614915050611d9b565b600190505b949350505050565b606060006001611db2846120bc565b01905060008167ffffffffffffffff811115611dd157611dd061279f565b5b6040519080825280601f01601f191660200182016040528015611e035781602001600182028036833780820191505090505b509050600082602001820190505b600115611e70578080600190039150507f3031323334353637383961626364656600000000000000000000000000000000600a86061a8153600a8581611e5a57611e596133e3565b5b0494506000851415611e6b57611e70565b611e11565b819350505050919050565b600073ffffffffffffffffffffffffffffffffffffffff168273ffffffffffffffffffffffffffffffffffffffff161415611eeb576040517f08c379a0000000000000000000000000000000000000000000000000000000008152600401611ee29061345e565b60405180910390fd5b611ef481611a44565b15611f34576040517f08c379a0000000000000000000000000000000000000000000000000000000008152600401611f2b906134ca565b60405180910390fd5b611f42600083836001611a85565b611f4b81611a44565b15611f8b576040517f08c379a0000000000000000000000000000000000000000000000000000000008152600401611f82906134ca565b60405180910390fd5b6001600560008473ffffffffffffffffffffffffffffffffffffffff1673ffffffffffffffffffffffffffffffffffffffff16815260200190815260200160002060008282540192505081905550816004600083815260200190815260200160002060006101000a81548173ffffffffffffffffffffffffffffffffffffffff021916908373ffffffffffffffffffffffffffffffffffffffff160217905550808273ffffffffffffffffffffffffffffffffffffffff16600073ffffffffffffffffffffffffffffffffffffffff167fddf252ad1be2c89b69c2b068fc378daa952ba7f163c4a11628f55a4df523b3ef60405160405180910390a4612095600083836001611bab565b5050565b6000808273ffffffffffffffffffffffffffffffffffffffff163b119050919050565b600080600090507a184f03e93ff9f4daa797ed6e38ed64bf6a1f010000000000000000831061211a577a184f03e93ff9f4daa797ed6e38ed64bf6a1f01000000000000000083816121105761210f6133e3565b5b0492506040810190505b6d04ee2d6d415b85acef81000000008310612157576d04ee2d6d415b85acef8100000000838161214d5761214c6133e3565b5b0492506020810190505b662386f26fc10000831061218657662386f26fc10000838161217c5761217b6133e3565b5b0492506010810190505b6305f5e10083106121af576305f5e10083816121a5576121a46133e3565b5b0492506008810190505b61271083106121d45761271083816121ca576121c96133e3565b5b0492506004810190505b606483106121f757606483816121ed576121ec6133e3565b5b0492506002810190505b600a8310612206576001810190505b80915050919050565b6040518060600160405280600073ffffffffffffffffffffffffffffffffffffffff168152602001600073ffffffffffffffffffffffffffffffffffffffff168152602001606081525090565b82805461226890612b26565b90600052602060002090601f01602090048101928261228a57600085556122d1565b82601f106122a357805160ff19168380011785556122d1565b828001600101855582156122d1579182015b828111156122d05782518255916020019190600101906122b5565b5b5090506122de91906122e2565b5090565b5b808211156122fb5760008160009055506001016122e3565b5090565b6000604051905090565b600080fd5b600080fd5b60007fffffffff0000000000000000000000000000000000000000000000000000000082169050919050565b61234881612313565b811461235357600080fd5b50565b6000813590506123658161233f565b92915050565b60006020828403121561238157612380612309565b5b600061238f84828501612356565b91505092915050565b60008115159050919050565b6123ad81612398565b82525050565b60006020820190506123c860008301846123a4565b92915050565b600081519050919050565b600082825260208201905092915050565b60005b838110156124085780820151818401526020810190506123ed565b83811115612417576000848401525b50505050565b6000601f19601f8301169050919050565b6000612439826123ce565b61244381856123d9565b93506124538185602086016123ea565b61245c8161241d565b840191505092915050565b60006020820190508181036000830152612481818461242e565b905092915050565b6000819050919050565b61249c81612489565b81146124a757600080fd5b50565b6000813590506124b981612493565b92915050565b6000602082840312156124d5576124d4612309565b5b60006124e3848285016124aa565b91505092915050565b600073ffffffffffffffffffffffffffffffffffffffff82169050919050565b6000612517826124ec565b9050919050565b6125278161250c565b82525050565b6000602082019050612542600083018461251e565b92915050565b6125518161250c565b811461255c57600080fd5b50565b60008135905061256e81612548565b92915050565b6000806040838503121561258b5761258a612309565b5b60006125998582860161255f565b92505060206125aa858286016124aa565b9150509250929050565b6000806000606084860312156125cd576125cc612309565b5b60006125db8682870161255f565b93505060206125ec8682870161255f565b92505060406125fd868287016124aa565b9150509250925092565b6126108161250c565b82525050565b600082825260208201905092915050565b6000612632826123ce565b61263c8185612616565b935061264c8185602086016123ea565b6126558161241d565b840191505092915050565b60006060830160008301516126786000860182612607565b50602083015161268b6020860182612607565b50604083015184820360408601526126a38282612627565b9150508091505092915050565b600060208201905081810360008301526126ca8184612660565b905092915050565b6000602082840312156126e8576126e7612309565b5b60006126f68482850161255f565b91505092915050565b61270881612489565b82525050565b600060208201905061272360008301846126ff565b92915050565b61273281612398565b811461273d57600080fd5b50565b60008135905061274f81612729565b92915050565b6000806040838503121561276c5761276b612309565b5b600061277a8582860161255f565b925050602061278b85828601612740565b9150509250929050565b600080fd5b600080fd5b7f4e487b7100000000000000000000000000000000000000000000000000000000600052604160045260246000fd5b6127d78261241d565b810181811067ffffffffffffffff821117156127f6576127f561279f565b5b80604052505050565b60006128096122ff565b905061281582826127ce565b919050565b600067ffffffffffffffff8211156128355761283461279f565b5b61283e8261241d565b9050602081019050919050565b82818337600083830152505050565b600061286d6128688461281a565b6127ff565b9050828152602081018484840111156128895761288861279a565b5b61289484828561284b565b509392505050565b600082601f8301126128b1576128b0612795565b5b81356128c184826020860161285a565b91505092915050565b6000806000606084860312156128e3576128e2612309565b5b600084013567ffffffffffffffff8111156129015761290061230e565b5b61290d8682870161289c565b935050602061291e8682870161255f565b925050604084013567ffffffffffffffff81111561293f5761293e61230e565b5b61294b8682870161289c565b9150509250925092565b600067ffffffffffffffff8211156129705761296f61279f565b5b6129798261241d565b9050602081019050919050565b600061299961299484612955565b6127ff565b9050828152602081018484840111156129b5576129b461279a565b5b6129c084828561284b565b509392505050565b600082601f8301126129dd576129dc612795565b5b81356129ed848260208601612986565b91505092915050565b60008060008060808587031215612a1057612a0f612309565b5b6000612a1e8782880161255f565b9450506020612a2f8782880161255f565b9350506040612a40878288016124aa565b925050606085013567ffffffffffffffff811115612a6157612a6061230e565b5b612a6d878288016129c8565b91505092959194509250565b6000606082019050612a8e600083018661251e565b612a9b602083018561251e565b8181036040830152612aad818461242e565b9050949350505050565b60008060408385031215612ace57612acd612309565b5b6000612adc8582860161255f565b9250506020612aed8582860161255f565b9150509250929050565b7f4e487b7100000000000000000000000000000000000000000000000000000000600052602260045260246000fd5b60006002820490506001821680612b3e57607f821691505b60208210811415612b5257612b51612af7565b5b50919050565b7f4552433732313a20617070726f76616c20746f2063757272656e74206f776e6560008201527f7200000000000000000000000000000000000000000000000000000000000000602082015250565b6000612bb46021836123d9565b9150612bbf82612b58565b604082019050919050565b60006020820190508181036000830152612be381612ba7565b9050919050565b7f4552433732313a20617070726f76652063616c6c6572206973206e6f7420746f60008201527f6b656e206f776e6572206f7220617070726f76656420666f7220616c6c000000602082015250565b6000612c46603d836123d9565b9150612c5182612bea565b604082019050919050565b60006020820190508181036000830152612c7581612c39565b9050919050565b7f4552433732313a2063616c6c6572206973206e6f7420746f6b656e206f776e6560008201527f72206f7220617070726f76656400000000000000000000000000000000000000602082015250565b6000612cd8602d836123d9565b9150612ce382612c7c565b604082019050919050565b60006020820190508181036000830152612d0781612ccb565b9050919050565b7f4552433732313a20696e76616c696420746f6b656e2049440000000000000000600082015250565b6000612d446018836123d9565b9150612d4f82612d0e565b602082019050919050565b60006020820190508181036000830152612d7381612d37565b9050919050565b7f4552433732313a2061646472657373207a65726f206973206e6f74206120766160008201527f6c6964206f776e65720000000000000000000000000000000000000000000000602082015250565b6000612dd66029836123d9565b9150612de182612d7a565b604082019050919050565b60006020820190508181036000830152612e0581612dc9565b9050919050565b6000604082019050612e2160008301856126ff565b612e2e602083018461251e565b9392505050565b600081905092915050565b6000612e4b826123ce565b612e558185612e35565b9350612e658185602086016123ea565b80840191505092915050565b6000612e7d8285612e40565b9150612e898284612e40565b91508190509392505050565b7f4f776e61626c653a206e6577206f776e657220697320746865207a65726f206160008201527f6464726573730000000000000000000000000000000000000000000000000000602082015250565b6000612ef16026836123d9565b9150612efc82612e95565b604082019050919050565b60006020820190508181036000830152612f2081612ee4565b9050919050565b7f4552433732313a207472616e736665722066726f6d20696e636f72726563742060008201527f6f776e6572000000000000000000000000000000000000000000000000000000602082015250565b6000612f836025836123d9565b9150612f8e82612f27565b604082019050919050565b60006020820190508181036000830152612fb281612f76565b9050919050565b7f4552433732313a207472616e7366657220746f20746865207a65726f2061646460008201527f7265737300000000000000000000000000000000000000000000000000000000602082015250565b60006130156024836123d9565b915061302082612fb9565b604082019050919050565b6000602082019050818103600083015261304481613008565b9050919050565b7f4f776e61626c653a2063616c6c6572206973206e6f7420746865206f776e6572600082015250565b60006130816020836123d9565b915061308c8261304b565b602082019050919050565b600060208201905081810360008301526130b081613074565b9050919050565b7f4552433732313a20617070726f766520746f2063616c6c657200000000000000600082015250565b60006130ed6019836123d9565b91506130f8826130b7565b602082019050919050565b6000602082019050818103600083015261311c816130e0565b9050919050565b7f45524337323155524953746f726167653a2055524920736574206f66206e6f6e60008201527f6578697374656e7420746f6b656e000000000000000000000000000000000000602082015250565b600061317f602e836123d9565b915061318a82613123565b604082019050919050565b600060208201905081810360008301526131ae81613172565b9050919050565b7f4552433732313a207472616e7366657220746f206e6f6e20455243373231526560008201527f63656976657220696d706c656d656e7465720000000000000000000000000000602082015250565b60006132116032836123d9565b915061321c826131b5565b604082019050919050565b6000602082019050818103600083015261324081613204565b9050919050565b7f4e487b7100000000000000000000000000000000000000000000000000000000600052601160045260246000fd5b600061328182612489565b915061328c83612489565b92508282101561329f5761329e613247565b5b828203905092915050565b60006132b582612489565b91506132c083612489565b9250827fffffffffffffffffffffffffffffffffffffffffffffffffffffffffffffffff038211156132f5576132f4613247565b5b828201905092915050565b600081519050919050565b600082825260208201905092915050565b600061332782613300565b613331818561330b565b93506133418185602086016123ea565b61334a8161241d565b840191505092915050565b600060808201905061336a600083018761251e565b613377602083018661251e565b61338460408301856126ff565b8181036060830152613396818461331c565b905095945050505050565b6000815190506133b08161233f565b92915050565b6000602082840312156133cc576133cb612309565b5b60006133da848285016133a1565b91505092915050565b7f4e487b7100000000000000000000000000000000000000000000000000000000600052601260045260246000fd5b7f4552433732313a206d696e7420746f20746865207a65726f2061646472657373600082015250565b60006134486020836123d9565b915061345382613412565b602082019050919050565b600060208201905081810360008301526134778161343b565b9050919050565b7f4552433732313a20746f6b656e20616c7265616479206d696e74656400000000600082015250565b60006134b4601c836123d9565b91506134bf8261347e565b602082019050919050565b600060208201905081810360008301526134e3816134a7565b905091905056fea264697066735822122042a880dad7e74485d0bf9c90457eecf70dd912afcae76c46057ec599b1b22a3964736f6c63430008090033",
  "linkReferences": {},
  "deployedLinkReferences": {}
}