{
  "_format": "hh-sol-artifact-1",
  "contractName": "DigitalBadge",
  "sourceName": "contracts/DigitalBadge.sol",
  "abi": [
    {
      "inputs": [
        {
          "internalType": "string[]",
          "name": "_categories",
          "type": "string[]"
        },
        {
          "internalType": "string",
          "name": "_eventName",
          "type": "string"
        },
        {
          "internalType": "uint256",
          "name": "_commission",
          "type": "uint256"
        },
        {
          "internalType": "string",
          "name": "_eventSymbol",
          "type": "string"
        }
      ],
      "stateMutability": "payable",
      "type": "constructor"
    },
    {
      "anonymous": false,
      "inputs": [
        {
          "indexed": true,
          "internalType": "address",
          "name": "owner",
          "type": "address"
        },
        {
          "indexed": true,
          "internalType": "address",
          "name": "approved",
          "type": "address"
        },
        {
          "indexed": true,
          "internalType": "uint256",
          "name": "tokenId",
          "type": "uint256"
        }
      ],
      "name": "Approval",
      "type": "event"
    },
    {
      "anonymous": false,
      "inputs": [
        {
          "indexed": true,
          "internalType": "address",
          "name": "owner",
          "type": "address"
        },
        {
          "indexed": true,
          "internalType": "address",
          "name": "operator",
          "type": "address"
        },
        {
          "indexed": false,
          "internalType": "bool",
          "name": "approved",
          "type": "bool"
        }
      ],
      "name": "ApprovalForAll",
      "type": "event"
    },
    {
      "anonymous": false,
      "inputs": [
        {
          "indexed": true,
          "internalType": "address",
          "name": "previousOwner",
          "type": "address"
        },
        {
          "indexed": true,
          "internalType": "address",
          "name": "newOwner",
          "type": "address"
        }
      ],
      "name": "OwnershipTransferred",
      "type": "event"
    },
    {
      "anonymous": false,
      "inputs": [
        {
          "indexed": true,
          "internalType": "address",
          "name": "from",
          "type": "address"
        },
        {
          "indexed": true,
          "internalType": "address",
          "name": "to",
          "type": "address"
        },
        {
          "indexed": true,
          "internalType": "uint256",
          "name": "tokenId",
          "type": "uint256"
        }
      ],
      "name": "Transfer",
      "type": "event"
    },
    {
      "anonymous": false,
      "inputs": [
        {
          "indexed": false,
          "internalType": "uint256",
          "name": "tokenId",
          "type": "uint256"
        },
        {
          "indexed": false,
          "internalType": "address",
          "name": "recipient",
          "type": "address"
        }
      ],
      "name": "badgeMinted",
      "type": "event"
    },
    {
      "inputs": [
        {
          "internalType": "address",
          "name": "to",
          "type": "address"
        },
        {
          "internalType": "uint256",
          "name": "tokenId",
          "type": "uint256"
        }
      ],
      "name": "approve",
      "outputs": [],
      "stateMutability": "nonpayable",
      "type": "function"
    },
    {
      "inputs": [
        {
          "internalType": "uint256",
          "name": "",
          "type": "uint256"
        }
      ],
      "name": "badgeIDs",
      "outputs": [
        {
          "internalType": "address",
          "name": "organizer",
          "type": "address"
        },
        {
          "internalType": "address",
          "name": "ticketOwner",
          "type": "address"
        },
        {
          "internalType": "string",
          "name": "category",
          "type": "string"
        }
      ],
      "stateMutability": "view",
      "type": "function"
    },
    {
      "inputs": [
        {
          "internalType": "address",
          "name": "owner",
          "type": "address"
        }
      ],
      "name": "balanceOf",
      "outputs": [
        {
          "internalType": "uint256",
          "name": "",
          "type": "uint256"
        }
      ],
      "stateMutability": "view",
      "type": "function"
    },
    {
      "inputs": [
        {
          "internalType": "uint256",
          "name": "tokenId",
          "type": "uint256"
        }
      ],
      "name": "getApproved",
      "outputs": [
        {
          "internalType": "address",
          "name": "",
          "type": "address"
        }
      ],
      "stateMutability": "view",
      "type": "function"
    },
    {
      "inputs": [
        {
          "internalType": "uint256",
          "name": "tokenId",
          "type": "uint256"
        }
      ],
      "name": "getBadgeDetails",
      "outputs": [
        {
          "components": [
            {
              "internalType": "address",
              "name": "organizer",
              "type": "address"
            },
            {
              "internalType": "address",
              "name": "ticketOwner",
              "type": "address"
            },
            {
              "internalType": "string",
              "name": "category",
              "type": "string"
            }
          ],
          "internalType": "struct DigitalBadge.Badge",
          "name": "badge",
          "type": "tuple"
        }
      ],
      "stateMutability": "view",
      "type": "function"
    },
    {
      "inputs": [
        {
          "internalType": "address",
          "name": "owner",
          "type": "address"
        },
        {
          "internalType": "address",
          "name": "operator",
          "type": "address"
        }
      ],
      "name": "isApprovedForAll",
      "outputs": [
        {
          "internalType": "bool",
          "name": "",
          "type": "bool"
        }
      ],
      "stateMutability": "view",
      "type": "function"
    },
    {
      "inputs": [
        {
          "internalType": "string",
          "name": "category",
          "type": "string"
        },
        {
          "internalType": "string",
          "name": "tokenURI",
          "type": "string"
        }
      ],
      "name": "mint",
      "outputs": [
        {
          "internalType": "uint256",
          "name": "",
          "type": "uint256"
        }
      ],
      "stateMutability": "payable",
      "type": "function"
    },
    {
      "inputs": [],
      "name": "name",
      "outputs": [
        {
          "internalType": "string",
          "name": "",
          "type": "string"
        }
      ],
      "stateMutability": "view",
      "type": "function"
    },
    {
      "inputs": [],
      "name": "owner",
      "outputs": [
        {
          "internalType": "address",
          "name": "",
          "type": "address"
        }
      ],
      "stateMutability": "view",
      "type": "function"
    },
    {
      "inputs": [
        {
          "internalType": "uint256",
          "name": "tokenId",
          "type": "uint256"
        }
      ],
      "name": "ownerOf",
      "outputs": [
        {
          "internalType": "address",
          "name": "",
          "type": "address"
        }
      ],
      "stateMutability": "view",
      "type": "function"
    },
    {
      "inputs": [],
      "name": "renounceOwnership",
      "outputs": [],
      "stateMutability": "nonpayable",
      "type": "function"
    },
    {
      "inputs": [
        {
          "internalType": "address",
          "name": "from",
          "type": "address"
        },
        {
          "internalType": "address",
          "name": "to",
          "type": "address"
        },
        {
          "internalType": "uint256",
          "name": "tokenId",
          "type": "uint256"
        }
      ],
      "name": "safeTransferFrom",
      "outputs": [],
      "stateMutability": "nonpayable",
      "type": "function"
    },
    {
      "inputs": [
        {
          "internalType": "address",
          "name": "from",
          "type": "address"
        },
        {
          "internalType": "address",
          "name": "to",
          "type": "address"
        },
        {
          "internalType": "uint256",
          "name": "tokenId",
          "type": "uint256"
        },
        {
          "internalType": "bytes",
          "name": "data",
          "type": "bytes"
        }
      ],
      "name": "safeTransferFrom",
      "outputs": [],
      "stateMutability": "nonpayable",
      "type": "function"
    },
    {
      "inputs": [
        {
          "internalType": "address",
          "name": "operator",
          "type": "address"
        },
        {
          "internalType": "bool",
          "name": "approved",
          "type": "bool"
        }
      ],
      "name": "setApprovalForAll",
      "outputs": [],
      "stateMutability": "nonpayable",
      "type": "function"
    },
    {
      "inputs": [
        {
          "internalType": "bytes4",
          "name": "interfaceId",
          "type": "bytes4"
        }
      ],
      "name": "supportsInterface",
      "outputs": [
        {
          "internalType": "bool",
          "name": "",
          "type": "bool"
        }
      ],
      "stateMutability": "view",
      "type": "function"
    },
    {
      "inputs": [],
      "name": "symbol",
      "outputs": [
        {
          "internalType": "string",
          "name": "",
          "type": "string"
        }
      ],
      "stateMutability": "view",
      "type": "function"
    },
    {
      "inputs": [
        {
          "internalType": "uint256",
          "name": "tokenId",
          "type": "uint256"
        }
      ],
      "name": "tokenURI",
      "outputs": [
        {
          "internalType": "string",
          "name": "",
          "type": "string"
        }
      ],
      "stateMutability": "view",
      "type": "function"
    },
    {
      "inputs": [
        {
          "internalType": "address",
          "name": "from",
          "type": "address"
        },
        {
          "internalType": "address",
          "name": "to",
          "type": "address"
        },
        {
          "internalType": "uint256",
          "name": "tokenId",
          "type": "uint256"
        }
      ],
      "name": "transferFrom",
      "outputs": [],
      "stateMutability": "nonpayable",
      "type": "function"
    },
    {
      "inputs": [
        {
          "internalType": "address",
          "name": "newOwner",
          "type": "address"
        }
      ],
      "name": "transferOwnership",
      "outputs": [],
      "stateMutability": "nonpayable",
      "type": "function"
    }
  ],
  "bytecode": "0x608060405233600a60006101000a81548173ffffffffffffffffffffffffffffffffffffffff021916908373ffffffffffffffffffffffffffffffffffffffff16021790555060405180602001604052806000815250600f90805190602001906200006c92919062000210565b5060405162003cb938038062003cb9833981810160405281019062000092919062000669565b8281620000b4620000a86200014460201b60201c565b6200014c60201b60201c565b600180819055508160029080519060200190620000d392919062000210565b508060039080519060200190620000ec92919062000210565b50505082600b90805190602001906200010792919062000210565b5080600c90805190602001906200012092919062000210565b5083600d908051906020019062000139929190620002a1565b50505050506200079d565b600033905090565b60008060009054906101000a900473ffffffffffffffffffffffffffffffffffffffff169050816000806101000a81548173ffffffffffffffffffffffffffffffffffffffff021916908373ffffffffffffffffffffffffffffffffffffffff1602179055508173ffffffffffffffffffffffffffffffffffffffff168173ffffffffffffffffffffffffffffffffffffffff167f8be0079c531659141344cd1fd0a4f28419497f9722a3daafe3b4186f6b6457e060405160405180910390a35050565b8280546200021e9062000767565b90600052602060002090601f0160209004810192826200024257600085556200028e565b82601f106200025d57805160ff19168380011785556200028e565b828001600101855582156200028e579182015b828111156200028d57825182559160200191906001019062000270565b5b5090506200029d919062000308565b5090565b828054828255906000526020600020908101928215620002f5579160200282015b82811115620002f4578251829080519060200190620002e392919062000210565b5091602001919060010190620002c2565b5b50905062000304919062000327565b5090565b5b808211156200032357600081600090555060010162000309565b5090565b5b808211156200034b57600081816200034191906200034f565b5060010162000328565b5090565b5080546200035d9062000767565b6000825580601f1062000371575062000392565b601f01602090049060005260206000209081019062000391919062000308565b5b50565b6000604051905090565b600080fd5b600080fd5b600080fd5b6000601f19601f8301169050919050565b7f4e487b7100000000000000000000000000000000000000000000000000000000600052604160045260246000fd5b620003f982620003ae565b810181811067ffffffffffffffff821117156200041b576200041a620003bf565b5b80604052505050565b60006200043062000395565b90506200043e8282620003ee565b919050565b600067ffffffffffffffff821115620004615762000460620003bf565b5b602082029050602081019050919050565b600080fd5b600080fd5b600067ffffffffffffffff8211156200049a5762000499620003bf565b5b620004a582620003ae565b9050602081019050919050565b60005b83811015620004d2578082015181840152602081019050620004b5565b83811115620004e2576000848401525b50505050565b6000620004ff620004f9846200047c565b62000424565b9050828152602081018484840111156200051e576200051d62000477565b5b6200052b848285620004b2565b509392505050565b600082601f8301126200054b576200054a620003a9565b5b81516200055d848260208601620004e8565b91505092915050565b60006200057d620005778462000443565b62000424565b90508083825260208201905060208402830185811115620005a357620005a262000472565b5b835b81811015620005f157805167ffffffffffffffff811115620005cc57620005cb620003a9565b5b808601620005db898262000533565b85526020850194505050602081019050620005a5565b5050509392505050565b600082601f830112620006135762000612620003a9565b5b81516200062584826020860162000566565b91505092915050565b6000819050919050565b62000643816200062e565b81146200064f57600080fd5b50565b600081519050620006638162000638565b92915050565b600080600080608085870312156200068657620006856200039f565b5b600085015167ffffffffffffffff811115620006a757620006a6620003a4565b5b620006b587828801620005fb565b945050602085015167ffffffffffffffff811115620006d957620006d8620003a4565b5b620006e78782880162000533565b9350506040620006fa8782880162000652565b925050606085015167ffffffffffffffff8111156200071e576200071d620003a4565b5b6200072c8782880162000533565b91505092959194509250565b7f4e487b7100000000000000000000000000000000000000000000000000000000600052602260045260246000fd5b600060028204905060018216806200078057607f821691505b6020821081141562000797576200079662000738565b5b50919050565b61350c80620007ad6000396000f3fe6080604052600436106101145760003560e01c8063715018a6116100a0578063b88d4fde11610064578063b88d4fde146103b6578063c87b56dd146103df578063e6cd41a11461041c578063e985e9c51461045b578063f2fde38b1461049857610114565b8063715018a6146102f05780638aa0fdad146103075780638da5cb5b1461033757806395d89b4114610362578063a22cb4651461038d57610114565b806323b872dd116100e757806323b872dd146101e75780632950c4bd1461021057806342842e0e1461024d5780636352211e1461027657806370a08231146102b357610114565b806301ffc9a71461011957806306fdde0314610156578063081812fc14610181578063095ea7b3146101be575b600080fd5b34801561012557600080fd5b50610140600480360381019061013b919061236a565b6104c1565b60405161014d91906123b2565b60405180910390f35b34801561016257600080fd5b5061016b6105a3565b6040516101789190612466565b60405180910390f35b34801561018d57600080fd5b506101a860048036038101906101a391906124be565b610635565b6040516101b5919061252c565b60405180910390f35b3480156101ca57600080fd5b506101e560048036038101906101e09190612573565b61067b565b005b3480156101f357600080fd5b5061020e600480360381019061020991906125b3565b610793565b005b34801561021c57600080fd5b50610237600480360381019061023291906124be565b6107f3565b60405161024491906126af565b60405180910390f35b34801561025957600080fd5b50610274600480360381019061026f91906125b3565b61095e565b005b34801561028257600080fd5b5061029d600480360381019061029891906124be565b61097e565b6040516102aa919061252c565b60405180910390f35b3480156102bf57600080fd5b506102da60048036038101906102d591906126d1565b610a05565b6040516102e7919061270d565b60405180910390f35b3480156102fc57600080fd5b50610305610abd565b005b610321600480360381019061031c919061285d565b610ad1565b60405161032e919061270d565b60405180910390f35b34801561034357600080fd5b5061034c610c71565b604051610359919061252c565b60405180910390f35b34801561036e57600080fd5b50610377610c9a565b6040516103849190612466565b60405180910390f35b34801561039957600080fd5b506103b460048036038101906103af9190612901565b610d2c565b005b3480156103c257600080fd5b506103dd60048036038101906103d891906129e2565b610d42565b005b3480156103eb57600080fd5b50610406600480360381019061040191906124be565b610da4565b6040516104139190612466565b60405180910390f35b34801561042857600080fd5b50610443600480360381019061043e91906124be565b610eb7565b60405161045293929190612a65565b60405180910390f35b34801561046757600080fd5b50610482600480360381019061047d9190612aa3565b610fa9565b60405161048f91906123b2565b60405180910390f35b3480156104a457600080fd5b506104bf60048036038101906104ba91906126d1565b61103d565b005b60007f80ac58cd000000000000000000000000000000000000000000000000000000007bffffffffffffffffffffffffffffffffffffffffffffffffffffffff1916827bffffffffffffffffffffffffffffffffffffffffffffffffffffffff1916148061058c57507f5b5e139f000000000000000000000000000000000000000000000000000000007bffffffffffffffffffffffffffffffffffffffffffffffffffffffff1916827bffffffffffffffffffffffffffffffffffffffffffffffffffffffff1916145b8061059c575061059b826110c1565b5b9050919050565b6060600280546105b290612b12565b80601f01602080910402602001604051908101604052809291908181526020018280546105de90612b12565b801561062b5780601f106106005761010080835404028352916020019161062b565b820191906000526020600020905b81548152906001019060200180831161060e57829003601f168201915b5050505050905090565b60006106408261112b565b6006600083815260200190815260200160002060009054906101000a900473ffffffffffffffffffffffffffffffffffffffff169050919050565b60006106868261097e565b90508073ffffffffffffffffffffffffffffffffffffffff168373ffffffffffffffffffffffffffffffffffffffff1614156106f7576040517f08c379a00000000000000000000000000000000000000000000000000000000081526004016106ee90612bb6565b60405180910390fd5b8073ffffffffffffffffffffffffffffffffffffffff16610716611176565b73ffffffffffffffffffffffffffffffffffffffff16148061074557506107448161073f611176565b610fa9565b5b610784576040517f08c379a000000000000000000000000000000000000000000000000000000000815260040161077b90612c48565b60405180910390fd5b61078e838361117e565b505050565b6107a461079e611176565b82611237565b6107e3576040517f08c379a00000000000000000000000000000000000000000000000000000000081526004016107da90612cda565b60405180910390fd5b6107ee8383836112cc565b505050565b6107fb61220e565b600e60008381526020019081526020016000206040518060600160405290816000820160009054906101000a900473ffffffffffffffffffffffffffffffffffffffff1673ffffffffffffffffffffffffffffffffffffffff1673ffffffffffffffffffffffffffffffffffffffff1681526020016001820160009054906101000a900473ffffffffffffffffffffffffffffffffffffffff1673ffffffffffffffffffffffffffffffffffffffff1673ffffffffffffffffffffffffffffffffffffffff1681526020016002820180546108d590612b12565b80601f016020809104026020016040519081016040528092919081815260200182805461090190612b12565b801561094e5780601f106109235761010080835404028352916020019161094e565b820191906000526020600020905b81548152906001019060200180831161093157829003601f168201915b5050505050815250509050919050565b61097983838360405180602001604052806000815250610d42565b505050565b60008061098a836115c6565b9050600073ffffffffffffffffffffffffffffffffffffffff168173ffffffffffffffffffffffffffffffffffffffff1614156109fc576040517f08c379a00000000000000000000000000000000000000000000000000000000081526004016109f390612d46565b60405180910390fd5b80915050919050565b60008073ffffffffffffffffffffffffffffffffffffffff168273ffffffffffffffffffffffffffffffffffffffff161415610a76576040517f08c379a0000000000000000000000000000000000000000000000000000000008152600401610a6d90612dd8565b60405180910390fd5b600560008373ffffffffffffffffffffffffffffffffffffffff1673ffffffffffffffffffffffffffffffffffffffff168152602001908152602001600020549050919050565b610ac5611603565b610acf6000611681565b565b6000806040518060600160405280600a60009054906101000a900473ffffffffffffffffffffffffffffffffffffffff1673ffffffffffffffffffffffffffffffffffffffff1681526020013373ffffffffffffffffffffffffffffffffffffffff168152602001858152509050610b496009611745565b6000610b55600961175b565b9050610b613382611769565b610b6b8185611787565b81600e600083815260200190815260200160002060008201518160000160006101000a81548173ffffffffffffffffffffffffffffffffffffffff021916908373ffffffffffffffffffffffffffffffffffffffff16021790555060208201518160010160006101000a81548173ffffffffffffffffffffffffffffffffffffffff021916908373ffffffffffffffffffffffffffffffffffffffff1602179055506040820151816002019080519060200190610c2992919061225b565b509050507fbac7354885f0aa8f66901fbb1e6567224b159bce13022725d2a1af3a6475b3688133604051610c5e929190612df8565b60405180910390a1809250505092915050565b60008060009054906101000a900473ffffffffffffffffffffffffffffffffffffffff16905090565b606060038054610ca990612b12565b80601f0160208091040260200160405190810160405280929190818152602001828054610cd590612b12565b8015610d225780601f10610cf757610100808354040283529160200191610d22565b820191906000526020600020905b815481529060010190602001808311610d0557829003601f168201915b5050505050905090565b610d3e610d37611176565b83836117fb565b5050565b610d53610d4d611176565b83611237565b610d92576040517f08c379a0000000000000000000000000000000000000000000000000000000008152600401610d8990612cda565b60405180910390fd5b610d9e84848484611968565b50505050565b6060610daf8261112b565b6000600860008481526020019081526020016000208054610dcf90612b12565b80601f0160208091040260200160405190810160405280929190818152602001828054610dfb90612b12565b8015610e485780601f10610e1d57610100808354040283529160200191610e48565b820191906000526020600020905b815481529060010190602001808311610e2b57829003601f168201915b505050505090506000610e596119c4565b9050600081511415610e6f578192505050610eb2565b600082511115610ea4578082604051602001610e8c929190612e5d565b60405160208183030381529060405292505050610eb2565b610ead846119db565b925050505b919050565b600e6020528060005260406000206000915090508060000160009054906101000a900473ffffffffffffffffffffffffffffffffffffffff16908060010160009054906101000a900473ffffffffffffffffffffffffffffffffffffffff1690806002018054610f2690612b12565b80601f0160208091040260200160405190810160405280929190818152602001828054610f5290612b12565b8015610f9f5780601f10610f7457610100808354040283529160200191610f9f565b820191906000526020600020905b815481529060010190602001808311610f8257829003601f168201915b5050505050905083565b6000600760008473ffffffffffffffffffffffffffffffffffffffff1673ffffffffffffffffffffffffffffffffffffffff16815260200190815260200160002060008373ffffffffffffffffffffffffffffffffffffffff1673ffffffffffffffffffffffffffffffffffffffff16815260200190815260200160002060009054906101000a900460ff16905092915050565b611045611603565b600073ffffffffffffffffffffffffffffffffffffffff168173ffffffffffffffffffffffffffffffffffffffff1614156110b5576040517f08c379a00000000000000000000000000000000000000000000000000000000081526004016110ac90612ef3565b60405180910390fd5b6110be81611681565b50565b60007f01ffc9a7000000000000000000000000000000000000000000000000000000007bffffffffffffffffffffffffffffffffffffffffffffffffffffffff1916827bffffffffffffffffffffffffffffffffffffffffffffffffffffffff1916149050919050565b61113481611a43565b611173576040517f08c379a000000000000000000000000000000000000000000000000000000000815260040161116a90612d46565b60405180910390fd5b50565b600033905090565b816006600083815260200190815260200160002060006101000a81548173ffffffffffffffffffffffffffffffffffffffff021916908373ffffffffffffffffffffffffffffffffffffffff160217905550808273ffffffffffffffffffffffffffffffffffffffff166111f18361097e565b73ffffffffffffffffffffffffffffffffffffffff167f8c5be1e5ebec7d5bd14f71427d1e84f3dd0314c0f7b2291e5b200ac8c7c3b92560405160405180910390a45050565b6000806112438361097e565b90508073ffffffffffffffffffffffffffffffffffffffff168473ffffffffffffffffffffffffffffffffffffffff16148061128557506112848185610fa9565b5b806112c357508373ffffffffffffffffffffffffffffffffffffffff166112ab84610635565b73ffffffffffffffffffffffffffffffffffffffff16145b91505092915050565b8273ffffffffffffffffffffffffffffffffffffffff166112ec8261097e565b73ffffffffffffffffffffffffffffffffffffffff1614611342576040517f08c379a000000000000000000000000000000000000000000000000000000000815260040161133990612f85565b60405180910390fd5b600073ffffffffffffffffffffffffffffffffffffffff168273ffffffffffffffffffffffffffffffffffffffff1614156113b2576040517f08c379a00000000000000000000000000000000000000000000000000000000081526004016113a990613017565b60405180910390fd5b6113bf8383836001611a84565b8273ffffffffffffffffffffffffffffffffffffffff166113df8261097e565b73ffffffffffffffffffffffffffffffffffffffff1614611435576040517f08c379a000000000000000000000000000000000000000000000000000000000815260040161142c90612f85565b60405180910390fd5b6006600082815260200190815260200160002060006101000a81549073ffffffffffffffffffffffffffffffffffffffff02191690556001600560008573ffffffffffffffffffffffffffffffffffffffff1673ffffffffffffffffffffffffffffffffffffffff168152602001908152602001600020600082825403925050819055506001600560008473ffffffffffffffffffffffffffffffffffffffff1673ffffffffffffffffffffffffffffffffffffffff16815260200190815260200160002060008282540192505081905550816004600083815260200190815260200160002060006101000a81548173ffffffffffffffffffffffffffffffffffffffff021916908373ffffffffffffffffffffffffffffffffffffffff160217905550808273ffffffffffffffffffffffffffffffffffffffff168473ffffffffffffffffffffffffffffffffffffffff167fddf252ad1be2c89b69c2b068fc378daa952ba7f163c4a11628f55a4df523b3ef60405160405180910390a46115c18383836001611baa565b505050565b60006004600083815260200190815260200160002060009054906101000a900473ffffffffffffffffffffffffffffffffffffffff169050919050565b61160b611176565b73ffffffffffffffffffffffffffffffffffffffff16611629610c71565b73ffffffffffffffffffffffffffffffffffffffff161461167f576040517f08c379a000000000000000000000000000000000000000000000000000000000815260040161167690613083565b60405180910390fd5b565b60008060009054906101000a900473ffffffffffffffffffffffffffffffffffffffff169050816000806101000a81548173ffffffffffffffffffffffffffffffffffffffff021916908373ffffffffffffffffffffffffffffffffffffffff1602179055508173ffffffffffffffffffffffffffffffffffffffff168173ffffffffffffffffffffffffffffffffffffffff167f8be0079c531659141344cd1fd0a4f28419497f9722a3daafe3b4186f6b6457e060405160405180910390a35050565b6001816000016000828254019250508190555050565b600081600001549050919050565b611783828260405180602001604052806000815250611bb0565b5050565b61179082611a43565b6117cf576040517f08c379a00000000000000000000000000000000000000000000000000000000081526004016117c690613115565b60405180910390fd5b806008600084815260200190815260200160002090805190602001906117f692919061225b565b505050565b8173ffffffffffffffffffffffffffffffffffffffff168373ffffffffffffffffffffffffffffffffffffffff16141561186a576040517f08c379a000000000000000000000000000000000000000000000000000000000815260040161186190613181565b60405180910390fd5b80600760008573ffffffffffffffffffffffffffffffffffffffff1673ffffffffffffffffffffffffffffffffffffffff16815260200190815260200160002060008473ffffffffffffffffffffffffffffffffffffffff1673ffffffffffffffffffffffffffffffffffffffff16815260200190815260200160002060006101000a81548160ff0219169083151502179055508173ffffffffffffffffffffffffffffffffffffffff168373ffffffffffffffffffffffffffffffffffffffff167f17307eab39ab6107e8899845ad3d59bd9653f200f220920489ca2b5937696c318360405161195b91906123b2565b60405180910390a3505050565b6119738484846112cc565b61197f84848484611c0b565b6119be576040517f08c379a00000000000000000000000000000000000000000000000000000000081526004016119b590613213565b60405180910390fd5b50505050565b606060405180602001604052806000815250905090565b60606119e68261112b565b60006119f06119c4565b90506000815111611a105760405180602001604052806000815250611a3b565b80611a1a84611da2565b604051602001611a2b929190612e5d565b6040516020818303038152906040525b915050919050565b60008073ffffffffffffffffffffffffffffffffffffffff16611a65836115c6565b73ffffffffffffffffffffffffffffffffffffffff1614159050919050565b6001811115611ba457600073ffffffffffffffffffffffffffffffffffffffff168473ffffffffffffffffffffffffffffffffffffffff1614611b185780600560008673ffffffffffffffffffffffffffffffffffffffff1673ffffffffffffffffffffffffffffffffffffffff1681526020019081526020016000206000828254611b109190613262565b925050819055505b600073ffffffffffffffffffffffffffffffffffffffff168373ffffffffffffffffffffffffffffffffffffffff1614611ba35780600560008573ffffffffffffffffffffffffffffffffffffffff1673ffffffffffffffffffffffffffffffffffffffff1681526020019081526020016000206000828254611b9b9190613296565b925050819055505b5b50505050565b50505050565b611bba8383611e7a565b611bc76000848484611c0b565b611c06576040517f08c379a0000000000000000000000000000000000000000000000000000000008152600401611bfd90613213565b60405180910390fd5b505050565b6000611c2c8473ffffffffffffffffffffffffffffffffffffffff16612098565b15611d95578373ffffffffffffffffffffffffffffffffffffffff1663150b7a02611c55611176565b8786866040518563ffffffff1660e01b8152600401611c779493929190613341565b602060405180830381600087803b158015611c9157600080fd5b505af1925050508015611cc257506040513d601f19601f82011682018060405250810190611cbf91906133a2565b60015b611d45573d8060008114611cf2576040519150601f19603f3d011682016040523d82523d6000602084013e611cf7565b606091505b50600081511415611d3d576040517f08c379a0000000000000000000000000000000000000000000000000000000008152600401611d3490613213565b60405180910390fd5b805181602001fd5b63150b7a0260e01b7bffffffffffffffffffffffffffffffffffffffffffffffffffffffff1916817bffffffffffffffffffffffffffffffffffffffffffffffffffffffff191614915050611d9a565b600190505b949350505050565b606060006001611db1846120bb565b01905060008167ffffffffffffffff811115611dd057611dcf612732565b5b6040519080825280601f01601f191660200182016040528015611e025781602001600182028036833780820191505090505b509050600082602001820190505b600115611e6f578080600190039150507f3031323334353637383961626364656600000000000000000000000000000000600a86061a8153600a8581611e5957611e586133cf565b5b0494506000851415611e6a57611e6f565b611e10565b819350505050919050565b600073ffffffffffffffffffffffffffffffffffffffff168273ffffffffffffffffffffffffffffffffffffffff161415611eea576040517f08c379a0000000000000000000000000000000000000000000000000000000008152600401611ee19061344a565b60405180910390fd5b611ef381611a43565b15611f33576040517f08c379a0000000000000000000000000000000000000000000000000000000008152600401611f2a906134b6565b60405180910390fd5b611f41600083836001611a84565b611f4a81611a43565b15611f8a576040517f08c379a0000000000000000000000000000000000000000000000000000000008152600401611f81906134b6565b60405180910390fd5b6001600560008473ffffffffffffffffffffffffffffffffffffffff1673ffffffffffffffffffffffffffffffffffffffff16815260200190815260200160002060008282540192505081905550816004600083815260200190815260200160002060006101000a81548173ffffffffffffffffffffffffffffffffffffffff021916908373ffffffffffffffffffffffffffffffffffffffff160217905550808273ffffffffffffffffffffffffffffffffffffffff16600073ffffffffffffffffffffffffffffffffffffffff167fddf252ad1be2c89b69c2b068fc378daa952ba7f163c4a11628f55a4df523b3ef60405160405180910390a4612094600083836001611baa565b5050565b6000808273ffffffffffffffffffffffffffffffffffffffff163b119050919050565b600080600090507a184f03e93ff9f4daa797ed6e38ed64bf6a1f0100000000000000008310612119577a184f03e93ff9f4daa797ed6e38ed64bf6a1f010000000000000000838161210f5761210e6133cf565b5b0492506040810190505b6d04ee2d6d415b85acef81000000008310612156576d04ee2d6d415b85acef8100000000838161214c5761214b6133cf565b5b0492506020810190505b662386f26fc10000831061218557662386f26fc10000838161217b5761217a6133cf565b5b0492506010810190505b6305f5e10083106121ae576305f5e10083816121a4576121a36133cf565b5b0492506008810190505b61271083106121d35761271083816121c9576121c86133cf565b5b0492506004810190505b606483106121f657606483816121ec576121eb6133cf565b5b0492506002810190505b600a8310612205576001810190505b80915050919050565b6040518060600160405280600073ffffffffffffffffffffffffffffffffffffffff168152602001600073ffffffffffffffffffffffffffffffffffffffff168152602001606081525090565b82805461226790612b12565b90600052602060002090601f01602090048101928261228957600085556122d0565b82601f106122a257805160ff19168380011785556122d0565b828001600101855582156122d0579182015b828111156122cf5782518255916020019190600101906122b4565b5b5090506122dd91906122e1565b5090565b5b808211156122fa5760008160009055506001016122e2565b5090565b6000604051905090565b600080fd5b600080fd5b60007fffffffff0000000000000000000000000000000000000000000000000000000082169050919050565b61234781612312565b811461235257600080fd5b50565b6000813590506123648161233e565b92915050565b6000602082840312156123805761237f612308565b5b600061238e84828501612355565b91505092915050565b60008115159050919050565b6123ac81612397565b82525050565b60006020820190506123c760008301846123a3565b92915050565b600081519050919050565b600082825260208201905092915050565b60005b838110156124075780820151818401526020810190506123ec565b83811115612416576000848401525b50505050565b6000601f19601f8301169050919050565b6000612438826123cd565b61244281856123d8565b93506124528185602086016123e9565b61245b8161241c565b840191505092915050565b60006020820190508181036000830152612480818461242d565b905092915050565b6000819050919050565b61249b81612488565b81146124a657600080fd5b50565b6000813590506124b881612492565b92915050565b6000602082840312156124d4576124d3612308565b5b60006124e2848285016124a9565b91505092915050565b600073ffffffffffffffffffffffffffffffffffffffff82169050919050565b6000612516826124eb565b9050919050565b6125268161250b565b82525050565b6000602082019050612541600083018461251d565b92915050565b6125508161250b565b811461255b57600080fd5b50565b60008135905061256d81612547565b92915050565b6000806040838503121561258a57612589612308565b5b60006125988582860161255e565b92505060206125a9858286016124a9565b9150509250929050565b6000806000606084860312156125cc576125cb612308565b5b60006125da8682870161255e565b93505060206125eb8682870161255e565b92505060406125fc868287016124a9565b9150509250925092565b61260f8161250b565b82525050565b600082825260208201905092915050565b6000612631826123cd565b61263b8185612615565b935061264b8185602086016123e9565b6126548161241c565b840191505092915050565b60006060830160008301516126776000860182612606565b50602083015161268a6020860182612606565b50604083015184820360408601526126a28282612626565b9150508091505092915050565b600060208201905081810360008301526126c9818461265f565b905092915050565b6000602082840312156126e7576126e6612308565b5b60006126f58482850161255e565b91505092915050565b61270781612488565b82525050565b600060208201905061272260008301846126fe565b92915050565b600080fd5b600080fd5b7f4e487b7100000000000000000000000000000000000000000000000000000000600052604160045260246000fd5b61276a8261241c565b810181811067ffffffffffffffff8211171561278957612788612732565b5b80604052505050565b600061279c6122fe565b90506127a88282612761565b919050565b600067ffffffffffffffff8211156127c8576127c7612732565b5b6127d18261241c565b9050602081019050919050565b82818337600083830152505050565b60006128006127fb846127ad565b612792565b90508281526020810184848401111561281c5761281b61272d565b5b6128278482856127de565b509392505050565b600082601f83011261284457612843612728565b5b81356128548482602086016127ed565b91505092915050565b6000806040838503121561287457612873612308565b5b600083013567ffffffffffffffff8111156128925761289161230d565b5b61289e8582860161282f565b925050602083013567ffffffffffffffff8111156128bf576128be61230d565b5b6128cb8582860161282f565b9150509250929050565b6128de81612397565b81146128e957600080fd5b50565b6000813590506128fb816128d5565b92915050565b6000806040838503121561291857612917612308565b5b60006129268582860161255e565b9250506020612937858286016128ec565b9150509250929050565b600067ffffffffffffffff82111561295c5761295b612732565b5b6129658261241c565b9050602081019050919050565b600061298561298084612941565b612792565b9050828152602081018484840111156129a1576129a061272d565b5b6129ac8482856127de565b509392505050565b600082601f8301126129c9576129c8612728565b5b81356129d9848260208601612972565b91505092915050565b600080600080608085870312156129fc576129fb612308565b5b6000612a0a8782880161255e565b9450506020612a1b8782880161255e565b9350506040612a2c878288016124a9565b925050606085013567ffffffffffffffff811115612a4d57612a4c61230d565b5b612a59878288016129b4565b91505092959194509250565b6000606082019050612a7a600083018661251d565b612a87602083018561251d565b8181036040830152612a99818461242d565b9050949350505050565b60008060408385031215612aba57612ab9612308565b5b6000612ac88582860161255e565b9250506020612ad98582860161255e565b9150509250929050565b7f4e487b7100000000000000000000000000000000000000000000000000000000600052602260045260246000fd5b60006002820490506001821680612b2a57607f821691505b60208210811415612b3e57612b3d612ae3565b5b50919050565b7f4552433732313a20617070726f76616c20746f2063757272656e74206f776e6560008201527f7200000000000000000000000000000000000000000000000000000000000000602082015250565b6000612ba06021836123d8565b9150612bab82612b44565b604082019050919050565b60006020820190508181036000830152612bcf81612b93565b9050919050565b7f4552433732313a20617070726f76652063616c6c6572206973206e6f7420746f60008201527f6b656e206f776e6572206f7220617070726f76656420666f7220616c6c000000602082015250565b6000612c32603d836123d8565b9150612c3d82612bd6565b604082019050919050565b60006020820190508181036000830152612c6181612c25565b9050919050565b7f4552433732313a2063616c6c6572206973206e6f7420746f6b656e206f776e6560008201527f72206f7220617070726f76656400000000000000000000000000000000000000602082015250565b6000612cc4602d836123d8565b9150612ccf82612c68565b604082019050919050565b60006020820190508181036000830152612cf381612cb7565b9050919050565b7f4552433732313a20696e76616c696420746f6b656e2049440000000000000000600082015250565b6000612d306018836123d8565b9150612d3b82612cfa565b602082019050919050565b60006020820190508181036000830152612d5f81612d23565b9050919050565b7f4552433732313a2061646472657373207a65726f206973206e6f74206120766160008201527f6c6964206f776e65720000000000000000000000000000000000000000000000602082015250565b6000612dc26029836123d8565b9150612dcd82612d66565b604082019050919050565b60006020820190508181036000830152612df181612db5565b9050919050565b6000604082019050612e0d60008301856126fe565b612e1a602083018461251d565b9392505050565b600081905092915050565b6000612e37826123cd565b612e418185612e21565b9350612e518185602086016123e9565b80840191505092915050565b6000612e698285612e2c565b9150612e758284612e2c565b91508190509392505050565b7f4f776e61626c653a206e6577206f776e657220697320746865207a65726f206160008201527f6464726573730000000000000000000000000000000000000000000000000000602082015250565b6000612edd6026836123d8565b9150612ee882612e81565b604082019050919050565b60006020820190508181036000830152612f0c81612ed0565b9050919050565b7f4552433732313a207472616e736665722066726f6d20696e636f72726563742060008201527f6f776e6572000000000000000000000000000000000000000000000000000000602082015250565b6000612f6f6025836123d8565b9150612f7a82612f13565b604082019050919050565b60006020820190508181036000830152612f9e81612f62565b9050919050565b7f4552433732313a207472616e7366657220746f20746865207a65726f2061646460008201527f7265737300000000000000000000000000000000000000000000000000000000602082015250565b60006130016024836123d8565b915061300c82612fa5565b604082019050919050565b6000602082019050818103600083015261303081612ff4565b9050919050565b7f4f776e61626c653a2063616c6c6572206973206e6f7420746865206f776e6572600082015250565b600061306d6020836123d8565b915061307882613037565b602082019050919050565b6000602082019050818103600083015261309c81613060565b9050919050565b7f45524337323155524953746f726167653a2055524920736574206f66206e6f6e60008201527f6578697374656e7420746f6b656e000000000000000000000000000000000000602082015250565b60006130ff602e836123d8565b915061310a826130a3565b604082019050919050565b6000602082019050818103600083015261312e816130f2565b9050919050565b7f4552433732313a20617070726f766520746f2063616c6c657200000000000000600082015250565b600061316b6019836123d8565b915061317682613135565b602082019050919050565b6000602082019050818103600083015261319a8161315e565b9050919050565b7f4552433732313a207472616e7366657220746f206e6f6e20455243373231526560008201527f63656976657220696d706c656d656e7465720000000000000000000000000000602082015250565b60006131fd6032836123d8565b9150613208826131a1565b604082019050919050565b6000602082019050818103600083015261322c816131f0565b9050919050565b7f4e487b7100000000000000000000000000000000000000000000000000000000600052601160045260246000fd5b600061326d82612488565b915061327883612488565b92508282101561328b5761328a613233565b5b828203905092915050565b60006132a182612488565b91506132ac83612488565b9250827fffffffffffffffffffffffffffffffffffffffffffffffffffffffffffffffff038211156132e1576132e0613233565b5b828201905092915050565b600081519050919050565b600082825260208201905092915050565b6000613313826132ec565b61331d81856132f7565b935061332d8185602086016123e9565b6133368161241c565b840191505092915050565b6000608082019050613356600083018761251d565b613363602083018661251d565b61337060408301856126fe565b81810360608301526133828184613308565b905095945050505050565b60008151905061339c8161233e565b92915050565b6000602082840312156133b8576133b7612308565b5b60006133c68482850161338d565b91505092915050565b7f4e487b7100000000000000000000000000000000000000000000000000000000600052601260045260246000fd5b7f4552433732313a206d696e7420746f20746865207a65726f2061646472657373600082015250565b60006134346020836123d8565b915061343f826133fe565b602082019050919050565b6000602082019050818103600083015261346381613427565b9050919050565b7f4552433732313a20746f6b656e20616c7265616479206d696e74656400000000600082015250565b60006134a0601c836123d8565b91506134ab8261346a565b602082019050919050565b600060208201905081810360008301526134cf81613493565b905091905056fea2646970667358221220fddd0075db6de839ebdd9ea2a5e4eff4e321c20c8acc3158c04eb0f55d660ac864736f6c63430008090033",
  "linkReferences": {},
  "deployedLinkReferences": {}
}