{
  "_format": "hh-sol-artifact-1",
  "contractName": "Event",
  "sourceName": "contracts/Event.sol",
  "abi": [
    {
      "inputs": [
        {
          "internalType": "string[]",
          "name": "_categories",
          "type": "string[]"
        },
        {
          "internalType": "uint256[]",
          "name": "_categoryPrices",
          "type": "uint256[]"
        },
        {
          "internalType": "uint256[]",
          "name": "_categoryLimits",
          "type": "uint256[]"
        },
        {
          "internalType": "string",
          "name": "_eventName",
          "type": "string"
        },
        {
          "internalType": "string",
          "name": "_dateTime",
          "type": "string"
        },
        {
          "internalType": "string",
          "name": "_venue",
          "type": "string"
        },
        {
          "internalType": "uint256",
          "name": "_commission",
          "type": "uint256"
        },
        {
          "internalType": "uint256",
          "name": "_maxTicketPerAddress",
          "type": "uint256"
        },
        {
          "internalType": "string",
          "name": "_eventSymbol",
          "type": "string"
        }
      ],
      "stateMutability": "payable",
      "type": "constructor"
    },
    {
      "anonymous": false,
      "inputs": [
        {
          "indexed": true,
          "internalType": "address",
          "name": "owner",
          "type": "address"
        },
        {
          "indexed": true,
          "internalType": "address",
          "name": "approved",
          "type": "address"
        },
        {
          "indexed": true,
          "internalType": "uint256",
          "name": "tokenId",
          "type": "uint256"
        }
      ],
      "name": "Approval",
      "type": "event"
    },
    {
      "anonymous": false,
      "inputs": [
        {
          "indexed": true,
          "internalType": "address",
          "name": "owner",
          "type": "address"
        },
        {
          "indexed": true,
          "internalType": "address",
          "name": "operator",
          "type": "address"
        },
        {
          "indexed": false,
          "internalType": "bool",
          "name": "approved",
          "type": "bool"
        }
      ],
      "name": "ApprovalForAll",
      "type": "event"
    },
    {
      "anonymous": false,
      "inputs": [
        {
          "indexed": true,
          "internalType": "address",
          "name": "previousOwner",
          "type": "address"
        },
        {
          "indexed": true,
          "internalType": "address",
          "name": "newOwner",
          "type": "address"
        }
      ],
      "name": "OwnershipTransferred",
      "type": "event"
    },
    {
      "anonymous": false,
      "inputs": [
        {
          "indexed": true,
          "internalType": "address",
          "name": "from",
          "type": "address"
        },
        {
          "indexed": true,
          "internalType": "address",
          "name": "to",
          "type": "address"
        },
        {
          "indexed": true,
          "internalType": "uint256",
          "name": "tokenId",
          "type": "uint256"
        }
      ],
      "name": "Transfer",
      "type": "event"
    },
    {
      "anonymous": false,
      "inputs": [
        {
          "indexed": false,
          "internalType": "uint256",
          "name": "tokenId",
          "type": "uint256"
        },
        {
          "indexed": false,
          "internalType": "address",
          "name": "user",
          "type": "address"
        }
      ],
      "name": "checkedIn",
      "type": "event"
    },
    {
      "anonymous": false,
      "inputs": [
        {
          "indexed": false,
          "internalType": "uint256",
          "name": "tokenId",
          "type": "uint256"
        },
        {
          "indexed": false,
          "internalType": "address",
          "name": "user",
          "type": "address"
        },
        {
          "indexed": false,
          "internalType": "uint256",
          "name": "price",
          "type": "uint256"
        }
      ],
      "name": "ticketListed",
      "type": "event"
    },
    {
      "anonymous": false,
      "inputs": [
        {
          "indexed": false,
          "internalType": "uint256",
          "name": "tokenId",
          "type": "uint256"
        },
        {
          "indexed": false,
          "internalType": "address",
          "name": "recipient",
          "type": "address"
        }
      ],
      "name": "ticketMinted",
      "type": "event"
    },
    {
      "anonymous": false,
      "inputs": [
        {
          "indexed": false,
          "internalType": "uint256",
          "name": "tokenId",
          "type": "uint256"
        },
        {
          "indexed": false,
          "internalType": "address",
          "name": "user",
          "type": "address"
        }
      ],
      "name": "ticketUnlisted",
      "type": "event"
    },
    {
      "inputs": [
        {
          "internalType": "address",
          "name": "to",
          "type": "address"
        },
        {
          "internalType": "uint256",
          "name": "tokenId",
          "type": "uint256"
        }
      ],
      "name": "approve",
      "outputs": [],
      "stateMutability": "nonpayable",
      "type": "function"
    },
    {
      "inputs": [
        {
          "internalType": "address",
          "name": "owner",
          "type": "address"
        }
      ],
      "name": "balanceOf",
      "outputs": [
        {
          "internalType": "uint256",
          "name": "",
          "type": "uint256"
        }
      ],
      "stateMutability": "view",
      "type": "function"
    },
    {
      "inputs": [
        {
          "internalType": "uint256",
          "name": "tokenId",
          "type": "uint256"
        }
      ],
      "name": "checkIn",
      "outputs": [],
      "stateMutability": "nonpayable",
      "type": "function"
    },
    {
      "inputs": [],
      "name": "eventCancelled",
      "outputs": [],
      "stateMutability": "nonpayable",
      "type": "function"
    },
    {
      "inputs": [
        {
          "internalType": "uint256",
          "name": "tokenId",
          "type": "uint256"
        }
      ],
      "name": "expiredTicket",
      "outputs": [],
      "stateMutability": "nonpayable",
      "type": "function"
    },
    {
      "inputs": [
        {
          "internalType": "uint256",
          "name": "tokenId",
          "type": "uint256"
        }
      ],
      "name": "getApproved",
      "outputs": [
        {
          "internalType": "address",
          "name": "",
          "type": "address"
        }
      ],
      "stateMutability": "view",
      "type": "function"
    },
    {
      "inputs": [
        {
          "internalType": "string",
          "name": "category",
          "type": "string"
        }
      ],
      "name": "getCategoryInformation",
      "outputs": [
        {
          "internalType": "uint256",
          "name": "_price",
          "type": "uint256"
        },
        {
          "internalType": "uint256",
          "name": "_maxNumber",
          "type": "uint256"
        },
        {
          "internalType": "uint256",
          "name": "_currentSupply",
          "type": "uint256"
        }
      ],
      "stateMutability": "view",
      "type": "function"
    },
    {
      "inputs": [],
      "name": "getCommission",
      "outputs": [
        {
          "internalType": "uint256",
          "name": "",
          "type": "uint256"
        }
      ],
      "stateMutability": "view",
      "type": "function"
    },
    {
      "inputs": [
        {
          "internalType": "address",
          "name": "owner",
          "type": "address"
        },
        {
          "internalType": "address",
          "name": "operator",
          "type": "address"
        }
      ],
      "name": "isApprovedForAll",
      "outputs": [
        {
          "internalType": "bool",
          "name": "",
          "type": "bool"
        }
      ],
      "stateMutability": "view",
      "type": "function"
    },
    {
      "inputs": [
        {
          "internalType": "string",
          "name": "category",
          "type": "string"
        }
      ],
      "name": "mint",
      "outputs": [
        {
          "internalType": "uint256",
          "name": "",
          "type": "uint256"
        }
      ],
      "stateMutability": "payable",
      "type": "function"
    },
    {
      "inputs": [],
      "name": "name",
      "outputs": [
        {
          "internalType": "string",
          "name": "",
          "type": "string"
        }
      ],
      "stateMutability": "view",
      "type": "function"
    },
    {
      "inputs": [],
      "name": "owner",
      "outputs": [
        {
          "internalType": "address",
          "name": "",
          "type": "address"
        }
      ],
      "stateMutability": "view",
      "type": "function"
    },
    {
      "inputs": [
        {
          "internalType": "uint256",
          "name": "tokenId",
          "type": "uint256"
        }
      ],
      "name": "ownerOf",
      "outputs": [
        {
          "internalType": "address",
          "name": "",
          "type": "address"
        }
      ],
      "stateMutability": "view",
      "type": "function"
    },
    {
      "inputs": [],
      "name": "renounceOwnership",
      "outputs": [],
      "stateMutability": "nonpayable",
      "type": "function"
    },
    {
      "inputs": [
        {
          "internalType": "address",
          "name": "from",
          "type": "address"
        },
        {
          "internalType": "address",
          "name": "to",
          "type": "address"
        },
        {
          "internalType": "uint256",
          "name": "tokenId",
          "type": "uint256"
        }
      ],
      "name": "safeTransferFrom",
      "outputs": [],
      "stateMutability": "nonpayable",
      "type": "function"
    },
    {
      "inputs": [
        {
          "internalType": "address",
          "name": "from",
          "type": "address"
        },
        {
          "internalType": "address",
          "name": "to",
          "type": "address"
        },
        {
          "internalType": "uint256",
          "name": "tokenId",
          "type": "uint256"
        },
        {
          "internalType": "bytes",
          "name": "data",
          "type": "bytes"
        }
      ],
      "name": "safeTransferFrom",
      "outputs": [],
      "stateMutability": "nonpayable",
      "type": "function"
    },
    {
      "inputs": [
        {
          "internalType": "address",
          "name": "operator",
          "type": "address"
        },
        {
          "internalType": "bool",
          "name": "approved",
          "type": "bool"
        }
      ],
      "name": "setApprovalForAll",
      "outputs": [],
      "stateMutability": "nonpayable",
      "type": "function"
    },
    {
      "inputs": [
        {
          "internalType": "bytes4",
          "name": "interfaceId",
          "type": "bytes4"
        }
      ],
      "name": "supportsInterface",
      "outputs": [
        {
          "internalType": "bool",
          "name": "",
          "type": "bool"
        }
      ],
      "stateMutability": "view",
      "type": "function"
    },
    {
      "inputs": [],
      "name": "symbol",
      "outputs": [
        {
          "internalType": "string",
          "name": "",
          "type": "string"
        }
      ],
      "stateMutability": "view",
      "type": "function"
    },
    {
      "inputs": [
        {
          "internalType": "uint256",
          "name": "",
          "type": "uint256"
        }
      ],
      "name": "ticketIDs",
      "outputs": [
        {
          "internalType": "address",
          "name": "organizer",
          "type": "address"
        },
        {
          "internalType": "address",
          "name": "ticketOwner",
          "type": "address"
        },
        {
          "components": [
            {
              "internalType": "string",
              "name": "category",
              "type": "string"
            },
            {
              "internalType": "uint256",
              "name": "price",
              "type": "uint256"
            },
            {
              "internalType": "uint256",
              "name": "maxNumber",
              "type": "uint256"
            },
            {
              "internalType": "uint256",
              "name": "currentSupply",
              "type": "uint256"
            }
          ],
          "internalType": "struct Event.Category",
          "name": "category",
          "type": "tuple"
        },
        {
          "internalType": "uint256",
          "name": "currentPrice",
          "type": "uint256"
        },
        {
          "internalType": "enum Event.ticketStatus",
          "name": "_ticketStatus",
          "type": "uint8"
        },
        {
          "internalType": "bool",
          "name": "ticketListing",
          "type": "bool"
        },
        {
          "internalType": "bool",
          "name": "checkIn",
          "type": "bool"
        }
      ],
      "stateMutability": "view",
      "type": "function"
    },
    {
      "inputs": [
        {
          "internalType": "address",
          "name": "",
          "type": "address"
        }
      ],
      "name": "ticketsPerOwner",
      "outputs": [
        {
          "internalType": "uint256",
          "name": "",
          "type": "uint256"
        }
      ],
      "stateMutability": "view",
      "type": "function"
    },
    {
      "inputs": [
        {
          "internalType": "uint256",
          "name": "tokenId",
          "type": "uint256"
        }
      ],
      "name": "tokenURI",
      "outputs": [
        {
          "internalType": "string",
          "name": "",
          "type": "string"
        }
      ],
      "stateMutability": "view",
      "type": "function"
    },
    {
      "inputs": [
        {
          "internalType": "address",
          "name": "from",
          "type": "address"
        },
        {
          "internalType": "address",
          "name": "to",
          "type": "address"
        },
        {
          "internalType": "uint256",
          "name": "tokenId",
          "type": "uint256"
        }
      ],
      "name": "transferFrom",
      "outputs": [],
      "stateMutability": "nonpayable",
      "type": "function"
    },
    {
      "inputs": [
        {
          "internalType": "address",
          "name": "newOwner",
          "type": "address"
        }
      ],
      "name": "transferOwnership",
      "outputs": [],
      "stateMutability": "nonpayable",
      "type": "function"
    }
  ],
  "bytecode": "0x608060405233600960006101000a81548173ffffffffffffffffffffffffffffffffffffffff021916908373ffffffffffffffffffffffffffffffffffffffff16021790555066470de4df82000060135573dd870fa1b7c4700f2bd7f44238821c26f7392148601460006101000a81548173ffffffffffffffffffffffffffffffffffffffff021916908373ffffffffffffffffffffffffffffffffffffffff16021790555060405162004ee438038062004ee48339818101604052810190620000ca919062000a2d565b8581620000ec620000e06200057860201b60201c565b6200058060201b60201c565b6001808190555081600290805190602001906200010b92919062000644565b5080600390805190602001906200012492919062000644565b50505088601990805190602001906200013f929190620006d5565b5087601a9080519060200190620001589291906200073c565b5086601b9080519060200190620001719291906200073c565b5085600d90805190602001906200018a92919062000644565b5084600f9080519060200190620001a392919062000644565b508360109080519060200190620001bc92919062000644565b508060159080519060200190620001d592919062000644565b5082601181905550816012819055506000600c81905550601a80549050601980549050146200023b576040517f08c379a0000000000000000000000000000000000000000000000000000000008152600401620002329062000d15565b60405180910390fd5b601b80549050601980549050146200028a576040517f08c379a0000000000000000000000000000000000000000000000000000000008152600401620002819062000d15565b60405180910390fd5b6000600b8190555060005b60198054905081101562000490576000604051806080016040528060198481548110620002c757620002c662001007565b5b906000526020600020018054620002de9062000eef565b80601f01602080910402602001604051908101604052809291908181526020018280546200030c9062000eef565b80156200035d5780601f1062000331576101008083540402835291602001916200035d565b820191906000526020600020905b8154815290600101906020018083116200033f57829003601f168201915b50505050508152602001601a84815481106200037e576200037d62001007565b5b90600052602060002001548152602001601b8481548110620003a557620003a462001007565b5b906000526020600020015481526020016000815250905080601660198481548110620003d657620003d562001007565b5b90600052602060002001604051620003ef919062000ce5565b908152602001604051809103902060008201518160000190805190602001906200041b92919062000644565b50602082015181600101556040820151816002015560608201518160030155905050601b828154811062000454576200045362001007565b5b9060005260206000200154600b600082825462000472919062000e52565b92505081905550508080620004879062000f5b565b91505062000295565b506000601460009054906101000a900473ffffffffffffffffffffffffffffffffffffffff1673ffffffffffffffffffffffffffffffffffffffff16601354604051620004dd9062000cfe565b60006040518083038185875af1925050503d80600081146200051c576040519150601f19603f3d011682016040523d82523d6000602084013e62000521565b606091505b505090508062000568576040517f08c379a00000000000000000000000000000000000000000000000000000000081526004016200055f9062000d37565b60405180910390fd5b50505050505050505050620010fe565b600033905090565b60008060009054906101000a900473ffffffffffffffffffffffffffffffffffffffff169050816000806101000a81548173ffffffffffffffffffffffffffffffffffffffff021916908373ffffffffffffffffffffffffffffffffffffffff1602179055508173ffffffffffffffffffffffffffffffffffffffff168173ffffffffffffffffffffffffffffffffffffffff167f8be0079c531659141344cd1fd0a4f28419497f9722a3daafe3b4186f6b6457e060405160405180910390a35050565b828054620006529062000eef565b90600052602060002090601f016020900481019282620006765760008555620006c2565b82601f106200069157805160ff1916838001178555620006c2565b82800160010185558215620006c2579182015b82811115620006c1578251825591602001919060010190620006a4565b5b509050620006d191906200078e565b5090565b82805482825590600052602060002090810192821562000729579160200282015b82811115620007285782518290805190602001906200071792919062000644565b5091602001919060010190620006f6565b5b509050620007389190620007ad565b5090565b8280548282559060005260206000209081019282156200077b579160200282015b828111156200077a5782518255916020019190600101906200075d565b5b5090506200078a91906200078e565b5090565b5b80821115620007a95760008160009055506001016200078f565b5090565b5b80821115620007d15760008181620007c79190620007d5565b50600101620007ae565b5090565b508054620007e39062000eef565b6000825580601f10620007f7575062000818565b601f0160209004906000526020600020908101906200081791906200078e565b5b50565b6000620008326200082c8462000d82565b62000d59565b905080838252602082019050828560208602820111156200085857620008576200106a565b5b60005b85811015620008ad57815167ffffffffffffffff81111562000882576200088162001065565b5b808601620008918982620009e3565b855260208501945060208401935050506001810190506200085b565b5050509392505050565b6000620008ce620008c88462000db1565b62000d59565b90508083825260208201905082856020860282011115620008f457620008f36200106a565b5b60005b858110156200092857816200090d888262000a16565b845260208401935060208301925050600181019050620008f7565b5050509392505050565b600062000949620009438462000de0565b62000d59565b9050828152602081018484840111156200096857620009676200106f565b5b6200097584828562000eb9565b509392505050565b600082601f83011262000995576200099462001065565b5b8151620009a78482602086016200081b565b91505092915050565b600082601f830112620009c857620009c762001065565b5b8151620009da848260208601620008b7565b91505092915050565b600082601f830112620009fb57620009fa62001065565b5b815162000a0d84826020860162000932565b91505092915050565b60008151905062000a2781620010e4565b92915050565b60008060008060008060008060006101208a8c03121562000a535762000a5262001079565b5b60008a015167ffffffffffffffff81111562000a745762000a7362001074565b5b62000a828c828d016200097d565b99505060208a015167ffffffffffffffff81111562000aa65762000aa562001074565b5b62000ab48c828d01620009b0565b98505060408a015167ffffffffffffffff81111562000ad85762000ad762001074565b5b62000ae68c828d01620009b0565b97505060608a015167ffffffffffffffff81111562000b0a5762000b0962001074565b5b62000b188c828d01620009e3565b96505060808a015167ffffffffffffffff81111562000b3c5762000b3b62001074565b5b62000b4a8c828d01620009e3565b95505060a08a015167ffffffffffffffff81111562000b6e5762000b6d62001074565b5b62000b7c8c828d01620009e3565b94505060c062000b8f8c828d0162000a16565b93505060e062000ba28c828d0162000a16565b9250506101008a015167ffffffffffffffff81111562000bc75762000bc662001074565b5b62000bd58c828d01620009e3565b9150509295985092959850929598565b6000815462000bf48162000eef565b62000c00818662000e47565b9450600182166000811462000c1e576001811462000c305762000c67565b60ff1983168652818601935062000c67565b62000c3b8562000e16565b60005b8381101562000c5f5781548189015260018201915060208101905062000c3e565b838801955050505b50505092915050565b600062000c7f60138362000e36565b915062000c8c826200108f565b602082019050919050565b600062000ca6600f8362000e36565b915062000cb382620010b8565b602082019050919050565b600062000ccd60008362000e2b565b915062000cda82620010e1565b600082019050919050565b600062000cf3828462000be5565b915081905092915050565b600062000d0b8262000cbe565b9150819050919050565b6000602082019050818103600083015262000d308162000c70565b9050919050565b6000602082019050818103600083015262000d528162000c97565b9050919050565b600062000d6562000d78565b905062000d73828262000f25565b919050565b6000604051905090565b600067ffffffffffffffff82111562000da05762000d9f62001036565b5b602082029050602081019050919050565b600067ffffffffffffffff82111562000dcf5762000dce62001036565b5b602082029050602081019050919050565b600067ffffffffffffffff82111562000dfe5762000dfd62001036565b5b62000e09826200107e565b9050602081019050919050565b60008190508160005260206000209050919050565b600081905092915050565b600082825260208201905092915050565b600081905092915050565b600062000e5f8262000eaf565b915062000e6c8362000eaf565b9250827fffffffffffffffffffffffffffffffffffffffffffffffffffffffffffffffff0382111562000ea45762000ea362000fa9565b5b828201905092915050565b6000819050919050565b60005b8381101562000ed957808201518184015260208101905062000ebc565b8381111562000ee9576000848401525b50505050565b6000600282049050600182168062000f0857607f821691505b6020821081141562000f1f5762000f1e62000fd8565b5b50919050565b62000f30826200107e565b810181811067ffffffffffffffff8211171562000f525762000f5162001036565b5b80604052505050565b600062000f688262000eaf565b91507fffffffffffffffffffffffffffffffffffffffffffffffffffffffffffffffff82141562000f9e5762000f9d62000fa9565b5b600182019050919050565b7f4e487b7100000000000000000000000000000000000000000000000000000000600052601160045260246000fd5b7f4e487b7100000000000000000000000000000000000000000000000000000000600052602260045260246000fd5b7f4e487b7100000000000000000000000000000000000000000000000000000000600052603260045260246000fd5b7f4e487b7100000000000000000000000000000000000000000000000000000000600052604160045260246000fd5b600080fd5b600080fd5b600080fd5b600080fd5b600080fd5b6000601f19601f8301169050919050565b7f506c65617365206b657920696e20616761696e00000000000000000000000000600082015250565b7f5472616e73666572206661696c65640000000000000000000000000000000000600082015250565b50565b620010ef8162000eaf565b8114620010fb57600080fd5b50565b613dd6806200110e6000396000f3fe60806040526004361061014b5760003560e01c806395d89b41116100b6578063e2c813771161006f578063e2c81377146104ad578063e65d6b49146104d6578063e95a644f14610501578063e985e9c51461052a578063f2fde38b14610567578063fa205f03146105905761014b565b806395d89b41146103ac578063a22cb465146103d7578063b88d4fde14610400578063c87b56dd14610429578063d85d3d2714610466578063e1a494d1146104965761014b565b806342842e0e1161010857806342842e0e146102845780634d07d5ab146102ad5780636352211e146102f057806370a082311461032d578063715018a61461036a5780638da5cb5b146103815761014b565b806301ffc9a71461015057806306fdde031461018d578063081812fc146101b8578063095ea7b3146101f557806323b872dd1461021e5780632c92119614610247575b600080fd5b34801561015c57600080fd5b5061017760048036038101906101729190612b4b565b6105cf565b6040516101849190613156565b60405180910390f35b34801561019957600080fd5b506101a26106b1565b6040516101af9190613171565b60405180910390f35b3480156101c457600080fd5b506101df60048036038101906101da9190612bee565b610743565b6040516101ec9190613079565b60405180910390f35b34801561020157600080fd5b5061021c60048036038101906102179190612b0b565b610789565b005b34801561022a57600080fd5b50610245600480360381019061024091906129f5565b6108a1565b005b34801561025357600080fd5b5061026e60048036038101906102699190612988565b610901565b60405161027b91906133f3565b60405180910390f35b34801561029057600080fd5b506102ab60048036038101906102a691906129f5565b610919565b005b3480156102b957600080fd5b506102d460048036038101906102cf9190612bee565b610939565b6040516102e79796959493929190613094565b60405180910390f35b3480156102fc57600080fd5b5061031760048036038101906103129190612bee565b610a9c565b6040516103249190613079565b60405180910390f35b34801561033957600080fd5b50610354600480360381019061034f9190612988565b610b23565b60405161036191906133f3565b60405180910390f35b34801561037657600080fd5b5061037f610bdb565b005b34801561038d57600080fd5b50610396610bef565b6040516103a39190613079565b60405180910390f35b3480156103b857600080fd5b506103c1610c18565b6040516103ce9190613171565b60405180910390f35b3480156103e357600080fd5b506103fe60048036038101906103f99190612acb565b610caa565b005b34801561040c57600080fd5b5061042760048036038101906104229190612a48565b610cc0565b005b34801561043557600080fd5b50610450600480360381019061044b9190612bee565b610d22565b60405161045d9190613171565b60405180910390f35b610480600480360381019061047b9190612ba5565b610d8a565b60405161048d91906133f3565b60405180910390f35b3480156104a257600080fd5b506104ab61135b565b005b3480156104b957600080fd5b506104d460048036038101906104cf9190612bee565b61144d565b005b3480156104e257600080fd5b506104eb61148f565b6040516104f891906133f3565b60405180910390f35b34801561050d57600080fd5b5061052860048036038101906105239190612bee565b611499565b005b34801561053657600080fd5b50610551600480360381019061054c91906129b5565b611614565b60405161055e9190613156565b60405180910390f35b34801561057357600080fd5b5061058e60048036038101906105899190612988565b6116a8565b005b34801561059c57600080fd5b506105b760048036038101906105b29190612ba5565b61172c565b6040516105c693929190613437565b60405180910390f35b60007f80ac58cd000000000000000000000000000000000000000000000000000000007bffffffffffffffffffffffffffffffffffffffffffffffffffffffff1916827bffffffffffffffffffffffffffffffffffffffffffffffffffffffff1916148061069a57507f5b5e139f000000000000000000000000000000000000000000000000000000007bffffffffffffffffffffffffffffffffffffffffffffffffffffffff1916827bffffffffffffffffffffffffffffffffffffffffffffffffffffffff1916145b806106aa57506106a9826117a4565b5b9050919050565b6060600280546106c090613739565b80601f01602080910402602001604051908101604052809291908181526020018280546106ec90613739565b80156107395780601f1061070e57610100808354040283529160200191610739565b820191906000526020600020905b81548152906001019060200180831161071c57829003601f168201915b5050505050905090565b600061074e8261180e565b6006600083815260200190815260200160002060009054906101000a900473ffffffffffffffffffffffffffffffffffffffff169050919050565b600061079482610a9c565b90508073ffffffffffffffffffffffffffffffffffffffff168373ffffffffffffffffffffffffffffffffffffffff161415610805576040517f08c379a00000000000000000000000000000000000000000000000000000000081526004016107fc90613333565b60405180910390fd5b8073ffffffffffffffffffffffffffffffffffffffff16610824611859565b73ffffffffffffffffffffffffffffffffffffffff16148061085357506108528161084d611859565b611614565b5b610892576040517f08c379a000000000000000000000000000000000000000000000000000000000815260040161088990613353565b60405180910390fd5b61089c8383611861565b505050565b6108b26108ac611859565b8261191a565b6108f1576040517f08c379a00000000000000000000000000000000000000000000000000000000081526004016108e8906131b3565b60405180910390fd5b6108fc8383836119af565b505050565b60186020528060005260406000206000915090505481565b61093483838360405180602001604052806000815250610cc0565b505050565b60176020528060005260406000206000915090508060000160009054906101000a900473ffffffffffffffffffffffffffffffffffffffff16908060010160009054906101000a900473ffffffffffffffffffffffffffffffffffffffff1690806002016040518060800160405290816000820180546109b890613739565b80601f01602080910402602001604051908101604052809291908181526020018280546109e490613739565b8015610a315780601f10610a0657610100808354040283529160200191610a31565b820191906000526020600020905b815481529060010190602001808311610a1457829003601f168201915b505050505081526020016001820154815260200160028201548152602001600382015481525050908060060154908060070160009054906101000a900460ff16908060070160019054906101000a900460ff16908060070160029054906101000a900460ff16905087565b600080610aa883611ca9565b9050600073ffffffffffffffffffffffffffffffffffffffff168173ffffffffffffffffffffffffffffffffffffffff161415610b1a576040517f08c379a0000000000000000000000000000000000000000000000000000000008152600401610b1190613313565b60405180910390fd5b80915050919050565b60008073ffffffffffffffffffffffffffffffffffffffff168273ffffffffffffffffffffffffffffffffffffffff161415610b94576040517f08c379a0000000000000000000000000000000000000000000000000000000008152600401610b8b90613293565b60405180910390fd5b600560008373ffffffffffffffffffffffffffffffffffffffff1673ffffffffffffffffffffffffffffffffffffffff168152602001908152602001600020549050919050565b610be3611ce6565b610bed6000611d64565b565b60008060009054906101000a900473ffffffffffffffffffffffffffffffffffffffff16905090565b606060038054610c2790613739565b80601f0160208091040260200160405190810160405280929190818152602001828054610c5390613739565b8015610ca05780601f10610c7557610100808354040283529160200191610ca0565b820191906000526020600020905b815481529060010190602001808311610c8357829003601f168201915b5050505050905090565b610cbc610cb5611859565b8383611e28565b5050565b610cd1610ccb611859565b8361191a565b610d10576040517f08c379a0000000000000000000000000000000000000000000000000000000008152600401610d07906131b3565b60405180910390fd5b610d1c84848484611f95565b50505050565b6060610d2d8261180e565b6000610d37611ff1565b90506000815111610d575760405180602001604052806000815250610d82565b80610d6184612008565b604051602001610d72929190613055565b6040516020818303038152906040525b915050919050565b6000601254601860003373ffffffffffffffffffffffffffffffffffffffff1673ffffffffffffffffffffffffffffffffffffffff1681526020019081526020016000205410610e0f576040517f08c379a0000000000000000000000000000000000000000000000000000000008152600401610e0690613393565b60405180910390fd5b601682604051610e1f919061303e565b908152602001604051809103902060020154601683604051610e41919061303e565b90815260200160405180910390206003015410610e93576040517f08c379a0000000000000000000000000000000000000000000000000000000008152600401610e8a90613193565b60405180910390fd5b6064601154610ea2919061359f565b6001610eae9190613549565b601683604051610ebe919061303e565b908152602001604051809103902060010154610eda91906135d0565b341015610f1c576040517f08c379a0000000000000000000000000000000000000000000000000000000008152600401610f13906132d3565b60405180910390fd5b6001601683604051610f2e919061303e565b908152602001604051809103902060030154610f4a9190613549565b601683604051610f5a919061303e565b9081526020016040518091039020600301819055506001600b6000828254610f829190613549565b9250508190555060006040518060e00160405280600960009054906101000a900473ffffffffffffffffffffffffffffffffffffffff1673ffffffffffffffffffffffffffffffffffffffff1681526020013373ffffffffffffffffffffffffffffffffffffffff168152602001601685604051611000919061303e565b908152602001604051809103902060405180608001604052908160008201805461102990613739565b80601f016020809104026020016040519081016040528092919081815260200182805461105590613739565b80156110a25780601f10611077576101008083540402835291602001916110a2565b820191906000526020600020905b81548152906001019060200180831161108557829003601f168201915b50505050508152602001600182015481526020016002820154815260200160038201548152505081526020016016856040516110de919061303e565b90815260200160405180910390206001015481526020016000600381111561110957611108613843565b5b815260200160001515815260200160001515815250905061112a60086120e0565b600061113660086120f6565b90506111423382612104565b6001601860003373ffffffffffffffffffffffffffffffffffffffff1673ffffffffffffffffffffffffffffffffffffffff16815260200190815260200160002060008282546111929190613549565b92505081905550816017600083815260200190815260200160002060008201518160000160006101000a81548173ffffffffffffffffffffffffffffffffffffffff021916908373ffffffffffffffffffffffffffffffffffffffff16021790555060208201518160010160006101000a81548173ffffffffffffffffffffffffffffffffffffffff021916908373ffffffffffffffffffffffffffffffffffffffff160217905550604082015181600201600082015181600001908051906020019061126092919061279c565b5060208201518160010155604082015181600201556060820151816003015550506060820151816006015560808201518160070160006101000a81548160ff021916908360038111156112b6576112b5613843565b5b021790555060a08201518160070160016101000a81548160ff02191690831515021790555060c08201518160070160026101000a81548160ff0219169083151502179055509050506001600c60008282546113119190613549565b925050819055507f9ec02c5e083e56cec410042ba395689ccfa59f6658226bc10b2e26aac18f7236813360405161134992919061340e565b60405180910390a18092505050919050565b3373ffffffffffffffffffffffffffffffffffffffff16600960009054906101000a900473ffffffffffffffffffffffffffffffffffffffff1673ffffffffffffffffffffffffffffffffffffffff16146113eb576040517f08c379a00000000000000000000000000000000000000000000000000000000081526004016113e2906133b3565b60405180910390fd5b60005b600c5481101561144a5760036017600083815260200190815260200160002060070160006101000a81548160ff0219169083600381111561143257611431613843565b5b021790555080806114429061379c565b9150506113ee565b50565b60026017600083815260200190815260200160002060070160006101000a81548160ff0219169083600381111561148757611486613843565b5b021790555050565b6000601154905090565b803373ffffffffffffffffffffffffffffffffffffffff166017600083815260200190815260200160002060010160009054906101000a900473ffffffffffffffffffffffffffffffffffffffff1673ffffffffffffffffffffffffffffffffffffffff161461153e576040517f08c379a0000000000000000000000000000000000000000000000000000000008152600401611535906133d3565b60405180910390fd5b600015156017600084815260200190815260200160002060070160029054906101000a900460ff161515146115a8576040517f08c379a000000000000000000000000000000000000000000000000000000000815260040161159f90613373565b60405180910390fd5b60016017600084815260200190815260200160002060070160026101000a81548160ff0219169083151502179055507f088bcc30e88b58300f96dd11a5cfb0eb4fd1dd02e1417103f9dbc93c235b1f8c823360405161160892919061340e565b60405180910390a15050565b6000600760008473ffffffffffffffffffffffffffffffffffffffff1673ffffffffffffffffffffffffffffffffffffffff16815260200190815260200160002060008373ffffffffffffffffffffffffffffffffffffffff1673ffffffffffffffffffffffffffffffffffffffff16815260200190815260200160002060009054906101000a900460ff16905092915050565b6116b0611ce6565b600073ffffffffffffffffffffffffffffffffffffffff168173ffffffffffffffffffffffffffffffffffffffff161415611720576040517f08c379a0000000000000000000000000000000000000000000000000000000008152600401611717906131f3565b60405180910390fd5b61172981611d64565b50565b6000806000601684604051611741919061303e565b908152602001604051809103902060010154601685604051611763919061303e565b908152602001604051809103902060020154601686604051611785919061303e565b9081526020016040518091039020600301549250925092509193909250565b60007f01ffc9a7000000000000000000000000000000000000000000000000000000007bffffffffffffffffffffffffffffffffffffffffffffffffffffffff1916827bffffffffffffffffffffffffffffffffffffffffffffffffffffffff1916149050919050565b61181781612322565b611856576040517f08c379a000000000000000000000000000000000000000000000000000000000815260040161184d90613313565b60405180910390fd5b50565b600033905090565b816006600083815260200190815260200160002060006101000a81548173ffffffffffffffffffffffffffffffffffffffff021916908373ffffffffffffffffffffffffffffffffffffffff160217905550808273ffffffffffffffffffffffffffffffffffffffff166118d483610a9c565b73ffffffffffffffffffffffffffffffffffffffff167f8c5be1e5ebec7d5bd14f71427d1e84f3dd0314c0f7b2291e5b200ac8c7c3b92560405160405180910390a45050565b60008061192683610a9c565b90508073ffffffffffffffffffffffffffffffffffffffff168473ffffffffffffffffffffffffffffffffffffffff16148061196857506119678185611614565b5b806119a657508373ffffffffffffffffffffffffffffffffffffffff1661198e84610743565b73ffffffffffffffffffffffffffffffffffffffff16145b91505092915050565b8273ffffffffffffffffffffffffffffffffffffffff166119cf82610a9c565b73ffffffffffffffffffffffffffffffffffffffff1614611a25576040517f08c379a0000000000000000000000000000000000000000000000000000000008152600401611a1c90613213565b60405180910390fd5b600073ffffffffffffffffffffffffffffffffffffffff168273ffffffffffffffffffffffffffffffffffffffff161415611a95576040517f08c379a0000000000000000000000000000000000000000000000000000000008152600401611a8c90613253565b60405180910390fd5b611aa28383836001612363565b8273ffffffffffffffffffffffffffffffffffffffff16611ac282610a9c565b73ffffffffffffffffffffffffffffffffffffffff1614611b18576040517f08c379a0000000000000000000000000000000000000000000000000000000008152600401611b0f90613213565b60405180910390fd5b6006600082815260200190815260200160002060006101000a81549073ffffffffffffffffffffffffffffffffffffffff02191690556001600560008573ffffffffffffffffffffffffffffffffffffffff1673ffffffffffffffffffffffffffffffffffffffff168152602001908152602001600020600082825403925050819055506001600560008473ffffffffffffffffffffffffffffffffffffffff1673ffffffffffffffffffffffffffffffffffffffff16815260200190815260200160002060008282540192505081905550816004600083815260200190815260200160002060006101000a81548173ffffffffffffffffffffffffffffffffffffffff021916908373ffffffffffffffffffffffffffffffffffffffff160217905550808273ffffffffffffffffffffffffffffffffffffffff168473ffffffffffffffffffffffffffffffffffffffff167fddf252ad1be2c89b69c2b068fc378daa952ba7f163c4a11628f55a4df523b3ef60405160405180910390a4611ca48383836001612489565b505050565b60006004600083815260200190815260200160002060009054906101000a900473ffffffffffffffffffffffffffffffffffffffff169050919050565b611cee611859565b73ffffffffffffffffffffffffffffffffffffffff16611d0c610bef565b73ffffffffffffffffffffffffffffffffffffffff1614611d62576040517f08c379a0000000000000000000000000000000000000000000000000000000008152600401611d59906132f3565b60405180910390fd5b565b60008060009054906101000a900473ffffffffffffffffffffffffffffffffffffffff169050816000806101000a81548173ffffffffffffffffffffffffffffffffffffffff021916908373ffffffffffffffffffffffffffffffffffffffff1602179055508173ffffffffffffffffffffffffffffffffffffffff168173ffffffffffffffffffffffffffffffffffffffff167f8be0079c531659141344cd1fd0a4f28419497f9722a3daafe3b4186f6b6457e060405160405180910390a35050565b8173ffffffffffffffffffffffffffffffffffffffff168373ffffffffffffffffffffffffffffffffffffffff161415611e97576040517f08c379a0000000000000000000000000000000000000000000000000000000008152600401611e8e90613273565b60405180910390fd5b80600760008573ffffffffffffffffffffffffffffffffffffffff1673ffffffffffffffffffffffffffffffffffffffff16815260200190815260200160002060008473ffffffffffffffffffffffffffffffffffffffff1673ffffffffffffffffffffffffffffffffffffffff16815260200190815260200160002060006101000a81548160ff0219169083151502179055508173ffffffffffffffffffffffffffffffffffffffff168373ffffffffffffffffffffffffffffffffffffffff167f17307eab39ab6107e8899845ad3d59bd9653f200f220920489ca2b5937696c3183604051611f889190613156565b60405180910390a3505050565b611fa08484846119af565b611fac8484848461248f565b611feb576040517f08c379a0000000000000000000000000000000000000000000000000000000008152600401611fe2906131d3565b60405180910390fd5b50505050565b606060405180602001604052806000815250905090565b60606000600161201784612626565b01905060008167ffffffffffffffff811115612036576120356138a1565b5b6040519080825280601f01601f1916602001820160405280156120685781602001600182028036833780820191505090505b509050600082602001820190505b6001156120d5578080600190039150507f3031323334353637383961626364656600000000000000000000000000000000600a86061a8153600a85816120bf576120be613814565b5b04945060008514156120d0576120d5565b612076565b819350505050919050565b6001816000016000828254019250508190555050565b600081600001549050919050565b600073ffffffffffffffffffffffffffffffffffffffff168273ffffffffffffffffffffffffffffffffffffffff161415612174576040517f08c379a000000000000000000000000000000000000000000000000000000000815260040161216b906132b3565b60405180910390fd5b61217d81612322565b156121bd576040517f08c379a00000000000000000000000000000000000000000000000000000000081526004016121b490613233565b60405180910390fd5b6121cb600083836001612363565b6121d481612322565b15612214576040517f08c379a000000000000000000000000000000000000000000000000000000000815260040161220b90613233565b60405180910390fd5b6001600560008473ffffffffffffffffffffffffffffffffffffffff1673ffffffffffffffffffffffffffffffffffffffff16815260200190815260200160002060008282540192505081905550816004600083815260200190815260200160002060006101000a81548173ffffffffffffffffffffffffffffffffffffffff021916908373ffffffffffffffffffffffffffffffffffffffff160217905550808273ffffffffffffffffffffffffffffffffffffffff16600073ffffffffffffffffffffffffffffffffffffffff167fddf252ad1be2c89b69c2b068fc378daa952ba7f163c4a11628f55a4df523b3ef60405160405180910390a461231e600083836001612489565b5050565b60008073ffffffffffffffffffffffffffffffffffffffff1661234483611ca9565b73ffffffffffffffffffffffffffffffffffffffff1614159050919050565b600181111561248357600073ffffffffffffffffffffffffffffffffffffffff168473ffffffffffffffffffffffffffffffffffffffff16146123f75780600560008673ffffffffffffffffffffffffffffffffffffffff1673ffffffffffffffffffffffffffffffffffffffff16815260200190815260200160002060008282546123ef919061362a565b925050819055505b600073ffffffffffffffffffffffffffffffffffffffff168373ffffffffffffffffffffffffffffffffffffffff16146124825780600560008573ffffffffffffffffffffffffffffffffffffffff1673ffffffffffffffffffffffffffffffffffffffff168152602001908152602001600020600082825461247a9190613549565b925050819055505b5b50505050565b50505050565b60006124b08473ffffffffffffffffffffffffffffffffffffffff16612779565b15612619578373ffffffffffffffffffffffffffffffffffffffff1663150b7a026124d9611859565b8786866040518563ffffffff1660e01b81526004016124fb949392919061310a565b602060405180830381600087803b15801561251557600080fd5b505af192505050801561254657506040513d601f19601f820116820180604052508101906125439190612b78565b60015b6125c9573d8060008114612576576040519150601f19603f3d011682016040523d82523d6000602084013e61257b565b606091505b506000815114156125c1576040517f08c379a00000000000000000000000000000000000000000000000000000000081526004016125b8906131d3565b60405180910390fd5b805181602001fd5b63150b7a0260e01b7bffffffffffffffffffffffffffffffffffffffffffffffffffffffff1916817bffffffffffffffffffffffffffffffffffffffffffffffffffffffff19161491505061261e565b600190505b949350505050565b600080600090507a184f03e93ff9f4daa797ed6e38ed64bf6a1f0100000000000000008310612684577a184f03e93ff9f4daa797ed6e38ed64bf6a1f010000000000000000838161267a57612679613814565b5b0492506040810190505b6d04ee2d6d415b85acef810000000083106126c1576d04ee2d6d415b85acef810000000083816126b7576126b6613814565b5b0492506020810190505b662386f26fc1000083106126f057662386f26fc1000083816126e6576126e5613814565b5b0492506010810190505b6305f5e1008310612719576305f5e100838161270f5761270e613814565b5b0492506008810190505b612710831061273e57612710838161273457612733613814565b5b0492506004810190505b60648310612761576064838161275757612756613814565b5b0492506002810190505b600a8310612770576001810190505b80915050919050565b6000808273ffffffffffffffffffffffffffffffffffffffff163b119050919050565b8280546127a890613739565b90600052602060002090601f0160209004810192826127ca5760008555612811565b82601f106127e357805160ff1916838001178555612811565b82800160010185558215612811579182015b828111156128105782518255916020019190600101906127f5565b5b50905061281e9190612822565b5090565b5b8082111561283b576000816000905550600101612823565b5090565b600061285261284d84613493565b61346e565b90508281526020810184848401111561286e5761286d6138d5565b5b6128798482856136f7565b509392505050565b600061289461288f846134c4565b61346e565b9050828152602081018484840111156128b0576128af6138d5565b5b6128bb8482856136f7565b509392505050565b6000813590506128d281613d44565b92915050565b6000813590506128e781613d5b565b92915050565b6000813590506128fc81613d72565b92915050565b60008151905061291181613d72565b92915050565b600082601f83011261292c5761292b6138d0565b5b813561293c84826020860161283f565b91505092915050565b600082601f83011261295a576129596138d0565b5b813561296a848260208601612881565b91505092915050565b60008135905061298281613d89565b92915050565b60006020828403121561299e5761299d6138df565b5b60006129ac848285016128c3565b91505092915050565b600080604083850312156129cc576129cb6138df565b5b60006129da858286016128c3565b92505060206129eb858286016128c3565b9150509250929050565b600080600060608486031215612a0e57612a0d6138df565b5b6000612a1c868287016128c3565b9350506020612a2d868287016128c3565b9250506040612a3e86828701612973565b9150509250925092565b60008060008060808587031215612a6257612a616138df565b5b6000612a70878288016128c3565b9450506020612a81878288016128c3565b9350506040612a9287828801612973565b925050606085013567ffffffffffffffff811115612ab357612ab26138da565b5b612abf87828801612917565b91505092959194509250565b60008060408385031215612ae257612ae16138df565b5b6000612af0858286016128c3565b9250506020612b01858286016128d8565b9150509250929050565b60008060408385031215612b2257612b216138df565b5b6000612b30858286016128c3565b9250506020612b4185828601612973565b9150509250929050565b600060208284031215612b6157612b606138df565b5b6000612b6f848285016128ed565b91505092915050565b600060208284031215612b8e57612b8d6138df565b5b6000612b9c84828501612902565b91505092915050565b600060208284031215612bbb57612bba6138df565b5b600082013567ffffffffffffffff811115612bd957612bd86138da565b5b612be584828501612945565b91505092915050565b600060208284031215612c0457612c036138df565b5b6000612c1284828501612973565b91505092915050565b612c248161365e565b82525050565b612c3381613670565b82525050565b6000612c44826134f5565b612c4e818561350b565b9350612c5e818560208601613706565b612c67816138e4565b840191505092915050565b612c7b816136e5565b82525050565b6000612c8c82613500565b612c96818561351c565b9350612ca6818560208601613706565b612caf816138e4565b840191505092915050565b6000612cc582613500565b612ccf818561352d565b9350612cdf818560208601613706565b612ce8816138e4565b840191505092915050565b6000612cfe82613500565b612d08818561353e565b9350612d18818560208601613706565b80840191505092915050565b6000612d3160198361352d565b9150612d3c826138f5565b602082019050919050565b6000612d54602d8361352d565b9150612d5f8261391e565b604082019050919050565b6000612d7760328361352d565b9150612d828261396d565b604082019050919050565b6000612d9a60268361352d565b9150612da5826139bc565b604082019050919050565b6000612dbd60258361352d565b9150612dc882613a0b565b604082019050919050565b6000612de0601c8361352d565b9150612deb82613a5a565b602082019050919050565b6000612e0360248361352d565b9150612e0e82613a83565b604082019050919050565b6000612e2660198361352d565b9150612e3182613ad2565b602082019050919050565b6000612e4960298361352d565b9150612e5482613afb565b604082019050919050565b6000612e6c60208361352d565b9150612e7782613b4a565b602082019050919050565b6000612e8f600e8361352d565b9150612e9a82613b73565b602082019050919050565b6000612eb260208361352d565b9150612ebd82613b9c565b602082019050919050565b6000612ed560188361352d565b9150612ee082613bc5565b602082019050919050565b6000612ef860218361352d565b9150612f0382613bee565b604082019050919050565b6000612f1b603d8361352d565b9150612f2682613c3d565b604082019050919050565b6000612f3e601a8361352d565b9150612f4982613c8c565b602082019050919050565b6000612f6160148361352d565b9150612f6c82613cb5565b602082019050919050565b6000612f84601d8361352d565b9150612f8f82613cde565b602082019050919050565b6000612fa7600e8361352d565b9150612fb282613d07565b602082019050919050565b60006080830160008301518482036000860152612fda8282612c81565b9150506020830151612fef6020860182613020565b5060408301516130026040860182613020565b5060608301516130156060860182613020565b508091505092915050565b613029816136db565b82525050565b613038816136db565b82525050565b600061304a8284612cf3565b915081905092915050565b60006130618285612cf3565b915061306d8284612cf3565b91508190509392505050565b600060208201905061308e6000830184612c1b565b92915050565b600060e0820190506130a9600083018a612c1b565b6130b66020830189612c1b565b81810360408301526130c88188612fbd565b90506130d7606083018761302f565b6130e46080830186612c72565b6130f160a0830185612c2a565b6130fe60c0830184612c2a565b98975050505050505050565b600060808201905061311f6000830187612c1b565b61312c6020830186612c1b565b613139604083018561302f565b818103606083015261314b8184612c39565b905095945050505050565b600060208201905061316b6000830184612c2a565b92915050565b6000602082019050818103600083015261318b8184612cba565b905092915050565b600060208201905081810360008301526131ac81612d24565b9050919050565b600060208201905081810360008301526131cc81612d47565b9050919050565b600060208201905081810360008301526131ec81612d6a565b9050919050565b6000602082019050818103600083015261320c81612d8d565b9050919050565b6000602082019050818103600083015261322c81612db0565b9050919050565b6000602082019050818103600083015261324c81612dd3565b9050919050565b6000602082019050818103600083015261326c81612df6565b9050919050565b6000602082019050818103600083015261328c81612e19565b9050919050565b600060208201905081810360008301526132ac81612e3c565b9050919050565b600060208201905081810360008301526132cc81612e5f565b9050919050565b600060208201905081810360008301526132ec81612e82565b9050919050565b6000602082019050818103600083015261330c81612ea5565b9050919050565b6000602082019050818103600083015261332c81612ec8565b9050919050565b6000602082019050818103600083015261334c81612eeb565b9050919050565b6000602082019050818103600083015261336c81612f0e565b9050919050565b6000602082019050818103600083015261338c81612f31565b9050919050565b600060208201905081810360008301526133ac81612f54565b9050919050565b600060208201905081810360008301526133cc81612f77565b9050919050565b600060208201905081810360008301526133ec81612f9a565b9050919050565b6000602082019050613408600083018461302f565b92915050565b6000604082019050613423600083018561302f565b6134306020830184612c1b565b9392505050565b600060608201905061344c600083018661302f565b613459602083018561302f565b613466604083018461302f565b949350505050565b6000613478613489565b9050613484828261376b565b919050565b6000604051905090565b600067ffffffffffffffff8211156134ae576134ad6138a1565b5b6134b7826138e4565b9050602081019050919050565b600067ffffffffffffffff8211156134df576134de6138a1565b5b6134e8826138e4565b9050602081019050919050565b600081519050919050565b600081519050919050565b600082825260208201905092915050565b600082825260208201905092915050565b600082825260208201905092915050565b600081905092915050565b6000613554826136db565b915061355f836136db565b9250827fffffffffffffffffffffffffffffffffffffffffffffffffffffffffffffffff03821115613594576135936137e5565b5b828201905092915050565b60006135aa826136db565b91506135b5836136db565b9250826135c5576135c4613814565b5b828204905092915050565b60006135db826136db565b91506135e6836136db565b9250817fffffffffffffffffffffffffffffffffffffffffffffffffffffffffffffffff048311821515161561361f5761361e6137e5565b5b828202905092915050565b6000613635826136db565b9150613640836136db565b925082821015613653576136526137e5565b5b828203905092915050565b6000613669826136bb565b9050919050565b60008115159050919050565b60007fffffffff0000000000000000000000000000000000000000000000000000000082169050919050565b60008190506136b682613d30565b919050565b600073ffffffffffffffffffffffffffffffffffffffff82169050919050565b6000819050919050565b60006136f0826136a8565b9050919050565b82818337600083830152505050565b60005b83811015613724578082015181840152602081019050613709565b83811115613733576000848401525b50505050565b6000600282049050600182168061375157607f821691505b6020821081141561376557613764613872565b5b50919050565b613774826138e4565b810181811067ffffffffffffffff82111715613793576137926138a1565b5b80604052505050565b60006137a7826136db565b91507fffffffffffffffffffffffffffffffffffffffffffffffffffffffffffffffff8214156137da576137d96137e5565b5b600182019050919050565b7f4e487b7100000000000000000000000000000000000000000000000000000000600052601160045260246000fd5b7f4e487b7100000000000000000000000000000000000000000000000000000000600052601260045260246000fd5b7f4e487b7100000000000000000000000000000000000000000000000000000000600052602160045260246000fd5b7f4e487b7100000000000000000000000000000000000000000000000000000000600052602260045260246000fd5b7f4e487b7100000000000000000000000000000000000000000000000000000000600052604160045260246000fd5b600080fd5b600080fd5b600080fd5b600080fd5b6000601f19601f8301169050919050565b7f45786365656465642043617465676f7279206d696e74696e6700000000000000600082015250565b7f4552433732313a2063616c6c6572206973206e6f7420746f6b656e206f776e6560008201527f72206f7220617070726f76656400000000000000000000000000000000000000602082015250565b7f4552433732313a207472616e7366657220746f206e6f6e20455243373231526560008201527f63656976657220696d706c656d656e7465720000000000000000000000000000602082015250565b7f4f776e61626c653a206e6577206f776e657220697320746865207a65726f206160008201527f6464726573730000000000000000000000000000000000000000000000000000602082015250565b7f4552433732313a207472616e736665722066726f6d20696e636f72726563742060008201527f6f776e6572000000000000000000000000000000000000000000000000000000602082015250565b7f4552433732313a20746f6b656e20616c7265616479206d696e74656400000000600082015250565b7f4552433732313a207472616e7366657220746f20746865207a65726f2061646460008201527f7265737300000000000000000000000000000000000000000000000000000000602082015250565b7f4552433732313a20617070726f766520746f2063616c6c657200000000000000600082015250565b7f4552433732313a2061646472657373207a65726f206973206e6f74206120766160008201527f6c6964206f776e65720000000000000000000000000000000000000000000000602082015250565b7f4552433732313a206d696e7420746f20746865207a65726f2061646472657373600082015250565b7f4e6f7420656e6f75676820455448000000000000000000000000000000000000600082015250565b7f4f776e61626c653a2063616c6c6572206973206e6f7420746865206f776e6572600082015250565b7f4552433732313a20696e76616c696420746f6b656e2049440000000000000000600082015250565b7f4552433732313a20617070726f76616c20746f2063757272656e74206f776e6560008201527f7200000000000000000000000000000000000000000000000000000000000000602082015250565b7f4552433732313a20617070726f76652063616c6c6572206973206e6f7420746f60008201527f6b656e206f776e6572206f7220617070726f76656420666f7220616c6c000000602082015250565b7f5469636b657420616c726561647920636865636b656420696e20000000000000600082015250565b7f4578636565646564204d6178204d696e74696e67000000000000000000000000600082015250565b7f4e6f7420617574686f72697a656420746f2061646a7573742073616c65000000600082015250565b7f4e6f7420617574686f72697a6564000000000000000000000000000000000000600082015250565b60048110613d4157613d40613843565b5b50565b613d4d8161365e565b8114613d5857600080fd5b50565b613d6481613670565b8114613d6f57600080fd5b50565b613d7b8161367c565b8114613d8657600080fd5b50565b613d92816136db565b8114613d9d57600080fd5b5056fea2646970667358221220cf7d6e92b486ffc08863122dfe0e761a468a4e205311d553a6f7c4d19c156ed264736f6c63430008070033",
  "linkReferences": {},
  "deployedLinkReferences": {}
}