{
  "_format": "hh-sol-artifact-1",
  "contractName": "Collection",
  "sourceName": "contracts/Collection.sol",
  "abi": [
    {
      "inputs": [
        {
          "internalType": "string[]",
          "name": "_categories",
          "type": "string[]"
        },
        {
          "internalType": "uint256[]",
          "name": "_categoryPrices",
          "type": "uint256[]"
        },
        {
          "internalType": "uint256[]",
          "name": "_categoryLimits",
          "type": "uint256[]"
        },
        {
          "internalType": "string",
          "name": "_collectionName",
          "type": "string"
        },
        {
          "internalType": "string",
          "name": "_description",
          "type": "string"
        },
        {
          "internalType": "uint256",
          "name": "_commission",
          "type": "uint256"
        },
        {
          "internalType": "string",
          "name": "_collectionSymbol",
          "type": "string"
        }
      ],
      "stateMutability": "payable",
      "type": "constructor"
    },
    {
      "anonymous": false,
      "inputs": [
        {
          "indexed": true,
          "internalType": "address",
          "name": "owner",
          "type": "address"
        },
        {
          "indexed": true,
          "internalType": "address",
          "name": "approved",
          "type": "address"
        },
        {
          "indexed": true,
          "internalType": "uint256",
          "name": "tokenId",
          "type": "uint256"
        }
      ],
      "name": "Approval",
      "type": "event"
    },
    {
      "anonymous": false,
      "inputs": [
        {
          "indexed": true,
          "internalType": "address",
          "name": "owner",
          "type": "address"
        },
        {
          "indexed": true,
          "internalType": "address",
          "name": "operator",
          "type": "address"
        },
        {
          "indexed": false,
          "internalType": "bool",
          "name": "approved",
          "type": "bool"
        }
      ],
      "name": "ApprovalForAll",
      "type": "event"
    },
    {
      "anonymous": false,
      "inputs": [
        {
          "indexed": true,
          "internalType": "address",
          "name": "previousOwner",
          "type": "address"
        },
        {
          "indexed": true,
          "internalType": "address",
          "name": "newOwner",
          "type": "address"
        }
      ],
      "name": "OwnershipTransferred",
      "type": "event"
    },
    {
      "anonymous": false,
      "inputs": [
        {
          "indexed": true,
          "internalType": "address",
          "name": "from",
          "type": "address"
        },
        {
          "indexed": true,
          "internalType": "address",
          "name": "to",
          "type": "address"
        },
        {
          "indexed": true,
          "internalType": "uint256",
          "name": "tokenId",
          "type": "uint256"
        }
      ],
      "name": "Transfer",
      "type": "event"
    },
    {
      "anonymous": false,
      "inputs": [
        {
          "indexed": false,
          "internalType": "uint256",
          "name": "tokenId",
          "type": "uint256"
        },
        {
          "indexed": false,
          "internalType": "address",
          "name": "recipient",
          "type": "address"
        }
      ],
      "name": "merchMinted",
      "type": "event"
    },
    {
      "anonymous": false,
      "inputs": [
        {
          "indexed": false,
          "internalType": "address",
          "name": "user",
          "type": "address"
        }
      ],
      "name": "userMints",
      "type": "event"
    },
    {
      "inputs": [
        {
          "internalType": "address",
          "name": "to",
          "type": "address"
        },
        {
          "internalType": "uint256",
          "name": "tokenId",
          "type": "uint256"
        }
      ],
      "name": "approve",
      "outputs": [],
      "stateMutability": "nonpayable",
      "type": "function"
    },
    {
      "inputs": [
        {
          "internalType": "address",
          "name": "owner",
          "type": "address"
        }
      ],
      "name": "balanceOf",
      "outputs": [
        {
          "internalType": "uint256",
          "name": "",
          "type": "uint256"
        }
      ],
      "stateMutability": "view",
      "type": "function"
    },
    {
      "inputs": [
        {
          "internalType": "string[]",
          "name": "new_categories",
          "type": "string[]"
        },
        {
          "internalType": "uint256[]",
          "name": "new_categoryPrices",
          "type": "uint256[]"
        },
        {
          "internalType": "uint256[]",
          "name": "new_categoryLimits",
          "type": "uint256[]"
        }
      ],
      "name": "changeCategories",
      "outputs": [],
      "stateMutability": "nonpayable",
      "type": "function"
    },
    {
      "inputs": [
        {
          "internalType": "uint256",
          "name": "tokenId",
          "type": "uint256"
        }
      ],
      "name": "getApproved",
      "outputs": [
        {
          "internalType": "address",
          "name": "",
          "type": "address"
        }
      ],
      "stateMutability": "view",
      "type": "function"
    },
    {
      "inputs": [],
      "name": "getCommission",
      "outputs": [
        {
          "internalType": "uint256",
          "name": "",
          "type": "uint256"
        }
      ],
      "stateMutability": "view",
      "type": "function"
    },
    {
      "inputs": [
        {
          "internalType": "uint256",
          "name": "tokenId",
          "type": "uint256"
        }
      ],
      "name": "getMerchDetails",
      "outputs": [
        {
          "components": [
            {
              "internalType": "address",
              "name": "collectionOwner",
              "type": "address"
            },
            {
              "internalType": "address",
              "name": "merchOwner",
              "type": "address"
            },
            {
              "components": [
                {
                  "internalType": "string",
                  "name": "merchType",
                  "type": "string"
                },
                {
                  "internalType": "uint256",
                  "name": "price",
                  "type": "uint256"
                },
                {
                  "internalType": "uint256",
                  "name": "maxMerchSupply",
                  "type": "uint256"
                },
                {
                  "internalType": "uint256",
                  "name": "currentMerchSupply",
                  "type": "uint256"
                }
              ],
              "internalType": "struct Collection.MerchType",
              "name": "merchType",
              "type": "tuple"
            },
            {
              "internalType": "uint256",
              "name": "currentPrice",
              "type": "uint256"
            },
            {
              "internalType": "enum Collection.collectionStatus",
              "name": "_collectionStatus",
              "type": "uint8"
            }
          ],
          "internalType": "struct Collection.Merchandise",
          "name": "merchandise",
          "type": "tuple"
        }
      ],
      "stateMutability": "view",
      "type": "function"
    },
    {
      "inputs": [
        {
          "internalType": "string",
          "name": "category",
          "type": "string"
        }
      ],
      "name": "getMerchinformation",
      "outputs": [
        {
          "internalType": "uint256",
          "name": "_price",
          "type": "uint256"
        },
        {
          "internalType": "uint256",
          "name": "_maxNumber",
          "type": "uint256"
        },
        {
          "internalType": "uint256",
          "name": "_currentSupply",
          "type": "uint256"
        }
      ],
      "stateMutability": "view",
      "type": "function"
    },
    {
      "inputs": [
        {
          "internalType": "address",
          "name": "owner",
          "type": "address"
        },
        {
          "internalType": "address",
          "name": "operator",
          "type": "address"
        }
      ],
      "name": "isApprovedForAll",
      "outputs": [
        {
          "internalType": "bool",
          "name": "",
          "type": "bool"
        }
      ],
      "stateMutability": "view",
      "type": "function"
    },
    {
      "inputs": [
        {
          "internalType": "uint256",
          "name": "",
          "type": "uint256"
        }
      ],
      "name": "merchIDs",
      "outputs": [
        {
          "internalType": "address",
          "name": "collectionOwner",
          "type": "address"
        },
        {
          "internalType": "address",
          "name": "merchOwner",
          "type": "address"
        },
        {
          "components": [
            {
              "internalType": "string",
              "name": "merchType",
              "type": "string"
            },
            {
              "internalType": "uint256",
              "name": "price",
              "type": "uint256"
            },
            {
              "internalType": "uint256",
              "name": "maxMerchSupply",
              "type": "uint256"
            },
            {
              "internalType": "uint256",
              "name": "currentMerchSupply",
              "type": "uint256"
            }
          ],
          "internalType": "struct Collection.MerchType",
          "name": "merchType",
          "type": "tuple"
        },
        {
          "internalType": "uint256",
          "name": "currentPrice",
          "type": "uint256"
        },
        {
          "internalType": "enum Collection.collectionStatus",
          "name": "_collectionStatus",
          "type": "uint8"
        }
      ],
      "stateMutability": "view",
      "type": "function"
    },
    {
      "inputs": [
        {
          "internalType": "address",
          "name": "",
          "type": "address"
        }
      ],
      "name": "merchPerOwner",
      "outputs": [
        {
          "internalType": "uint256",
          "name": "",
          "type": "uint256"
        }
      ],
      "stateMutability": "view",
      "type": "function"
    },
    {
      "inputs": [
        {
          "internalType": "address",
          "name": "_to",
          "type": "address"
        },
        {
          "internalType": "string",
          "name": "merchCategory",
          "type": "string"
        },
        {
          "internalType": "string",
          "name": "tokenURI",
          "type": "string"
        }
      ],
      "name": "mint",
      "outputs": [
        {
          "internalType": "uint256",
          "name": "",
          "type": "uint256"
        }
      ],
      "stateMutability": "payable",
      "type": "function"
    },
    {
      "inputs": [],
      "name": "name",
      "outputs": [
        {
          "internalType": "string",
          "name": "",
          "type": "string"
        }
      ],
      "stateMutability": "view",
      "type": "function"
    },
    {
      "inputs": [],
      "name": "owner",
      "outputs": [
        {
          "internalType": "address",
          "name": "",
          "type": "address"
        }
      ],
      "stateMutability": "view",
      "type": "function"
    },
    {
      "inputs": [
        {
          "internalType": "uint256",
          "name": "tokenId",
          "type": "uint256"
        }
      ],
      "name": "ownerOf",
      "outputs": [
        {
          "internalType": "address",
          "name": "",
          "type": "address"
        }
      ],
      "stateMutability": "view",
      "type": "function"
    },
    {
      "inputs": [],
      "name": "renounceOwnership",
      "outputs": [],
      "stateMutability": "nonpayable",
      "type": "function"
    },
    {
      "inputs": [
        {
          "internalType": "address",
          "name": "from",
          "type": "address"
        },
        {
          "internalType": "address",
          "name": "to",
          "type": "address"
        },
        {
          "internalType": "uint256",
          "name": "tokenId",
          "type": "uint256"
        }
      ],
      "name": "safeTransferFrom",
      "outputs": [],
      "stateMutability": "nonpayable",
      "type": "function"
    },
    {
      "inputs": [
        {
          "internalType": "address",
          "name": "from",
          "type": "address"
        },
        {
          "internalType": "address",
          "name": "to",
          "type": "address"
        },
        {
          "internalType": "uint256",
          "name": "tokenId",
          "type": "uint256"
        },
        {
          "internalType": "bytes",
          "name": "data",
          "type": "bytes"
        }
      ],
      "name": "safeTransferFrom",
      "outputs": [],
      "stateMutability": "nonpayable",
      "type": "function"
    },
    {
      "inputs": [
        {
          "internalType": "address",
          "name": "operator",
          "type": "address"
        },
        {
          "internalType": "bool",
          "name": "approved",
          "type": "bool"
        }
      ],
      "name": "setApprovalForAll",
      "outputs": [],
      "stateMutability": "nonpayable",
      "type": "function"
    },
    {
      "inputs": [
        {
          "internalType": "uint256",
          "name": "tokenId",
          "type": "uint256"
        },
        {
          "internalType": "string",
          "name": "tokenURI",
          "type": "string"
        }
      ],
      "name": "setNewTokenURI",
      "outputs": [],
      "stateMutability": "nonpayable",
      "type": "function"
    },
    {
      "inputs": [
        {
          "internalType": "bytes4",
          "name": "interfaceId",
          "type": "bytes4"
        }
      ],
      "name": "supportsInterface",
      "outputs": [
        {
          "internalType": "bool",
          "name": "",
          "type": "bool"
        }
      ],
      "stateMutability": "view",
      "type": "function"
    },
    {
      "inputs": [],
      "name": "symbol",
      "outputs": [
        {
          "internalType": "string",
          "name": "",
          "type": "string"
        }
      ],
      "stateMutability": "view",
      "type": "function"
    },
    {
      "inputs": [
        {
          "internalType": "uint256",
          "name": "tokenId",
          "type": "uint256"
        }
      ],
      "name": "tokenURI",
      "outputs": [
        {
          "internalType": "string",
          "name": "",
          "type": "string"
        }
      ],
      "stateMutability": "view",
      "type": "function"
    },
    {
      "inputs": [
        {
          "internalType": "address",
          "name": "from",
          "type": "address"
        },
        {
          "internalType": "address",
          "name": "to",
          "type": "address"
        },
        {
          "internalType": "uint256",
          "name": "tokenId",
          "type": "uint256"
        }
      ],
      "name": "transferFrom",
      "outputs": [],
      "stateMutability": "nonpayable",
      "type": "function"
    },
    {
      "inputs": [
        {
          "internalType": "address",
          "name": "newOwner",
          "type": "address"
        }
      ],
      "name": "transferOwnership",
      "outputs": [],
      "stateMutability": "nonpayable",
      "type": "function"
    }
  ],
  "bytecode": "0x608060405233600a60006101000a81548173ffffffffffffffffffffffffffffffffffffffff021916908373ffffffffffffffffffffffffffffffffffffffff160217905550600160105566470de4df82000060115573dd870fa1b7c4700f2bd7f44238821c26f7392148601260006101000a81548173ffffffffffffffffffffffffffffffffffffffff021916908373ffffffffffffffffffffffffffffffffffffffff16021790555060405162005696380380620056968339818101604052810190620000cf919062000ac8565b8381620000f1620000e56200047b60201b60201c565b6200048360201b60201c565b6001808190555081600290805190602001906200011092919062000547565b5080600390805190602001906200012992919062000547565b505050866017908051906020019062000144929190620005d8565b5085601890805190602001906200015d9291906200063f565b508460199080519060200190620001769291906200063f565b5083600d90805190602001906200018f92919062000547565b5082600f9080519060200190620001a892919062000547565b508060139080519060200190620001c192919062000547565b5081600e819055506018805490506017805490501462000218576040517f08c379a00000000000000000000000000000000000000000000000000000000081526004016200020f9062000c96565b60405180910390fd5b6019805490506017805490501462000267576040517f08c379a00000000000000000000000000000000000000000000000000000000081526004016200025e9062000c96565b60405180910390fd5b6000600c8190555060005b6017805490508110156200046d576000604051806080016040528060178481548110620002a457620002a362000cb8565b5b906000526020600020018054620002bb9062000d16565b80601f0160208091040260200160405190810160405280929190818152602001828054620002e99062000d16565b80156200033a5780601f106200030e576101008083540402835291602001916200033a565b820191906000526020600020905b8154815290600101906020018083116200031c57829003601f168201915b50505050508152602001601884815481106200035b576200035a62000cb8565b5b906000526020600020015481526020016019848154811062000382576200038162000cb8565b5b906000526020600020015481526020016000815250905080601460178481548110620003b357620003b262000cb8565b5b90600052602060002001604051620003cc919062000df7565b90815260200160405180910390206000820151816000019080519060200190620003f892919062000547565b506020820151816001015560408201518160020155606082015181600301559050506019828154811062000431576200043062000cb8565b5b9060005260206000200154600c60008282546200044f919062000e3f565b92505081905550508080620004649062000e9c565b91505062000272565b505050505050505062000eea565b600033905090565b60008060009054906101000a900473ffffffffffffffffffffffffffffffffffffffff169050816000806101000a81548173ffffffffffffffffffffffffffffffffffffffff021916908373ffffffffffffffffffffffffffffffffffffffff1602179055508173ffffffffffffffffffffffffffffffffffffffff168173ffffffffffffffffffffffffffffffffffffffff167f8be0079c531659141344cd1fd0a4f28419497f9722a3daafe3b4186f6b6457e060405160405180910390a35050565b828054620005559062000d16565b90600052602060002090601f016020900481019282620005795760008555620005c5565b82601f106200059457805160ff1916838001178555620005c5565b82800160010185558215620005c5579182015b82811115620005c4578251825591602001919060010190620005a7565b5b509050620005d4919062000691565b5090565b8280548282559060005260206000209081019282156200062c579160200282015b828111156200062b5782518290805190602001906200061a92919062000547565b5091602001919060010190620005f9565b5b5090506200063b9190620006b0565b5090565b8280548282559060005260206000209081019282156200067e579160200282015b828111156200067d57825182559160200191906001019062000660565b5b5090506200068d919062000691565b5090565b5b80821115620006ac57600081600090555060010162000692565b5090565b5b80821115620006d45760008181620006ca9190620006d8565b50600101620006b1565b5090565b508054620006e69062000d16565b6000825580601f10620006fa57506200071b565b601f0160209004906000526020600020908101906200071a919062000691565b5b50565b6000604051905090565b600080fd5b600080fd5b600080fd5b6000601f19601f8301169050919050565b7f4e487b7100000000000000000000000000000000000000000000000000000000600052604160045260246000fd5b620007828262000737565b810181811067ffffffffffffffff82111715620007a457620007a362000748565b5b80604052505050565b6000620007b96200071e565b9050620007c7828262000777565b919050565b600067ffffffffffffffff821115620007ea57620007e962000748565b5b602082029050602081019050919050565b600080fd5b600080fd5b600067ffffffffffffffff82111562000823576200082262000748565b5b6200082e8262000737565b9050602081019050919050565b60005b838110156200085b5780820151818401526020810190506200083e565b838111156200086b576000848401525b50505050565b600062000888620008828462000805565b620007ad565b905082815260208101848484011115620008a757620008a662000800565b5b620008b48482856200083b565b509392505050565b600082601f830112620008d457620008d362000732565b5b8151620008e684826020860162000871565b91505092915050565b6000620009066200090084620007cc565b620007ad565b905080838252602082019050602084028301858111156200092c576200092b620007fb565b5b835b818110156200097a57805167ffffffffffffffff81111562000955576200095462000732565b5b808601620009648982620008bc565b855260208501945050506020810190506200092e565b5050509392505050565b600082601f8301126200099c576200099b62000732565b5b8151620009ae848260208601620008ef565b91505092915050565b600067ffffffffffffffff821115620009d557620009d462000748565b5b602082029050602081019050919050565b6000819050919050565b620009fb81620009e6565b811462000a0757600080fd5b50565b60008151905062000a1b81620009f0565b92915050565b600062000a3862000a3284620009b7565b620007ad565b9050808382526020820190506020840283018581111562000a5e5762000a5d620007fb565b5b835b8181101562000a8b578062000a76888262000a0a565b84526020840193505060208101905062000a60565b5050509392505050565b600082601f83011262000aad5762000aac62000732565b5b815162000abf84826020860162000a21565b91505092915050565b600080600080600080600060e0888a03121562000aea5762000ae962000728565b5b600088015167ffffffffffffffff81111562000b0b5762000b0a6200072d565b5b62000b198a828b0162000984565b975050602088015167ffffffffffffffff81111562000b3d5762000b3c6200072d565b5b62000b4b8a828b0162000a95565b965050604088015167ffffffffffffffff81111562000b6f5762000b6e6200072d565b5b62000b7d8a828b0162000a95565b955050606088015167ffffffffffffffff81111562000ba15762000ba06200072d565b5b62000baf8a828b01620008bc565b945050608088015167ffffffffffffffff81111562000bd35762000bd26200072d565b5b62000be18a828b01620008bc565b93505060a062000bf48a828b0162000a0a565b92505060c088015167ffffffffffffffff81111562000c185762000c176200072d565b5b62000c268a828b01620008bc565b91505092959891949750929550565b600082825260208201905092915050565b7f506c65617365206b657920696e20616761696e00000000000000000000000000600082015250565b600062000c7e60138362000c35565b915062000c8b8262000c46565b602082019050919050565b6000602082019050818103600083015262000cb18162000c6f565b9050919050565b7f4e487b7100000000000000000000000000000000000000000000000000000000600052603260045260246000fd5b7f4e487b7100000000000000000000000000000000000000000000000000000000600052602260045260246000fd5b6000600282049050600182168062000d2f57607f821691505b6020821081141562000d465762000d4562000ce7565b5b50919050565b600081905092915050565b60008190508160005260206000209050919050565b6000815462000d7b8162000d16565b62000d87818662000d4c565b9450600182166000811462000da5576001811462000db75762000dee565b60ff1983168652818601935062000dee565b62000dc28562000d57565b60005b8381101562000de65781548189015260018201915060208101905062000dc5565b838801955050505b50505092915050565b600062000e05828462000d6c565b915081905092915050565b7f4e487b7100000000000000000000000000000000000000000000000000000000600052601160045260246000fd5b600062000e4c82620009e6565b915062000e5983620009e6565b9250827fffffffffffffffffffffffffffffffffffffffffffffffffffffffffffffffff0382111562000e915762000e9062000e10565b5b828201905092915050565b600062000ea982620009e6565b91507fffffffffffffffffffffffffffffffffffffffffffffffffffffffffffffffff82141562000edf5762000ede62000e10565b5b600182019050919050565b61479c8062000efa6000396000f3fe60806040526004361061014b5760003560e01c80636352211e116100b6578063a22cb4651161006f578063a22cb465146104d3578063b88d4fde146104fc578063c87b56dd14610525578063e65d6b4914610562578063e985e9c51461058d578063f2fde38b146105ca5761014b565b80636352211e146103bc57806370a08231146103f9578063715018a6146104365780638da5cb5b1461044d57806395d89b411461047857806399071190146104a35761014b565b80632ce8d6fe116101085780632ce8d6fe146102885780633c73dae1146102b157806342842e0e146102da57806345527e3314610303578063581dc13914610342578063606b35c91461037f5761014b565b806301ffc9a71461015057806306fdde031461018d578063081812fc146101b8578063095ea7b3146101f557806323b872dd1461021e5780632622911914610247575b600080fd5b34801561015c57600080fd5b5061017760048036038101906101729190612d3d565b6105f3565b6040516101849190612d85565b60405180910390f35b34801561019957600080fd5b506101a26106d5565b6040516101af9190612e39565b60405180910390f35b3480156101c457600080fd5b506101df60048036038101906101da9190612e91565b610767565b6040516101ec9190612eff565b60405180910390f35b34801561020157600080fd5b5061021c60048036038101906102179190612f46565b6107ad565b005b34801561022a57600080fd5b5061024560048036038101906102409190612f86565b6108c5565b005b34801561025357600080fd5b5061026e60048036038101906102699190612e91565b610925565b60405161027f95949392919061311b565b60405180910390f35b34801561029457600080fd5b506102af60048036038101906102aa91906132aa565b610a62565b005b3480156102bd57600080fd5b506102d860048036038101906102d391906134af565b610a70565b005b3480156102e657600080fd5b5061030160048036038101906102fc9190612f86565b610d6b565b005b34801561030f57600080fd5b5061032a60048036038101906103259190613556565b610d8b565b6040516103399392919061359f565b60405180910390f35b34801561034e57600080fd5b5061036960048036038101906103649190612e91565b610e03565b60405161037691906136cd565b60405180910390f35b34801561038b57600080fd5b506103a660048036038101906103a191906136ef565b610fe5565b6040516103b3919061371c565b60405180910390f35b3480156103c857600080fd5b506103e360048036038101906103de9190612e91565b610ffd565b6040516103f09190612eff565b60405180910390f35b34801561040557600080fd5b50610420600480360381019061041b91906136ef565b611084565b60405161042d919061371c565b60405180910390f35b34801561044257600080fd5b5061044b61113c565b005b34801561045957600080fd5b50610462611150565b60405161046f9190612eff565b60405180910390f35b34801561048457600080fd5b5061048d611179565b60405161049a9190612e39565b60405180910390f35b6104bd60048036038101906104b89190613737565b61120b565b6040516104ca919061371c565b60405180910390f35b3480156104df57600080fd5b506104fa60048036038101906104f591906137ee565b611799565b005b34801561050857600080fd5b50610523600480360381019061051e91906138cf565b6117af565b005b34801561053157600080fd5b5061054c60048036038101906105479190612e91565b611811565b6040516105599190612e39565b60405180910390f35b34801561056e57600080fd5b50610577611924565b604051610584919061371c565b60405180910390f35b34801561059957600080fd5b506105b460048036038101906105af9190613952565b61192e565b6040516105c19190612d85565b60405180910390f35b3480156105d657600080fd5b506105f160048036038101906105ec91906136ef565b6119c2565b005b60007f80ac58cd000000000000000000000000000000000000000000000000000000007bffffffffffffffffffffffffffffffffffffffffffffffffffffffff1916827bffffffffffffffffffffffffffffffffffffffffffffffffffffffff191614806106be57507f5b5e139f000000000000000000000000000000000000000000000000000000007bffffffffffffffffffffffffffffffffffffffffffffffffffffffff1916827bffffffffffffffffffffffffffffffffffffffffffffffffffffffff1916145b806106ce57506106cd82611a46565b5b9050919050565b6060600280546106e4906139c1565b80601f0160208091040260200160405190810160405280929190818152602001828054610710906139c1565b801561075d5780601f106107325761010080835404028352916020019161075d565b820191906000526020600020905b81548152906001019060200180831161074057829003601f168201915b5050505050905090565b600061077282611ab0565b6006600083815260200190815260200160002060009054906101000a900473ffffffffffffffffffffffffffffffffffffffff169050919050565b60006107b882610ffd565b90508073ffffffffffffffffffffffffffffffffffffffff168373ffffffffffffffffffffffffffffffffffffffff161415610829576040517f08c379a000000000000000000000000000000000000000000000000000000000815260040161082090613a65565b60405180910390fd5b8073ffffffffffffffffffffffffffffffffffffffff16610848611afb565b73ffffffffffffffffffffffffffffffffffffffff161480610877575061087681610871611afb565b61192e565b5b6108b6576040517f08c379a00000000000000000000000000000000000000000000000000000000081526004016108ad90613af7565b60405180910390fd5b6108c08383611b03565b505050565b6108d66108d0611afb565b82611bbc565b610915576040517f08c379a000000000000000000000000000000000000000000000000000000000815260040161090c90613b89565b60405180910390fd5b610920838383611c51565b505050565b60156020528060005260406000206000915090508060000160009054906101000a900473ffffffffffffffffffffffffffffffffffffffff16908060010160009054906101000a900473ffffffffffffffffffffffffffffffffffffffff1690806002016040518060800160405290816000820180546109a4906139c1565b80601f01602080910402602001604051908101604052809291908181526020018280546109d0906139c1565b8015610a1d5780601f106109f257610100808354040283529160200191610a1d565b820191906000526020600020905b815481529060010190602001808311610a0057829003601f168201915b505050505081526020016001820154815260200160028201548152602001600382015481525050908060060154908060070160009054906101000a900460ff16905085565b610a6c8282611f4b565b5050565b3373ffffffffffffffffffffffffffffffffffffffff16600a60009054906101000a900473ffffffffffffffffffffffffffffffffffffffff1673ffffffffffffffffffffffffffffffffffffffff1614610b00576040517f08c379a0000000000000000000000000000000000000000000000000000000008152600401610af790613bf5565b60405180910390fd5b8151835114610b44576040517f08c379a0000000000000000000000000000000000000000000000000000000008152600401610b3b90613c61565b60405180910390fd5b8051835114610b88576040517f08c379a0000000000000000000000000000000000000000000000000000000008152600401610b7f90613c61565b60405180910390fd5b6000600c8190555060005b8351811015610d65576000604051806080016040528060178481548110610bbd57610bbc613c81565b5b906000526020600020018054610bd2906139c1565b80601f0160208091040260200160405190810160405280929190818152602001828054610bfe906139c1565b8015610c4b5780601f10610c2057610100808354040283529160200191610c4b565b820191906000526020600020905b815481529060010190602001808311610c2e57829003601f168201915b5050505050815260200160188481548110610c6957610c68613c81565b5b9060005260206000200154815260200160198481548110610c8d57610c8c613c81565b5b906000526020600020015481526020016000815250905080601460178481548110610cbb57610cba613c81565b5b90600052602060002001604051610cd29190613d4f565b90815260200160405180910390206000820151816000019080519060200190610cfc929190612b93565b50602082015181600101556040820151816002015560608201518160030155905050828281518110610d3157610d30613c81565b5b6020026020010151600c6000828254610d4a9190613d95565b92505081905550508080610d5d90613deb565b915050610b93565b50505050565b610d86838383604051806020016040528060008152506117af565b505050565b6000806000601484604051610da09190613e65565b908152602001604051809103902060010154601485604051610dc29190613e65565b908152602001604051809103902060020154601486604051610de49190613e65565b9081526020016040518091039020600301549250925092509193909250565b610e0b612c19565b601560008381526020019081526020016000206040518060a00160405290816000820160009054906101000a900473ffffffffffffffffffffffffffffffffffffffff1673ffffffffffffffffffffffffffffffffffffffff1673ffffffffffffffffffffffffffffffffffffffff1681526020016001820160009054906101000a900473ffffffffffffffffffffffffffffffffffffffff1673ffffffffffffffffffffffffffffffffffffffff1673ffffffffffffffffffffffffffffffffffffffff16815260200160028201604051806080016040529081600082018054610ef5906139c1565b80601f0160208091040260200160405190810160405280929190818152602001828054610f21906139c1565b8015610f6e5780601f10610f4357610100808354040283529160200191610f6e565b820191906000526020600020905b815481529060010190602001808311610f5157829003601f168201915b5050505050815260200160018201548152602001600282015481526020016003820154815250508152602001600682015481526020016007820160009054906101000a900460ff166002811115610fc857610fc76130a4565b5b6002811115610fda57610fd96130a4565b5b815250509050919050565b60166020528060005260406000206000915090505481565b60008061100983611fbf565b9050600073ffffffffffffffffffffffffffffffffffffffff168173ffffffffffffffffffffffffffffffffffffffff16141561107b576040517f08c379a000000000000000000000000000000000000000000000000000000000815260040161107290613ec8565b60405180910390fd5b80915050919050565b60008073ffffffffffffffffffffffffffffffffffffffff168273ffffffffffffffffffffffffffffffffffffffff1614156110f5576040517f08c379a00000000000000000000000000000000000000000000000000000000081526004016110ec90613f5a565b60405180910390fd5b600560008373ffffffffffffffffffffffffffffffffffffffff1673ffffffffffffffffffffffffffffffffffffffff168152602001908152602001600020549050919050565b611144611ffc565b61114e600061207a565b565b60008060009054906101000a900473ffffffffffffffffffffffffffffffffffffffff16905090565b606060038054611188906139c1565b80601f01602080910402602001604051908101604052809291908181526020018280546111b4906139c1565b80156112015780601f106111d657610100808354040283529160200191611201565b820191906000526020600020905b8154815290600101906020018083116111e457829003601f168201915b5050505050905090565b60007fdf28233119131a4745ee55a92f58d58acfd14491139b562f3182d7c1928a6e828460405161123c9190612eff565b60405180910390a1601054601660008673ffffffffffffffffffffffffffffffffffffffff1673ffffffffffffffffffffffffffffffffffffffff16815260200190815260200160002054106112c7576040517f08c379a00000000000000000000000000000000000000000000000000000000081526004016112be90613fc6565b60405180910390fd5b6014836040516112d79190613e65565b9081526020016040518091039020600201546014846040516112f99190613e65565b9081526020016040518091039020600301541061134b576040517f08c379a000000000000000000000000000000000000000000000000000000000815260040161134290614032565b60405180910390fd5b6064600e5461135a9190614081565b60016113669190613d95565b6014846040516113769190613e65565b90815260200160405180910390206001015461139291906140b2565b3410156113d4576040517f08c379a00000000000000000000000000000000000000000000000000000000081526004016113cb90614158565b60405180910390fd5b60016014846040516113e69190613e65565b9081526020016040518091039020600301546114029190613d95565b6014846040516114129190613e65565b90815260200160405180910390206003018190555060006040518060a00160405280600a60009054906101000a900473ffffffffffffffffffffffffffffffffffffffff1673ffffffffffffffffffffffffffffffffffffffff1681526020018673ffffffffffffffffffffffffffffffffffffffff16815260200160148660405161149e9190613e65565b90815260200160405180910390206040518060800160405290816000820180546114c7906139c1565b80601f01602080910402602001604051908101604052809291908181526020018280546114f3906139c1565b80156115405780601f1061151557610100808354040283529160200191611540565b820191906000526020600020905b81548152906001019060200180831161152357829003601f168201915b505050505081526020016001820154815260200160028201548152602001600382015481525050815260200160148660405161157c9190613e65565b9081526020016040518091039020600101548152602001600160028111156115a7576115a66130a4565b5b81525090506115b6600961213e565b60006115c26009612154565b90506115ce8682612162565b6115d88185611f4b565b6001601660008873ffffffffffffffffffffffffffffffffffffffff1673ffffffffffffffffffffffffffffffffffffffff16815260200190815260200160002060008282546116289190613d95565b92505081905550816015600083815260200190815260200160002060008201518160000160006101000a81548173ffffffffffffffffffffffffffffffffffffffff021916908373ffffffffffffffffffffffffffffffffffffffff16021790555060208201518160010160006101000a81548173ffffffffffffffffffffffffffffffffffffffff021916908373ffffffffffffffffffffffffffffffffffffffff16021790555060408201518160020160008201518160000190805190602001906116f6929190612b93565b5060208201518160010155604082015181600201556060820151816003015550506060820151816006015560808201518160070160006101000a81548160ff0219169083600281111561174c5761174b6130a4565b5b02179055509050507ff0ce1ef64bad0f76f660612c4a72b07b4c9c1cb7dbe50d6335107f1ebf407d228187604051611785929190614178565b60405180910390a180925050509392505050565b6117ab6117a4611afb565b8383612180565b5050565b6117c06117ba611afb565b83611bbc565b6117ff576040517f08c379a00000000000000000000000000000000000000000000000000000000081526004016117f690613b89565b60405180910390fd5b61180b848484846122ed565b50505050565b606061181c82611ab0565b600060086000848152602001908152602001600020805461183c906139c1565b80601f0160208091040260200160405190810160405280929190818152602001828054611868906139c1565b80156118b55780601f1061188a576101008083540402835291602001916118b5565b820191906000526020600020905b81548152906001019060200180831161189857829003601f168201915b5050505050905060006118c6612349565b90506000815114156118dc57819250505061191f565b6000825111156119115780826040516020016118f99291906141a1565b6040516020818303038152906040529250505061191f565b61191a84612360565b925050505b919050565b6000600e54905090565b6000600760008473ffffffffffffffffffffffffffffffffffffffff1673ffffffffffffffffffffffffffffffffffffffff16815260200190815260200160002060008373ffffffffffffffffffffffffffffffffffffffff1673ffffffffffffffffffffffffffffffffffffffff16815260200190815260200160002060009054906101000a900460ff16905092915050565b6119ca611ffc565b600073ffffffffffffffffffffffffffffffffffffffff168173ffffffffffffffffffffffffffffffffffffffff161415611a3a576040517f08c379a0000000000000000000000000000000000000000000000000000000008152600401611a3190614237565b60405180910390fd5b611a438161207a565b50565b60007f01ffc9a7000000000000000000000000000000000000000000000000000000007bffffffffffffffffffffffffffffffffffffffffffffffffffffffff1916827bffffffffffffffffffffffffffffffffffffffffffffffffffffffff1916149050919050565b611ab9816123c8565b611af8576040517f08c379a0000000000000000000000000000000000000000000000000000000008152600401611aef90613ec8565b60405180910390fd5b50565b600033905090565b816006600083815260200190815260200160002060006101000a81548173ffffffffffffffffffffffffffffffffffffffff021916908373ffffffffffffffffffffffffffffffffffffffff160217905550808273ffffffffffffffffffffffffffffffffffffffff16611b7683610ffd565b73ffffffffffffffffffffffffffffffffffffffff167f8c5be1e5ebec7d5bd14f71427d1e84f3dd0314c0f7b2291e5b200ac8c7c3b92560405160405180910390a45050565b600080611bc883610ffd565b90508073ffffffffffffffffffffffffffffffffffffffff168473ffffffffffffffffffffffffffffffffffffffff161480611c0a5750611c09818561192e565b5b80611c4857508373ffffffffffffffffffffffffffffffffffffffff16611c3084610767565b73ffffffffffffffffffffffffffffffffffffffff16145b91505092915050565b8273ffffffffffffffffffffffffffffffffffffffff16611c7182610ffd565b73ffffffffffffffffffffffffffffffffffffffff1614611cc7576040517f08c379a0000000000000000000000000000000000000000000000000000000008152600401611cbe906142c9565b60405180910390fd5b600073ffffffffffffffffffffffffffffffffffffffff168273ffffffffffffffffffffffffffffffffffffffff161415611d37576040517f08c379a0000000000000000000000000000000000000000000000000000000008152600401611d2e9061435b565b60405180910390fd5b611d448383836001612409565b8273ffffffffffffffffffffffffffffffffffffffff16611d6482610ffd565b73ffffffffffffffffffffffffffffffffffffffff1614611dba576040517f08c379a0000000000000000000000000000000000000000000000000000000008152600401611db1906142c9565b60405180910390fd5b6006600082815260200190815260200160002060006101000a81549073ffffffffffffffffffffffffffffffffffffffff02191690556001600560008573ffffffffffffffffffffffffffffffffffffffff1673ffffffffffffffffffffffffffffffffffffffff168152602001908152602001600020600082825403925050819055506001600560008473ffffffffffffffffffffffffffffffffffffffff1673ffffffffffffffffffffffffffffffffffffffff16815260200190815260200160002060008282540192505081905550816004600083815260200190815260200160002060006101000a81548173ffffffffffffffffffffffffffffffffffffffff021916908373ffffffffffffffffffffffffffffffffffffffff160217905550808273ffffffffffffffffffffffffffffffffffffffff168473ffffffffffffffffffffffffffffffffffffffff167fddf252ad1be2c89b69c2b068fc378daa952ba7f163c4a11628f55a4df523b3ef60405160405180910390a4611f46838383600161252f565b505050565b611f54826123c8565b611f93576040517f08c379a0000000000000000000000000000000000000000000000000000000008152600401611f8a906143ed565b60405180910390fd5b80600860008481526020019081526020016000209080519060200190611fba929190612b93565b505050565b60006004600083815260200190815260200160002060009054906101000a900473ffffffffffffffffffffffffffffffffffffffff169050919050565b612004611afb565b73ffffffffffffffffffffffffffffffffffffffff16612022611150565b73ffffffffffffffffffffffffffffffffffffffff1614612078576040517f08c379a000000000000000000000000000000000000000000000000000000000815260040161206f90614459565b60405180910390fd5b565b60008060009054906101000a900473ffffffffffffffffffffffffffffffffffffffff169050816000806101000a81548173ffffffffffffffffffffffffffffffffffffffff021916908373ffffffffffffffffffffffffffffffffffffffff1602179055508173ffffffffffffffffffffffffffffffffffffffff168173ffffffffffffffffffffffffffffffffffffffff167f8be0079c531659141344cd1fd0a4f28419497f9722a3daafe3b4186f6b6457e060405160405180910390a35050565b6001816000016000828254019250508190555050565b600081600001549050919050565b61217c828260405180602001604052806000815250612535565b5050565b8173ffffffffffffffffffffffffffffffffffffffff168373ffffffffffffffffffffffffffffffffffffffff1614156121ef576040517f08c379a00000000000000000000000000000000000000000000000000000000081526004016121e6906144c5565b60405180910390fd5b80600760008573ffffffffffffffffffffffffffffffffffffffff1673ffffffffffffffffffffffffffffffffffffffff16815260200190815260200160002060008473ffffffffffffffffffffffffffffffffffffffff1673ffffffffffffffffffffffffffffffffffffffff16815260200190815260200160002060006101000a81548160ff0219169083151502179055508173ffffffffffffffffffffffffffffffffffffffff168373ffffffffffffffffffffffffffffffffffffffff167f17307eab39ab6107e8899845ad3d59bd9653f200f220920489ca2b5937696c31836040516122e09190612d85565b60405180910390a3505050565b6122f8848484611c51565b61230484848484612590565b612343576040517f08c379a000000000000000000000000000000000000000000000000000000000815260040161233a90614557565b60405180910390fd5b50505050565b606060405180602001604052806000815250905090565b606061236b82611ab0565b6000612375612349565b9050600081511161239557604051806020016040528060008152506123c0565b8061239f84612727565b6040516020016123b09291906141a1565b6040516020818303038152906040525b915050919050565b60008073ffffffffffffffffffffffffffffffffffffffff166123ea83611fbf565b73ffffffffffffffffffffffffffffffffffffffff1614159050919050565b600181111561252957600073ffffffffffffffffffffffffffffffffffffffff168473ffffffffffffffffffffffffffffffffffffffff161461249d5780600560008673ffffffffffffffffffffffffffffffffffffffff1673ffffffffffffffffffffffffffffffffffffffff16815260200190815260200160002060008282546124959190614577565b925050819055505b600073ffffffffffffffffffffffffffffffffffffffff168373ffffffffffffffffffffffffffffffffffffffff16146125285780600560008573ffffffffffffffffffffffffffffffffffffffff1673ffffffffffffffffffffffffffffffffffffffff16815260200190815260200160002060008282546125209190613d95565b925050819055505b5b50505050565b50505050565b61253f83836127ff565b61254c6000848484612590565b61258b576040517f08c379a000000000000000000000000000000000000000000000000000000000815260040161258290614557565b60405180910390fd5b505050565b60006125b18473ffffffffffffffffffffffffffffffffffffffff16612a1d565b1561271a578373ffffffffffffffffffffffffffffffffffffffff1663150b7a026125da611afb565b8786866040518563ffffffff1660e01b81526004016125fc9493929190614600565b602060405180830381600087803b15801561261657600080fd5b505af192505050801561264757506040513d601f19601f820116820180604052508101906126449190614661565b60015b6126ca573d8060008114612677576040519150601f19603f3d011682016040523d82523d6000602084013e61267c565b606091505b506000815114156126c2576040517f08c379a00000000000000000000000000000000000000000000000000000000081526004016126b990614557565b60405180910390fd5b805181602001fd5b63150b7a0260e01b7bffffffffffffffffffffffffffffffffffffffffffffffffffffffff1916817bffffffffffffffffffffffffffffffffffffffffffffffffffffffff19161491505061271f565b600190505b949350505050565b60606000600161273684612a40565b01905060008167ffffffffffffffff8111156127555761275461317f565b5b6040519080825280601f01601f1916602001820160405280156127875781602001600182028036833780820191505090505b509050600082602001820190505b6001156127f4578080600190039150507f3031323334353637383961626364656600000000000000000000000000000000600a86061a8153600a85816127de576127dd614052565b5b04945060008514156127ef576127f4565b612795565b819350505050919050565b600073ffffffffffffffffffffffffffffffffffffffff168273ffffffffffffffffffffffffffffffffffffffff16141561286f576040517f08c379a0000000000000000000000000000000000000000000000000000000008152600401612866906146da565b60405180910390fd5b612878816123c8565b156128b8576040517f08c379a00000000000000000000000000000000000000000000000000000000081526004016128af90614746565b60405180910390fd5b6128c6600083836001612409565b6128cf816123c8565b1561290f576040517f08c379a000000000000000000000000000000000000000000000000000000000815260040161290690614746565b60405180910390fd5b6001600560008473ffffffffffffffffffffffffffffffffffffffff1673ffffffffffffffffffffffffffffffffffffffff16815260200190815260200160002060008282540192505081905550816004600083815260200190815260200160002060006101000a81548173ffffffffffffffffffffffffffffffffffffffff021916908373ffffffffffffffffffffffffffffffffffffffff160217905550808273ffffffffffffffffffffffffffffffffffffffff16600073ffffffffffffffffffffffffffffffffffffffff167fddf252ad1be2c89b69c2b068fc378daa952ba7f163c4a11628f55a4df523b3ef60405160405180910390a4612a1960008383600161252f565b5050565b6000808273ffffffffffffffffffffffffffffffffffffffff163b119050919050565b600080600090507a184f03e93ff9f4daa797ed6e38ed64bf6a1f0100000000000000008310612a9e577a184f03e93ff9f4daa797ed6e38ed64bf6a1f0100000000000000008381612a9457612a93614052565b5b0492506040810190505b6d04ee2d6d415b85acef81000000008310612adb576d04ee2d6d415b85acef81000000008381612ad157612ad0614052565b5b0492506020810190505b662386f26fc100008310612b0a57662386f26fc100008381612b0057612aff614052565b5b0492506010810190505b6305f5e1008310612b33576305f5e1008381612b2957612b28614052565b5b0492506008810190505b6127108310612b58576127108381612b4e57612b4d614052565b5b0492506004810190505b60648310612b7b5760648381612b7157612b70614052565b5b0492506002810190505b600a8310612b8a576001810190505b80915050919050565b828054612b9f906139c1565b90600052602060002090601f016020900481019282612bc15760008555612c08565b82601f10612bda57805160ff1916838001178555612c08565b82800160010185558215612c08579182015b82811115612c07578251825591602001919060010190612bec565b5b509050612c159190612c8c565b5090565b6040518060a00160405280600073ffffffffffffffffffffffffffffffffffffffff168152602001600073ffffffffffffffffffffffffffffffffffffffff168152602001612c66612ca9565b81526020016000815260200160006002811115612c8657612c856130a4565b5b81525090565b5b80821115612ca5576000816000905550600101612c8d565b5090565b6040518060800160405280606081526020016000815260200160008152602001600081525090565b6000604051905090565b600080fd5b600080fd5b60007fffffffff0000000000000000000000000000000000000000000000000000000082169050919050565b612d1a81612ce5565b8114612d2557600080fd5b50565b600081359050612d3781612d11565b92915050565b600060208284031215612d5357612d52612cdb565b5b6000612d6184828501612d28565b91505092915050565b60008115159050919050565b612d7f81612d6a565b82525050565b6000602082019050612d9a6000830184612d76565b92915050565b600081519050919050565b600082825260208201905092915050565b60005b83811015612dda578082015181840152602081019050612dbf565b83811115612de9576000848401525b50505050565b6000601f19601f8301169050919050565b6000612e0b82612da0565b612e158185612dab565b9350612e25818560208601612dbc565b612e2e81612def565b840191505092915050565b60006020820190508181036000830152612e538184612e00565b905092915050565b6000819050919050565b612e6e81612e5b565b8114612e7957600080fd5b50565b600081359050612e8b81612e65565b92915050565b600060208284031215612ea757612ea6612cdb565b5b6000612eb584828501612e7c565b91505092915050565b600073ffffffffffffffffffffffffffffffffffffffff82169050919050565b6000612ee982612ebe565b9050919050565b612ef981612ede565b82525050565b6000602082019050612f146000830184612ef0565b92915050565b612f2381612ede565b8114612f2e57600080fd5b50565b600081359050612f4081612f1a565b92915050565b60008060408385031215612f5d57612f5c612cdb565b5b6000612f6b85828601612f31565b9250506020612f7c85828601612e7c565b9150509250929050565b600080600060608486031215612f9f57612f9e612cdb565b5b6000612fad86828701612f31565b9350506020612fbe86828701612f31565b9250506040612fcf86828701612e7c565b9150509250925092565b600082825260208201905092915050565b6000612ff582612da0565b612fff8185612fd9565b935061300f818560208601612dbc565b61301881612def565b840191505092915050565b61302c81612e5b565b82525050565b6000608083016000830151848203600086015261304f8282612fea565b91505060208301516130646020860182613023565b5060408301516130776040860182613023565b50606083015161308a6060860182613023565b508091505092915050565b61309e81612e5b565b82525050565b7f4e487b7100000000000000000000000000000000000000000000000000000000600052602160045260246000fd5b600381106130e4576130e36130a4565b5b50565b60008190506130f5826130d3565b919050565b6000613105826130e7565b9050919050565b613115816130fa565b82525050565b600060a0820190506131306000830188612ef0565b61313d6020830187612ef0565b818103604083015261314f8186613032565b905061315e6060830185613095565b61316b608083018461310c565b9695505050505050565b600080fd5b600080fd5b7f4e487b7100000000000000000000000000000000000000000000000000000000600052604160045260246000fd5b6131b782612def565b810181811067ffffffffffffffff821117156131d6576131d561317f565b5b80604052505050565b60006131e9612cd1565b90506131f582826131ae565b919050565b600067ffffffffffffffff8211156132155761321461317f565b5b61321e82612def565b9050602081019050919050565b82818337600083830152505050565b600061324d613248846131fa565b6131df565b9050828152602081018484840111156132695761326861317a565b5b61327484828561322b565b509392505050565b600082601f83011261329157613290613175565b5b81356132a184826020860161323a565b91505092915050565b600080604083850312156132c1576132c0612cdb565b5b60006132cf85828601612e7c565b925050602083013567ffffffffffffffff8111156132f0576132ef612ce0565b5b6132fc8582860161327c565b9150509250929050565b600067ffffffffffffffff8211156133215761332061317f565b5b602082029050602081019050919050565b600080fd5b600061334a61334584613306565b6131df565b9050808382526020820190506020840283018581111561336d5761336c613332565b5b835b818110156133b457803567ffffffffffffffff81111561339257613391613175565b5b80860161339f898261327c565b8552602085019450505060208101905061336f565b5050509392505050565b600082601f8301126133d3576133d2613175565b5b81356133e3848260208601613337565b91505092915050565b600067ffffffffffffffff8211156134075761340661317f565b5b602082029050602081019050919050565b600061342b613426846133ec565b6131df565b9050808382526020820190506020840283018581111561344e5761344d613332565b5b835b8181101561347757806134638882612e7c565b845260208401935050602081019050613450565b5050509392505050565b600082601f83011261349657613495613175565b5b81356134a6848260208601613418565b91505092915050565b6000806000606084860312156134c8576134c7612cdb565b5b600084013567ffffffffffffffff8111156134e6576134e5612ce0565b5b6134f2868287016133be565b935050602084013567ffffffffffffffff81111561351357613512612ce0565b5b61351f86828701613481565b925050604084013567ffffffffffffffff8111156135405761353f612ce0565b5b61354c86828701613481565b9150509250925092565b60006020828403121561356c5761356b612cdb565b5b600082013567ffffffffffffffff81111561358a57613589612ce0565b5b6135968482850161327c565b91505092915050565b60006060820190506135b46000830186613095565b6135c16020830185613095565b6135ce6040830184613095565b949350505050565b6135df81612ede565b82525050565b600060808301600083015184820360008601526136028282612fea565b91505060208301516136176020860182613023565b50604083015161362a6040860182613023565b50606083015161363d6060860182613023565b508091505092915050565b613651816130fa565b82525050565b600060a08301600083015161366f60008601826135d6565b50602083015161368260208601826135d6565b506040830151848203604086015261369a82826135e5565b91505060608301516136af6060860182613023565b5060808301516136c26080860182613648565b508091505092915050565b600060208201905081810360008301526136e78184613657565b905092915050565b60006020828403121561370557613704612cdb565b5b600061371384828501612f31565b91505092915050565b60006020820190506137316000830184613095565b92915050565b6000806000606084860312156137505761374f612cdb565b5b600061375e86828701612f31565b935050602084013567ffffffffffffffff81111561377f5761377e612ce0565b5b61378b8682870161327c565b925050604084013567ffffffffffffffff8111156137ac576137ab612ce0565b5b6137b88682870161327c565b9150509250925092565b6137cb81612d6a565b81146137d657600080fd5b50565b6000813590506137e8816137c2565b92915050565b6000806040838503121561380557613804612cdb565b5b600061381385828601612f31565b9250506020613824858286016137d9565b9150509250929050565b600067ffffffffffffffff8211156138495761384861317f565b5b61385282612def565b9050602081019050919050565b600061387261386d8461382e565b6131df565b90508281526020810184848401111561388e5761388d61317a565b5b61389984828561322b565b509392505050565b600082601f8301126138b6576138b5613175565b5b81356138c684826020860161385f565b91505092915050565b600080600080608085870312156138e9576138e8612cdb565b5b60006138f787828801612f31565b945050602061390887828801612f31565b935050604061391987828801612e7c565b925050606085013567ffffffffffffffff81111561393a57613939612ce0565b5b613946878288016138a1565b91505092959194509250565b6000806040838503121561396957613968612cdb565b5b600061397785828601612f31565b925050602061398885828601612f31565b9150509250929050565b7f4e487b7100000000000000000000000000000000000000000000000000000000600052602260045260246000fd5b600060028204905060018216806139d957607f821691505b602082108114156139ed576139ec613992565b5b50919050565b7f4552433732313a20617070726f76616c20746f2063757272656e74206f776e6560008201527f7200000000000000000000000000000000000000000000000000000000000000602082015250565b6000613a4f602183612dab565b9150613a5a826139f3565b604082019050919050565b60006020820190508181036000830152613a7e81613a42565b9050919050565b7f4552433732313a20617070726f76652063616c6c6572206973206e6f7420746f60008201527f6b656e206f776e6572206f7220617070726f76656420666f7220616c6c000000602082015250565b6000613ae1603d83612dab565b9150613aec82613a85565b604082019050919050565b60006020820190508181036000830152613b1081613ad4565b9050919050565b7f4552433732313a2063616c6c6572206973206e6f7420746f6b656e206f776e6560008201527f72206f7220617070726f76656400000000000000000000000000000000000000602082015250565b6000613b73602d83612dab565b9150613b7e82613b17565b604082019050919050565b60006020820190508181036000830152613ba281613b66565b9050919050565b7f4e6f7420617574686f72697a656420746f2061646a7573742073616c65000000600082015250565b6000613bdf601d83612dab565b9150613bea82613ba9565b602082019050919050565b60006020820190508181036000830152613c0e81613bd2565b9050919050565b7f506c65617365206b657920696e20616761696e00000000000000000000000000600082015250565b6000613c4b601383612dab565b9150613c5682613c15565b602082019050919050565b60006020820190508181036000830152613c7a81613c3e565b9050919050565b7f4e487b7100000000000000000000000000000000000000000000000000000000600052603260045260246000fd5b600081905092915050565b60008190508160005260206000209050919050565b60008154613cdd816139c1565b613ce78186613cb0565b94506001821660008114613d025760018114613d1357613d46565b60ff19831686528186019350613d46565b613d1c85613cbb565b60005b83811015613d3e57815481890152600182019150602081019050613d1f565b838801955050505b50505092915050565b6000613d5b8284613cd0565b915081905092915050565b7f4e487b7100000000000000000000000000000000000000000000000000000000600052601160045260246000fd5b6000613da082612e5b565b9150613dab83612e5b565b9250827fffffffffffffffffffffffffffffffffffffffffffffffffffffffffffffffff03821115613de057613ddf613d66565b5b828201905092915050565b6000613df682612e5b565b91507fffffffffffffffffffffffffffffffffffffffffffffffffffffffffffffffff821415613e2957613e28613d66565b5b600182019050919050565b6000613e3f82612da0565b613e498185613cb0565b9350613e59818560208601612dbc565b80840191505092915050565b6000613e718284613e34565b915081905092915050565b7f4552433732313a20696e76616c696420746f6b656e2049440000000000000000600082015250565b6000613eb2601883612dab565b9150613ebd82613e7c565b602082019050919050565b60006020820190508181036000830152613ee181613ea5565b9050919050565b7f4552433732313a2061646472657373207a65726f206973206e6f74206120766160008201527f6c6964206f776e65720000000000000000000000000000000000000000000000602082015250565b6000613f44602983612dab565b9150613f4f82613ee8565b604082019050919050565b60006020820190508181036000830152613f7381613f37565b9050919050565b7f4578636565646564204d6178204d696e74696e67000000000000000000000000600082015250565b6000613fb0601483612dab565b9150613fbb82613f7a565b602082019050919050565b60006020820190508181036000830152613fdf81613fa3565b9050919050565b7f45786365656465642043617465676f7279206d696e74696e6700000000000000600082015250565b600061401c601983612dab565b915061402782613fe6565b602082019050919050565b6000602082019050818103600083015261404b8161400f565b9050919050565b7f4e487b7100000000000000000000000000000000000000000000000000000000600052601260045260246000fd5b600061408c82612e5b565b915061409783612e5b565b9250826140a7576140a6614052565b5b828204905092915050565b60006140bd82612e5b565b91506140c883612e5b565b9250817fffffffffffffffffffffffffffffffffffffffffffffffffffffffffffffffff048311821515161561410157614100613d66565b5b828202905092915050565b7f4e6f7420656e6f75676820455448000000000000000000000000000000000000600082015250565b6000614142600e83612dab565b915061414d8261410c565b602082019050919050565b6000602082019050818103600083015261417181614135565b9050919050565b600060408201905061418d6000830185613095565b61419a6020830184612ef0565b9392505050565b60006141ad8285613e34565b91506141b98284613e34565b91508190509392505050565b7f4f776e61626c653a206e6577206f776e657220697320746865207a65726f206160008201527f6464726573730000000000000000000000000000000000000000000000000000602082015250565b6000614221602683612dab565b915061422c826141c5565b604082019050919050565b6000602082019050818103600083015261425081614214565b9050919050565b7f4552433732313a207472616e736665722066726f6d20696e636f72726563742060008201527f6f776e6572000000000000000000000000000000000000000000000000000000602082015250565b60006142b3602583612dab565b91506142be82614257565b604082019050919050565b600060208201905081810360008301526142e2816142a6565b9050919050565b7f4552433732313a207472616e7366657220746f20746865207a65726f2061646460008201527f7265737300000000000000000000000000000000000000000000000000000000602082015250565b6000614345602483612dab565b9150614350826142e9565b604082019050919050565b6000602082019050818103600083015261437481614338565b9050919050565b7f45524337323155524953746f726167653a2055524920736574206f66206e6f6e60008201527f6578697374656e7420746f6b656e000000000000000000000000000000000000602082015250565b60006143d7602e83612dab565b91506143e28261437b565b604082019050919050565b60006020820190508181036000830152614406816143ca565b9050919050565b7f4f776e61626c653a2063616c6c6572206973206e6f7420746865206f776e6572600082015250565b6000614443602083612dab565b915061444e8261440d565b602082019050919050565b6000602082019050818103600083015261447281614436565b9050919050565b7f4552433732313a20617070726f766520746f2063616c6c657200000000000000600082015250565b60006144af601983612dab565b91506144ba82614479565b602082019050919050565b600060208201905081810360008301526144de816144a2565b9050919050565b7f4552433732313a207472616e7366657220746f206e6f6e20455243373231526560008201527f63656976657220696d706c656d656e7465720000000000000000000000000000602082015250565b6000614541603283612dab565b915061454c826144e5565b604082019050919050565b6000602082019050818103600083015261457081614534565b9050919050565b600061458282612e5b565b915061458d83612e5b565b9250828210156145a05761459f613d66565b5b828203905092915050565b600081519050919050565b600082825260208201905092915050565b60006145d2826145ab565b6145dc81856145b6565b93506145ec818560208601612dbc565b6145f581612def565b840191505092915050565b60006080820190506146156000830187612ef0565b6146226020830186612ef0565b61462f6040830185613095565b818103606083015261464181846145c7565b905095945050505050565b60008151905061465b81612d11565b92915050565b60006020828403121561467757614676612cdb565b5b60006146858482850161464c565b91505092915050565b7f4552433732313a206d696e7420746f20746865207a65726f2061646472657373600082015250565b60006146c4602083612dab565b91506146cf8261468e565b602082019050919050565b600060208201905081810360008301526146f3816146b7565b9050919050565b7f4552433732313a20746f6b656e20616c7265616479206d696e74656400000000600082015250565b6000614730601c83612dab565b915061473b826146fa565b602082019050919050565b6000602082019050818103600083015261475f81614723565b905091905056fea2646970667358221220e4b553ba3804be892a15fa1472229611623544ade11a72e3500156da93094cca64736f6c63430008090033",
  "linkReferences": {},
  "deployedLinkReferences": {}
}