{
  "_format": "hh-sol-artifact-1",
  "contractName": "Collection",
  "sourceName": "contracts/Collection.sol",
  "abi": [
    {
      "inputs": [
        {
          "internalType": "string[]",
          "name": "_categories",
          "type": "string[]"
        },
        {
          "internalType": "uint256[]",
          "name": "_categoryPrices",
          "type": "uint256[]"
        },
        {
          "internalType": "uint256[]",
          "name": "_categoryLimits",
          "type": "uint256[]"
        },
        {
          "internalType": "string",
          "name": "_collectionName",
          "type": "string"
        },
        {
          "internalType": "string",
          "name": "_description",
          "type": "string"
        },
        {
          "internalType": "uint256",
          "name": "_commission",
          "type": "uint256"
        },
        {
          "internalType": "string",
          "name": "_collectionSymbol",
          "type": "string"
        }
      ],
      "stateMutability": "payable",
      "type": "constructor"
    },
    {
      "anonymous": false,
      "inputs": [
        {
          "indexed": true,
          "internalType": "address",
          "name": "owner",
          "type": "address"
        },
        {
          "indexed": true,
          "internalType": "address",
          "name": "approved",
          "type": "address"
        },
        {
          "indexed": true,
          "internalType": "uint256",
          "name": "tokenId",
          "type": "uint256"
        }
      ],
      "name": "Approval",
      "type": "event"
    },
    {
      "anonymous": false,
      "inputs": [
        {
          "indexed": true,
          "internalType": "address",
          "name": "owner",
          "type": "address"
        },
        {
          "indexed": true,
          "internalType": "address",
          "name": "operator",
          "type": "address"
        },
        {
          "indexed": false,
          "internalType": "bool",
          "name": "approved",
          "type": "bool"
        }
      ],
      "name": "ApprovalForAll",
      "type": "event"
    },
    {
      "anonymous": false,
      "inputs": [
        {
          "indexed": true,
          "internalType": "address",
          "name": "previousOwner",
          "type": "address"
        },
        {
          "indexed": true,
          "internalType": "address",
          "name": "newOwner",
          "type": "address"
        }
      ],
      "name": "OwnershipTransferred",
      "type": "event"
    },
    {
      "anonymous": false,
      "inputs": [
        {
          "indexed": true,
          "internalType": "address",
          "name": "from",
          "type": "address"
        },
        {
          "indexed": true,
          "internalType": "address",
          "name": "to",
          "type": "address"
        },
        {
          "indexed": true,
          "internalType": "uint256",
          "name": "tokenId",
          "type": "uint256"
        }
      ],
      "name": "Transfer",
      "type": "event"
    },
    {
      "anonymous": false,
      "inputs": [
        {
          "indexed": false,
          "internalType": "uint256",
          "name": "tokenId",
          "type": "uint256"
        },
        {
          "indexed": false,
          "internalType": "address",
          "name": "recipient",
          "type": "address"
        }
      ],
      "name": "merchMinted",
      "type": "event"
    },
    {
      "anonymous": false,
      "inputs": [
        {
          "indexed": false,
          "internalType": "address",
          "name": "user",
          "type": "address"
        }
      ],
      "name": "userMints",
      "type": "event"
    },
    {
      "inputs": [
        {
          "internalType": "address",
          "name": "to",
          "type": "address"
        },
        {
          "internalType": "uint256",
          "name": "tokenId",
          "type": "uint256"
        }
      ],
      "name": "approve",
      "outputs": [],
      "stateMutability": "nonpayable",
      "type": "function"
    },
    {
      "inputs": [
        {
          "internalType": "address",
          "name": "owner",
          "type": "address"
        }
      ],
      "name": "balanceOf",
      "outputs": [
        {
          "internalType": "uint256",
          "name": "",
          "type": "uint256"
        }
      ],
      "stateMutability": "view",
      "type": "function"
    },
    {
      "inputs": [
        {
          "internalType": "string[]",
          "name": "new_categories",
          "type": "string[]"
        },
        {
          "internalType": "uint256[]",
          "name": "new_categoryPrices",
          "type": "uint256[]"
        },
        {
          "internalType": "uint256[]",
          "name": "new_categoryLimits",
          "type": "uint256[]"
        }
      ],
      "name": "changeCategories",
      "outputs": [],
      "stateMutability": "nonpayable",
      "type": "function"
    },
    {
      "inputs": [
        {
          "internalType": "uint256",
          "name": "tokenId",
          "type": "uint256"
        }
      ],
      "name": "getApproved",
      "outputs": [
        {
          "internalType": "address",
          "name": "",
          "type": "address"
        }
      ],
      "stateMutability": "view",
      "type": "function"
    },
    {
      "inputs": [],
      "name": "getCommission",
      "outputs": [
        {
          "internalType": "uint256",
          "name": "",
          "type": "uint256"
        }
      ],
      "stateMutability": "view",
      "type": "function"
    },
    {
      "inputs": [
        {
          "internalType": "uint256",
          "name": "tokenId",
          "type": "uint256"
        }
      ],
      "name": "getMerchDetails",
      "outputs": [
        {
          "components": [
            {
              "internalType": "address",
              "name": "collectionOwner",
              "type": "address"
            },
            {
              "internalType": "address",
              "name": "merchOwner",
              "type": "address"
            },
            {
              "components": [
                {
                  "internalType": "string",
                  "name": "merchType",
                  "type": "string"
                },
                {
                  "internalType": "uint256",
                  "name": "price",
                  "type": "uint256"
                },
                {
                  "internalType": "uint256",
                  "name": "maxMerchSupply",
                  "type": "uint256"
                },
                {
                  "internalType": "uint256",
                  "name": "currentMerchSupply",
                  "type": "uint256"
                }
              ],
              "internalType": "struct Collection.MerchType",
              "name": "merchType",
              "type": "tuple"
            },
            {
              "internalType": "uint256",
              "name": "currentPrice",
              "type": "uint256"
            },
            {
              "internalType": "enum Collection.collectionStatus",
              "name": "_collectionStatus",
              "type": "uint8"
            }
          ],
          "internalType": "struct Collection.Merchandise",
          "name": "merchandise",
          "type": "tuple"
        }
      ],
      "stateMutability": "view",
      "type": "function"
    },
    {
      "inputs": [
        {
          "internalType": "string",
          "name": "category",
          "type": "string"
        }
      ],
      "name": "getMerchinformation",
      "outputs": [
        {
          "internalType": "uint256",
          "name": "_price",
          "type": "uint256"
        },
        {
          "internalType": "uint256",
          "name": "_maxNumber",
          "type": "uint256"
        },
        {
          "internalType": "uint256",
          "name": "_currentSupply",
          "type": "uint256"
        }
      ],
      "stateMutability": "view",
      "type": "function"
    },
    {
      "inputs": [
        {
          "internalType": "address",
          "name": "owner",
          "type": "address"
        },
        {
          "internalType": "address",
          "name": "operator",
          "type": "address"
        }
      ],
      "name": "isApprovedForAll",
      "outputs": [
        {
          "internalType": "bool",
          "name": "",
          "type": "bool"
        }
      ],
      "stateMutability": "view",
      "type": "function"
    },
    {
      "inputs": [
        {
          "internalType": "uint256",
          "name": "",
          "type": "uint256"
        }
      ],
      "name": "merchIDs",
      "outputs": [
        {
          "internalType": "address",
          "name": "collectionOwner",
          "type": "address"
        },
        {
          "internalType": "address",
          "name": "merchOwner",
          "type": "address"
        },
        {
          "components": [
            {
              "internalType": "string",
              "name": "merchType",
              "type": "string"
            },
            {
              "internalType": "uint256",
              "name": "price",
              "type": "uint256"
            },
            {
              "internalType": "uint256",
              "name": "maxMerchSupply",
              "type": "uint256"
            },
            {
              "internalType": "uint256",
              "name": "currentMerchSupply",
              "type": "uint256"
            }
          ],
          "internalType": "struct Collection.MerchType",
          "name": "merchType",
          "type": "tuple"
        },
        {
          "internalType": "uint256",
          "name": "currentPrice",
          "type": "uint256"
        },
        {
          "internalType": "enum Collection.collectionStatus",
          "name": "_collectionStatus",
          "type": "uint8"
        }
      ],
      "stateMutability": "view",
      "type": "function"
    },
    {
      "inputs": [
        {
          "internalType": "address",
          "name": "",
          "type": "address"
        }
      ],
      "name": "merchPerOwner",
      "outputs": [
        {
          "internalType": "uint256",
          "name": "",
          "type": "uint256"
        }
      ],
      "stateMutability": "view",
      "type": "function"
    },
    {
      "inputs": [
        {
          "internalType": "string",
          "name": "merchCategory",
          "type": "string"
        },
        {
          "internalType": "string",
          "name": "tokenURI",
          "type": "string"
        }
      ],
      "name": "mint",
      "outputs": [
        {
          "internalType": "uint256",
          "name": "",
          "type": "uint256"
        }
      ],
      "stateMutability": "payable",
      "type": "function"
    },
    {
      "inputs": [],
      "name": "name",
      "outputs": [
        {
          "internalType": "string",
          "name": "",
          "type": "string"
        }
      ],
      "stateMutability": "view",
      "type": "function"
    },
    {
      "inputs": [],
      "name": "owner",
      "outputs": [
        {
          "internalType": "address",
          "name": "",
          "type": "address"
        }
      ],
      "stateMutability": "view",
      "type": "function"
    },
    {
      "inputs": [
        {
          "internalType": "uint256",
          "name": "tokenId",
          "type": "uint256"
        }
      ],
      "name": "ownerOf",
      "outputs": [
        {
          "internalType": "address",
          "name": "",
          "type": "address"
        }
      ],
      "stateMutability": "view",
      "type": "function"
    },
    {
      "inputs": [],
      "name": "renounceOwnership",
      "outputs": [],
      "stateMutability": "nonpayable",
      "type": "function"
    },
    {
      "inputs": [
        {
          "internalType": "address",
          "name": "from",
          "type": "address"
        },
        {
          "internalType": "address",
          "name": "to",
          "type": "address"
        },
        {
          "internalType": "uint256",
          "name": "tokenId",
          "type": "uint256"
        }
      ],
      "name": "safeTransferFrom",
      "outputs": [],
      "stateMutability": "nonpayable",
      "type": "function"
    },
    {
      "inputs": [
        {
          "internalType": "address",
          "name": "from",
          "type": "address"
        },
        {
          "internalType": "address",
          "name": "to",
          "type": "address"
        },
        {
          "internalType": "uint256",
          "name": "tokenId",
          "type": "uint256"
        },
        {
          "internalType": "bytes",
          "name": "data",
          "type": "bytes"
        }
      ],
      "name": "safeTransferFrom",
      "outputs": [],
      "stateMutability": "nonpayable",
      "type": "function"
    },
    {
      "inputs": [
        {
          "internalType": "address",
          "name": "operator",
          "type": "address"
        },
        {
          "internalType": "bool",
          "name": "approved",
          "type": "bool"
        }
      ],
      "name": "setApprovalForAll",
      "outputs": [],
      "stateMutability": "nonpayable",
      "type": "function"
    },
    {
      "inputs": [
        {
          "internalType": "uint256",
          "name": "tokenId",
          "type": "uint256"
        },
        {
          "internalType": "string",
          "name": "tokenURI",
          "type": "string"
        }
      ],
      "name": "setNewTokenURI",
      "outputs": [],
      "stateMutability": "nonpayable",
      "type": "function"
    },
    {
      "inputs": [
        {
          "internalType": "bytes4",
          "name": "interfaceId",
          "type": "bytes4"
        }
      ],
      "name": "supportsInterface",
      "outputs": [
        {
          "internalType": "bool",
          "name": "",
          "type": "bool"
        }
      ],
      "stateMutability": "view",
      "type": "function"
    },
    {
      "inputs": [],
      "name": "symbol",
      "outputs": [
        {
          "internalType": "string",
          "name": "",
          "type": "string"
        }
      ],
      "stateMutability": "view",
      "type": "function"
    },
    {
      "inputs": [
        {
          "internalType": "uint256",
          "name": "tokenId",
          "type": "uint256"
        }
      ],
      "name": "tokenURI",
      "outputs": [
        {
          "internalType": "string",
          "name": "",
          "type": "string"
        }
      ],
      "stateMutability": "view",
      "type": "function"
    },
    {
      "inputs": [
        {
          "internalType": "address",
          "name": "from",
          "type": "address"
        },
        {
          "internalType": "address",
          "name": "to",
          "type": "address"
        },
        {
          "internalType": "uint256",
          "name": "tokenId",
          "type": "uint256"
        }
      ],
      "name": "transferFrom",
      "outputs": [],
      "stateMutability": "nonpayable",
      "type": "function"
    },
    {
      "inputs": [
        {
          "internalType": "address",
          "name": "newOwner",
          "type": "address"
        }
      ],
      "name": "transferOwnership",
      "outputs": [],
      "stateMutability": "nonpayable",
      "type": "function"
    }
  ],
  "bytecode": "0x608060405233600a60006101000a81548173ffffffffffffffffffffffffffffffffffffffff021916908373ffffffffffffffffffffffffffffffffffffffff160217905550600160105566470de4df82000060115573dd870fa1b7c4700f2bd7f44238821c26f7392148601260006101000a81548173ffffffffffffffffffffffffffffffffffffffff021916908373ffffffffffffffffffffffffffffffffffffffff16021790555060405162005682380380620056828339818101604052810190620000cf919062000ac8565b8381620000f1620000e56200047b60201b60201c565b6200048360201b60201c565b6001808190555081600290805190602001906200011092919062000547565b5080600390805190602001906200012992919062000547565b505050866017908051906020019062000144929190620005d8565b5085601890805190602001906200015d9291906200063f565b508460199080519060200190620001769291906200063f565b5083600d90805190602001906200018f92919062000547565b5082600f9080519060200190620001a892919062000547565b508060139080519060200190620001c192919062000547565b5081600e819055506018805490506017805490501462000218576040517f08c379a00000000000000000000000000000000000000000000000000000000081526004016200020f9062000c96565b60405180910390fd5b6019805490506017805490501462000267576040517f08c379a00000000000000000000000000000000000000000000000000000000081526004016200025e9062000c96565b60405180910390fd5b6000600c8190555060005b6017805490508110156200046d576000604051806080016040528060178481548110620002a457620002a362000cb8565b5b906000526020600020018054620002bb9062000d16565b80601f0160208091040260200160405190810160405280929190818152602001828054620002e99062000d16565b80156200033a5780601f106200030e576101008083540402835291602001916200033a565b820191906000526020600020905b8154815290600101906020018083116200031c57829003601f168201915b50505050508152602001601884815481106200035b576200035a62000cb8565b5b906000526020600020015481526020016019848154811062000382576200038162000cb8565b5b906000526020600020015481526020016000815250905080601460178481548110620003b357620003b262000cb8565b5b90600052602060002001604051620003cc919062000df7565b90815260200160405180910390206000820151816000019080519060200190620003f892919062000547565b506020820151816001015560408201518160020155606082015181600301559050506019828154811062000431576200043062000cb8565b5b9060005260206000200154600c60008282546200044f919062000e3f565b92505081905550508080620004649062000e9c565b91505062000272565b505050505050505062000eea565b600033905090565b60008060009054906101000a900473ffffffffffffffffffffffffffffffffffffffff169050816000806101000a81548173ffffffffffffffffffffffffffffffffffffffff021916908373ffffffffffffffffffffffffffffffffffffffff1602179055508173ffffffffffffffffffffffffffffffffffffffff168173ffffffffffffffffffffffffffffffffffffffff167f8be0079c531659141344cd1fd0a4f28419497f9722a3daafe3b4186f6b6457e060405160405180910390a35050565b828054620005559062000d16565b90600052602060002090601f016020900481019282620005795760008555620005c5565b82601f106200059457805160ff1916838001178555620005c5565b82800160010185558215620005c5579182015b82811115620005c4578251825591602001919060010190620005a7565b5b509050620005d4919062000691565b5090565b8280548282559060005260206000209081019282156200062c579160200282015b828111156200062b5782518290805190602001906200061a92919062000547565b5091602001919060010190620005f9565b5b5090506200063b9190620006b0565b5090565b8280548282559060005260206000209081019282156200067e579160200282015b828111156200067d57825182559160200191906001019062000660565b5b5090506200068d919062000691565b5090565b5b80821115620006ac57600081600090555060010162000692565b5090565b5b80821115620006d45760008181620006ca9190620006d8565b50600101620006b1565b5090565b508054620006e69062000d16565b6000825580601f10620006fa57506200071b565b601f0160209004906000526020600020908101906200071a919062000691565b5b50565b6000604051905090565b600080fd5b600080fd5b600080fd5b6000601f19601f8301169050919050565b7f4e487b7100000000000000000000000000000000000000000000000000000000600052604160045260246000fd5b620007828262000737565b810181811067ffffffffffffffff82111715620007a457620007a362000748565b5b80604052505050565b6000620007b96200071e565b9050620007c7828262000777565b919050565b600067ffffffffffffffff821115620007ea57620007e962000748565b5b602082029050602081019050919050565b600080fd5b600080fd5b600067ffffffffffffffff82111562000823576200082262000748565b5b6200082e8262000737565b9050602081019050919050565b60005b838110156200085b5780820151818401526020810190506200083e565b838111156200086b576000848401525b50505050565b600062000888620008828462000805565b620007ad565b905082815260208101848484011115620008a757620008a662000800565b5b620008b48482856200083b565b509392505050565b600082601f830112620008d457620008d362000732565b5b8151620008e684826020860162000871565b91505092915050565b6000620009066200090084620007cc565b620007ad565b905080838252602082019050602084028301858111156200092c576200092b620007fb565b5b835b818110156200097a57805167ffffffffffffffff81111562000955576200095462000732565b5b808601620009648982620008bc565b855260208501945050506020810190506200092e565b5050509392505050565b600082601f8301126200099c576200099b62000732565b5b8151620009ae848260208601620008ef565b91505092915050565b600067ffffffffffffffff821115620009d557620009d462000748565b5b602082029050602081019050919050565b6000819050919050565b620009fb81620009e6565b811462000a0757600080fd5b50565b60008151905062000a1b81620009f0565b92915050565b600062000a3862000a3284620009b7565b620007ad565b9050808382526020820190506020840283018581111562000a5e5762000a5d620007fb565b5b835b8181101562000a8b578062000a76888262000a0a565b84526020840193505060208101905062000a60565b5050509392505050565b600082601f83011262000aad5762000aac62000732565b5b815162000abf84826020860162000a21565b91505092915050565b600080600080600080600060e0888a03121562000aea5762000ae962000728565b5b600088015167ffffffffffffffff81111562000b0b5762000b0a6200072d565b5b62000b198a828b0162000984565b975050602088015167ffffffffffffffff81111562000b3d5762000b3c6200072d565b5b62000b4b8a828b0162000a95565b965050604088015167ffffffffffffffff81111562000b6f5762000b6e6200072d565b5b62000b7d8a828b0162000a95565b955050606088015167ffffffffffffffff81111562000ba15762000ba06200072d565b5b62000baf8a828b01620008bc565b945050608088015167ffffffffffffffff81111562000bd35762000bd26200072d565b5b62000be18a828b01620008bc565b93505060a062000bf48a828b0162000a0a565b92505060c088015167ffffffffffffffff81111562000c185762000c176200072d565b5b62000c268a828b01620008bc565b91505092959891949750929550565b600082825260208201905092915050565b7f506c65617365206b657920696e20616761696e00000000000000000000000000600082015250565b600062000c7e60138362000c35565b915062000c8b8262000c46565b602082019050919050565b6000602082019050818103600083015262000cb18162000c6f565b9050919050565b7f4e487b7100000000000000000000000000000000000000000000000000000000600052603260045260246000fd5b7f4e487b7100000000000000000000000000000000000000000000000000000000600052602260045260246000fd5b6000600282049050600182168062000d2f57607f821691505b6020821081141562000d465762000d4562000ce7565b5b50919050565b600081905092915050565b60008190508160005260206000209050919050565b6000815462000d7b8162000d16565b62000d87818662000d4c565b9450600182166000811462000da5576001811462000db75762000dee565b60ff1983168652818601935062000dee565b62000dc28562000d57565b60005b8381101562000de65781548189015260018201915060208101905062000dc5565b838801955050505b50505092915050565b600062000e05828462000d6c565b915081905092915050565b7f4e487b7100000000000000000000000000000000000000000000000000000000600052601160045260246000fd5b600062000e4c82620009e6565b915062000e5983620009e6565b9250827fffffffffffffffffffffffffffffffffffffffffffffffffffffffffffffffff0382111562000e915762000e9062000e10565b5b828201905092915050565b600062000ea982620009e6565b91507fffffffffffffffffffffffffffffffffffffffffffffffffffffffffffffffff82141562000edf5762000ede62000e10565b5b600182019050919050565b6147888062000efa6000396000f3fe60806040526004361061014b5760003560e01c80636352211e116100b6578063a22cb4651161006f578063a22cb465146104d3578063b88d4fde146104fc578063c87b56dd14610525578063e65d6b4914610562578063e985e9c51461058d578063f2fde38b146105ca5761014b565b80636352211e146103bc57806370a08231146103f9578063715018a6146104365780638aa0fdad1461044d5780638da5cb5b1461047d57806395d89b41146104a85761014b565b80632ce8d6fe116101085780632ce8d6fe146102885780633c73dae1146102b157806342842e0e146102da57806345527e3314610303578063581dc13914610342578063606b35c91461037f5761014b565b806301ffc9a71461015057806306fdde031461018d578063081812fc146101b8578063095ea7b3146101f557806323b872dd1461021e5780632622911914610247575b600080fd5b34801561015c57600080fd5b5061017760048036038101906101729190612d3c565b6105f3565b6040516101849190612d84565b60405180910390f35b34801561019957600080fd5b506101a26106d5565b6040516101af9190612e38565b60405180910390f35b3480156101c457600080fd5b506101df60048036038101906101da9190612e90565b610767565b6040516101ec9190612efe565b60405180910390f35b34801561020157600080fd5b5061021c60048036038101906102179190612f45565b6107ad565b005b34801561022a57600080fd5b5061024560048036038101906102409190612f85565b6108c5565b005b34801561025357600080fd5b5061026e60048036038101906102699190612e90565b610925565b60405161027f95949392919061311a565b60405180910390f35b34801561029457600080fd5b506102af60048036038101906102aa91906132a9565b610a62565b005b3480156102bd57600080fd5b506102d860048036038101906102d391906134ae565b610a70565b005b3480156102e657600080fd5b5061030160048036038101906102fc9190612f85565b610d6b565b005b34801561030f57600080fd5b5061032a60048036038101906103259190613555565b610d8b565b6040516103399392919061359e565b60405180910390f35b34801561034e57600080fd5b5061036960048036038101906103649190612e90565b610e03565b60405161037691906136cc565b60405180910390f35b34801561038b57600080fd5b506103a660048036038101906103a191906136ee565b610fe5565b6040516103b3919061371b565b60405180910390f35b3480156103c857600080fd5b506103e360048036038101906103de9190612e90565b610ffd565b6040516103f09190612efe565b60405180910390f35b34801561040557600080fd5b50610420600480360381019061041b91906136ee565b611084565b60405161042d919061371b565b60405180910390f35b34801561044257600080fd5b5061044b61113c565b005b61046760048036038101906104629190613736565b611150565b604051610474919061371b565b60405180910390f35b34801561048957600080fd5b506104926116dd565b60405161049f9190612efe565b60405180910390f35b3480156104b457600080fd5b506104bd611706565b6040516104ca9190612e38565b60405180910390f35b3480156104df57600080fd5b506104fa60048036038101906104f591906137da565b611798565b005b34801561050857600080fd5b50610523600480360381019061051e91906138bb565b6117ae565b005b34801561053157600080fd5b5061054c60048036038101906105479190612e90565b611810565b6040516105599190612e38565b60405180910390f35b34801561056e57600080fd5b50610577611923565b604051610584919061371b565b60405180910390f35b34801561059957600080fd5b506105b460048036038101906105af919061393e565b61192d565b6040516105c19190612d84565b60405180910390f35b3480156105d657600080fd5b506105f160048036038101906105ec91906136ee565b6119c1565b005b60007f80ac58cd000000000000000000000000000000000000000000000000000000007bffffffffffffffffffffffffffffffffffffffffffffffffffffffff1916827bffffffffffffffffffffffffffffffffffffffffffffffffffffffff191614806106be57507f5b5e139f000000000000000000000000000000000000000000000000000000007bffffffffffffffffffffffffffffffffffffffffffffffffffffffff1916827bffffffffffffffffffffffffffffffffffffffffffffffffffffffff1916145b806106ce57506106cd82611a45565b5b9050919050565b6060600280546106e4906139ad565b80601f0160208091040260200160405190810160405280929190818152602001828054610710906139ad565b801561075d5780601f106107325761010080835404028352916020019161075d565b820191906000526020600020905b81548152906001019060200180831161074057829003601f168201915b5050505050905090565b600061077282611aaf565b6006600083815260200190815260200160002060009054906101000a900473ffffffffffffffffffffffffffffffffffffffff169050919050565b60006107b882610ffd565b90508073ffffffffffffffffffffffffffffffffffffffff168373ffffffffffffffffffffffffffffffffffffffff161415610829576040517f08c379a000000000000000000000000000000000000000000000000000000000815260040161082090613a51565b60405180910390fd5b8073ffffffffffffffffffffffffffffffffffffffff16610848611afa565b73ffffffffffffffffffffffffffffffffffffffff161480610877575061087681610871611afa565b61192d565b5b6108b6576040517f08c379a00000000000000000000000000000000000000000000000000000000081526004016108ad90613ae3565b60405180910390fd5b6108c08383611b02565b505050565b6108d66108d0611afa565b82611bbb565b610915576040517f08c379a000000000000000000000000000000000000000000000000000000000815260040161090c90613b75565b60405180910390fd5b610920838383611c50565b505050565b60156020528060005260406000206000915090508060000160009054906101000a900473ffffffffffffffffffffffffffffffffffffffff16908060010160009054906101000a900473ffffffffffffffffffffffffffffffffffffffff1690806002016040518060800160405290816000820180546109a4906139ad565b80601f01602080910402602001604051908101604052809291908181526020018280546109d0906139ad565b8015610a1d5780601f106109f257610100808354040283529160200191610a1d565b820191906000526020600020905b815481529060010190602001808311610a0057829003601f168201915b505050505081526020016001820154815260200160028201548152602001600382015481525050908060060154908060070160009054906101000a900460ff16905085565b610a6c8282611f4a565b5050565b3373ffffffffffffffffffffffffffffffffffffffff16600a60009054906101000a900473ffffffffffffffffffffffffffffffffffffffff1673ffffffffffffffffffffffffffffffffffffffff1614610b00576040517f08c379a0000000000000000000000000000000000000000000000000000000008152600401610af790613be1565b60405180910390fd5b8151835114610b44576040517f08c379a0000000000000000000000000000000000000000000000000000000008152600401610b3b90613c4d565b60405180910390fd5b8051835114610b88576040517f08c379a0000000000000000000000000000000000000000000000000000000008152600401610b7f90613c4d565b60405180910390fd5b6000600c8190555060005b8351811015610d65576000604051806080016040528060178481548110610bbd57610bbc613c6d565b5b906000526020600020018054610bd2906139ad565b80601f0160208091040260200160405190810160405280929190818152602001828054610bfe906139ad565b8015610c4b5780601f10610c2057610100808354040283529160200191610c4b565b820191906000526020600020905b815481529060010190602001808311610c2e57829003601f168201915b5050505050815260200160188481548110610c6957610c68613c6d565b5b9060005260206000200154815260200160198481548110610c8d57610c8c613c6d565b5b906000526020600020015481526020016000815250905080601460178481548110610cbb57610cba613c6d565b5b90600052602060002001604051610cd29190613d3b565b90815260200160405180910390206000820151816000019080519060200190610cfc929190612b92565b50602082015181600101556040820151816002015560608201518160030155905050828281518110610d3157610d30613c6d565b5b6020026020010151600c6000828254610d4a9190613d81565b92505081905550508080610d5d90613dd7565b915050610b93565b50505050565b610d86838383604051806020016040528060008152506117ae565b505050565b6000806000601484604051610da09190613e51565b908152602001604051809103902060010154601485604051610dc29190613e51565b908152602001604051809103902060020154601486604051610de49190613e51565b9081526020016040518091039020600301549250925092509193909250565b610e0b612c18565b601560008381526020019081526020016000206040518060a00160405290816000820160009054906101000a900473ffffffffffffffffffffffffffffffffffffffff1673ffffffffffffffffffffffffffffffffffffffff1673ffffffffffffffffffffffffffffffffffffffff1681526020016001820160009054906101000a900473ffffffffffffffffffffffffffffffffffffffff1673ffffffffffffffffffffffffffffffffffffffff1673ffffffffffffffffffffffffffffffffffffffff16815260200160028201604051806080016040529081600082018054610ef5906139ad565b80601f0160208091040260200160405190810160405280929190818152602001828054610f21906139ad565b8015610f6e5780601f10610f4357610100808354040283529160200191610f6e565b820191906000526020600020905b815481529060010190602001808311610f5157829003601f168201915b5050505050815260200160018201548152602001600282015481526020016003820154815250508152602001600682015481526020016007820160009054906101000a900460ff166002811115610fc857610fc76130a3565b5b6002811115610fda57610fd96130a3565b5b815250509050919050565b60166020528060005260406000206000915090505481565b60008061100983611fbe565b9050600073ffffffffffffffffffffffffffffffffffffffff168173ffffffffffffffffffffffffffffffffffffffff16141561107b576040517f08c379a000000000000000000000000000000000000000000000000000000000815260040161107290613eb4565b60405180910390fd5b80915050919050565b60008073ffffffffffffffffffffffffffffffffffffffff168273ffffffffffffffffffffffffffffffffffffffff1614156110f5576040517f08c379a00000000000000000000000000000000000000000000000000000000081526004016110ec90613f46565b60405180910390fd5b600560008373ffffffffffffffffffffffffffffffffffffffff1673ffffffffffffffffffffffffffffffffffffffff168152602001908152602001600020549050919050565b611144611ffb565b61114e6000612079565b565b60007fdf28233119131a4745ee55a92f58d58acfd14491139b562f3182d7c1928a6e82336040516111819190612efe565b60405180910390a1601054601660003373ffffffffffffffffffffffffffffffffffffffff1673ffffffffffffffffffffffffffffffffffffffff168152602001908152602001600020541061120c576040517f08c379a000000000000000000000000000000000000000000000000000000000815260040161120390613fb2565b60405180910390fd5b60148360405161121c9190613e51565b90815260200160405180910390206002015460148460405161123e9190613e51565b90815260200160405180910390206003015410611290576040517f08c379a00000000000000000000000000000000000000000000000000000000081526004016112879061401e565b60405180910390fd5b6064600e5461129f919061406d565b60016112ab9190613d81565b6014846040516112bb9190613e51565b9081526020016040518091039020600101546112d7919061409e565b341015611319576040517f08c379a000000000000000000000000000000000000000000000000000000000815260040161131090614144565b60405180910390fd5b600160148460405161132b9190613e51565b9081526020016040518091039020600301546113479190613d81565b6014846040516113579190613e51565b90815260200160405180910390206003018190555060006040518060a00160405280600a60009054906101000a900473ffffffffffffffffffffffffffffffffffffffff1673ffffffffffffffffffffffffffffffffffffffff1681526020013373ffffffffffffffffffffffffffffffffffffffff1681526020016014866040516113e39190613e51565b908152602001604051809103902060405180608001604052908160008201805461140c906139ad565b80601f0160208091040260200160405190810160405280929190818152602001828054611438906139ad565b80156114855780601f1061145a57610100808354040283529160200191611485565b820191906000526020600020905b81548152906001019060200180831161146857829003601f168201915b50505050508152602001600182015481526020016002820154815260200160038201548152505081526020016014866040516114c19190613e51565b9081526020016040518091039020600101548152602001600160028111156114ec576114eb6130a3565b5b81525090506114fb600961213d565b60006115076009612153565b90506115133382612161565b61151d8185611f4a565b6001601660003373ffffffffffffffffffffffffffffffffffffffff1673ffffffffffffffffffffffffffffffffffffffff168152602001908152602001600020600082825461156d9190613d81565b92505081905550816015600083815260200190815260200160002060008201518160000160006101000a81548173ffffffffffffffffffffffffffffffffffffffff021916908373ffffffffffffffffffffffffffffffffffffffff16021790555060208201518160010160006101000a81548173ffffffffffffffffffffffffffffffffffffffff021916908373ffffffffffffffffffffffffffffffffffffffff160217905550604082015181600201600082015181600001908051906020019061163b929190612b92565b5060208201518160010155604082015181600201556060820151816003015550506060820151816006015560808201518160070160006101000a81548160ff02191690836002811115611691576116906130a3565b5b02179055509050507ff0ce1ef64bad0f76f660612c4a72b07b4c9c1cb7dbe50d6335107f1ebf407d2281336040516116ca929190614164565b60405180910390a1809250505092915050565b60008060009054906101000a900473ffffffffffffffffffffffffffffffffffffffff16905090565b606060038054611715906139ad565b80601f0160208091040260200160405190810160405280929190818152602001828054611741906139ad565b801561178e5780601f106117635761010080835404028352916020019161178e565b820191906000526020600020905b81548152906001019060200180831161177157829003601f168201915b5050505050905090565b6117aa6117a3611afa565b838361217f565b5050565b6117bf6117b9611afa565b83611bbb565b6117fe576040517f08c379a00000000000000000000000000000000000000000000000000000000081526004016117f590613b75565b60405180910390fd5b61180a848484846122ec565b50505050565b606061181b82611aaf565b600060086000848152602001908152602001600020805461183b906139ad565b80601f0160208091040260200160405190810160405280929190818152602001828054611867906139ad565b80156118b45780601f10611889576101008083540402835291602001916118b4565b820191906000526020600020905b81548152906001019060200180831161189757829003601f168201915b5050505050905060006118c5612348565b90506000815114156118db57819250505061191e565b6000825111156119105780826040516020016118f892919061418d565b6040516020818303038152906040529250505061191e565b6119198461235f565b925050505b919050565b6000600e54905090565b6000600760008473ffffffffffffffffffffffffffffffffffffffff1673ffffffffffffffffffffffffffffffffffffffff16815260200190815260200160002060008373ffffffffffffffffffffffffffffffffffffffff1673ffffffffffffffffffffffffffffffffffffffff16815260200190815260200160002060009054906101000a900460ff16905092915050565b6119c9611ffb565b600073ffffffffffffffffffffffffffffffffffffffff168173ffffffffffffffffffffffffffffffffffffffff161415611a39576040517f08c379a0000000000000000000000000000000000000000000000000000000008152600401611a3090614223565b60405180910390fd5b611a4281612079565b50565b60007f01ffc9a7000000000000000000000000000000000000000000000000000000007bffffffffffffffffffffffffffffffffffffffffffffffffffffffff1916827bffffffffffffffffffffffffffffffffffffffffffffffffffffffff1916149050919050565b611ab8816123c7565b611af7576040517f08c379a0000000000000000000000000000000000000000000000000000000008152600401611aee90613eb4565b60405180910390fd5b50565b600033905090565b816006600083815260200190815260200160002060006101000a81548173ffffffffffffffffffffffffffffffffffffffff021916908373ffffffffffffffffffffffffffffffffffffffff160217905550808273ffffffffffffffffffffffffffffffffffffffff16611b7583610ffd565b73ffffffffffffffffffffffffffffffffffffffff167f8c5be1e5ebec7d5bd14f71427d1e84f3dd0314c0f7b2291e5b200ac8c7c3b92560405160405180910390a45050565b600080611bc783610ffd565b90508073ffffffffffffffffffffffffffffffffffffffff168473ffffffffffffffffffffffffffffffffffffffff161480611c095750611c08818561192d565b5b80611c4757508373ffffffffffffffffffffffffffffffffffffffff16611c2f84610767565b73ffffffffffffffffffffffffffffffffffffffff16145b91505092915050565b8273ffffffffffffffffffffffffffffffffffffffff16611c7082610ffd565b73ffffffffffffffffffffffffffffffffffffffff1614611cc6576040517f08c379a0000000000000000000000000000000000000000000000000000000008152600401611cbd906142b5565b60405180910390fd5b600073ffffffffffffffffffffffffffffffffffffffff168273ffffffffffffffffffffffffffffffffffffffff161415611d36576040517f08c379a0000000000000000000000000000000000000000000000000000000008152600401611d2d90614347565b60405180910390fd5b611d438383836001612408565b8273ffffffffffffffffffffffffffffffffffffffff16611d6382610ffd565b73ffffffffffffffffffffffffffffffffffffffff1614611db9576040517f08c379a0000000000000000000000000000000000000000000000000000000008152600401611db0906142b5565b60405180910390fd5b6006600082815260200190815260200160002060006101000a81549073ffffffffffffffffffffffffffffffffffffffff02191690556001600560008573ffffffffffffffffffffffffffffffffffffffff1673ffffffffffffffffffffffffffffffffffffffff168152602001908152602001600020600082825403925050819055506001600560008473ffffffffffffffffffffffffffffffffffffffff1673ffffffffffffffffffffffffffffffffffffffff16815260200190815260200160002060008282540192505081905550816004600083815260200190815260200160002060006101000a81548173ffffffffffffffffffffffffffffffffffffffff021916908373ffffffffffffffffffffffffffffffffffffffff160217905550808273ffffffffffffffffffffffffffffffffffffffff168473ffffffffffffffffffffffffffffffffffffffff167fddf252ad1be2c89b69c2b068fc378daa952ba7f163c4a11628f55a4df523b3ef60405160405180910390a4611f45838383600161252e565b505050565b611f53826123c7565b611f92576040517f08c379a0000000000000000000000000000000000000000000000000000000008152600401611f89906143d9565b60405180910390fd5b80600860008481526020019081526020016000209080519060200190611fb9929190612b92565b505050565b60006004600083815260200190815260200160002060009054906101000a900473ffffffffffffffffffffffffffffffffffffffff169050919050565b612003611afa565b73ffffffffffffffffffffffffffffffffffffffff166120216116dd565b73ffffffffffffffffffffffffffffffffffffffff1614612077576040517f08c379a000000000000000000000000000000000000000000000000000000000815260040161206e90614445565b60405180910390fd5b565b60008060009054906101000a900473ffffffffffffffffffffffffffffffffffffffff169050816000806101000a81548173ffffffffffffffffffffffffffffffffffffffff021916908373ffffffffffffffffffffffffffffffffffffffff1602179055508173ffffffffffffffffffffffffffffffffffffffff168173ffffffffffffffffffffffffffffffffffffffff167f8be0079c531659141344cd1fd0a4f28419497f9722a3daafe3b4186f6b6457e060405160405180910390a35050565b6001816000016000828254019250508190555050565b600081600001549050919050565b61217b828260405180602001604052806000815250612534565b5050565b8173ffffffffffffffffffffffffffffffffffffffff168373ffffffffffffffffffffffffffffffffffffffff1614156121ee576040517f08c379a00000000000000000000000000000000000000000000000000000000081526004016121e5906144b1565b60405180910390fd5b80600760008573ffffffffffffffffffffffffffffffffffffffff1673ffffffffffffffffffffffffffffffffffffffff16815260200190815260200160002060008473ffffffffffffffffffffffffffffffffffffffff1673ffffffffffffffffffffffffffffffffffffffff16815260200190815260200160002060006101000a81548160ff0219169083151502179055508173ffffffffffffffffffffffffffffffffffffffff168373ffffffffffffffffffffffffffffffffffffffff167f17307eab39ab6107e8899845ad3d59bd9653f200f220920489ca2b5937696c31836040516122df9190612d84565b60405180910390a3505050565b6122f7848484611c50565b6123038484848461258f565b612342576040517f08c379a000000000000000000000000000000000000000000000000000000000815260040161233990614543565b60405180910390fd5b50505050565b606060405180602001604052806000815250905090565b606061236a82611aaf565b6000612374612348565b9050600081511161239457604051806020016040528060008152506123bf565b8061239e84612726565b6040516020016123af92919061418d565b6040516020818303038152906040525b915050919050565b60008073ffffffffffffffffffffffffffffffffffffffff166123e983611fbe565b73ffffffffffffffffffffffffffffffffffffffff1614159050919050565b600181111561252857600073ffffffffffffffffffffffffffffffffffffffff168473ffffffffffffffffffffffffffffffffffffffff161461249c5780600560008673ffffffffffffffffffffffffffffffffffffffff1673ffffffffffffffffffffffffffffffffffffffff16815260200190815260200160002060008282546124949190614563565b925050819055505b600073ffffffffffffffffffffffffffffffffffffffff168373ffffffffffffffffffffffffffffffffffffffff16146125275780600560008573ffffffffffffffffffffffffffffffffffffffff1673ffffffffffffffffffffffffffffffffffffffff168152602001908152602001600020600082825461251f9190613d81565b925050819055505b5b50505050565b50505050565b61253e83836127fe565b61254b600084848461258f565b61258a576040517f08c379a000000000000000000000000000000000000000000000000000000000815260040161258190614543565b60405180910390fd5b505050565b60006125b08473ffffffffffffffffffffffffffffffffffffffff16612a1c565b15612719578373ffffffffffffffffffffffffffffffffffffffff1663150b7a026125d9611afa565b8786866040518563ffffffff1660e01b81526004016125fb94939291906145ec565b602060405180830381600087803b15801561261557600080fd5b505af192505050801561264657506040513d601f19601f82011682018060405250810190612643919061464d565b60015b6126c9573d8060008114612676576040519150601f19603f3d011682016040523d82523d6000602084013e61267b565b606091505b506000815114156126c1576040517f08c379a00000000000000000000000000000000000000000000000000000000081526004016126b890614543565b60405180910390fd5b805181602001fd5b63150b7a0260e01b7bffffffffffffffffffffffffffffffffffffffffffffffffffffffff1916817bffffffffffffffffffffffffffffffffffffffffffffffffffffffff19161491505061271e565b600190505b949350505050565b60606000600161273584612a3f565b01905060008167ffffffffffffffff8111156127545761275361317e565b5b6040519080825280601f01601f1916602001820160405280156127865781602001600182028036833780820191505090505b509050600082602001820190505b6001156127f3578080600190039150507f3031323334353637383961626364656600000000000000000000000000000000600a86061a8153600a85816127dd576127dc61403e565b5b04945060008514156127ee576127f3565b612794565b819350505050919050565b600073ffffffffffffffffffffffffffffffffffffffff168273ffffffffffffffffffffffffffffffffffffffff16141561286e576040517f08c379a0000000000000000000000000000000000000000000000000000000008152600401612865906146c6565b60405180910390fd5b612877816123c7565b156128b7576040517f08c379a00000000000000000000000000000000000000000000000000000000081526004016128ae90614732565b60405180910390fd5b6128c5600083836001612408565b6128ce816123c7565b1561290e576040517f08c379a000000000000000000000000000000000000000000000000000000000815260040161290590614732565b60405180910390fd5b6001600560008473ffffffffffffffffffffffffffffffffffffffff1673ffffffffffffffffffffffffffffffffffffffff16815260200190815260200160002060008282540192505081905550816004600083815260200190815260200160002060006101000a81548173ffffffffffffffffffffffffffffffffffffffff021916908373ffffffffffffffffffffffffffffffffffffffff160217905550808273ffffffffffffffffffffffffffffffffffffffff16600073ffffffffffffffffffffffffffffffffffffffff167fddf252ad1be2c89b69c2b068fc378daa952ba7f163c4a11628f55a4df523b3ef60405160405180910390a4612a1860008383600161252e565b5050565b6000808273ffffffffffffffffffffffffffffffffffffffff163b119050919050565b600080600090507a184f03e93ff9f4daa797ed6e38ed64bf6a1f0100000000000000008310612a9d577a184f03e93ff9f4daa797ed6e38ed64bf6a1f0100000000000000008381612a9357612a9261403e565b5b0492506040810190505b6d04ee2d6d415b85acef81000000008310612ada576d04ee2d6d415b85acef81000000008381612ad057612acf61403e565b5b0492506020810190505b662386f26fc100008310612b0957662386f26fc100008381612aff57612afe61403e565b5b0492506010810190505b6305f5e1008310612b32576305f5e1008381612b2857612b2761403e565b5b0492506008810190505b6127108310612b57576127108381612b4d57612b4c61403e565b5b0492506004810190505b60648310612b7a5760648381612b7057612b6f61403e565b5b0492506002810190505b600a8310612b89576001810190505b80915050919050565b828054612b9e906139ad565b90600052602060002090601f016020900481019282612bc05760008555612c07565b82601f10612bd957805160ff1916838001178555612c07565b82800160010185558215612c07579182015b82811115612c06578251825591602001919060010190612beb565b5b509050612c149190612c8b565b5090565b6040518060a00160405280600073ffffffffffffffffffffffffffffffffffffffff168152602001600073ffffffffffffffffffffffffffffffffffffffff168152602001612c65612ca8565b81526020016000815260200160006002811115612c8557612c846130a3565b5b81525090565b5b80821115612ca4576000816000905550600101612c8c565b5090565b6040518060800160405280606081526020016000815260200160008152602001600081525090565b6000604051905090565b600080fd5b600080fd5b60007fffffffff0000000000000000000000000000000000000000000000000000000082169050919050565b612d1981612ce4565b8114612d2457600080fd5b50565b600081359050612d3681612d10565b92915050565b600060208284031215612d5257612d51612cda565b5b6000612d6084828501612d27565b91505092915050565b60008115159050919050565b612d7e81612d69565b82525050565b6000602082019050612d996000830184612d75565b92915050565b600081519050919050565b600082825260208201905092915050565b60005b83811015612dd9578082015181840152602081019050612dbe565b83811115612de8576000848401525b50505050565b6000601f19601f8301169050919050565b6000612e0a82612d9f565b612e148185612daa565b9350612e24818560208601612dbb565b612e2d81612dee565b840191505092915050565b60006020820190508181036000830152612e528184612dff565b905092915050565b6000819050919050565b612e6d81612e5a565b8114612e7857600080fd5b50565b600081359050612e8a81612e64565b92915050565b600060208284031215612ea657612ea5612cda565b5b6000612eb484828501612e7b565b91505092915050565b600073ffffffffffffffffffffffffffffffffffffffff82169050919050565b6000612ee882612ebd565b9050919050565b612ef881612edd565b82525050565b6000602082019050612f136000830184612eef565b92915050565b612f2281612edd565b8114612f2d57600080fd5b50565b600081359050612f3f81612f19565b92915050565b60008060408385031215612f5c57612f5b612cda565b5b6000612f6a85828601612f30565b9250506020612f7b85828601612e7b565b9150509250929050565b600080600060608486031215612f9e57612f9d612cda565b5b6000612fac86828701612f30565b9350506020612fbd86828701612f30565b9250506040612fce86828701612e7b565b9150509250925092565b600082825260208201905092915050565b6000612ff482612d9f565b612ffe8185612fd8565b935061300e818560208601612dbb565b61301781612dee565b840191505092915050565b61302b81612e5a565b82525050565b6000608083016000830151848203600086015261304e8282612fe9565b91505060208301516130636020860182613022565b5060408301516130766040860182613022565b5060608301516130896060860182613022565b508091505092915050565b61309d81612e5a565b82525050565b7f4e487b7100000000000000000000000000000000000000000000000000000000600052602160045260246000fd5b600381106130e3576130e26130a3565b5b50565b60008190506130f4826130d2565b919050565b6000613104826130e6565b9050919050565b613114816130f9565b82525050565b600060a08201905061312f6000830188612eef565b61313c6020830187612eef565b818103604083015261314e8186613031565b905061315d6060830185613094565b61316a608083018461310b565b9695505050505050565b600080fd5b600080fd5b7f4e487b7100000000000000000000000000000000000000000000000000000000600052604160045260246000fd5b6131b682612dee565b810181811067ffffffffffffffff821117156131d5576131d461317e565b5b80604052505050565b60006131e8612cd0565b90506131f482826131ad565b919050565b600067ffffffffffffffff8211156132145761321361317e565b5b61321d82612dee565b9050602081019050919050565b82818337600083830152505050565b600061324c613247846131f9565b6131de565b90508281526020810184848401111561326857613267613179565b5b61327384828561322a565b509392505050565b600082601f8301126132905761328f613174565b5b81356132a0848260208601613239565b91505092915050565b600080604083850312156132c0576132bf612cda565b5b60006132ce85828601612e7b565b925050602083013567ffffffffffffffff8111156132ef576132ee612cdf565b5b6132fb8582860161327b565b9150509250929050565b600067ffffffffffffffff8211156133205761331f61317e565b5b602082029050602081019050919050565b600080fd5b600061334961334484613305565b6131de565b9050808382526020820190506020840283018581111561336c5761336b613331565b5b835b818110156133b357803567ffffffffffffffff81111561339157613390613174565b5b80860161339e898261327b565b8552602085019450505060208101905061336e565b5050509392505050565b600082601f8301126133d2576133d1613174565b5b81356133e2848260208601613336565b91505092915050565b600067ffffffffffffffff8211156134065761340561317e565b5b602082029050602081019050919050565b600061342a613425846133eb565b6131de565b9050808382526020820190506020840283018581111561344d5761344c613331565b5b835b8181101561347657806134628882612e7b565b84526020840193505060208101905061344f565b5050509392505050565b600082601f83011261349557613494613174565b5b81356134a5848260208601613417565b91505092915050565b6000806000606084860312156134c7576134c6612cda565b5b600084013567ffffffffffffffff8111156134e5576134e4612cdf565b5b6134f1868287016133bd565b935050602084013567ffffffffffffffff81111561351257613511612cdf565b5b61351e86828701613480565b925050604084013567ffffffffffffffff81111561353f5761353e612cdf565b5b61354b86828701613480565b9150509250925092565b60006020828403121561356b5761356a612cda565b5b600082013567ffffffffffffffff81111561358957613588612cdf565b5b6135958482850161327b565b91505092915050565b60006060820190506135b36000830186613094565b6135c06020830185613094565b6135cd6040830184613094565b949350505050565b6135de81612edd565b82525050565b600060808301600083015184820360008601526136018282612fe9565b91505060208301516136166020860182613022565b5060408301516136296040860182613022565b50606083015161363c6060860182613022565b508091505092915050565b613650816130f9565b82525050565b600060a08301600083015161366e60008601826135d5565b50602083015161368160208601826135d5565b506040830151848203604086015261369982826135e4565b91505060608301516136ae6060860182613022565b5060808301516136c16080860182613647565b508091505092915050565b600060208201905081810360008301526136e68184613656565b905092915050565b60006020828403121561370457613703612cda565b5b600061371284828501612f30565b91505092915050565b60006020820190506137306000830184613094565b92915050565b6000806040838503121561374d5761374c612cda565b5b600083013567ffffffffffffffff81111561376b5761376a612cdf565b5b6137778582860161327b565b925050602083013567ffffffffffffffff81111561379857613797612cdf565b5b6137a48582860161327b565b9150509250929050565b6137b781612d69565b81146137c257600080fd5b50565b6000813590506137d4816137ae565b92915050565b600080604083850312156137f1576137f0612cda565b5b60006137ff85828601612f30565b9250506020613810858286016137c5565b9150509250929050565b600067ffffffffffffffff8211156138355761383461317e565b5b61383e82612dee565b9050602081019050919050565b600061385e6138598461381a565b6131de565b90508281526020810184848401111561387a57613879613179565b5b61388584828561322a565b509392505050565b600082601f8301126138a2576138a1613174565b5b81356138b284826020860161384b565b91505092915050565b600080600080608085870312156138d5576138d4612cda565b5b60006138e387828801612f30565b94505060206138f487828801612f30565b935050604061390587828801612e7b565b925050606085013567ffffffffffffffff81111561392657613925612cdf565b5b6139328782880161388d565b91505092959194509250565b6000806040838503121561395557613954612cda565b5b600061396385828601612f30565b925050602061397485828601612f30565b9150509250929050565b7f4e487b7100000000000000000000000000000000000000000000000000000000600052602260045260246000fd5b600060028204905060018216806139c557607f821691505b602082108114156139d9576139d861397e565b5b50919050565b7f4552433732313a20617070726f76616c20746f2063757272656e74206f776e6560008201527f7200000000000000000000000000000000000000000000000000000000000000602082015250565b6000613a3b602183612daa565b9150613a46826139df565b604082019050919050565b60006020820190508181036000830152613a6a81613a2e565b9050919050565b7f4552433732313a20617070726f76652063616c6c6572206973206e6f7420746f60008201527f6b656e206f776e6572206f7220617070726f76656420666f7220616c6c000000602082015250565b6000613acd603d83612daa565b9150613ad882613a71565b604082019050919050565b60006020820190508181036000830152613afc81613ac0565b9050919050565b7f4552433732313a2063616c6c6572206973206e6f7420746f6b656e206f776e6560008201527f72206f7220617070726f76656400000000000000000000000000000000000000602082015250565b6000613b5f602d83612daa565b9150613b6a82613b03565b604082019050919050565b60006020820190508181036000830152613b8e81613b52565b9050919050565b7f4e6f7420617574686f72697a656420746f2061646a7573742073616c65000000600082015250565b6000613bcb601d83612daa565b9150613bd682613b95565b602082019050919050565b60006020820190508181036000830152613bfa81613bbe565b9050919050565b7f506c65617365206b657920696e20616761696e00000000000000000000000000600082015250565b6000613c37601383612daa565b9150613c4282613c01565b602082019050919050565b60006020820190508181036000830152613c6681613c2a565b9050919050565b7f4e487b7100000000000000000000000000000000000000000000000000000000600052603260045260246000fd5b600081905092915050565b60008190508160005260206000209050919050565b60008154613cc9816139ad565b613cd38186613c9c565b94506001821660008114613cee5760018114613cff57613d32565b60ff19831686528186019350613d32565b613d0885613ca7565b60005b83811015613d2a57815481890152600182019150602081019050613d0b565b838801955050505b50505092915050565b6000613d478284613cbc565b915081905092915050565b7f4e487b7100000000000000000000000000000000000000000000000000000000600052601160045260246000fd5b6000613d8c82612e5a565b9150613d9783612e5a565b9250827fffffffffffffffffffffffffffffffffffffffffffffffffffffffffffffffff03821115613dcc57613dcb613d52565b5b828201905092915050565b6000613de282612e5a565b91507fffffffffffffffffffffffffffffffffffffffffffffffffffffffffffffffff821415613e1557613e14613d52565b5b600182019050919050565b6000613e2b82612d9f565b613e358185613c9c565b9350613e45818560208601612dbb565b80840191505092915050565b6000613e5d8284613e20565b915081905092915050565b7f4552433732313a20696e76616c696420746f6b656e2049440000000000000000600082015250565b6000613e9e601883612daa565b9150613ea982613e68565b602082019050919050565b60006020820190508181036000830152613ecd81613e91565b9050919050565b7f4552433732313a2061646472657373207a65726f206973206e6f74206120766160008201527f6c6964206f776e65720000000000000000000000000000000000000000000000602082015250565b6000613f30602983612daa565b9150613f3b82613ed4565b604082019050919050565b60006020820190508181036000830152613f5f81613f23565b9050919050565b7f4578636565646564204d6178204d696e74696e67000000000000000000000000600082015250565b6000613f9c601483612daa565b9150613fa782613f66565b602082019050919050565b60006020820190508181036000830152613fcb81613f8f565b9050919050565b7f45786365656465642043617465676f7279206d696e74696e6700000000000000600082015250565b6000614008601983612daa565b915061401382613fd2565b602082019050919050565b6000602082019050818103600083015261403781613ffb565b9050919050565b7f4e487b7100000000000000000000000000000000000000000000000000000000600052601260045260246000fd5b600061407882612e5a565b915061408383612e5a565b9250826140935761409261403e565b5b828204905092915050565b60006140a982612e5a565b91506140b483612e5a565b9250817fffffffffffffffffffffffffffffffffffffffffffffffffffffffffffffffff04831182151516156140ed576140ec613d52565b5b828202905092915050565b7f4e6f7420656e6f75676820455448000000000000000000000000000000000000600082015250565b600061412e600e83612daa565b9150614139826140f8565b602082019050919050565b6000602082019050818103600083015261415d81614121565b9050919050565b60006040820190506141796000830185613094565b6141866020830184612eef565b9392505050565b60006141998285613e20565b91506141a58284613e20565b91508190509392505050565b7f4f776e61626c653a206e6577206f776e657220697320746865207a65726f206160008201527f6464726573730000000000000000000000000000000000000000000000000000602082015250565b600061420d602683612daa565b9150614218826141b1565b604082019050919050565b6000602082019050818103600083015261423c81614200565b9050919050565b7f4552433732313a207472616e736665722066726f6d20696e636f72726563742060008201527f6f776e6572000000000000000000000000000000000000000000000000000000602082015250565b600061429f602583612daa565b91506142aa82614243565b604082019050919050565b600060208201905081810360008301526142ce81614292565b9050919050565b7f4552433732313a207472616e7366657220746f20746865207a65726f2061646460008201527f7265737300000000000000000000000000000000000000000000000000000000602082015250565b6000614331602483612daa565b915061433c826142d5565b604082019050919050565b6000602082019050818103600083015261436081614324565b9050919050565b7f45524337323155524953746f726167653a2055524920736574206f66206e6f6e60008201527f6578697374656e7420746f6b656e000000000000000000000000000000000000602082015250565b60006143c3602e83612daa565b91506143ce82614367565b604082019050919050565b600060208201905081810360008301526143f2816143b6565b9050919050565b7f4f776e61626c653a2063616c6c6572206973206e6f7420746865206f776e6572600082015250565b600061442f602083612daa565b915061443a826143f9565b602082019050919050565b6000602082019050818103600083015261445e81614422565b9050919050565b7f4552433732313a20617070726f766520746f2063616c6c657200000000000000600082015250565b600061449b601983612daa565b91506144a682614465565b602082019050919050565b600060208201905081810360008301526144ca8161448e565b9050919050565b7f4552433732313a207472616e7366657220746f206e6f6e20455243373231526560008201527f63656976657220696d706c656d656e7465720000000000000000000000000000602082015250565b600061452d603283612daa565b9150614538826144d1565b604082019050919050565b6000602082019050818103600083015261455c81614520565b9050919050565b600061456e82612e5a565b915061457983612e5a565b92508282101561458c5761458b613d52565b5b828203905092915050565b600081519050919050565b600082825260208201905092915050565b60006145be82614597565b6145c881856145a2565b93506145d8818560208601612dbb565b6145e181612dee565b840191505092915050565b60006080820190506146016000830187612eef565b61460e6020830186612eef565b61461b6040830185613094565b818103606083015261462d81846145b3565b905095945050505050565b60008151905061464781612d10565b92915050565b60006020828403121561466357614662612cda565b5b600061467184828501614638565b91505092915050565b7f4552433732313a206d696e7420746f20746865207a65726f2061646472657373600082015250565b60006146b0602083612daa565b91506146bb8261467a565b602082019050919050565b600060208201905081810360008301526146df816146a3565b9050919050565b7f4552433732313a20746f6b656e20616c7265616479206d696e74656400000000600082015250565b600061471c601c83612daa565b9150614727826146e6565b602082019050919050565b6000602082019050818103600083015261474b8161470f565b905091905056fea264697066735822122027b42398934b165ecd17fe4b016d73612df6a2631f913096f051917b0bfd71d364736f6c63430008090033",
  "linkReferences": {},
  "deployedLinkReferences": {}
}